:10100000E03F00028D110000D92C0000E92C000007
:10101000F92C0000092D0000192D0000B6CDFEFDB1
:10102000000000000000000000000000A15C0000C3
:101030005111000000000000015D0000455D00004E
:101040005D1100005D1100005D1100005D110000E8
:101050005D1100005D1100005D110000A15E000047
:10106000C55E0000E95E00000D5F0000315F00001A
:10107000555F0000795F00009D5F00005D1100007A
:101080005D1100005D1100005D1100005D110000A8
:101090005D1100005D1100005D1100005D11000098
:1010A0005D1100005D1100005D110000E9630000AA
:1010B0005D1100005D1100005D1100005D11000078
:1010C0005D1100005D1100005D1100005D11000068
:1010D0005D1100005D1100005D1100005D11000058
:1010E0005D1100005D1100005D1100005D11000048
:1010F0005D1100005D1100005D110000B07B00007B
:1011000000000002B0000000B07B000000400002C0
:1011100000000000B07B0000008000020000000022
:10112000B0000002002A00000040000200000000A1
:101130000080000200000000FEE700BFFEE700BFE5
:10114000FEE700BFFEE700BFFEE700BFFEE700BF0F
:10115000FEE700BFFEE700BFFEE700BFFEE700BFFF
:1011600010B4002304E004680C600433043004313C
:101170009342F8D310BC7047002303E000220260C2
:10118000043304308B42F9D3704700BF10B50F4BC6
:1011900007E003F10C049A6859681868FFF7E0FF4C
:1011A00023460B4A9342F4D306E01C46596854F890
:1011B000080BFFF7E1FF2346064A9342F5D30122CD
:1011C000054B1A6000F00CFBFEE700BFFC100000AE
:1011D0002011000038110000D8400740FFFFFFFF3A
:1011E000FFFFFFFFFFFFFFFFFFFFFFFFFFFFFFFF0F
:1011F000FFFFFFFFFFFFFFFFFFFFFFFFFFFFFFFFFF
:10120000FFFFFFFFFFFFFFFFFFFFFFFFFFFFFFFFEE
:10121000FFFFFFFFFFFFFFFFFFFFFFFFFFFFFFFFDE
:10122000FFFFFFFFFFFFFFFFFFFFFFFFFFFFFFFFCE
:10123000FFFFFFFFFFFFFFFFFFFFFFFFFFFFFFFFBE
:10124000FFFFFFFFFFFFFFFFFFFFFFFFFFFFFFFFAE
:10125000FFFFFFFFFFFFFFFFFFFFFFFFFFFFFFFF9E
:10126000FFFFFFFFFFFFFFFFFFFFFFFFFFFFFFFF8E
:10127000FFFFFFFFFFFFFFFFFFFFFFFFFFFFFFFF7E
:10128000FFFFFFFFFFFFFFFFFFFFFFFFFFFFFFFF6E
:10129000FFFFFFFFFFFFFFFFFFFFFFFFFFFFFFFF5E
:1012A000FFFFFFFFFFFFFFFFFFFFFFFFFFFFFFFF4E
:1012B000FFFFFFFFFFFFFFFFFFFFFFFFFFFFFFFF3E
:1012C000FFFFFFFFFFFFFFFFFFFFFFFFFFFFFFFF2E
:1012D000FFFFFFFFFFFFFFFFFFFFFFFFFFFFFFFF1E
:1012E000FFFFFFFFFFFFFFFFFFFFFFFFFFFFFFFF0E
:1012F000FFFFFFFFFFFFFFFFFFFFFFFFFFFFFFFFFE
:1013000038B504464FF400430380438000258571BF
:10131000C5716421083001F0CDFB01234FF48052E8
:101320004FF4005104F1280001F0E6FB2B464FF486
:1013300080524FF4704104F1400001F0DDFB642164
:1013400004F1180001F0B6FB01234FF480524FF472
:10135000005104F1340001F0CFFB2B464FF48052D2
:101360004FF4704104F14C0001F0C6FB38BD00BFE2
:10137000F8B50446C379012B7FD1FFF7C1FFF8BD53
:1013800035463001083034F81610204401F098FB3F
:10139000731C04EB03135968002900DAFF3105EBD5
:1013A0004503980028300912204401F0ABFB6B1C68
:1013B00004EB03135968002900DAFF316F007B1931
:1013C000980040300912204401F09CFB2F44BB00E0
:1013D000234493F8483033B905EB45029300234486
:1013E00093F830305BB1E379022B05D02E4A4FF4ED
:1013F0007F40002104F00CFC0223E37141E034F84B
:101400001500B0F5084F10D94FF465424FF408416C
:1014100001F030FC00FB00F0244B83FB0023C017DD
:10142000C0EBE31000F5FA7013E0B0F5F04F0ED208
:101430004FF4F0424FF4D05101F01CFC00FB00F0DF
:101440001A4B83FB0023C017C0EBE31001E04FF4FD
:10145000FA70B0F57A7F02DC002804DA02E04FF47B
:101460007A7000E000207F226FF07F0101F0F2FB34
:10147000254428710136F6B200E00026012E7FF6E1
:101480007FAF94F9040005F0BDFD054694F9050011
:1014900005F0B8FD854202DA94F9043001E094F9D0
:1014A0000530A371F8BD00BF0E000900D34D6210D6
:1014B00000B583B0827F90F88A30B0F908010090BF
:1014C000024801F06BFD03B05DF804FBD87000002A
:1014D00010B50F4801F062FD0E4C21880E4801F056
:1014E0005DFD0E4904F58270FFF7E2FF0C4904F53B
:1014F0000870FFF7DDFF0B4904F54B70FFF7D8FFCD
:10150000B4F85C2494F85E14074801F047FD10BD60
:1015100004710000B0000002147100002C71000082
:10152000347100003C7100004471000008B512B134
:101530001A79022A03D0044801F030FD08BD196869
:10154000024801F02BFD08BD687100008C7100009D
:101550000D2070470220704708B5024800F016FDC4
:1015600008BD00BFB800000210B502E0012000F085
:10157000BDFA0C4B1B78002BF8D00B4C022104F564
:10158000827001F037FF022104F5087001F032FF8C
:10159000022104F54B7001F02DFF022000F0A6FAA5
:1015A000EBE700BF58070002B000000270B586B03C
:1015B00005F04AF980B1464C0023A4F86636322380
:1015C000A4F8643604F5CD6000F082F904F2766088
:1015D00000F0C6F905F0F2F83D4C0025258084F8AE
:1015E0006F5484F8705484F86E5484F86D5484F801
:1015F0006C5404F5CD6104F1F80000F077F904F2C1
:10160000766104F5057000F0C9F904F27440FFF743
:1016100077FEFFF79FFF01462E4801F0B9F805203D
:1016200000F090FB2C4804F0D1FB222004F0DEFBFC
:101630000646222004F0DEFB00EB4610274B43F861
:101640002050222004F0D2FB0546222004F0D2FBD9
:101650004FF0E05205F5006352F82310012505FA1A
:1016600000F0084342F82300222004F0BFFB0646A6
:10167000222004F0BFFB760106F1E056355405F058
:1016800013F9009013232A46154904F1080000F0CD
:101690005DFB04F58864134B0493013B03930A2319
:1016A000029346F2A813019343F69823009343F262
:1016B000636326224FF48001204601F05DFD294638
:1016C000204601F0B5FD084B1D7006B070BD00BF8F
:1016D000B0000002B87000005915000000800F40F3
:1016E000008004400D0009005807000210B53B4877
:1016F000FFF75CFF01F090F8384C0023238004F2E0
:101700007440FFF735FE142104F1F80000F01EF9D3
:10171000142104F5057000F09DF904F58864012199
:10172000204601F085FD1421204601F0A9FD03208B
:1017300003F030FE042003F02DFE1E2003F02AFEED
:1017400028B10122A4F5886383F87B2407E0234BAA
:1017500093F87B341BB90122204B83F87B240520AE
:1017600003F018FE40B91D4BB3F86C34012B03D1C4
:101770001A4B93F86E3483B9184B042283F8222154
:1017800083F88E2183F83E2283F8AA2283F84A2325
:1017900083F8B62383F85E241CE0104C04F58270B5
:1017A00001F068FD04F5B87001F064FD04F50870FF
:1017B00001F060FD04F5237001F05CFD04F54B7051
:1017C00001F058FD04F5667001F054FD04F58860E1
:1017D00001F050FD142000F089F98BE7B000000201
:1017E00000B583B00D4C204600F0D0F900250195DE
:1017F0000223009323464FF420720949094800F060
:101800005DF901950323009323464FF48072064946
:10181000064800F053F902F01BF8FEE7B0000002A2
:1018200070720000ED16000078720000691500006B
:1018300000238370C370037103704370437170475A
:1018400070B504460E4690F9005000230371837072
:10185000C3703DB190F9013023B9012383703C235B
:10186000836015E03DB994F9013023B10123E370A1
:10187000002363710CE05DB1284605F0C3FB6428CA
:1018800001DD01236371A368002B01DD9E1BA660AF
:10189000657070BD90F9000088B108B57F226FF0C7
:1018A0007F0101F0E7F94FF47A72084901F0D2F9AB
:1018B000B0F57A7F05DC10F57A7F06DA04E00020C7
:1018C00070474FF47A7008BD004808BD18FCFFFF50
:1018D000642303814381012383814FF47A7343801E
:1018E00096220280C38050238380704730B58BB02E
:1018F00004460D46FFF79CFFC4F81851114B09939D
:10190000023B0893013307934FF41023069341F2EF
:10191000883305934FF47A63049340F2536303933F
:10192000094BB3F966260292B3F86436019301239A
:10193000009300231322294604F10C0001F00AFD54
:101940000BB030BD03000900B000000210B5044622
:10195000FFF776FF2046FFF79DFFA4F8E80010BDD3
:1019600030B4642202814281012585814FF47A736B
:10197000438096240480C38050218180C2820283E8
:1019800045830382C481838241828284C284058527
:10199000C38384834384018430BC70472DE9F043C2
:1019A0008BB004468946FFF743FFC4F82892002312
:1019B000A4F8243284F82632234B0993023B08937F
:1019C00001330793023B069341F28838CDF8148027
:1019D0004FF47A67049740F2536603961B4DB5F9AE
:1019E00066360293B5F86436019308230093012309
:1019F0000C224946A01801F0ADFCD4F8281294F846
:101A00002632C3EBC3035800114B09934FF009135F
:101A1000089301330793023B0693CDF81480049793
:101A20000396B5F966360293B5F8643601934FF420
:101A3000807300930B230422014404F58C7001F0A1
:101A400089FC0BB0BDE8F08307000900B00000027C
:101A50000B00090010B50446FFF7F2FED4F8281277
:101A600094F82632C3EBC3035A00114404F10C006E
:101A700001F072FDD4F8281294F82632C3EBC303A8
:101A80005A00114404F58C7001F066FD2046FFF702
:101A900001FFA4F8E80094F8263223B12046FFF7AE
:101AA000F9FE00B200E00020A4F8F401B4F914211A
:101AB000B4F920321344A4F8243210BD30B583B0F9
:101AC000094D2C6814442C6041F26F75AC4201D969
:101AD00000BFFDE7079C0194069C009492B201F0C0
:101AE00085FE03B030BD00BF6807000210B582B0AC
:101AF000044601F0E9FE02AB43F8040D2146184606
:101B000001F0DEFF02B010BD10B501220E4B1A70BD
:101B10000E4C00234FF0FF321946206802F046FEBB
:101B2000022004F091FD022000F0C2FF022000F02C
:101B3000BDF800231A461946206802F049FD02202C
:101B4000FFF7D4FFE4E700BF64070002BC280002EF
:101B5000054B1B6833B110B5034B1C6801F0B6F898
:101B6000A04710BD704700BF5C07000208B50648DB
:101B700001F014FA4FF0A00383F31188BFF36F8FC5
:101B8000BFF34F8FFEE700BF8472000000B583B043
:101B900000F0D4FF03220021012002F0FFFC1E4BC5
:101BA000186000231A46194602F012FD0B2005F0BA
:101BB00031F90B2005F044F90D2005F02BF90D202B
:101BC00005F03EF90D2005F0FFF80C2005F0FCF8BB
:101BD0004FF0E05004F06EFE04F058FE08B100F043
:101BE00059F804F0A1FA00F023F800F077FA00F0B9
:101BF000D3FB00F05BFC00F05BFB00F013F800236C
:101C000001934FF6FF720092802204490448FFF7C7
:101C100055FF03B05DF804FBBC280002A47200006D
:101C2000091B000008B5172005F0CEF808BD00BF5D
:101C300038B5154B93F8D434144A82F8303013F089
:101C4000800F03D07F22114B83F830200F4C0025EA
:101C5000C4F8A850552363600D4B23616561A561ED
:101C60001022294604F11C0005F016F9E560A56074
:101C700003F0C8FC03F0E0FA03F0ECFB03F022FDF4
:101C800003F09CFF38BD00BFB0000002C028000276
:101C90005645535508B503F0D5FC03F0EDFA02F0B4
:101CA000ADFE03F081F803F03FFD08BD10B586B02E
:101CB00084B2204603F0FEFA204603F083FD20465E
:101CC00003F0C8FC204602F09BFE204603F070F8AB
:101CD00016E0684603F0C0FC684603F02DFB68463A
:101CE00003F070FE684603F0C9FB684603F072FF1C
:101CF000114BD3F8A8401CB100F0E8FF6946A0479B
:101D00006946002004F096FC0028E2D00A4BDA680D
:101D10000A4B9A4204D10022074BDA6004F094FD8A
:101D2000054B9A68064B9A4204D10022024B9A60F6
:101D300004F044FD06B010BDC02800026C6F616461
:101D40007361766508B503F0B7FC08BDF0B58DB0DA
:101D50000446016002718360129BC0F8E4301823CE
:101D6000C02200F11001D03000F002FF0322002158
:101D7000012002F013FCC4F8E80000231A461946BB
:101D800002F026FC00234FF0FF321946D4F8E80099
:101D900002F00CFDA568284604F028F806462846FF
:101DA00004F028F84FF0E05106F5006351F82320C5
:101DB000012707FA00F022EA000241F82320284612
:101DC00004F014F80646284604F014F800EB461018
:101DD00010226C4B43F820200221A06804F00EF87A
:101DE00000250795089509950A950B950295039589
:101DF000049505950695C023ADF81C302179009710
:101E0000082307AA206800F035FB1420FFF76EFEB8
:101E10000326ADF81C600F23ADF81E3014222946AE
:101E200002A805F039F821790196082300936B4444
:101E300007AA206800F000FBBDF80C30872B40F0AB
:101E40009580D4F8E4301A014F4BB3FBF2F302252E
:101E5000ADF81C502A22ADF81E2003F03F03ADF868
:101E600020308923ADF82230ADF8245021790523A4
:101E70000093082307AA206800F0FCFAADF81C5074
:101E80000D23ADF81E300027ADF8207021790096A3
:101E9000082307AA206800F0EDFAADF81C50602373
:101EA000ADF81E30ADF8207021790096082307AAFE
:101EB000206800F0DFFAADF81C500C23ADF81E309E
:101EC000ADF8207021790096082307AA206800F059
:101ED000D1FAADF81C507023ADF81E30ADF820706B
:101EE00021790096082307AA206800F0C3FAADF80C
:101EF0001C502023ADF81E30082239460DEB03009C
:101F000004F0CAFF21790A230093082307AA206856
:101F100000F0B0FAADF81C502C23ADF81E30ADF82F
:101F2000207021790096082307AA206800F0A2FA01
:101F3000ADF81C502B23ADF81E30ADF82060217990
:101F40000096082307AA206800F094FAADF81C5008
:101F50000F23ADF81E30ADF82270217900960823CA
:101F600007AA206800F086FA012500E0002500237A
:101F70001A461946D4F8E80002F02AFB28460DB0AC
:101F8000F0BD00BF00800F40001BB70070B596B0D9
:101F9000054600221146D0F8E80002F0A7FC002810
:101FA00040F0848097E00023089309930A930B93F1
:101FB0000C930D930E930F9310931193129313930D
:101FC00014931593A023ADF82030297902230193AF
:101FD000082300930FAB08AA286800F02DFABDF87B
:101FE0003E3013F0030F61D0BDF84030C3F340031F
:101FF0009B0043F0900316AC24F8383D1A220021D0
:102000000DF1220004F048FF29790E2301930823E3
:1020100000930FAB2246286800F00EFABDF840305E
:1020200003F0100292B212B14FF0005200E0002211
:10203000069292B1BDF83E105A09920402EB415249
:102040001B0403F440331344BDF8422003EB022386
:10205000BDF844201344049305E0BDF83E205B091D
:1020600003EBC2030493BDF8463003F00F038DF871
:102070001430082200210DEB020004F00DFF0023B4
:102080000BE09A1D16A901EB420232F81C1C16AA9D
:102090001A4402F8501C0133DBB29DF8142093421D
:1020A000EFD302A905F1D00000F06CFDAE68304618
:1020B00003F09CFE0446304603F09CFE640104F1EC
:1020C000E054235C13F0FF0F3FF46DAF0021D5F80F
:1020D000E80002F039FB16B070BD00BF70B5324B9E
:1020E00000241C805C8021464FF0804004F092FD6B
:1020F0002E494FF0804004F0B3FD4FF08040C4669D
:1021000004F0C0FD4FF080431B6813F0804FF9D1FD
:10211000264E31464FF0804004F0A2FD244D0024AD
:102120002C62204604F048FC6C61032004F044FC5F
:10213000C5F88040082004F03FFCAC670B2004F099
:102140003BFCA5F5F0252146284604F063FD314609
:10215000284604F085FDEC66284604F093FD154BF7
:102160001B6813F0804FFAD11049124804F078FD33
:102170000F4D0024C5F88840102004F01DFCC5F860
:102180008C40112004F018FCEC63142004F014FCC3
:102190002C64152004F010FCC5F89040162004F0C3
:1021A0000BFC204670BD00BF6C07000220A1070099
:1021B00000800F400000084038B50446B0F5805F4D
:1021C0003CD24FF0004200214FF0804004F078FDF7
:1021D00044F480234FF080429360002302E000BF6C
:1021E00001339BB2B3F5006FF9D34FF000420021E9
:1021F0004FF0804004F05AFD4FF0806200214FF014
:10220000804004F053FD07E04FF08052264B1A60E7
:10221000BFF34F8FBFF36F8F4FF080431B69002BCD
:10222000F2DA204600F038FDC0B200F108034FF0AA
:10223000804252F82300C0F30B1001E04FF0FF3052
:10224000B4F5805F2ED3240B184D4FF000420021CF
:10225000284604F035FD44F48023AB604FF0004283
:102260000021284604F022FD4FF08062002128461C
:1022700004F01CFD07E04FF080520B4B1A60BFF3D7
:102280004F8FBFF36F8F094B1B69002BF3DA20468A
:1022900000F002FDC0B200F10803044A52F8230026
:1022A000C0F30B1038BD00BF04ED00E00000084093
:1022B00008B5402004F0DCFD092004F085FD09206C
:1022C00004F0A8FD092004F0BBFD002008BD00BFFC
:1022D000016042608360002383610362C36047F64C
:1022E000FF720261034A4261C361012380F8243016
:1022F000704700BF0080FFFF70B590F824305BB1DD
:10230000022B0BD1036A0433082B09D8002380F871
:1023100024301C461A4605E0002403E0012401E0B5
:1023200001240022002C31D08569AB1A866806EBA7
:102330008606B500B5FBF1F505FB03F52D0A8261B4
:10234000C669B31AC2681A440469A24201DDC460B6
:1023500005E04469A24201DAC46000E0C260066898
:1023600006EB8606B400B4FBF1F404FB03F4C66884
:10237000426802EB82029300B3FBF1F101FB06F12C
:10238000090C01EB14432B44036270BD836842685F
:102390000168FFF79DFF70BDF0B585B0234C204666
:1023A00004F094FB224D8027AF620A21312004F013
:1023B000EFFAEF620B21322004F0EAFA2F630C21CE
:1023C000332004F0E5FA08232B631A49204604F071
:1023D00057FBADF80C0004238DF8043000268DF86F
:1023E00005608DF8066002966F620921402004F0B6
:1023F000CFFA01A9204604F04BFB01238DF80030F1
:102400008DF801308DF802608DF803306946204662
:1024100004F076FB236823F0C2031B051B0D236029
:10242000236843F00103236005B0F0BD0080044041
:1024300000800F408096980000B589B00192039308
:102440009DF82830ADF81C30BDF82C3005936FEAAC
:10245000014101F47021069100230293049301A924
:1024600004F068FB08B1012000E0002009B05DF82D
:1024700004FB00BF00B589B0019200220392ADF8C1
:102480001C30BDF8283005936FEA014101F470213A
:1024900006910292049201A904F088FB08B1012080
:1024A00000E0002009B05DF804FB00BF2DE9F04119
:1024B000534B544C1C60544E5E60544F9F60DFF889
:1024C0005081C3F80C80204604F008FA4FF496615E
:1024D000204604F035FA0621712004F059FA002252
:1024E0000121204604F00AFA0025C4F80452042110
:1024F000722004F04DFA01220221204604F0FEF978
:10250000C4F80852852004F057FA0322042120461B
:1025100004F0F4F9C4F81052862004F04DFA0422B5
:102520000521204604F0EAF9C4F81452636823F048
:1025300004136360304604F0D1F94FF496613046DD
:1025400004F0FEF98A2004F037FA03220421304611
:1025500004F0D4F9C6F810528B2004F02DFA0422AE
:102560000521304604F0CAF9C6F814528C2004F054
:1025700023FA05220621304604F0C0F9C6F81852A5
:10258000736823F004137360384604F0A7F94FF41E
:102590009661384604F0D4F98F2004F00DFA032236
:1025A0000421384604F0AAF9C7F81052902004F02C
:1025B00003FA04220521384604F0A0F9C7F81452A2
:1025C0007B6823F004137B60404604F087F94FF4E6
:1025D0009661404604F0B4F9922004F0EDF903222C
:1025E0000421404604F08AF9C8F81052D8F80430A3
:1025F00023F00413C8F804302846BDE8F08100BF7A
:10260000700700020080011C00C0011C0000021CB9
:102610000040021C10B483B08DF80700B1F57A7F3A
:1026200001D94FF47A719DF80730DB080D4850F856
:1026300023409DF8073003F007029DF80730DB08C0
:1026400050F82330D3F8003203FB01F1064BA3FB13
:102650000131890902F1810344F82310002003B0FD
:1026600010BC704770070002D34D621082B08DF825
:1026700007009DF80730DB080C4A52F823109DF83C
:10268000073003F00703813351F823004FF47A73C6
:1026900003FB00F09DF80730DB0852F82330D3F835
:1026A0000032B0FBF3F080B202B070477007000256
:1026B00008B5034B00220349034800F06FFC08BD36
:1026C000047A0000EC790000AC72000070B51E4680
:1026D000002412E0184B1B6825012B445968306810
:1026E00004F094FC40B9144B1B681D44AA68696847
:1026F000124800F053FC70BD01340F4B1B799C4213
:10270000E8DB002412E00E4B03EB04135D6829465E
:10271000306804F07BFC40B9094B03EB0414A26859
:102720002946064800F03AFC70BD0134052CEAD970
:10273000044800F033FC70BD6C290002D072000028
:102740005C760000DC72000010B51C4612B9002057
:1027500000F036FC23681BB1012000F031FC10BDF5
:10276000002000F02DFC10BD08B504F027F810B9CA
:10277000014800F013FC08BD0873000008B503F021
:10278000DFFF10B9014800F009FC08BD107300001C
:1027900008B5064B1860197100225A719A71044AE3
:1027A0000449054800F0FAFB08BD00BF6C2900028F
:1027B000047A0000EC7900001C730000014B1879CA
:1027C000704700BF6C29000210B50F4800F0E6FB0F
:1027D000002407E00D4B03EB041359680C4800F08C
:1027E000DDFB0134052CF5D9002408E0094B1B68FA
:1027F00003EB04135968064800F0D0FB0134FFF7DF
:10280000DDFF8442F2DB10BDD87200005C76000070
:10281000307300006C2900022DE9F04383B06E4B49
:102820001B68002B00F0D380002502A8002300F8CD
:10283000013D03F0EDFE002840F0CA80664B5B7955
:10284000C72B04D90022644B5A711225EDE70121F0
:102850000DF1070000F020F99DF807301B2B07D180
:1028600006215E4800F018F900225B4B5A71DCE744
:10287000082B07D1584B5B79002BD6D0013B564A29
:102880005371D2E70D2B02D00A2B40F09980524BA6
:102890005B791BB9524800F081FBC6E74E4A1344EE
:1028A00000249C71274626463EE0F4B14A4B23445F
:1028B0009B79222B19D1A7B9631E474A13449B79F0
:1028C0009BB913190021997106F1190102EBC1039B
:1028D00002201871631C1344063342F8313001277B
:1028E00003E03D4B234400279F71E7B93A4B234453
:1028F0009B79202B17D1384B234400229A71032E49
:1029000011DCDFF8D48006F11A0908EBC9030122B3
:102910001A71A018404400221146063004F034FB1E
:1029200048F83900013601342B4B5B799C42BCDB03
:102930000024294B5C7118E0274850F8063B27011A
:102940003B44596804F062FB70B9234B1B683B445D
:10295000DC6884B100F0BAF91F4B53F8D01B324643
:10296000C95BA047012707E00134FFF727FF844236
:10297000E2DB002700E00127F7B9002415E0194B3E
:1029800003EB04135968184804F040FB60B9154F75
:1029900024013B19D3F80C8000F098F9134B324610
:1029A000395BC047012702E00134052CE7D91FB984
:1029B0000D490F4800F0F2FA094800F0EFFA34E749
:1029C00005494A79501C48710A4493712DE7152531
:1029D000284603B0BDE8F0836C290002387300007C
:1029E000407300005C760000722900023C2A00025D
:1029F0004473000030B587B0002400940194029421
:102A000003940494059403F0B1FE00F5B0600290C5
:102A1000144BDD882B1D8DF80C3042238DF80030CF
:102A2000FF238DF801305F238DF802308DF80340CD
:102A300023460CE01A1D0B490868098903FB01F1C4
:102A4000415C06A8024402F8181C0133DBB29AB2BA
:102A5000AA42EFD30020034BD880694603F06CFDF7
:102A600007B030BD9C000002094B1B786BB100B56C
:102A700083B002A901F8010D064800F0D1F8FFF774
:102A8000B9FF012003B05DF804FB0120704700BFCF
:102A9000640700029C00000270B506460D46002443
:102AA00003E0305DFFF7E0FF0134AC42F9D370BDC5
:102AB000704700BF0023036041608360704700BF20
:102AC000036803EB0121016083680133836091FB9C
:102AD000F3F1C16004E00268521A0260013B8360B6
:102AE000836842689342F6DC0846002901DA01F166
:102AF000FF000012704700BF016043724260037222
:102B0000704700BF30B4027A437A9A4208D1056810
:102B100044682C448C4203DA83F00103037207E01B
:102B20009A4205D002684468121B914200DA03728F
:102B3000007A003018BF012030BC7047014B18608C
:102B4000704700BF8407000270B103688B4203DB4B
:102B50005B1A036000207047B3F1FF3F06D04FF0CF
:102B6000FF33036001207047012070470020704749
:102B7000016082800022C28003720161C160104640
:102B8000704700BFF8B10246C088938898421CD2B3
:102B900010B4002307E0D068CC5C0470D06801302A
:102BA000D0600133DBB2107A8342F4D3D468116869
:102BB000938800FB0310844200D1D160D388013395
:102BC000D380002003E02D2070471220704710BCF6
:102BD000704700BFF0B10246C388EBB1002308E0A4
:102BE00011B110690078C8541069013010610133C7
:102BF000DBB2107A8342F3D310B41469116893885E
:102C000000FB0310844200D11161D388013BD380C3
:102C1000002003E02D2070471720704710BC70473C
:102C200098B138B50346C588828895420FD20446CC
:102C300031B100681B891A4603FB050004F02AF92C
:102C4000E3880133E380002038BD2D207047122037
:102C500038BD00BFC0F57A7302FB00F201FB03210F
:102C6000034880FB0130C917C1EBA010704700BFBB
:102C7000D34D6210914208D0401A4FF47A7303FB8F
:102C800000F3501A93FBF0F070470020704700BF2C
:102C90008842A8BF084670474342034001D1202024
:102CA00000E01F209AB202B1103813F0FF1F00D0CD
:102CB000083813F00F3F00D0043813F0333F00D032
:102CC000023813F0553F00D001387047014B1868A7
:102CD000704700BF8407000208B5024800F05EF9A3
:102CE00008BD00BFD476000008B5024800F056F9D0
:102CF00008BD00BFDC76000008B5024800F04EF9C0
:102D000008BD00BFE876000008B5024800F046F9AB
:102D100008BD00BFF476000008B5024800F03EF997
:102D200008BD00BF0077000008B528B10268117027
:102D300002680132026008BD0846FFF795FE08BD33
:102D40002DE9F04107460E46151E05DC4FF0200820
:102D500014E00131013201E00A4600211078002818
:102D6000F7D1A94201DA6D1A00E0002513F0020F35
:102D700002D14FF0200801E04FF0300813F0010FAE
:102D800008D000240FE041463846FFF7CDFF01345C
:102D9000013D00E00024002DF5DC04E03846FFF79B
:102DA000C3FF0134013631780029F7D105E04146EF
:102DB0003846FFF7B9FF0134013D002DF7DC20460E
:102DC000BDE8F081F0B585B005460C9E59B93023B9
:102DD0008DF8043000238DF805300B9B0A9A01A969
:102DE000FFF7AEFF40E0084633B10A2A06D10029BA
:102DF00006DA4842012704E0002702E0002700E04D
:102E0000002704AC002304F8013D0DE0B0FBF2F311
:102E100002FB1303092B02DDA6F13A010B44303308
:102E200004F8013DB0FBF2F00028EFD1A7B10A9BF6
:102E300063B10B9B13F0020F08D02D212846FFF73A
:102E400073FF0A9B013B0A93012606E02D2304F839
:102E5000013C013C002600E000260B9B0A9A21461B
:102E60002846FFF76DFF304405B0F0BDF0B587B0E0
:102E700006460C461F46002583E0252B7BD1621CAD
:102E80006378002B00F08180252B73D02D2B02D18D
:102E9000A21C012300E00023144602E0013443F0A9
:102EA00002032278302AF9D0002205E002EB8202E8
:102EB00050003039421801342178A1F13000C0B2FD
:102EC0000928F3D9732908D13968043701B932497F
:102ED0003046FFF735FF054452E0642901D06929E7
:102EE0000CD13968043761200290019300920123CC
:102EF0000A223046FFF766FF054441E078290CD1ED
:102F00003968043761200290019300920023102257
:102F10003046FFF757FF054432E058290CD1396895
:102F20000437412002900193009200231022304682
:102F3000FFF748FF054423E075290CD139680437B1
:102F4000612002900193009200230A223046FFF78D
:102F500039FF054414E0632912D1397804378DF81C
:102F6000141000218DF8151005A93046FFF7E8FE72
:102F7000054405E0144621783046FFF7D5FE0135BB
:102F800001342378002B7FF478AF16B13368002228
:102F90001A70284607B0F0BD187700000FB400B5CE
:102FA00083B004AB53F8041B01934FF0FF320020B1
:102FB000FFF75CFF03B05DF804EB04B0704700BF9F
:102FC000BFF34F8F0449CA6802F4E062034B134316
:102FD000CB60BFF34F8FFEE700ED00E00400FA0581
:102FE00030B589B004461D468DF81F200163129B41
:102FF0000493119B039301230293BDF84030019386
:10300000BDF83C300093BDF8383000220D9900F037
:10301000B3F8002384F82C30BDF93030E3863DB19D
:103020006D004FF47A7393FBF5F5A586A56301E077
:103030000023A3860025A4F86450A4F866509DF8E8
:103040001F30DBB284F8683094F868002946FFF737
:10305000E1FA2B4604224FF47A7104F13C00FFF7A9
:1030600037F909B030BD00BF38B504460D4600F051
:1030700007F9B4F864304BB9B4F866300BB1A38BE0
:1030800023B90021204600F0D3F803E001212046B7
:1030900000F0CEF8A37F012B13D00023A4F86430F6
:1030A00004224FF47A7104F13C00FFF711F9B4F9EE
:1030B0003630002B01DD5B42E3860023A4F8663046
:1030C0004FE0A38E53B1294604F13800FFF73CFDD1
:1030D00020B1E38E5B42E386A38EA36394F82C3089
:1030E0004BBBB4F8640080B1236B5A881988FFF792
:1030F000B1FD00B2236B1A88904201DA10B205E0EC
:103100005B88984202DD18B200E00020A065A28B27
:10311000294604F13C00FFF7EFF894F86800FFF748
:10312000A5FAE36DB4F93620184402EBD27200EB35
:10313000620000B208E0B4F86430B4F9360000EB85
:10314000D07003EB600000B2002804DB83B2B3F55B
:103150007A7F02D803E0002001E04FF47A70A4F8EF
:10316000660094F86800B4F86610FFF753FA38BDAB
:10317000A0F86410704700BF2DE9F04104461F46D7
:103180000160026272B31546104602F02FFE064639
:10319000284602F02FFE00EB46104FF00008234BAC
:1031A00043F82080284602F021FE0646284602F019
:1031B00021FE4FF0E05106F5006251F82260012334
:1031C00003FA00F046EA000341F82230284602F0F4
:1031D0000DFE0646284602F00DFE760106F1E05689
:1031E00006F80080256A5DB1284602F0FFFD06461C
:1031F000284602F0FFFD760106F1E0560023335425
:10320000A780BDF81830E380BDF81C302381BDF8DD
:10321000201004F10C00FFF74DFC099B63620A9B30
:10322000A3620023A377A383BDE8F08100800F4051
:1032300038B5837F042B1CD0023BDBB2012B16D99F
:103240000D460446032907D1826A2AB14FF47F4014
:10325000002102F0DDFC08E0022D06D1626A22B1F5
:103260004FF47F40002102F0D3FCA57738BD01B9AF
:10327000817738BD837F042B01D10023837770478A
:1032800070B50446837F012B50D1006890B1FEF7E2
:1032900093FF002800DA0020A18800FB01F02C49F0
:1032A00081FB0031C017C0EBA11104F10C00FFF746
:1032B00007FCA083A38B2289934212D9256A5DB1B2
:1032C000284602F093FD0646284602F093FD76015B
:1032D00006F1E0560023335403212046FFF7A8FFF0
:1032E00070BDE288934212D9256A5DB1284602F08A
:1032F0007DFD0646284602F07DFD760106F1E0568A
:103300000023335402212046FFF792FF70BD246A48
:10331000E4B1204602F06AFD0546204602F06AFD4F
:103320006D0105F1E05501232B5470BD002383830B
:10333000046A5CB1204602F059FD0546204602F0C1
:1033400059FD6D0105F1E05500232B5470BD00BF00
:10335000D34D62102DE9F0478AB00446129FBDF8A4
:103360004C50BDF95060BDF85480BDF85890BDF880
:103370005CA08DF827208DF826300022A0F8DC20F4
:10338000A0F8DE20A0F80821C0F8D81013464FF4AA
:103390007A71E030FEF79CFF9DF827201A9B069378
:1033A000189B0593CDF810A0CDF80C90CDF80880AF
:1033B000019700962B46D4F8D8102046FFF710FE50
:1033C000D4F8D8109DF826201B9B0693199B0593D3
:1033D000CDF810A0CDF80C90CDF80880019700969C
:1033E0002B46043104F16C00FFF7FAFD0AB0BDE88A
:1033F000F08700BF2DE9F04104460D46D0F8D830E3
:103400009A89002A13BF01260026012700271A895E
:10341000642A02D964221A8103E0092A01D80A2207
:103420001A81D4F8D8305A89642A02D964225A8180
:1034300003E0092A01D80A225A81B4F9DC0003F01A
:10344000E1FD8046B4F9DE0003F0DCFD804517DDC8
:10345000B4F9DC30B4F9DE2003FB02F3002B0FDB00
:10346000D4F8D8301B8903FB03F34FF47A7202FBC4
:1034700003F3384AA2FB03235B0BC4F8E0300EE0F1
:10348000D4F8D8305B8903FB03F34FF47A7202FB64
:1034900003F3304AA2FB03235B0BC4F8E030B4F91A
:1034A000DC30C4F8FC30B4F9DE20294604F1E00039
:1034B000FEF722FFD4F80021B4F8DE301344A4F85C
:1034C000DE301AB9B4F9DC30A4F8DE30B4F9DE30FD
:1034D000002B15DD6C2303FB074700213846FFF75F
:1034E00047FEB7F8663003BB6C2303FB0646B4F90E
:1034F000DE0003F087FD81B23046FFF739FE14E0AD
:103500006C2303FB064600213046FFF731FEB6F878
:10351000663053B96C2303FB0747B4F9DE0003F0B0
:1035200071FD81B23846FFF723FE29462046FFF79A
:103530009BFD294604F16C00FFF796FDB4F91C30A1
:10354000B4F888200BB953421BB2A4F80831BDE887
:10355000F08100BF5917B7D1C0F8D810016304310A
:10356000C0F89C10704700BF0A4B1B681B680BB962
:10357000012300E0002323B14FF0FF32064B1A6015
:103580007047044B1B68DB68DB685A68024B1A60A3
:10359000704700BF8C0700027C08000210B504468B
:1035A000006B00F0F1FE204600F0EEFE10BD00BF03
:1035B0002DE9F04781460D4617469A46089EDDF8EC
:1035C00024800A9C9200A521206B03F065FC236BEC
:1035D00007F18042013A03EB820727F00707002337
:1035E00006E0E95CE21882F83410EA5C12B10133BB
:1035F000132BF6D9002384F84730072E00D907266D
:10360000E662266500256565201D00F06FFC04F16B
:10361000180000F06BFC2461C6F10806A661646224
:10362000A56584F85C5052464946384602F026FBB0
:103630002060B8F1000F01D0C8F80040BDE8F08765
:1036400038B5002407E004EB840293000E481844C8
:1036500000F040FC0134072CF5D90C4D284600F051
:1036600039FC0B4C204600F035FC0A4800F032FCD7
:10367000094800F02FFC094800F02CFC084B1D60A5
:10368000084B1C6038BD00BFB00700028408000270
:10369000980800026008000294070002AC080002CB
:1036A0008C070002A807000210B5044602F00AFBCE
:1036B000214A136801331360204B1B683BB91F4B31
:1036C0001C601368012B0DD1FFF7BAFF0AE01C4BF9
:1036D0001B683BB9194B1B68DA6AE36A9A4201D846
:1036E000164B1C60174A136801331360A364E36A26
:1036F000012202FA03F1144802680A43026003EB54
:1037000083039A00211D1148104400F0F3FB02F0DE
:10371000E9FA0B4B1B686BB1084B1B68DA6AE36A6A
:103720009A4207D24FF08052094B1A60BFF34F8F75
:10373000BFF36F8F10BD00BF580800025C08000285
:103740009007000280080002C0080002B0070002D3
:1037500004ED00E070B504460E461D4B1D681D4B80
:103760001868043000F0ECFB50B91A4B1B68DA6A99
:10377000012303FA02F218490B6823EA02030B60E3
:10378000B4F1FF3F07D136B1124B19680431134829
:1037900000F0B0FB70BD2C440E4B1B685C60A54272
:1037A00007D90F4B18680B4B1968043100F0AEFBBA
:1037B00070BD0C4B1868074B1968043100F0A6FB6C
:1037C000094B1B689C4201D2074B1C6070BD00BFB7
:1037D000780800025C080002C0080002AC08000281
:1037E000A80700028C0700027C0800022DE9F043C4
:1037F00085B006460F4615469846900000F072FDCB
:1038000060B18146602000F06DFD044610B1C0F843
:10381000309004E0484600F0B7FD00E000248CB191
:103820000023039302940D9B01930C9B009343464A
:103830002A4639463046FFF7BBFE2046FFF734FFE5
:10384000012001E04FF0FF3005B0BDE8F08300BF7C
:1038500000B583B0124B01930023009380221149DD
:103860001148FFF7C3FF012801D100F0DBFB01285D
:1038700013D14FF0A00383F31188BFF36F8FBFF311
:103880004F8F4FF0FF32094B1A600122084B1A602C
:103890000022084B1A6002F081FA03B05DF804FBC5
:1038A00074080002207700007D3B00007C080002C5
:1038B0009007000278080002024A1368013313607F
:1038C000704700BF50080002014B1868704700BFE6
:1038D00078080002F8B5374B1B68002B5CD1364BDB
:1038E0001E6801361E605EB9344A1168344B186890
:1038F00010601960334A136801331360FFF734FE18
:10390000314B1B689E4203D200273AE0012700E0BA
:1039100000272A4B1B681B680BB9012300E000231A
:1039200023B14FF0FF32284B1A602AE0234B1B686B
:10393000DB68DC6863689E4202D2234A136020E0A1
:10394000251D284600F0FCFAA36A1BB104F11800FB
:1039500000F0F6FAE36A012202FA03F11B4802685A
:103960000A43026003EB83039A0029461848104477
:1039700000F0C0FAE26A174B1B68DB6A9A42C5D2B4
:10398000C7E7144B1B68DB6A03EB83039A00104BF9
:103990009B58012B06D806E00F4A136801331360C9
:1039A000002700E001270D4B1B6803B101273846B3
:1039B000F8BD00BF50080002780800028C07000222
:1039C000A8070002880700027C080002C008000265
:1039D000B00700025C080002AC070002C408000245
:1039E00038B502F06FF92D4B1A68013A1A601B685E
:1039F000002B4CD12A4B1B6833BB00244AE0294BD7
:103A0000DB68DC6804F1180000F09AFA251D2846EE
:103A100000F096FAE36A012202FA03F122480268F2
:103A20000A43026003EB83039A0029461F481044AF
:103A300000F060FAE26A1E4B1B68DB6A9A4204D30C
:103A400001221C4B1A6000E00024164B1B68002B5F
:103A5000D5D10CB1FFF788FD174B1C6854B1FFF7A7
:103A600039FF10B10122134B1A60013CF7D100223B
:103A7000114B1A600F4B1B685BB14FF080520F4B1C
:103A80001A60BFF34F8FBFF36F8F012402E0002451
:103A900000E0002402F026F9204638BD500800025C
:103AA0005808000260080002C0080002B0070002C7
:103AB0005C080002C4080002AC07000204ED00E04C
:103AC00038B505460C46FFF7F7FE154B18682A680F
:103AD0001319904205D29A4209D9984209D300227B
:103AE0000CE09A4207D8984207D3002206E0002251
:103AF00004E0012202E0012200E001222B601AB161
:103B00000021181AFFF726FEFFF76AFF38B94FF0B9
:103B10008052044B1A60BFF34F8FBFF36F8F38BDD5
:103B20007808000204ED00E010B51BE0FFF7C4FECA
:103B30000F4B1C68FFF754FFA4B102F0C3F80C4B05
:103B4000DB68DC68201D00F0FBF90A4A1368013BC2
:103B50001360094A1368013B136002F0C3F8204662
:103B6000FFF71CFD044B1B68002BDFD110BD00BF0D
:103B700094070002580800025408000208B5FFF735
:103B8000D3FF074B1B68012B07D94FF08052054B21
:103B90001A60BFF34F8FBFF36F8FFDF7D9FFEEE7CA
:103BA000B007000204ED00E038B51E4B1B681BB1E6
:103BB00001221D4B1A6038BD00221B4B1A601B4BA3
:103BC0001A6812681B681B6B9A4205D8174B186855
:103BD00019683431FDF7CAFF154B1B68B3FA83F33C
:103BE000DBB2C3F11F03134D9900CA18900028449B
:103BF00042685468446019448A0008322A44944256
:103C000005D1606803EB83018A002A44506003EB0E
:103C100083039A00074B1A445368DA68034B1A600F
:103C200038BD00BF50080002C40800025C08000252
:103C3000C0080002B007000210B50C46044B19681A
:103C4000183100F063F901212046FFF783FD10BD14
:103C50005C08000238B50D461446064B1968183149
:103C600000F048F90CB14FF0FF3521462846FFF728
:103C700071FD38BD5C08000238B5C368DC6804F12A
:103C80001805284600F05CF9134B1B68A3B9251DE5
:103C9000284600F055F9E36A012202FA03F10F48C1
:103CA00002680A43026003EB83039A0029460C482A
:103CB000104400F01FF903E029460A4800F01AF901
:103CC000E26A094B1B68DB6A9A4203D90120074B61
:103CD000186038BD002038BD50080002C00800023E
:103CE000B0070002600800025C080002C40800027D
:103CF000034B1B680360034B1B684360704700BFA6
:103D0000880700027808000238B504460D4601F025
:103D1000D9FF114B1A682B68B3F1FF3F13D020680D
:103D20000E490968884202D061688A420DD26168F2
:103D3000501A83420BD98A1A13442B602046FFF78E
:103D4000D7FF002404E0002402E0012400E0012465
:103D500001F0C8FF204638BD78080002880700023D
:103D60000122014B1A607047C4080002054B1B6812
:103D700023B1054B1B681BB9022070470120704717
:103D800000207047900700025008000200284AD027
:103D900038B50246C36A24490968C96A8B4241D2D0
:103DA0008169002905DB20490968C96AC1F1080158
:103DB0008161506903EB830399001C4B19448842CD
:103DC00001D1012300E0002343B31446151D28460A
:103DD00000F0B6F870B9E36A03EB83018A00134977
:103DE0008A583AB9012202FA03F311490A6822EA11
:103DF00003030B600C4B1B68DB6AE362012202FACF
:103E000003F10B4802680A43026003EB83039A0044
:103E100029460648104400F06DF838BD024B1B6877
:103E2000DB6AD36238BD70475C080002B00700024D
:103E3000C0080002002834D038B50346426D013A6C
:103E40004265C06A196D88422DD072BB1C461D1D8B
:103E5000284600F075F870B9E36A03EB83018A0025
:103E600013498A583AB9012202FA03F311490A6840
:103E700022EA03030B60236DE362C3F10802A2612F
:103E8000012404FA03F00B490A6802430A6003EBB9
:103E900083039A0029460648104400F02BF8204678
:103EA00038BD00207047002038BD002038BD00BF5D
:103EB000B0070002C0080002054B1B6823B1044B89
:103EC0001A68536D01335365014B1868704700BF82
:103ED0005C08000200F1080343604FF0FF3282608B
:103EE000C360036100230360704700BF00230361C8
:103EF000704700BF43684B609A688A609A68516057
:103F000099600861036801330360704730B40D683D
:103F1000B5F1FF3F01D1026907E000F1080200E0BE
:103F20001A4653681C68A542FAD253684B609960E0
:103F30008A605160086103680133036030BC7047D8
:103F400003694268816891608268416851605A687B
:103F5000904201D182685A600022026118680138DB
:103F600018607047064B1A681368B3FA83F35B094D
:103F7000036013B9D368186870470020704700BF0A
:103F8000C808000208B54160006191420AD8D21AFF
:103F900083699A4211D2011D0A4B1868FFF7B6FFD8
:103FA000002008BD9A4201D2994208D2011D064B59
:103FB0001868FFF7ABFF002008BD012008BD0120F5
:103FC00008BD00BFFC080002C808000238B501F0B7
:103FD00079FE0E4B1B68B3B90D4D2846FFF77AFFEB
:103FE0000C4C2046FFF776FF0B4B1D600B4B1C6003
:103FF00000220C21022000F0D1FA044B186010B10D
:10400000074900F0ADFC01F06DFE38BDF808000274
:10401000CC080002E0080002C8080002FC08000208
:104020002877000000B583B0FFF7D0FF084B1B686E
:1040300053B1084B019302230093002350220649F9
:104040000648FFF7D3FB00E0002003B05DF804FB57
:10405000F80800020009000230770000A1420000C9
:1040600030B585B0134C256805B31C46019102920A
:104070000390052913DCFFF779FE022807D10023FE
:10408000089A01A90B48006800F0A2FA0FE000238B
:104090001A4601A90748006800F09AFA07E00023D1
:1040A000224601A9284600F017FB00E0002005B0D9
:1040B00030BD00BFF808000270B582B01FE0DB68B9
:1040C0001E68DC68251D2846FFF73AFF636A204614
:1040D0009847E369012B12D1A36933449E4207D26A
:1040E0006360246129460C4B1868FFF70FFF06E058
:1040F000002100910B4632462046FFF7B1FF064BE8
:104100001B681A68002ADAD1044A1068024908605C
:10411000136002B070BD00BFC8080002FC080002B6
:1041200038B50546FFF7D0FB0446074B1B6898429D
:1041300004D2FFF7C1FF01232B6001E000232B60B5
:10414000014B1C60204638BDF408000270B582B0F7
:1041500005460E460E4B1B68DB68DC68201DFFF72A
:10416000EFFEE369012B0ED1A1692B4632462944AB
:104170002046FFF707FF30B1002100910B462A4689
:104180002046FFF76DFF636A2046984702B070BD76
:10419000C808000270B582B006460C46FFF78CFBDB
:1041A00001A8FFF7BDFF019B1BBB054644B9B04208
:1041B00006D3FFF715FC29463046FFF7C7FF1AE084
:1041C0002CB10E4B1B681C68B4FA84F464092246B7
:1041D000711B0B4B186800F0D7FBFFF701FC50B9BF
:1041E0004FF08052074B1A60BFF34F8FBFF36F8FB2
:1041F00001E0FFF7F5FB02B070BD00BFFC08000254
:10420000F808000204ED00E030B587B03AE0039B07
:10421000002B37DB059C636913B1201DFFF790FE6F
:1042200002A8FFF77DFF039B092B2BD8DFE803F0E3
:104230000505052A1E2705052A1E0499A5690B46B2
:10424000024629442046FFF79DFED8B1636A204606
:104250009847E369012B15D1A269002100910B4613
:10426000049802442046FFF7FBFE0BE00499A1618D
:104270000346024601442046FFF784FE02E0204642
:1042800000F082F800231A4603A90448006800F0F1
:104290008DFA0028BBD107B030BD00BFF80800027E
:1042A00000B583B001A8FFF75DFE0199FFF772FF2B
:1042B000FFF7AAFFF6E700BF074B23F00703074A03
:1042C000136000205060064A41F26871516010602E
:1042D00059601A60704700BF1809000208090002FF
:1042E0008020000270B50446FFF7E6FA224B1B68F7
:1042F00023B9FFF7E1FF01221F4B1A6034B10834E4
:1043000014F0070F02D024F007040834621E41F2B3
:1043100066739A4228D819490B6801E0194613467A
:104320005A68944202D91A68002AF7D1144A934273
:104330001CD00D6808351A680A605A68121B102ACA
:104340000CD91E1972605C6074680C4900E011465B
:104350000A6850688442FAD832600E605968094A87
:1043600013685B1A136002E0002500E00025FFF7E8
:1043700037FB284670BD00BF04090002080900028F
:1043800080200002A8000002D0B170B50546A0F15F
:104390000806FFF791FA55F8044C0A4A00E01A465D
:1043A000136859688C42FAD845F8083C166055F8ED
:1043B000043C054A11680B441360FFF711FB70BD04
:1043C000704700BF08090002A800000210B50446AB
:1043D00001F078FCA26BE36B9A4201D1012400E06A
:1043E000002401F07FFC204610BD00BF10B504463C
:1043F00001F068FCA36B0BB9012400E0002401F07C
:1044000071FC204610BD00BF70B504461646856B92
:10441000026C3AB9036843BB4068FFF70BFD002309
:10442000636029E06EB9806802F034FDA268236CF5
:104430001344A3606268934219D32368A3600020E9
:104440001AE0C06802F026FD236C5B42E2681A4461
:10445000E26021688A4202D262681344E360022E5D
:1044600007D145B1013D002006E0002004E0002016
:1044700002E0002000E000200135A56370BD00BF10
:10448000026C72B110B5C3681344C3604468A342A0
:1044900001D30368C3600C46C168204602F0FAFCF1
:1044A00010BD704738B5054601F00CFC95F8454045
:1044B00064B20AE06B6A53B105F12400FFF7DCFB3C
:1044C00008B1FFF74DFC013C64B2002CF2DCFF2385
:1044D00085F8453001F006FC01F0F4FB95F8444006
:1044E00064B20AE02B6953B105F11000FFF7C4FB79
:1044F00008B1FFF735FC013C64B2002CF2DCFF236D
:1045000085F8443001F0EEFB38BD00BF38B50446F5
:104510000D4601F0D7FB2168E26B236C03FB021010
:1045200060600020A063A160013A02FB0313E36016
:10453000FF2384F8443084F845307DB92369ABB15A
:1045400004F11000FFF798FB80B14FF08052094B47
:104550001A60BFF34F8FBFF36F8F07E004F11000B5
:10456000FFF7B8FC04F12400FFF7B4FC01F0BAFB3C
:10457000012038BD04ED00E038B51D46049C0B4613
:1045800009B9246000E02260E06323640121204631
:10459000FFF7BCFF84F84C5038BD00BFF0B583B0C6
:1045A000054617460E4611B100FB01F000E0002061
:1045B0005030FFF797FE044638B100903B4600F1BB
:1045C000500231462846FFF7D7FF204603B0F0BD22
:1045D000F0B585B004460F4601921E46002501F055
:1045E00071FBA26BE36B9A4201D3022E21D13246BA
:1045F00039462046FFF708FF636A6BB104F12400D7
:10460000FFF73AFB88B14FF08052324B1A60BFF38C
:104610004F8FBFF36F8F08E038B14FF080522D4BB2
:104620001A60BFF34F8FBFF36F8F01F05BFB012068
:104630004EE0019B1BB901F055FB002048E01DB97D
:1046400002A8FFF755FB012501F04CFBFFF734F9F9
:1046500001F038FB94F844305BB2B3F1FF3F02D174
:10466000002384F8443094F845305BB2B3F1FF3F47
:1046700002D1002384F8453001F034FB01A902A8DF
:10468000FFF742FBF0B92046FFF7A0FEA0B1019969
:1046900004F11000FFF7D0FA2046FFF703FFFFF701
:1046A0009FF900289BD14FF080520A4B1A60BFF34C
:1046B0004F8FBFF36F8F92E72046FFF7F3FEFFF7B0
:1046C0008FF98CE72046FFF7EDFEFFF789F9002010
:1046D00005B0F0BD04ED00E0F8B5EFF311864FF042
:1046E000A00484F31188BFF36F8FBFF34F8F856BE6
:1046F000C46BA54201D3022B1BD11746054690F887
:10470000454064B21A46FFF77FFEB4F1FF3F0AD17D
:104710006B6A83B105F12400FFF7AEFA68B177B197
:10472000012038600CE0013464B285F84540012076
:1047300006E0002004E0012002E0012000E001206A
:1047400086F31188F8BD00BF38B5EFF311844FF040
:10475000A00383F31188BFF36F8FBFF34F8F826B7A
:10476000C36B9A4218D290F845305BB20132826333
:10477000B3F1FF3F0AD1436A83B10D462430FFF7FE
:104780007BFA68B175B1012028600CE001335BB29F
:1047900080F84530012006E0002004E0012002E01E
:1047A000012000E0012084F3118838BD2DE9F0419B
:1047B00084B00446884601921E46002501F082FA24
:1047C000A76B87B3E56841462046FFF759FEB6B9A7
:1047D0007B1EA363236813B9FFF76EFB6060236938
:1047E000EBB104F11000FFF747FAC0B14FF080526F
:1047F0003D4B1A60BFF34F8FBFF36F8F0FE0E56043
:10480000636A63B104F12400FFF736FA38B14FF060
:104810008052354B1A60BFF34F8FBFF36F8F01F09B
:1048200061FA01205DE0019B1BB901F05BFA0020F9
:1048300057E01DB902A8FFF75BFA012501F052FA13
:10484000FFF73AF801F03EFA94F844305BB2B3F166
:10485000FF3F02D1002384F8443094F845305BB226
:10486000B3F1FF3F02D1002384F8453001F03AFA5A
:1048700001A902A8FFF748FA38BB2046FFF7B6FDAA
:10488000E8B1236833B901F01DFA6068FFF77EFADA
:1048900001F028FA019904F12400FFF7CDF9204630
:1048A000FFF700FEFFF79CF8002887D14FF08052F9
:1048B0000D4B1A60BFF34F8FBFF36F8F7EE720461B
:1048C000FFF7F0FDFFF78CF878E72046FFF7EAFDE9
:1048D000FFF786F82046FFF789FD00283FF46EAF0A
:1048E000002004B0BDE8F08104ED00E02DE9F041C6
:1048F000EFF311864FF0A00383F31188BFF36F8F9E
:10490000BFF34F8F846BFCB19046074690F844503C
:104910006DB2FFF7B5FD013CBC63B5F1FF3F0DD1B2
:104920003B699BB107F11000FFF7A6F980B1B8F120
:10493000000F0FD00120C8F800000CE001356DB267
:1049400087F84450012006E0002004E0012002E046
:10495000012000E0012086F31188BDE8F08100BF4E
:1049600000230BE0074A52F8332032B9054A42F8D7
:10497000331002EBC303586070470133092BF1D9A0
:10498000704700BF5C2A000270B504460D4616460B
:1049900001F098F994F844305BB2B3F1FF3F02D1D3
:1049A000002384F8443094F845305BB2B3F1FF3F04
:1049B00002D1002384F8453001F094F9A36B2BB9A0
:1049C0003246294604F12400FFF744F92046FFF758
:1049D00069FD70BD08B5084B012283F874204FF0C3
:1049E000FF32C3F8802000236FF07F024FF4B061E4
:1049F000184601F01DFC08BDC0280002704700BF2A
:104A000038B5124B93F87430012B1ED00446014682
:104A10000F48FEF799F8C0B10C4B93F87430022B95
:104A200004D10122094B83F8742038BD074D094B8E
:104A300095F87620B5F878104FF4B06000F082FD5C
:104A4000022385F87430C5F8804038BDC0280002C4
:104A5000402900020000040570B586B004460D46EA
:104A60000021049102F5C062029208228DF80C2008
:104A7000684602F011FAA3781A0263788DF80130C3
:104A800063789B1800D5FF331B128DF80230E37852
:104A90008DF80330B54B93F87430012B00F063812F
:104AA000A26802F07F02B14991F875108A4240F085
:104AB0005A81802D07D1AD4B022283F874200A223F
:104AC000C3F880204FE1042B06D1602D04D10122D0
:104AD000A64B83F8742046E1052B1DD1402D1BD138
:104AE000A24BD86F40B12278C2F38102C2F1040216
:104AF000211D02F0CFF90AE09C494FF0006391F8C4
:104B00007620B1F878104FF4B06000F01BFD012260
:104B1000964B83F8742026E1082B3CD1602D3AD1C6
:104B2000924AB2F88430B2F886001B1A07331BB2DF
:104B3000DA43D20F002B00DA00238C4991F8881059
:104B40005B0043EA011313438DF8003000230BE0B0
:104B500001338649CC6F551CA1F88450A15C06AA8C
:104B60001A4402F8181CDBB2804AB2F88420904242
:104B700001D9062BECD96946002001F051FD7B4A92
:104B800092F88830B3FA83F35B0982F888300A23FD
:104B9000C2F88030E7E0082B56D1202D54D122787E
:104BA000C2F30012714B93F888108A420DD11C4653
:104BB0006F4B94F87620B4F878104FF4B06000F0A2
:104BC000C1FC022384F87430CDE0684AB2F8843026
:104BD000B2F88600834204D30122644B83F8742028
:104BE000C1E01B1A07331BB2DA43D20F002B00DAE5
:104BF00000235B0043EA011313438DF800300023C8
:104C00000BE001335949CC6F551CA1F88450A15CCD
:104C100006AA1A4402F8181CDBB2544AB2F88420DF
:104C2000904201D9062BECD96946002001F0F8FC2E
:104C30004E4A92F88830B3FA83F35B0982F88830E1
:104C40000A23C2F880308EE0062B36D1402D34D1B5
:104C5000237813F0020F0CD0C3F38102434DC2F14D
:104C60000402211DE86F02F015F9012385F8743064
:104C70001EE013F0010F08D063683C4AB2F88620AA
:104C8000934202D2394AA2F88630384C94F88830E0
:104C90001B0143F0600306A901F8183D002001F054
:104CA000BFFC94F88830B3FA83F35B0984F888304A
:104CB0000A222E4BC3F8802055E0062B53D1002D3D
:104CC00051D12678C6F30012284B93F888309A42C7
:104CD0000DD1264C264B94F87620B4F878104FF47A
:104CE000B06000F02FFC022384F8743037E06FEAE4
:104CF000660606F0070600230FE01C49B1F8842081
:104D0000B1F886108A420CD21849C86F551CA1F818
:104D100084500133E15C8154DBB2B342EDD3002215
:104D200000E00122237813F0010F00D122B101220B
:104D30000E4B83F8742012E00C4C94F888301B0161
:104D400043F0600306A901F8183D002001F068FC5B
:104D500094F88830B3FA83F35B0984F888300A2228
:104D6000024BC3F8802006B070BD00BFC02800020F
:104D70000000030508B513460A4601464FF4B0602B
:104D800000F0E0FB0122024B83F88C2008BD00BF3D
:104D9000C0280002034B012283F88C200022C3F8B4
:104DA00094207047C028000208B5FFF7F3FF08BD44
:104DB0000C4B93F88C30052B12D910B501460A48DC
:104DC000FDF7C2FE58B1074C4FF0006294F8901006
:104DD000B4F88E00FFF7CEFF012384F88C3010BDAD
:104DE000704700BFC028000264290002F0B587B0F8
:104DF00004460D4600210491A14B93F8303003F591
:104E0000B063029308228DF80C20684602F044F843
:104E1000A3781A0263788DF8013063789B1800D567
:104E2000FF331B128DF80230E3788DF80330802DAC
:104E300004D10122924B83F88C209CE1904B93F893
:104E40008C30012B40F0B3808D4B0021A3F89810DB
:104E50006278A07802EB0022A3F88E20E27883F833
:104E6000902083F8A0100A22C3F8A420202D64D13A
:104E70000221204600F086FB002800F07C81227889
:104E800012F0020F22D1C27812F0300F14D07C4AF7
:104E9000C2F89C00082382F88C3006AC602304F82A
:104EA000183D042200210DEB020001F0F5FF214620
:104EB000002001F0B5FB5EE16378A07803EB0020F1
:104EC000704AE17880B2FFF755FF54E1C27812F0E2
:104ED000300F28D160228DF80020E278214600F0C2
:104EE00013FBB0B10422A1180DEB020001F0D2FFB8
:104EF0006946002001F094FB614BD3F89430002BFD
:104F000000F039815E4A92F89010B2F88E0098470E
:104F100031E16378A07803EB00205A4AE17880B24F
:104F2000FFF728FF27E16378A07803EB0020554ABC
:104F3000E17880B2FFF71EFF1DE1402D2DD1012148
:104F4000204600F01FFB0146002800F01481C378C2
:104F5000112B0FD14A4B062283F88C20C3F89C00FA
:104F600041238DF80030038901936946002001F048
:104F700057FB00E103F00703C3F104039B0043F078
:104F8000430306AD05F8183DE278284600F0A0FA84
:104F90002946002001F044FBEDE06378A07803EBA4
:104FA0000020384AE17880B2FFF7E4FEE3E0062B08
:104FB0006CD1602D6AD1324B0A22C3F8A420B3F819
:104FC0008E008DF80100020A8DF8022093F89010EF
:104FD0008DF803102278C2F3001293F8A0309A42A1
:104FE0004AD1274CD4F89C301889B4F8983007215E
:104FF000C01AFDF74DFE0546C6B2D4F89C301B8999
:10500000B4F898209B1A072B05DD94F8A0301B01FB
:105010008DF800300DE01A4A92F8A010C6F107038F
:1050200043EA011343F001038DF80030012382F8B5
:105030008C30072200210DF1010001F02DFF104CF2
:10504000D4F89C305968B4F89830EAB219440DF19C
:10505000010001F01FFFB4F898303344A4F89830F1
:105060006946002001F0DCFA94F8A030B3FA83F32B
:105070005B0984F8A0307EE0034AFFF77BFE7AE00C
:10508000C02800020000010600000305082B69D1BA
:10509000002D67D1394B0A22C3F8A420B3F88E0043
:1050A0008DF80100020A8DF8022093F890108DF817
:1050B00003102278C2F3001593F8A0309D424DD121
:1050C00012F0010F03D001222C4B83F88C2025789D
:1050D0006FEA650505F00705284BB3F89860771966
:1050E000D3F89C301A89974225DC58682A46611CFF
:1050F000304401F0CFFE214CB4F898301D44A4F8A0
:10510000985094F8A0301B0143F0200306AD05F839
:10511000183D072200210DF1010001F0BDFE2946D6
:10512000002001F07DFA94F8A030B3FA83F35B0914
:1051300084F8A03002E0124AFFF71CFE0F4B93F8F0
:105140008C30012B17D10D4BD3F894309BB10B4A07
:1051500092F89010B2F88E0098470CE0094AFFF7D9
:1051600009FE08E06378A07803EB0020064AE178A6
:1051700080B2FFF7FFFD07B0F0BD00BFC0280002FE
:10518000050003050000030500000606C37813F0C0
:10519000C00F04D083788B4206D2002070478378FA
:1051A000994203D0002070470120704701207047CA
:1051B0002DE9F04105460E4600242146274617E01A
:1051C00004EB440293001A4AD35AAB420ED104EBCB
:1051D00044029300164A02EB030831464046FFF7AB
:1051E000D5FF08B9012101E0474601210134A4B2ED
:1051F000192CE5D9C1B9002412E004EB4402930054
:105200000C4AD35A9D420AD104EB44034FEA830867
:10521000904431464046FFF7B9FF00B1474601349C
:10522000FCF796F9A042E8D83846BDE8F08100BF07
:10523000387700000000000210B50D4BB3F8DC34E5
:105240000C4CE3620822002104F1320001F024FE3C
:105250000422114604F13A0001F01EFE00236FF013
:105260007F024FF4E061184600F0E2FF10BD00BF7E
:10527000B0000002C02800020D4B40F69802A3F8CF
:10528000DE24052183F8E014A3F8E224032183F847
:10529000E414A3F8E624042183F8E814A3F8EA242C
:1052A0001E2283F8EC244FF47A72A3F8DC247047B2
:1052B000B000000230B587B0044601461B48FDF738
:1052C00043FCB0B11A4BB3F8DC241A4BDA62002568
:1052D000049593F8303003F5E063029300F0E6F9AB
:1052E0008DF8000001238DF80C306946284601F046
:1052F00097F9002316E003F118020E4901EB420270
:10530000508803F59B720A4901EB8202D2889042D1
:1053100006D203F11802074901EB420220445080F3
:1053200001339BB2032BE6D907B030BDEC28000255
:10533000B0000002C0280002036933BB836823F079
:105340007F02B2F5E06F20D1027B012A1DD130B47B
:1053500003F07F02002315E01D4603F59B710B4C03
:1053600004EB8101097A8A420AD1094A183302EB17
:105370004303002159800378154485F83A3003E04F
:1053800001339BB2032BE7D930BC7047B000000259
:10539000C028000210B400231AE01C4603F59B72DB
:1053A0000E4901EB8202127A82420FD103F11802F8
:1053B0000B4B03EB42035B8804F59B7401EB840405
:1053C000E088834234BF0020012004E001339BB217
:1053D000032BE2D9002010BC704700BFB0000002D0
:1053E000C02800020369EBB9037B082B1DD1836839
:1053F00023F07F03B3F5C06F02D0B3F5B06F17D1C0
:10540000027802F0E003202B15D0602B15D0B3B149
:10541000202B16D0402B16D0602B16D0802A16D108
:10542000802070474FF6FE7070474FF6FE70704751
:105430004FF6FE70704720207047602070470020B4
:1054400070472020704740207047602070474FF61B
:10545000FF70704708B5084B93F8301000234FF0E9
:10546000FF3201F5C061184600F0E2FEFFF7B2FA24
:10547000FFF790FC08BD00BFC028000238B5054604
:10548000FFF7B0FF4FF6FE7398421ED0AA6802F0F5
:105490007F040E4B93F830309C4209D122F07F01FB
:1054A000B1F5C06F04D101462846FFF79FFC38BD17
:1054B0009C420AD022F07F03B3F5B06F05D102F011
:1054C0007F0201462846FFF7C7FA38BDC028000210
:1054D00008B572B6CB7813F0C00F0CD012B98B7828
:1054E00043600EE04968013A03F0070303FB02F34F
:1054F000CB5C436005E003F007024968043001F02B
:10550000C9FC62B608BD00BF10B572B6C37813F00F
:10551000C00F0CD09AB14468501E03F007031A461E
:10552000043103FB004001F0B5FC012008E003F06A
:1055300007020431406801F0ADFC012000E00020CA
:1055400062B610BD30B587B0002504950C4C94F8B8
:1055500030402044029008208DF80C0080208DF807
:1055600000008DF80110090A8DF802108DF8032053
:1055700001936946284601F053F807B030BD00BFDB
:10558000C028000270B504460E464378807803EBCD
:105590000020E17880B2FFF70BFE0546F0B1837A78
:1055A000334226D1012E0CD16378A17803EB01217F
:1055B000114BE27889B24FF4B060FFF7C3FF0025CA
:1055C00017E06378A17803EB01210C4BE27889B2F4
:1055D0004FF4B060FFF7B6FF00250AE06378A178CA
:1055E00003EB0121064BE27889B24FF4B060FFF77C
:1055F000A9FF284670BD00BF010001060200010698
:105600000000020610B586B00D4C7F2323700023E6
:105610004FF0FF321946184600F00AFE00200490B1
:1056200094F8303003F5E063029380238DF8003066
:1056300001238DF80C30694600F0F2FF06B010BD72
:10564000C02800020922024BA3F8D424704700BFEF
:10565000B0000002704700BF08B583681BBB037B26
:10566000012B20D94378104A92F83020934200D081
:10567000CBB90378802B13D004D8012B05D0022B93
:1056800007D008BD822B08D908BD0522064B1A7029
:1056900008BD0422044B1A7008BDFDF791FC08BD3B
:1056A0007F22014B1A7008BDC0280002014B1878F8
:1056B000704700BFC0280002014B1870704700BF40
:1056C000C028000210B5002414E004F5C0500021E9
:1056D00080B2FFF76DFD60B14168124B04F110021A
:1056E000098A43F8221004F1200203EB420300224E
:1056F0009A800134002CE8DD00240FE004F5A0506E
:10570000002180B2FFF754FD38B1416800234FF00B
:10571000FF320968184600F08BFD0134072CEDDDDF
:1057200010BD00BFC0280002F0B400271CE0204CD0
:10573000BA00D3199D002B46254405F5C6651D4EBC
:105740001E440FCE0FC533682B6007F1320304EB04
:1057500043140434184D05EB47150FCD0FC495E8DD
:105760000F0084E80F000137002FE0DD00261AE06B
:105770000F4B06F19D0203EBC20208320F4901EB09
:10578000C60103C982E80300F41C03EB441404F5CA
:105790009A640B4D05EB46150FCD0FC495E80F002D
:1057A00084E80F000136072EE2DDF0BC704700BF31
:1057B000B0000002D0780000B078000070780000DF
:1057C000E47800002DE9F04F87B00546FFF76EFF43
:1057D000052840F0ED800024E7E0A6B206F5C050B1
:1057E000002180B2FFF7E4FC034620B9C27812F032
:1057F000C00F40F0D9805F6804F120036E4A02EBCD
:105800004303B3F90430002B06DD04F120026A499A
:1058100001EB42025B1B93803B68002BC0F2C4800B
:1058200004F11008DFF89091294609EB8800FDF794
:105830008BF959F82830002B00F3B68004F12003CF
:1058400009EB4303B3F90430002B00F3AD80398A30
:1058500049F82810BA6804F1200109EB41039A8045
:1058600008220021684601F017FB06F5D056B6B2B3
:1058700000213046FFF79CFC824648B94F4B00227E
:1058800031464FF4C060FFF75DFE4FF0000B7FE044
:10589000D0F804900026B34675E0B04609EB8603C5
:1058A000DB78BBB15B44082B16DC09EB86039978E7
:1058B00039F82600FFF77CFC824678B909EB8602AE
:1058C0003E4B927839F826104FF4C060FFF73AFE4D
:1058D000012204E0012202E0012200E0002209EBA3
:1058E0008803D9789AF8033003F0070399420AD95C
:1058F00009EB8802324B927839F828104FF4C060D7
:10590000FFF720FE0122002A42D19AF8033013F05B
:10591000C00F26D009EB880292783AB901220AF129
:1059200002010DEB0B0001F0B5FA23E09AF802102A
:105930008A4207D9214B39F828104FF4C060FFF78D
:1059400001FE17E0DAF8041003F00700531E09EB1C
:105950008802D27803FB00110DEB0B0001F09AFADC
:1059600008E009EB8803DA78DAF804100DEB0B0095
:1059700001F090FA09EB880898F803309B445FFA2D
:105980008BFB0136F6B2072E02D8BBF1080F84D18B
:10599000BBF1000F08D0002004908DF80CB03B68DC
:1059A0000293694600F03CFE0134002C7FF715AFEE
:1059B00007B0BDE8F08F00BFC0280002000002065B
:1059C000000001062DE9F04F83B08346FFF76EFE1D
:1059D000052802D10123019301E000230193DBF8A4
:1059E00010300BB100230193019B002B40F0D680B7
:1059F000DAE01FFA8AF4002104F5A050FFF7D8FB83
:105A0000814630B1C37813F0C00F05D0019B0093DD
:105A100004E00023009301E000230093009B43B1C6
:105A2000D9F804301A68DBF808309A4201D0002314
:105A30000093009B83B104F5B05400212046FFF78A
:105A4000B7FB814640B95A4B002221464FF4C06053
:105A5000FFF778FD00230093009B002B00F0998056
:105A6000D9F8047000252C4690E02E4607EB8503FC
:105A7000DB78E1189BF80C20914202DCDDF8008015
:105A800001E04FF000080BB94FF0000837F826008E
:105A900040B907EB8602927822B91C44E4B24FF079
:105AA000000817E007EB86039978FFF781FB814632
:105AB00080B907EB86083E4B98F8022037F826108D
:105AC0004FF4C060FFF73EFD98F803301C44E4B289
:105AD0004FF00008B8F1000F56D007EB8603DA78D4
:105AE00099F8033003F007039A4210D907EB8608B0
:105AF000304B98F8022037F826104FF4C060FFF7BB
:105B000021FD98F803301C44E4B24FF00008B8F1CE
:105B1000000F39D099F8030010F0C00F26D007EB22
:105B200086039A783AB9244B37F826104FF4C060B0
:105B3000FFF708FD23E099F802309A4207D91C4B81
:105B400037F826104FF4C060FFF7FCFC17E0D9F8D7
:105B5000043000F0070E501E07EB8602D2780BEBE4
:105B6000040100FB0E3001F095F908E007EB860315
:105B7000DA780BEB0401D9F8040001F08BF907EB9C
:105B80008606F3781C44E4B20135EDB2072D7FF6AA
:105B90006CAF0AF101035FFA83FA01E04FF0000AEB
:105BA000BAF1070F7FF625AF03B0BDE8F08F00BF55
:105BB00000000206000001064100040608B5044882
:105BC0000823032201461438FCF7D2FF08BD00BFAA
:105BD0001C290002836823F07F02802A14D1026905
:105BE00092B900B583B003F07F038DF80630C38807
:105BF000ADF80430036802A941F8083D0348FCF7FA
:105C0000C1FF03B05DF804FB704700BF0829000224
:105C100000B587B0002301930393049305930949CA
:105C200091F830108031029108218DF80C10ADF8F8
:105C3000060000926946184600F0F2FC07B05DF8D5
:105C400004FB00BFC02800024FF0A00383F31188BB
:105C5000BFF36F8FBFF34F8FFEE700BF06480068AA
:105C6000006880F3088862B661B6BFF34F8FBFF358
:105C70006F8F00DF00BF000008ED00E04FF0807381
:105C800040F8043C21F0010140F8081C034B40F8A7
:105C90000C3C40F8202C4038704700BF495C0000A5
:105CA000074B19680868B0E8F00F80F30988BFF364
:105CB0006F8F4FF0000080F311884EF00D0E70478B
:105CC0005C0800024FF0A00383F31188BFF36F8FCD
:105CD000BFF34F8F024A136801331360704700BF50
:105CE000AC000002034A1368013B13600BB983F355
:105CF00011887047AC000002FFFFFFFFFFFFFFFFAE
:105D0000EFF30980BFF36F8F0D4B1A6820E9F00F96
:105D100010602DE908404FF0A00080F31188FDF7D6
:105D200043FF4FF0000080F31188BDE80840196878
:105D30000868B0E8F00F80F30988BFF36F8F7047F1
:105D40005C08000208B54FF0A00383F31188BFF38D
:105D50006F8FBFF34F8FFDF7BDFD18B14FF080522D
:105D6000024B1A60002383F3118808BD04ED00E0A4
:105D7000064B1B68064AA2FB03239B09013B054A0D
:105D800013600722044B1A60704700BFAC2A000260
:105D9000D34D621014E000E010E000E008B5094BBC
:105DA0001A6842F078721A601A6842F060421A600B
:105DB000FFF7DEFF0022044B1A60FFF74FFFFFF7EB
:105DC00043FF00BF20ED00E0AC00000208B5064B29
:105DD0001860122000F0F8FF122001F01BF81220CA
:105DE00001F02EF808BD00BFAC2000020138C0F35E
:105DF00047107047013800F01F007047234B1B7895
:105E0000072B41D82DE9F0410D4604460733DBB29C
:105E10005AB2520903F01F03012606FA03F31C4984
:105E200041F82230194B93F80080FFF7DFFF074657
:105E30002046FFF7DFFF00EB471008F13002154B5B
:105E400043F8220006FA08F6134A136823EA060606
:105E5000166015F0010F05D00C4B1A780123934002
:105E60000D4A936015F0020F05D0084B1A780123F4
:105E70009340094A5361054A1378084941F8234081
:105E800001331370BDE8F081704700BFA820000205
:105E900000E100E00040014000400A40882000028C
:105EA00008B5054B1B6813B1044A106898470122D6
:105EB000034B5A6208BD00BFAC20000288200002DC
:105EC00000400A4008B5054B1B6813B1044A5068EE
:105ED00098470222034B5A6208BD00BFAC20000263
:105EE0008820000200400A4008B5054B1B6813B12A
:105EF000044A906898470422034B5A6208BD00BFC9
:105F0000AC2000028820000200400A4008B5054B82
:105F10001B6813B1044AD06898470822034B5A62A1
:105F200008BD00BFAC2000028820000200400A40EB
:105F300008B5054B1B6813B1044A10699847102235
:105F4000034B5A6208BD00BFAC200002882000024B
:105F500000400A4008B5054B1B6813B1044A50695C
:105F600098472022034B5A6208BD00BFAC200002B4
:105F70008820000200400A4008B5054B1B6813B199
:105F8000044A906998474022034B5A6208BD00BFFB
:105F9000AC2000028820000200400A4008B5054BF2
:105FA0001B6813B1044AD06998478022034B5A6298
:105FB00008BD00BFAC2000028820000200400A405B
:105FC00038B1064B1A6B586B054B03EA0043D018E7
:105FD0007047024B586BC0F38A00704700000F40B7
:105FE0000000FF1F71B182B20E4B1A635A6B22F48C
:105FF000FF5222F01F025A635A6BC0F30C40104349
:1060000058637047074A536B23F4FF5323F01F0371
:106010005363516B41F6FC7303EA800008435063FD
:10602000704700BF00000F40B0F1005F07D1064B82
:106030009A6AD86A054B03EA0043D0187047024BAE
:10604000D86AC0F38A00704700000F400000FF1FAD
:10605000B1F1005F0ED182B20F4B9A62DA6A22F47C
:10606000FF5222F01F02DA62DA6AC0F30C401043DA
:10607000D8627047084B4FF6FF729A62DA6A22F4D0
:10608000FF5222F01F02DA62D96A41F6FC7202EA7C
:1060900080000843D862704700000F407F22074B02
:1060A0005A62064B1B6A13F4004FFAD1034B186275
:1060B000024B1B6A13F4004FFAD1704700000F40E7
:1060C000890041F0FB01074B5962064B1B6A13F430
:1060D000004FFAD1034B1862024B1B6A13F4004FB6
:1060E000FAD1704700000F4010B50446FFF7D6FF05
:1060F000044A536B43F40043536300212046FFF7E7
:10610000DFFF10BD00000F4010B50446FFF7C6FFCB
:10611000044A536B23F40043536300212046FFF7E6
:10612000CFFF10BD00000F40002308E003F5007111
:10613000374A02EB8102002151600133DBB2002BB0
:10614000F4D010B5324C012384F83430214641F8A4
:10615000383B1823402204F5C760FCF709FD1823DB
:10616000082204F5CA6104F5E260FCF701FD00F0C5
:1061700007FC272000F028FE272000F04BFE2720F8
:1061800000F05EFE4B22234B1A60234BD3F8D83429
:10619000591E224A914203D9214B1F4AC2F8D834D2
:1061A000DA00204B1B68B3FBF2F3013B03F03F0323
:1061B00043F40C53174AD3600024C2F8804104E032
:1061C000601CC0B2FFF7A0FF01341F2CF8DD4FF0B8
:1061D0000062154B1A60154B80225A66C3F8A8203E
:1061E0001921612000F0D4FB2A21622000F0D0FBAD
:1061F00007480123C82200F23C7100F5E560FCF776
:10620000B7FC044A136823F041031360002010BD5B
:10621000B020000200000F40B00000027F841E008A
:1062200090D00300AC2A000200E100E000800F40A3
:106230002DE9F0410E4617461D4672B6002423E0B4
:106240003D4B1A680123A34013421BD0601CC0B20F
:10625000FFF724FFB5F1005F14BF4FF000084FF0C7
:1062600001084046FFF7ACFEB0420BD14FF00050A2
:10627000FFF7DAFEB84205D1304B5B6BC3F38033D6
:10628000434505D00134E4B21F2CD9D9002100E0E8
:106290000121002949D1002345E0274A12684FF027
:1062A000010808FA03F812EA080F3AD10133DCB208
:1062B0002046FFF729FF2046FFF7F0FE2946384623
:1062C000FFF7C6FE1D4BDA6A42F44042DA62002252
:1062D0005A63B5F1005F14BF002101213046FFF77A
:1062E00081FEB5F1005F05D1144A536B43F480433E
:1062F000536304E0114A536B23F4804353634FF418
:10630000A4520E4B9A6300212046FFF7D9FE204687
:10631000FFF7EAFE084A136843EA08031360012105
:1063200003E00133DBB21F2BB7D909B1002000E035
:10633000202062B6BDE8F081B020000200000F40CE
:10634000264BD3F8003113F0010F45D1244B93F8BD
:106350003430002B40D000B587B069462148FCF7A7
:1063600039FC002835D172B60120FFF7CDFE049923
:10637000B1F1005F14BF002101210298FFF732FE46
:10638000164B5B6B049AB2F1005F02D14FF460428E
:1063900001E04FF420421A43104B5A639DF80C2041
:1063A00042F4094242F080029A63BDF80020DA63A9
:1063B000BDF802201A64BDF804205A64BDF8062016
:1063C0009A6401210846FFF77BFE0120FFF78CFE4F
:1063D00062B607B05DF804FB704700BF00000F40D5
:1063E000B0200002C02700022DE9F04188B0414BE7
:1063F0001B690793079B202B69D83E4BD3F840219C
:10640000D3F8447142EA07475EE00125A5403D42CA
:1064100054D072B6601CC0B2FFF740FE002C46D0CC
:10642000344B5B6B13F4804F02D04FF0005000E010
:10643000002004902F4EB36B03F00F038DF80C3047
:10644000003018BF0120FFF7BBFD80460290F36BC0
:10645000ADF80030336CADF80230736CADF8043039
:10646000B36CADF8063000F081F900F5C0608045EE
:1064700019D1049BBBB9009A1F4B9A4213D19DF8C6
:106480000C30042B08D80EE0311D69441B48FCF782
:1064900079FB0136F6B200E000269DF80C30043B93
:1064A0009E42F1DB03E069461548FCF76BFB27EAE7
:1064B000050762B614B90020FFF742FF0134E4B2C9
:1064C00000E000241F2CA0D9002FFAD109E0094BCD
:1064D0005B6813F0800F04D0064A136823F00103B1
:1064E0001360044A536823F01803536008B0BDE8F2
:1064F000F08100BF00000F4022FF5F00D82700029C
:10650000E82600020B4B5B6813F0800F0BD1094BA0
:106510005B6813F0200F08D1064B5B6813F0400F47
:1065200005D10020704703207047042070470520E4
:10653000704700BF00000F4038B504460D46314B90
:1065400093F834306BB915245AE02046FFF7DAFF90
:1065500078B94FF080522C4B1A60BFF34F8FBFF3C6
:106560006F8F2A4BD3F8003113F0010FEDD10024C7
:1065700000E02B24002C43D172B60120FFF7C4FDAC
:106580002969B1F1005F14BF00210121A868FFF75C
:1065900029FD1E4B5B6B2A69B2F1005F02D14FF4FB
:1065A000604201E04FF420421A43184B5A632A7BA1
:1065B00042F4094242F080029A632A88DA636A88C8
:1065C0001A64AA885A64EA889A6401210846FFF787
:1065D00077FD0120FFF788FD62B600220B4BD3F850
:1065E000003113F0010F05D0084B5B6813F0E00F8A
:1065F00002D103E0012201E001222B24002AEDD088
:10660000204638BDB020000204ED00E000000F403D
:1066100008B501460148FCF7DDFA08BDD82700029D
:1066200008B572B60248FCF7ADFA62B608BD00BF05
:10663000C027000208B572B60248FCF7CBFA62B672
:1066400008BD00BFE826000208B5094AB2F92437A0
:10665000002B03DD1B1AA2F8243705E023B94FF6FF
:10666000FF72034BA3F824270020FFF769FE08BD43
:10667000B02000022DE9F0418AB006460C461546CE
:1066800000F07EF972B6B4F5007F0AD003D8B4F5F5
:10669000807F08D105E0B4F5806F02D0B4F5805F4B
:1066A00001D1002000E00C202F0B2B19013B4FEAF9
:1066B0001338002839D1322305930697CDF81C8072
:1066C00001A905A81B4B9847019800282DD1342318
:1066D00005930697CDF81C80174B1B68174AA2FB41
:1066E00003239B09089301A905A8124B9847019819
:1066F000D8B9322305930697CDF81C8001A905A8C7
:106700000C4B9847019880B933230593069507965B
:106710000894094B1B68094AA2FB03239B090993B0
:1067200001A905A8034B9847019862B60AB0BDE8D5
:10673000F08100BF05020003AC2A0002D34D6210B5
:1067400008B50948D0F8A036B3FA83F35B09C0F85E
:10675000A0364FF47C324FF4007100F2CC40FFF7CA
:1067600089FF00B10C2008BDB0000002034B18786F
:1067700010F0800F00D07F20704700BF08F00300AA
:1067800010B4002314E0441C027883EA0223082298
:1067900013F4004F05D041F2210080EA43039BB27D
:1067A00001E05B009BB2013A12F0FF02F0D12046FB
:1067B0000139E8D5184610BC704700BF10B54FF43A
:1067C000EA711B48FFF7DCFF0446002307E0184A84
:1067D000995C03F57C321278914205D10133B3F50F
:1067E000EC7FF4D3012300E00023124AD2F8A02664
:1067F000944200D00023BBB94FF4EC710E48FCF773
:10680000CDFB0C480D4BC0F8CC340D4BC0F8D03448
:10681000C0F8A0464FF47C324FF4007100F2CC4037
:10682000FFF728FF10B910BD002010BD054810BDAE
:106830007C050002B00000021C7A0000EC79000028
:10684000047A00000C00000810B5402400230C4915
:106850000C4A04E011F8010B02F8010B0133A342CA
:10686000F8DB0948D0F8A0464FF4EA7100F2CC40BA
:10687000FFF786FF844201D1002010BD0E2010BD1D
:1068800098F1030014070002B000000208B54FF4AD
:10689000CC724FF47C31034800F0FCFAFFF7D4FFD0
:1068A00008BD00BF7C050002014BD3F8D804704737
:1068B000B000000208B50E2000F086FA0F2000F0AC
:1068C00083FA102000F080FA0B2000F07DFA0B20F4
:1068D00000F0A0FA0B2000F0B3FA08BD10B5C0F329
:1068E000833000F11C04204600F06EFA204600F0D0
:1068F00091FA204600F0A4FA10BD00BF30B441F474
:10690000805501F1600300EBC3046560012440F889
:10691000334002F1A00340F8334004FA01F100EBE8
:10692000C3035960816DA24003239340DB431940A8
:1069300094400C438465426D1340436530BC7047FE
:1069400038B504460D4600F059FAB0FBF5F063681F
:1069500043F004136360636843F00813636000232B
:10696000E364C4F80031C4F800024FF48053C4F863
:1069700004330123C4F8003303F50033236038BD2A
:1069800008B500F03BFA014B186008BDAC2A0002C4
:1069900030B400F00F03DB000009064D55F820402D
:1069A000FF229A4024EA02029940114345F8201040
:1069B00030BC70470080034010B400F01F04C009D1
:1069C0000549703051F820200123A34022EA030337
:1069D00041F8203010BC7047008003404A680B69C2
:1069E000013B9A4211D110B40B6833F812400A7E71
:1069F0004B6903F47023013A120602F070621343EC
:106A0000234343F4E003836107E00B6833F812305B
:106A1000C3614B6801334B6070474B6801334B6077
:106A200010BC70474A680B69013B9A4211D110B4FF
:106A30000B6833F812400A7E4B6903F47023013A65
:106A4000120602F070621343234343F44013836140
:106A500007E00B6833F81230C3614B6801334B60B9
:106A600070474B6801334B6010BC70478B68CA6835
:106A7000406923F81200CB680133CB60704700BF38
:106A800010B50C4600F0BAF9B0FBF4F0013810BDB7
:106A900030B4036813F0010405D0036823F0430306
:106AA0001B051B0D03604B788A780D7813432B432D
:106AB0004A68134303600B894362BC2383601CB1A3
:106AC000036843F00103036030BC704708B50B4B0B
:106AD000984209D12A2000F077F92A2000F09AF98B
