:10100000E03F00028D1100007932000089320000BB
:1010100099320000A9320000B932000096B1FEFDFD
:10102000000000000000000000000000B1620000AD
:101030005111000000000000116300005563000022
:101040005D1100005D1100005D1100005D110000E8
:101050005D1100005D1100005D110000B164000031
:10106000D5640000F96400001D65000041650000C2
:101070006565000089650000AD6500005D11000038
:101080005D1100005D1100005D1100005D110000A8
:101090005D1100005D1100005D1100005D11000098
:1010A0005D1100005D1100005D110000F969000094
:1010B0005D1100005D1100005D1100005D11000078
:1010C0005D1100005D1100005D1100005D11000068
:1010D0005D1100005D1100005D1100005D11000058
:1010E0005D1100005D1100005D1100005D11000048
:1010F0005D1100005D1100005D110000E88300003B
:1011000000000002E0000000E88300000040000250
:1011100000000000E88300000080000200000000E2
:10112000E00000021839000000400002000000004A
:101130000080000200000000FEE700BFFEE700BFE5
:10114000FEE700BFFEE700BFFEE700BFFEE700BF0F
:10115000FEE700BFFEE700BFFEE700BFFEE700BFFF
:1011600010B4002304E004680C600433043004313C
:101170009342F8D310BC7047002303E000220260C2
:10118000043304308B42F9D3704700BF10B50F4BC6
:1011900007E003F10C049A6859681868FFF7E0FF4C
:1011A00023460B4A9342F4D306E01C46596854F890
:1011B000080BFFF7E1FF2346064A9342F5D30122CD
:1011C000054B1A6000F03EFCFEE700BFFC1000007B
:1011D0002011000038110000D8400740FFFFFFFF3A
:1011E000FFFFFFFFFFFFFFFFFFFFFFFFFFFFFFFF0F
:1011F000FFFFFFFFFFFFFFFFFFFFFFFFFFFFFFFFFF
:10120000FFFFFFFFFFFFFFFFFFFFFFFFFFFFFFFFEE
:10121000FFFFFFFFFFFFFFFFFFFFFFFFFFFFFFFFDE
:10122000FFFFFFFFFFFFFFFFFFFFFFFFFFFFFFFFCE
:10123000FFFFFFFFFFFFFFFFFFFFFFFFFFFFFFFFBE
:10124000FFFFFFFFFFFFFFFFFFFFFFFFFFFFFFFFAE
:10125000FFFFFFFFFFFFFFFFFFFFFFFFFFFFFFFF9E
:10126000FFFFFFFFFFFFFFFFFFFFFFFFFFFFFFFF8E
:10127000FFFFFFFFFFFFFFFFFFFFFFFFFFFFFFFF7E
:10128000FFFFFFFFFFFFFFFFFFFFFFFFFFFFFFFF6E
:10129000FFFFFFFFFFFFFFFFFFFFFFFFFFFFFFFF5E
:1012A000FFFFFFFFFFFFFFFFFFFFFFFFFFFFFFFF4E
:1012B000FFFFFFFFFFFFFFFFFFFFFFFFFFFFFFFF3E
:1012C000FFFFFFFFFFFFFFFFFFFFFFFFFFFFFFFF2E
:1012D000FFFFFFFFFFFFFFFFFFFFFFFFFFFFFFFF1E
:1012E000FFFFFFFFFFFFFFFFFFFFFFFFFFFFFFFF0E
:1012F000FFFFFFFFFFFFFFFFFFFFFFFFFFFFFFFFFE
:1013000038B504464FF400430380438000258571BF
:10131000C5716421083001F07FFE01234FF4805233
:101320004FF4005104F1280001F09EFE2B464FF4CB
:1013300080524FF4704104F1400001F095FE6421A9
:1013400004F1180001F068FE01234FF480524FF4BD
:10135000005104F1340001F087FE2B464FF4805217
:101360004FF4704104F14C0001F07EFE38BD00BF27
:10137000F8B50546C379012B44D1FFF7C1FFF8BD8D
:1013800034463001083035F81610284401F050FE7C
:10139000731C05EB03135968002900DAFF3104EBD5
:1013A0004403980028300912284401F063FE631CAE
:1013B00005EB03135968002900DAFF3167003B1978
:1013C000980040300912284401F054FE2744BB0025
:1013D0002B4493F8483033B904EB4404A3002B4466
:1013E00093F830305BB1EB79022B05D0334A4FF4E0
:1013F0007F40002104F010FF0223EB7105E001366D
:10140000F6B200E00026012EBAD9EB79002B52D1BA
:101410006B882888181AB0F5805F1ADD4FF44D42AA
:101420004FF4805101F0F6FE002803DBB0F57A7F1F
:1014300002DC03E0002001E04FF47A7000FB00F0D2
:101440001F4B83FB0023C017C0EBE31000F5FA70BD
:1014500020E010F5805F1BDA1A4A1B4901F0DAFE22
:10146000002803DBB0F57A7F02DC03E0002001E016
:101470004FF47A7000FB00F0114B83FB0023C01780
:10148000C0EBA310C0F57A7000EBD070401001E003
:101490004FF4FA70B0F57A7F02DC002804DA02E03B
:1014A0004FF47A7000E000207F226FF07F0101F09E
:1014B000A1FEA871F8BD0023AB71F8BD12000900B0
:1014C000D34D62100033FFFF00F0FFFF00B583B083
:1014D000827F90F88A30B0F910010090024802F043
:1014E0002DF803B05DF804FBE876000070B582B01B
:1014F000244802F023F8244C2188244802F01EF8E6
:1015000094F8581B0131224802F018F8214904F2DE
:10151000DC70FFF7DBFF204904F51060FFF7D6FF12
:101520001E4904F61420FFF7D1FFB4F8482B94F8B5
:101530004A1B1B4802F002F894F89B1B94F9982B65
:1015400094F9993B94F99A0B0090164801F0F6FF34
:10155000B4F87C2B94F87E1B134801F0EFFF94F84D
:101560008D5B94F88E6B94F88C4B052004F016FA82
:1015700000902346324629460C4801F0DFFF02B0B6
:1015800070BD00BF14770000E00000022477000067
:101590003C77000048770000507700005877000043
:1015A0006077000084770000B8770000DC770000E7
:1015B000F0B587B022B11C4616461B79022B03D02A
:1015C0003E4801F0BBFF76E027683D49384606F00B
:1015D00025F8A0B13B49384606F020F888B13A49D1
:1015E000384606F01BF870B13849384606F016F850
:1015F00058B13946364801F0A1FF002506E0354DC7
:1016000004E0354D02E0354D00E0354D002D52D05F
:10161000022E40D9237B022B3AD1237D012B37D1D7
:10162000A66824692F49304605F0F8FF08B96C8098
:1016300031E02D49304605F0F1FF08B92C802AE051
:101640002A49304605F0EAFF08B9EC8023E0284932
:10165000304605F0E3FF08B9AC801CE02549304670
:1016600005F0DCFF08B92C8115E02349304605F070
:10167000D5FF08B96C810EE02049304605F0CEFF59
:1016800008B9AC8107E031461D4801F057FF02E080
:101690001C4801F053FF6A882B88E988A8882C89A8
:1016A0006E89AD89049503960294019000913946A4
:1016B000154801F043FF07B0F0BD00BF20780000DF
:1016C00044780000487800004C7800005078000012
:1016D00054780000900E00029E0E0002AC0E000234
:1016E000BA0E00026C780000747800007C7800006C
:1016F000847800008C7800009078000094780000D6
:101700009C780000B4780000047900001120704734
:101710000220704708B50121014800F081FE08BD94
:10172000E800000208B5024800F058FF08BD00BFFD
:10173000E800000210B502E0012000F075FB0E4B3E
:101740001B78002BF8D00D4C022104F2DC7002F063
:1017500031F9022104F5106002F02CF9022104F69F
:10176000142002F027F9022104F62C3002F058F878
:10177000022000F059FBE6E7D00E0002E000000274
:1017800000B587B002E0012000F04EFB094B1B784A
:10179000002BF8D003E06946002005F049FA6946BD
:1017A000054800F035FF0028F5D0022000F03CFB92
:1017B000F5E700BFD00E0002E8000002F0B587B0E8
:1017C00005F04AFB80B14C4C0023A4F8AE3D322317
:1017D000A4F8AC3D04F55B6000F0BAF904F6BE5025
:1017E00000F00AFA05F0F2FA434C0025258084F84F
:1017F0008F5B84F8905B84F88E5B84F88D5B84F853
:101800008C5B84F8915B84F8925B04F55B6104F572
:10181000FA6000F0ABF904F6BE5104F6F40000F0F3
:101820000FFA04F69430FFF76BFDFFF771FF0146E6
:10183000324801F05FFA222004F0E0FD0646222043
:1018400004F0E0FD00EB46102D4B43F82050222021
:1018500004F0D4FD0646222004F0D4FD4FF0E052FF
:1018600006F5006352F82310012606FA00F008433B
:1018700042F82300222004F0C1FD0746222004F094
:10188000C1FD7F0107F1E0573E541E4804F0A6FD5C
:1018900005F012FB0090132332461B4904F10800A7
:1018A00000F094FC04F53664184B0493013B039359
:1018B0000A23029346F2A813019343F69823009358
:1018C00043F2636326224FF48001204601F024FF97
:1018D0003146204601F07CFF2B462A462946284601
:1018E00004F0AEFF0A4800F0CFFB052000F0C8FB73
:1018F000084B1E7007B0F0BDE0000002C876000083
:1019000000800F40151700000080044011000900FE
:1019100025170000D00E000238B54948FFF74EFFEA
:1019200001F02CFA464CB4F9EC0805F073FE0546BC
:10193000B4F9100A05F06EFE284485B2B4F9240B00
:1019400005F068FE2844208004F69430FFF710FD6F
:1019500094F99A3B84F8F438142104F5FA6000F005
:1019600035F9142104F6F40000F0DCF904F53664CE
:101970000121204601F02CFF1421204601F050FFE8
:10198000032004F00BF8042004F008F81E2004F0F3
:1019900005F828B10122A4F5366383F89B2B08E0F3
:1019A000274B93F89B3B012B03D10022244B83F858
:1019B0009B2B052003F0F2FF80B9032003F0EEFF1C
:1019C00060B9042003F0EAFF40B91D4BB3F88C3B2B
:1019D000012B03D11A4B93F88E3B83B9184B042289
:1019E00083F8FA2783F8662883F81E2983F88A2962
:1019F00083F8322A83F89E2A83F87E2B1CE0104C51
:101A000004F2DC7001F006FF04F6480001F002FF6A
:101A100004F5106001F0FEFE04F66C1001F0FAFE11
:101A200004F6142001F0F6FE04F5286001F0F2FE41
:101A300004F5366001F0EEFE142000F0F5F96FE7D2
:101A4000E000000200B583B0124C204600F03CFAE2
:101A5000002501950223009323464FF400720E499E
:101A60000E4800F0CBF901950323009323464FF471
:101A7000C0720B490B4800F0C1F901950423009393
:101A800023464FF480720849084800F0B7F902F085
:101A9000E3F9FEE7E0000002607A00001919000097
:101AA000687A000081170000707A00003517000086
:101AB00000238370C37003710370437043717047D8
:101AC00070B504460E4690F90050002303718370F0
:101AD000C3703DB190F9013023B9012383703C23D9
:101AE000836015E03DB994F9013023B10123E3701F
:101AF000002363710CE05DB1284605F08BFD64287E
:101B000001DD01236371A368002B01DD9E1BA6602C
:101B1000657070BD90F9000088B108B57F226FF044
:101B20007F0101F077FB4FF47A72084901F062FB04
:101B3000B0F57A7F05DC10F57A7F06DA04E0002044
:101B400070474FF47A7008BD004808BD18FCFFFFCD
:101B5000642303814381002383814FF47A7242809E
:101B600050230380C2808380704700BF30B58BB0A4
:101B700004460D46FFF79CFFC4F82051114B099312
:101B8000023B0893013307934FF41023069341F26D
:101B9000883305934FF47A63049340F253630393BD
:101BA000094BB3F9AE2D0292B3F8AC3D019301237A
:101BB000009300231322294604F10C0001F0A6FE35
:101BC0000BB030BD03000900E000000210B5044670
:101BD000FFF776FF074BB3F9103A1BB9054BB3F982
:101BE000240B18B12046FFF795FF00B2A4F8E800D7
:101BF00010BD00BFE000000270B464230381438184
:101C0000002383814FF47A724280FA210180C280DE
:101C100081801E24C482038343834FF4E1650582DF
:101C2000C826C681858241828484C3840385C28399
:101C30009623838342845023038470BC704700BF83
:101C40002DE9F0438BB004468946FFF731FFC4F815
:101C50006892012384F864324FF47A72C4F8342213
:101C60002C4A0992023A089201320792023A0692ED
:101C700041F2883705974FF47A68CDF8108040F22A
:101C800053660396244DB5F9AE2D0292B5F8AC2DEE
:101C90000192082200920C2209F10E01A01801F015
:101CA00035FED4F8681294F86432C3EBC3035800CD
:101CB0001A4B09934FF00913089301330793023B22
:101CC00006930597CDF810800396B5F9AE3D0293C3
:101CD000B5F8AC3D01934FF4807300930B230422BD
:101CE000014404F5907001F011FE0D4B0493013B8B
:101CF00003933223029343F69823019300973346CC
:101D00001B224FF4801104F50E7001F005FD0BB09D
:101D1000BDE8F08307000900E00000020B000900A5
:101D20000F00090038B504460D46FFF7C9FED4F888
:101D3000681294F86432C3EBC3035A00114404F1EF
:101D40000C0001F00DFFD4F8681294F86432C3EB74
:101D5000C3035A00114404F5907001F001FF2946B5
:101D600004F50D7001F0A8F9214B93F8913B1BB1DC
:101D70001F4B93F8923BDBB92046FFF7CBFE98B19F
:101D8000D4F83432002B0FDC194B93F8913B0BB98C
:101D9000184A00E0184A4FF47F40002104F03CFA52
:101DA0004FF47A73C4F834320023A4F8E8300FE01B
:101DB0002046FFF7AFFEA4F8E80094F8643223B1A0
:101DC0002046FFF7A7FE00B200E00020A4F8FC01C7
:101DD00004F50E70B4F91C3123B9B4F930321BB9D3
:101DE000002102E0012100E0012101F0F1FC38BDF9
:101DF000E00000020C0009000D00090030B583B0BE
:101E0000084D2C6814442C60B4F5FA5F01D300BF70
:101E1000FDE7079C0194069C009492B201F0EAFF52
:101E200003B030BDE00E000210B582B0044602F0EF
:101E30004FF802AB43F8040D2146184602F044F96E
:101E400002B010BD10B501220E4B1A700E4C0023CB
:101E50004FF0FF321946206802F0ACFF022004F078
:101E6000FBFE022001F0D6F8022000F0BDF80023AE
:101E70001A461946206802F0AFFE0220FFF7D4FF91
:101E8000E4E700BFDC0E000204380002054B1B68CB
:101E900033B110B5034B1C6801F0E8F9A04710BD41
:101EA000704700BFD40E000208B5064801F046FB9B
:101EB0004FF0A00383F31188BFF36F8FBFF34F8FF1
:101EC000FEE700BF7C7A000000B583B001F0EEF8B9
:101ED00003220021012002F065FE1E4B1860002342
:101EE0001A46194602F078FE0B2005F09BFA0B20EB
:101EF00005F0AEFA0D2005F095FA0D2005F0A8FAD0
:101F00000D2005F069FA0C2005F066FA4FF0E0505C
:101F100004F0D8FF04F0C2FF08B100F059F804F053
:101F20000BFC00F023F800F095FB00F0F1FC00F052
:101F300079FD00F079FC00F013F8002301934FF6CF
:101F4000FF720092802204490448FFF757FF03B054
:101F50005DF804FB043800029C7A0000451E000076
:101F600008B5172005F038FA08BD00BF38B5154B85
:101F700093F8F43B144A82F8303013F0800F03D00A
:101F80007F22114B83F830200F4C0025C4F8A85055
:101F9000552363600D4B23616561A56110222946BD
:101FA00004F11C0005F080FAE560A56003F02EFE48
:101FB00003F046FC03F052FD03F088FE04F002F942
:101FC00038BD00BFE00000020838000256455355F6
:101FD00008B503F03BFE03F053FC03F013F803F0E5
:101FE000E7F903F0A5FE08BD10B586B084B220461F
:101FF00003F064FC204603F0E9FE204603F02EFEC9
:10200000204603F001F8204603F0D6F916E06846B2
:1020100003F026FE684603F093FC684603F0D6FF03
:10202000684603F02FFD684604F0D8F8114BD3F84A
:10203000A8401CB101F01AF96946A0476946002082
:1020400004F000FE0028E2D00A4BDA680A4B9A42FC
:1020500004D10022074BDA6004F0FEFE054B9A68BB
:10206000064B9A4204D10022024B9A6004F0AEFE65
:1020700006B010BD083800026C6F6164736176654C
:1020800008B503F01DFE08BD014BC3F8A80070475A
:102090000838000270B590B004460D4600F5F566AC
:1020A0000AA9304601F04EF8002840F08D80002348
:1020B000039304930593069307930893ADF8243094
:1020C00002936DB9A023ADF80C302179022301935E
:1020D000082300936B4403AA206800F069FC02E027
:1020E0002B88ADF80A30BDF80A3003F004039BB228
:1020F000002B69D10AA9304601F03CF84023ADF825
:102100000C300E9B73B90C9BC3F3C702ADF80E20C5
:102110005B01DBB2ADF810300023ADF81230ADF842
:10212000143015E00C9BC3F34752ADF80E209A0C07
:102130005201D1B2C3F301420A4342F00802ADF8A2
:102140001020C3F30722ADF81220DBB2ADF8143033
:102150009DF83430082B02D908238DF834309DF8CF
:10216000340085B2ADF8165000230BE09A1D10A97B
:10217000194411F8181C10AE06EB420222F8341C68
:102180000133DBB28342F1D3217906350095082370
:1021900003AA206800F02AFC8123ADF80C302179D5
:1021A00001230093082303AA206800F01FFCA0234A
:1021B000ADF80C30217920680223019308230093A5
:1021C0006B4403AA00F0F4FB10B070BDF0B58DB005
:1021D0000446016002718360129BC0F8BC3718236B
:1021E0001E2200F1100100F5387000F079FF18236D
:1021F000322204F53E7104F5F56000F071FF032210
:102200000021012002F0CEFCC4F8C00700231A46CA
:10221000194602F0E1FC00234FF0FF321946D4F8D2
:10222000C00702F0C7FDA568284604F0E7F8064697
:10223000284604F0E7F84FF0E05106F5006351F846
:102240002320012707FA00F022EA000241F82320A8
:10225000284604F0D3F80646284604F0D3F800EBED
:10226000461010226C4B43F820200221A06804F095
:10227000CDF800250795089509950A950B950295C7
:102280000395049505950695C023ADF81C3021797A
:102290000097082307AA206800F0A8FB1420FFF786
:1022A000C3FD0326ADF81C600F23ADF81E301422C9
:1022B000294602A805F0F8F8217901960823009331
:1022C0006B4407AA206800F073FBBDF80C30872B25
:1022D00040F09680D4F8BC371A01504BB3FBF2F3B0
:1022E0000225ADF81C502A22ADF81E2003F03F0352
:1022F000ADF820308923ADF82230ADF82450217993
:1023000005230093082307AA206800F06FFBADF8AF
:102310001C500D23ADF81E300027ADF82070217938
:102320000096082307AA206800F060FBADF81C5057
:102330006023ADF81E30ADF8207021790096082397
:1023400007AA206800F052FBADF81C500C23ADF832
:102350001E30ADF8207021790096082307AA206866
:1023600000F044FBADF81C507023ADF81E30ADF802
:10237000207021790096082307AA206800F036FB18
:10238000ADF81C502023ADF81E30082239460DEB65
:10239000030005F089F821790A230093082307AA8E
:1023A000206800F023FBADF81C502C23ADF81E3044
:1023B000ADF8207021790096082307AA206800F064
:1023C00015FBADF81C502B23ADF81E300723ADF8DC
:1023D000203021790096082307AA206800F006FB28
:1023E000ADF81C500F23ADF81E30ADF822702179E6
:1023F0000096082307AA206800F0F8FA012500E0FB
:10240000002500231A461946D4F8C00702F0E4FB61
:1024100028460DB0F0BD00BF00800F40001BB70084
:10242000F0B597B005460E4649B100221146D0F8E6
:10243000C00702F05FFD003018BF012008E0002354
:102440004FF0FF321946D0F8C00702F0B3FC01206C
:10245000002840F0A280BEE00023089309930A936D
:102460000B930C930D930E930F9310931193129360
:10247000139314931593A023ADF8203029790223E8
:102480000193082300930FAB08AA286800F090FA84
:10249000BDF83E3013F0030F61D0BDF84030C3F3F8
:1024A00040039B0043F0900316AC24F8383D1A22F9
:1024B00000210DF1220004F0F7FF29790E2301938A
:1024C000082300930FAB2246286800F071FABDF88C
:1024D000403003F0100292B212B14FF0005200E00F
:1024E0000022069292B1BDF83E105A09920402EB06
:1024F00041521B0403F440331344BDF8422003EB64
:102500000223BDF844201344049305E0BDF83E20A7
:102510005B0903EBC2030493BDF8463003F00F03DD
:102520008DF81430082200210DEB020004F0BCFFEE
:1025300000230BE09A1D16A901EB420232F81C1C85
:1025400016AA1A4402F8501C0133DBB29DF814207D
:102550009342EFD302A905F5387000F0CBFDBDF82A
:102560003E3003F004039BB2BBB90523ADF8203025
:102570002C23ADF822300423ADF824300022ADF82E
:10258000262029790093082308AA286800F02EFA4B
:102590000DF13E012846FFF77DFDAF68384603F098
:1025A0002DFF0446384603F02DFF640104F1E0548A
:1025B000235C13F0FF0F3FF44FAF2EB10021D5F88D
:1025C000C00702F0C5FB06E000231A461946D5F8FD
:1025D000C00702F001FB17B0F0BD00BF38B50446DC
:1025E0000D4600234FF0FF321946D0F8C00702F025
:1025F000E1FB294604F5F56000F07CFD054600236B
:102600001A461946D4F8C00702F0E6FA284638BD43
:1026100038B504460D460021FFF702FF00234FF0B6
:10262000FF321946D4F8C00702F0C4FB002120464F
:10263000FFF730FD294604F5387000F09BFD054694
:1026400000231A461946D4F8C00702F0C5FA2846F6
:1026500038BD00BF70B5324B00241C805C80214621
:102660004FF0804004F0DEFD2E494FF0804004F032
:10267000FFFD4FF08040C46604F00CFE4FF0804335
:102680001B6813F0804FF9D1264E31464FF0804041
:1026900004F0EEFD244D00242C62204604F094FC4E
:1026A0006C61032004F090FCC5F88040082004F021
:1026B0008BFCAC670B2004F087FCA5F5F0252146C8
:1026C000284604F0AFFD3146284604F0D1FDEC6603
:1026D000284604F0DFFD154B1B6813F0804FFAD13C
:1026E0001049124804F0C4FD0F4D0024C5F888407D
:1026F000102004F069FCC5F88C40112004F064FC43
:10270000EC63142004F060FC2C64152004F05CFCE5
:10271000C5F89040162004F057FC204670BD00BF5D
:10272000E40E000220A1070000800F4000000840D6
:1027300038B50446B0F5805F3CD24FF0004200212E
:102740004FF0804004F0C4FD44F480234FF08042F9
:102750009360002302E000BF01339BB2B3F5006F2A
:10276000F9D34FF0004200214FF0804004F0A6FD65
:102770004FF0806200214FF0804004F09FFD07E0A1
:102780004FF08052264B1A60BFF34F8FBFF36F8F0D
:102790004FF080431B69002BF2DA204600F04CFD1D
:1027A000C0B200F108034FF0804252F82300C0F39A
:1027B0000B1001E04FF0FF30B4F5805F2ED3240BF7
:1027C000184D4FF000420021284604F081FD44F4EA
:1027D0008023AB604FF000420021284604F06EFDDC
:1027E0004FF080620021284604F068FD07E04FF0BA
:1027F00080520B4B1A60BFF34F8FBFF36F8F094BA3
:102800001B69002BF3DA204600F016FDC0B200F180
:102810000803044A52F82300C0F30B1038BD00BF70
:1028200004ED00E00000084008B5402004F028FE58
:10283000092004F0D1FD092004F0F4FD092004F082
:1028400007FE002008BD00BF0160426083600023D6
:1028500083610362C36047F6FF720261034A42610B
:10286000C361012380F82430704700BF0080FFFF60
:1028700070B590F824305BB1022B0BD1036A04339E
:10288000082B09D8002380F824301C461A4605E09E
:10289000002403E0012401E001240022002C31D0B7
:1028A0008569AB1A866806EB8606B500B5FBF1F5BF
:1028B00005FB03F52D0A8261C669B31AC2681A4482
:1028C0000469A24201DDC46005E04469A24201DA64
:1028D000C46000E0C260066806EB8606B400B4FB84
:1028E000F1F404FB03F4C668426802EB8202930031
:1028F000B3FBF1F101FB06F1090C01EB14432B448E
:10290000036270BD836842680168FFF79DFF70BD78
:10291000F0B585B0234C204604F0E0FB224D802723
:10292000AF620A21312004F03BFBEF620B21322021
:1029300004F036FB2F630C21332004F031FB082315
:102940002B631A49204604F0A3FBADF80C000423C6
:102950008DF8043000268DF805608DF8066002962B
:102960006F620921402004F01BFB01A9204604F0FE
:1029700097FB01238DF800308DF801308DF802604F
:102980008DF803306946204604F0C2FB236823F02B
:10299000C2031B051B0D2360236843F00103236062
:1029A00005B0F0BD0080044000800F408096980084
:1029B00000B589B0019203939DF82830ADF81C3022
:1029C000BDF82C3005936FEA014101F470210691A6
:1029D00000230293049301A904F0B4FB08B1012081
:1029E00000E0002009B05DF804FB00BF00B589B02D
:1029F000019200220392ADF81C30BDF828300593F7
:102A00006FEA014101F4702106910292049201A93A
:102A100004F0D4FB08B1012000E0002009B05DF80B
:102A200004FB00BF2DE9F0414E4B4F4C1C604F4D55
:102A30005D604F4F9F60DFF83C81C3F80C802046FB
:102A400004F054FA4FF49661204604F081FA07210D
:102A5000712004F0A5FA00220121204604F056FA64
:102A60000026C4F804620421722004F099FA0122BD
:102A70000221204604F04AFAC4F80862852004F0D6
:102A8000A3FA03220421204604F040FAC4F810629D
:102A9000862004F099FA04220521204604F036FA33
:102AA000C4F81462636823F004136360284604F0DA
:102AB0001DFA4FF49661284604F04AFA8A2004F081
:102AC00083FA03220421284604F020FAC5F8106294
:102AD0008B2004F079FA04220521284604F016FA26
:102AE000C5F814628C2004F06FFA052206212846EE
:102AF00004F00CFAC5F818626B6823F004136B60DD
:102B0000384604F0F3F94FF49661384604F020FAA1
:102B10008F2004F059FA03220421384604F0F6F914
:102B2000C7F81062902004F04FFA042205213846BD
:102B300004F0ECF9C7F814627B6823F004137B609F
:102B4000404604F0D3F94FF49661404604F000FA91
:102B5000D8F8043023F00413C8F804303046BDE838
:102B6000F08100BFE80E00020080011C00C0011CC3
:102B70000000021C0040021C10B483B08DF8070056
:102B8000B1F57A7F01D94FF47A719DF80730DB08EF
:102B90000D4850F823409DF8073003F007029DF8D8
:102BA0000730DB0850F82330D3F8003203FB01F183
:102BB000064BA3FB0131890902F1810344F823107C
:102BC000002003B010BC7047E80E0002D34D621025
:102BD00082B08DF807009DF80730DB080C4A52F8E8
:102BE00023109DF8073003F00703813351F82300C9
:102BF0004FF47A7303FB00F09DF80730DB0852F8BE
:102C00002330D3F80032B0FBF3F080B202B070474B
:102C1000E80E000208B5034B00220349034800F008
:102C20008DFC08BD3C82000024820000A47A0000D4
:102C300070B51E46002412E0184B1B6825012B447A
:102C40005968306804F0EAFC40B9144B1B681D4415
:102C5000AA686968124800F071FC70BD01340F4B1E
:102C60001B799C42E8DB002412E00E4B03EB0413BB
:102C70005D682946306804F0D1FC40B9094B03EB8C
:102C80000414A2682946064800F058FC70BD0134BF
:102C9000052CEAD9044800F051FC70BDB43800029C
:102CA000C87A0000547E0000D47A000010B51C469B
:102CB00012B9002000F054FC23681BB1012000F081
:102CC0004FFC10BD002000F04BFC10BD08B504F017
:102CD0007DF810B9014800F031FC08BD007B000010
:102CE00008B504F035F810B9014800F027FC08BD1C
:102CF000087B000008B5064B1860197100225A7154
:102D00009A71044A0449054800F018FC08BD00BF48
:102D1000B43800023C82000024820000147B0000D2
:102D2000014B1879704700BFB438000210B50F4846
:102D300000F004FC002407E00D4B03EB041359687A
:102D40000C4800F0FBFB0134052CF5D9002408E009
:102D5000094B1B6803EB04135968064800F0EEFBAF
:102D60000134FFF7DDFF8442F2DB10BDD07A0000B2
:102D7000547E0000287B0000B43800022DE9F043A7
:102D800083B06E4B1B68002B00F0D380002502A897
:102D9000002300F8013D03F043FF002840F0CA8003
:102DA000664B5B79C72B04D90022644B5A711225FC
:102DB000EDE701210DF1070000F020F99DF8073043
:102DC0001B2B07D106215E4800F018F900225B4B4F
:102DD0005A71DCE7082B07D1584B5B79002BD6D012
:102DE000013B564A5371D2E70D2B02D00A2B40F01B
:102DF0009980524B5B791BB9524800F09FFBC6E7A4
:102E00004E4A134400249C71274626463EE0F4B106
:102E10004A4B23449B79222B19D1A7B9631E474AF9
:102E200013449B799BB913190021997106F119017B
:102E300002EBC10302201871631C1344063342F8ED
:102E40003130012703E03D4B234400279F71E7B950
:102E50003A4B23449B79202B17D1384B2344002233
:102E60009A71032E11DCDFF8D48006F11A0908EB01
:102E7000C90301221A71A0184044002211460630ED
:102E800004F08AFB48F83900013601342B4B5B799A
:102E90009C42BCDB0024294B5C7118E0274850F8A9
:102EA000063B27013B44596804F0B8FB70B9234B3B
:102EB0001B683B44DC6884B100F0D8F91F4B53F821
:102EC000D01B3246C95BA047012707E00134FFF75A
:102ED00027FF8442E2DB002700E00127F7B9002446
:102EE00015E0194B03EB04135968184804F096FBDE
:102EF00060B9154F24013B19D3F80C8000F0B6F9E6
:102F0000134B3246395BC047012702E00134052CE0
:102F1000E7D91FB90D490F4800F010FB094800F030
:102F20000DFB34E705494A79501C48710A449371F6
:102F30002DE71525284603B0BDE8F083B43800021C
:102F4000307B0000387B0000547E0000BA3800025D
:102F5000843900023C7B000030B587B00024009427
:102F60000194029403940494059403F007FF00F580
:102F7000B0600290144BDD882B1D8DF80C3042237D
:102F80008DF80030FF238DF801305F238DF802307B
:102F90008DF8034023460CE01A1D0B490868098987
:102FA00003FB01F1415C06A8024402F8181C01333E
:102FB000DBB29AB2AA42EFD30020034BD880694615
:102FC00003F0C2FD07B030BDCC000002094B1B78F6
:102FD0006BB100B583B002A901F8010D064800F0FD
:102FE000EFF8FFF7B9FF012003B05DF804FB012003
:102FF000704700BFDC0E0002CC00000270B5064630
:103000000D46002403E0305DFFF7E0FF0134AC42E1
:10301000F9D370BD704700BF002303604160836037
:10302000C3607047002303608360C360704700BFC4
:10303000036803EB0121016083680133836091FB26
:10304000F3F1C16004E00268521A0260013B836040
:10305000836842689342F6DC0846002901DA01F1F0
:10306000FF000012704700BF0160437242600372AC
:10307000704700BF30B4027A437A9A4208D105689B
:1030800044682C448C4203DA83F00103037207E0A6
:103090009A4205D002684468121B914200DA03721A
:1030A000007A003018BF012030BC7047014B186017
:1030B000704700BFFC0E000270B103688B4203DB57
:1030C0005B1A036000207047B3F1FF3F06D04FF05A
:1030D000FF330360012070470120704700207047D4
:1030E000016082800022C28003720161C1601046CB
:1030F000704700BFF8B10246C088938898421CD23E
:1031000010B4002307E0D068CC5C0470D0680130B4
:10311000D0600133DBB2107A8342F4D3D4681168F3
:10312000938800FB0310844200D1D160D38801331F
:10313000D380002003E02D2070471220704710BC80
:10314000704700BF024680B1C38883B139B90020FF
:1031500070471069C05CC85401331BB200E0002303
:10316000107A8342F5DB002070472D20704717202E
:10317000704700BFF0B10246C388EBB1002308E0FE
:1031800011B110690078C854106901301061013321
:10319000DBB2107A8342F3D310B4146911689388B8
:1031A00000FB0310844200D11161D388013BD3801E
:1031B000002003E02D2070471720704710BC704797
:1031C00098B138B50346C588828895420FD2044627
:1031D00031B100681B891A4603FB050004F062F94F
:1031E000E3880133E380002038BD2D207047122092
:1031F00038BD00BFC0F57A7302FB00F201FB03216A
:10320000034880FB0130C917C1EBA010704700BF15
:10321000D34D6210914208D0401A4FF47A7303FBE9
:1032200000F3501A93FBF0F070470020704700BF86
:103230008842A8BF084670474342034001D120207E
:1032400000E01F209AB202B1103813F0FF1F00D027
:10325000083813F00F3F00D0043813F0333F00D08C
:10326000023813F0553F00D001387047014B186801
:10327000704700BFFC0E000208B5024800F05EF97E
:1032800008BD00BFCC7E000008B5024800F056F92A
:1032900008BD00BFD47E000008B5024800F04EF91A
:1032A00008BD00BFE07E000008B5024800F046F906
:1032B00008BD00BFEC7E000008B5024800F03EF9F2
:1032C00008BD00BFF87E000008B528B10268117083
:1032D00002680132026008BD0846FFF777FE08BDAC
:1032E0002DE9F04107460E46151E05DC4FF020087B
:1032F00014E00131013201E00A4600211078002873
:10330000F7D1A94201DA6D1A00E0002513F0020F8F
:1033100002D14FF0200801E04FF0300813F0010F08
:1033200008D000240FE041463846FFF7CDFF0134B6
:10333000013D00E00024002DF5DC04E03846FFF7F5
:10334000C3FF0134013631780029F7D105E0414649
:103350003846FFF7B9FF0134013D002DF7DC204668
:10336000BDE8F081F0B585B005460C9E59B9302313
:103370008DF8043000238DF805300B9B0A9A01A9C3
:10338000FFF7AEFF40E0084633B10A2A06D1002914
:1033900006DA4842012704E0002702E0002700E0A7
:1033A000002704AC002304F8013D0DE0B0FBF2F36C
:1033B00002FB1303092B02DDA6F13A010B44303363
:1033C00004F8013DB0FBF2F00028EFD1A7B10A9B51
:1033D00063B10B9B13F0020F08D02D212846FFF795
:1033E00073FF0A9B013B0A93012606E02D2304F894
:1033F000013C013C002600E000260B9B0A9A214676
:103400002846FFF76DFF304405B0F0BDF0B587B03A
:1034100006460C461F46002583E0252B7BD1621C07
:103420006378002B00F08180252B73D02D2B02D1E7
:10343000A21C012300E00023144602E0013443F003
:1034400002032278302AF9D0002205E002EB820242
:1034500050003039421801342178A1F13000C0B257
:103460000928F3D9732908D13968043701B93249D9
:103470003046FFF735FF054452E0642901D0692941
:103480000CD1396804376120029001930092012326
:103490000A223046FFF766FF054441E078290CD147
:1034A00039680437612002900193009200231022B2
:1034B0003046FFF757FF054432E058290CD13968F0
:1034C00004374120029001930092002310223046DD
:1034D000FFF748FF054423E075290CD1396804370C
:1034E000612002900193009200230A223046FFF7E8
:1034F00039FF054414E0632912D1397804378DF877
:10350000141000218DF8151005A93046FFF7E8FECC
:10351000054405E0144621783046FFF7D5FE013515
:1035200001342378002B7FF478AF16B13368002282
:103530001A70284607B0F0BD107F00000FB400B528
:1035400083B004AB53F8041B01934FF0FF3200200B
:10355000FFF75CFF03B05DF804EB04B0704700BFF9
:10356000BFF34F8F0449CA6802F4E062034B134370
:10357000CB60BFF34F8FFEE700ED00E00400FA05DB
:1035800030B589B004461D468DF81F200163129B9B
:103590000493119B039301230293BDF840300193E0
:1035A000BDF83C300093BDF8383000220D9900F092
:1035B000B3F8002384F82C30BDF93030E3863DB1F8
:1035C0006D004FF47A7393FBF5F5A586A56301E0D2
:1035D0000023A3860025A4F86450A4F866509DF843
:1035E0001F30DBB284F8683094F868002946FFF792
:1035F000C3FA2B4604224FF47A7104F13C00FFF722
:1036000023F909B030BD00BF38B504460D4600F0BF
:1036100007F9B4F864304BB9B4F866300BB1A38B3A
:1036200023B90021204600F0D3F803E00121204611
:1036300000F0CEF8A37F012B13D00023A4F8643050
:1036400004224FF47A7104F13C00FFF7FDF8B4F95D
:103650003630002B01DD5B42E3860023A4F86630A0
:103660004FE0A38E53B1294604F13800FFF724FD43
:1036700020B1E38E5B42E386A38EA36394F82C30E3
:103680004BBBB4F8640080B1236B5A881988FFF7EC
:10369000B1FD00B2236B1A88904201DA10B205E046
:1036A0005B88984202DD18B200E00020A065A28B82
:1036B000294604F13C00FFF7DBF894F86800FFF7B7
:1036C00087FAE36DB4F93620184402EBD27200EBAE
:1036D000620000B208E0B4F86430B4F9360000EBE0
:1036E000D07003EB600000B2002804DB83B2B3F5B6
:1036F0007A7F02D803E0002001E04FF47A70A4F84A
:10370000660094F86800B4F86610FFF735FA38BD23
:10371000A0F86410704700BF2DE9F04104461F4631
:103720000160026272B31546104602F067FE06465B
:10373000284602F067FE00EB46104FF00008234BCE
:1037400043F82080284602F059FE0646284602F03B
:1037500059FE4FF0E05106F5006251F82260012356
:1037600003FA00F046EA000341F82230284602F04E
:1037700045FE0646284602F045FE760106F1E05673
:1037800006F80080256A5DB1284602F037FE06463D
:10379000284602F037FE760106F1E0560023335446
:1037A000A780BDF81830E380BDF81C302381BDF838
:1037B000201004F10C00FFF72FFC099B63620A9BA9
:1037C000A3620023A377A383BDE8F08100800F40AC
:1037D00038B5837F042B1CD0023BDBB2012B16D9FA
:1037E0000D460446032907D1826A2AB14FF47F406F
:1037F000002102F011FD08E0022D06D1626A22B11B
:103800004FF47F40002102F007FDA57738BD01B9D4
:10381000817738BD837F042B01D1002383777047E4
:1038200070B50446837F012B59D1006888B1FEF73B
:103830007FFF002800DA0020A18800FB01F0324958
:1038400081FB0031C017C0EBA11104F10C00FFF7A0
:10385000EFFBA369002B00DAFF33C3F30F23A3832D
:103860002269616991424DD12289934212D9256A18
:103870005DB1284602F0C2FD0646284602F0C2FDB0
:10388000730103F1E05300221A5403212046FFF78D
:103890009FFF70BDE288934212D9256A5DB1284628
:1038A00002F0ACFD0646284602F0ACFD760106F1BA
:1038B000E0560023335402212046FFF789FF70BDF4
:1038C000246AFCB1204602F099FD0546204602F02C
:1038D00099FD6D0105F1E05501232B5470BD0023C6
:1038E00083830C30FFF79EFB246A5CB1204602F014
:1038F00085FD0546204602F085FD6D0105F1E05588
:1039000000232B5470BD00BFD34D62102DE9F0474A
:103910008AB00446129FBDF84C50BDF95060BDF806
:103920005480BDF85890BDF85CA08DF827208DF824
:1039300026300022A0F8DC20A0F8DE20A0F8E0204D
:10394000A0F81021C0F8D810134644F62061E430E6
:10395000FEF77AFF1423C4F80C319DF827201A9B38
:103960000693189B0593CDF810A0CDF80C90CDF8D8
:103970000880019700962B46D4F8D8102046FFF710
:10398000FFFDD4F8D8109DF826201B9B0693199BA9
:103990000593CDF810A0CDF80C90CDF808800197D4
:1039A00000962B46043104F16C00FFF7E9FD0AB0E4
:1039B000BDE8F0872DE9F04704460E46D0F8D83030
:1039C0009B89002B13BF012700274FF001084FF000
:1039D000000800F58670FFF76FFB002879D01423EC
:1039E000C4F80C31D4F8D8301A89642A01D9642279
:1039F0001A81D4F8D8305A89642A01D964225A81AC
:103A0000D4F8D82013890A331FFA83F95589283549
:103A1000ADB2B4F9DC0003F0FDFD8246B4F9DE007E
:103A200003F0F8FD824514DDB4F9DC30B4F9DE2092
:103A300003FB02F3002B0CDB09FB09F344F62062C5
:103A400002FB03F3444AA2FB03235B0BC4F8E430FC
:103A50000BE005FB05F544F6206303FB05F53E4B43
:103A6000A3FB05356D0BC4F8E450B4F9DC301B0141
:103A7000C4F80031B4F9E020142104F1E400FEF7A9
:103A8000F7FED4F80421B4F8E03013441BB2A4F8D4
:103A9000E03043F68F618B4204DD4FF47A73A4F873
:103AA000E03006E02D498B4203DA4FF61843A4F8C4
:103AB000E030B4F9E030002B00DA0F331B11A4F82A
:103AC000DE3032B9B4F9DC30A4F8DE301B01A4F8E2
:103AD000E030B4F9DE30002B15DD6C2505FB084520
:103AE00000212846FFF714FEB5F8663003BB6C23AF
:103AF00003FB0747B4F9DE0003F08CFD81B23846C2
:103B0000FFF706FE14E06C2303FB0747002138464D
:103B1000FFF7FEFDB7F8663053B96C2505FB084585
:103B2000B4F9DE0003F076FD81B22846FFF7F0FD20
:103B300031462046FFF768FD314604F16C00FFF77F
:103B400063FDB4F91C30B4F888200BB953421BB2A2
:103B5000A4F81031BDE8F0875917B7D171C1FFFF44
:103B6000C0F8D81001630431C0F89C10704700BF42
:103B70000A4B1B681B680BB9012300E0002323B12B
:103B80004FF0FF32064B1A607047044B1B68DB682E
:103B9000DB685A68024B1A60704700BF040F0002CE
:103BA000F40F000210B50446006B00F0F1FE204651
:103BB00000F0EEFE10BD00BF2DE9F04781460D4636
:103BC00017469A46089EDDF824800A9C9200A5219B
:103BD000206B03F069FC236B07F18042013A03EB91
:103BE000820727F00707002306E0E95CE21882F865
:103BF0003410EA5C12B10133132BF6D9002384F898
:103C00004730072E00D90726E66226650025656540
:103C1000201D00F06FFC04F1180000F06BFC246123
:103C2000C6F10806A6616462A56584F85C50524638
:103C30004946384602F026FB2060B8F1000F01D05B
:103C4000C8F80040BDE8F08738B5002407E004EB71
:103C5000840293000E48184400F040FC0134072C05
:103C6000F5D90C4D284600F039FC0B4C204600F0ED
:103C700035FC0A4800F032FC094800F02FFC0948E6
:103C800000F02CFC084B1D60084B1C6038BD00BFC9
:103C9000280F0002FC0F000210100002D80F0002D3
:103CA0000C0F000224100002040F0002200F00027B
:103CB00010B5044602F00EFB214A1368013313606D
:103CC000204B1B683BB91F4B1C601368012B0DD1A7
:103CD000FFF7BAFF0AE01C4B1B683BB9194B1B6886
:103CE000DA6AE36A9A4201D8164B1C60174A1368D5
:103CF00001331360A364E36A012202FA03F114485A
:103D000002680A43026003EB83039A00211D1148F5
:103D1000104400F0F3FB02F0EDFA0B4B1B686BB1A3
:103D2000084B1B68DA6AE36A9A4207D24FF0805266
:103D3000094B1A60BFF34F8FBFF36F8F10BD00BFE9
:103D4000D00F0002D40F0002080F0002F80F00028B
:103D500038100002280F000204ED00E070B50446A0
:103D60000E461D4B1D681D4B1868043000F0ECFB1F
:103D700050B91A4B1B68DA6A012303FA02F2184998
:103D80000B6823EA02030B60B4F1FF3F07D136B1A1
:103D9000124B19680431134800F0B0FB70BD2C447D
:103DA0000E4B1B685C60A54207D90F4B18680B4B84
:103DB0001968043100F0AEFB70BD0C4B1868074B5E
:103DC0001968043100F0A6FB094B1B689C4201D224
:103DD000074B1C6070BD00BFF00F0002D40F000243
:103DE0003810000224100002200F0002040F00020D
:103DF000F40F00022DE9F04385B006460F46154644
:103E00009846900000F072FD60B18146602000F09D
:103E10006DFD044610B1C0F8309004E0484600F053
:103E2000B7FD00E000248CB10023039302940D9BA6
:103E300001930C9B009343462A4639463046FFF7D0
:103E4000BBFE2046FFF734FF012001E04FF0FF30BA
:103E500005B0BDE8F08300BF00B583B0124B0193FD
:103E600000230093802211491148FFF7C3FF012866
:103E700001D100F0DBFB012813D14FF0A00383F345
:103E80001188BFF36F8FBFF34F8F4FF0FF32094B95
:103E90001A600122084B1A600022084B1A6002F0D7
:103EA00085FA03B05DF804FBEC0F0002187F0000F8
:103EB00085410000F40F0002080F0002F00F00021D
:103EC000024A136801331360704700BFC80F000235
:103ED000014B1868704700BFF00F0002F8B5374B70
:103EE0001B68002B5CD1364B1E6801361E605EB924
:103EF000344A1168344B186810601960334A1368EB
:103F000001331360FFF734FE314B1B689E4203D22E
:103F100000273AE0012700E000272A4B1B681B68B6
:103F20000BB9012300E0002323B14FF0FF32284BEF
:103F30001A602AE0234B1B68DB68DC6863689E42DA
:103F400002D2234A136020E0251D284600F0FCFA27
:103F5000A36A1BB104F1180000F0F6FAE36A01222B
:103F600002FA03F11B4802680A43026003EB830371
:103F70009A0029461848104400F0C0FAE26A174B2C
:103F80001B68DB6A9A42C5D2C7E7144B1B68DB6A21
:103F900003EB83039A00104B9B58012B06D806E0D5
:103FA0000F4A136801331360002700E001270D4B0F
:103FB0001B6803B101273846F8BD00BFC80F0002D7
:103FC000F00F0002040F0002200F0002000F000299
:103FD000F40F000238100002280F0002D40F000274
:103FE000240F00023C10000238B502F073F92D4B8B
:103FF0001A68013A1A601B68002B4CD12A4B1B68C7
:1040000033BB00244AE0294BDB68DC6804F118006C
:1040100000F09AFA251D284600F096FAE36A01227C
:1040200002FA03F1224802680A43026003EB8303A9
:104030009A0029461F48104400F060FAE26A1E4BBD
:104040001B68DB6A9A4204D301221C4B1A6000E011
:104050000024164B1B68002BD5D10CB1FFF788FD4F
:10406000174B1C6854B1FFF739FF10B10122134BF5
:104070001A60013CF7D10022114B1A600F4B1B68EC
:104080005BB14FF080520F4B1A60BFF34F8FBFF3FD
:104090006F8F012402E0002400E0002402F02AF9DE
:1040A000204638BDC80F0002D00F0002D80F000212
:1040B00038100002280F0002D40F00023C1000024A
:1040C000240F000204ED00E038B505460C46FFF76A
:1040D000F7FE154B18682A681319904205D29A42C8
:1040E00009D9984209D300220CE09A4207D8984295
:1040F00007D3002206E0002204E0012202E00122B0
:1041000000E001222B601AB10021181AFFF726FEE9
:10411000FFF76AFF38B94FF08052044B1A60BFF3C3
:104120004F8FBFF36F8F38BDF00F000204ED00E03A
:1041300010B51BE0FFF7C4FE0F4B1C68FFF754FFE0
:10414000A4B102F0C7F80C4BDB68DC68201D00F05E
:10415000FBF90A4A1368013B1360094A1368013BE3
:10416000136002F0C7F82046FFF71CFD044B1B68E4
:10417000002BDFD110BD00BF0C0F0002D00F0002DA
:10418000CC0F000208B5FFF7D3FF074B1B68012BCC
:1041900007D94FF08052054B1A60BFF34F8FBFF322
:1041A0006F8FFDF773FEEEE7280F000204ED00E0CD
:1041B00038B51E4B1B681BB101221D4B1A6038BD60
:1041C00000221B4B1A601B4B1A6812681B681B6B82
:1041D0009A4205D8174B186819683431FDF764FE08
:1041E000154B1B68B3FA83F3DBB2C3F11F03134D06
:1041F0009900CA18900028444268546844601944E1
:104200008A0008322A44944205D1606803EB830196
:104210008A002A44506003EB83039A00074B1A4438
:104220005368DA68034B1A6038BD00BFC80F00023C
:104230003C100002D40F000238100002280F0002C8
:1042400010B50C46044B1968183100F063F90121D0
:104250002046FFF783FD10BDD40F000238B50D4690
:104260001446064B1968183100F048F90CB14FF0AC
:10427000FF3521462846FFF771FD38BDD40F0002F7
:1042800038B5C368DC6804F11805284600F05CF90D
:10429000134B1B68A3B9251D284600F055F9E36AA6
:1042A000012202FA03F10F4802680A43026003EB9D
:1042B00083039A0029460C48104400F01FF903E0DC
:1042C00029460A4800F01AF9E26A094B1B68DB6AC2
:1042D0009A4203D90120074B186038BD002038BD31
:1042E000C80F000238100002280F0002D80F000289
:1042F000D40F00023C100002034B1B680360034B09
:104300001B684360704700BF000F0002F00F0002FF
:1043100038B504460D4601F0DDFF114B1A682B68D5
:10432000B3F1FF3F13D020680E490968884202D0DC
:1043300061688A420DD26168501A83420BD98A1A89
:1043400013442B602046FFF7D7FF002404E000242D
:1043500002E0012400E0012401F0CCFF204638BD3A
:10436000F00F0002000F00020122014B1A6070479B
:104370003C100002054B1B6823B1054B1B681BB9A1
:10438000022070470120704700207047080F00028C
:10439000C80F000200284AD038B50246C36A244933
:1043A0000968C96A8B4241D28169002905DB20492D
:1043B0000968C96AC1F108018161506903EB83038F
:1043C00099001C4B1944884201D1012300E00023CD
:1043D00043B31446151D284600F0B6F870B9E36AD9
:1043E00003EB83018A0013498A583AB9012202FA81
:1043F00003F311490A6822EA03030B600C4B1B68A4
:10440000DB6AE362012202FA03F10B4802680A4305
:10441000026003EB83039A0029460648104400F02B
:104420006DF838BD024B1B68DB6AD36238BD70473C
:10443000D40F0002280F000238100002002834D0E8
:1044400038B50346426D013A4265C06A196D88422B
:104450002DD072BB1C461D1D284600F075F870B9A2
:10446000E36A03EB83018A0013498A583AB90122AF
:1044700002FA03F311490A6822EA03030B60236D71
:10448000E362C3F10802A261012404FA03F00B49BC
:104490000A6802430A6003EB83039A002946064830
:1044A000104400F02BF8204638BD00207047002053
:1044B00038BD002038BD00BF280F000238100002B0
:1044C000054B1B6823B1044B1A68536D01335365C8
:1044D000014B1868704700BFD40F000200F10803B9
:1044E00043604FF0FF328260C360036100230360CA
:1044F000704700BF00230361704700BF43684B60F3
:104500009A688A609A68516099600861036801330B
:104510000360704730B40D68B5F1FF3F01D1026907
:1045200007E000F1080200E01A4653681C68A54243
:10453000FAD253684B6099608A60516008610368E1
:104540000133036030BC7047036942688168916041
:104550008268416851605A68904201D182685A600D
:10456000002202611868013818607047064B1A680B
:104570001368B3FA83F35B09036013B9D36818684F
:1045800070470020704700BF4010000208B541602E
:10459000006191420AD8D21A83699A4211D2011D50
:1045A0000A4B1868FFF7B6FF002008BD9A4201D2F7
:1045B000994208D2011D064B1868FFF7ABFF002097
:1045C00008BD012008BD012008BD00BF7410000215
:1045D0004010000238B501F07DFE0E4B1B68B3B9E8
:1045E0000D4D2846FFF77AFF0C4C2046FFF776FF6B
:1045F0000B4B1D600B4B1C6000220C21022000F0B5
:10460000D1FA044B186010B1074900F0ADFC01F07D
:1046100071FE38BD701000024410000258100002F4
:104620004010000274100002207F000000B583B02B
:10463000FFF7D0FF084B1B6853B1084B01930223CF
:1046400000930023502206490648FFF7D3FB00E001
:10465000002003B05DF804FB701000027810000227
:10466000287F0000A948000030B585B0134C2568AC
:1046700005B31C46019102920390052913DCFFF754
:1046800079FE022807D10023089A01A90B48006887
:1046900000F0A2FA0FE000231A4601A907480068BB
:1046A00000F09AFA07E00023224601A9284600F00C
:1046B00017FB00E0002005B030BD00BF7010000205
:1046C00070B582B01FE0DB681E68DC68251D2846D7
:1046D000FFF73AFF636A20469847E369012B12D13E
:1046E000A36933449E4207D26360246129460C4B80
:1046F0001868FFF70FFF06E0002100910B463246D5
:104700002046FFF7B1FF064B1B681A68002ADAD172
:10471000044A106802490860136002B070BD00BF0F
:10472000401000027410000238B50546FFF7D0FBB8
:104730000446074B1B68984204D2FFF7C1FF0123D0
:104740002B6001E000232B60014B1C60204638BD2C
:104750006C10000270B582B005460E460E4B1B6809
:10476000DB68DC68201DFFF7EFFEE369012B0ED14B
:10477000A1692B46324629442046FFF707FF30B196
:10478000002100910B462A462046FFF76DFF636A21
:104790002046984702B070BD4010000270B582B04C
:1047A00006460C46FFF78CFB01A8FFF7BDFF019BF7
:1047B0001BBB054644B9B04206D3FFF715FC29469A
:1047C0003046FFF7C7FF1AE02CB10E4B1B681C6880
:1047D000B4FA84F464092246711B0B4B186800F08C
:1047E000D7FBFFF701FC50B94FF08052074B1A601E
:1047F000BFF34F8FBFF36F8F01E0FFF7F5FB02B000
:1048000070BD00BF741000027010000204ED00E0E3
:1048100030B587B03AE0039B002B37DB059C63691A
:1048200013B1201DFFF790FE02A8FFF77DFF039B49
:10483000092B2BD8DFE803F00505052A1E270505FF
:104840002A1E0499A5690B46024629442046FFF713
:104850009DFED8B1636A20469847E369012B15D1C4
:10486000A269002100910B46049802442046FFF7FC
:10487000FBFE0BE00499A161034602460144204679
:10488000FFF784FE02E0204600F082F800231A467B
:1048900003A90448006800F08DFA0028BBD107B0D6
:1048A00030BD00BF7010000200B583B001A8FFF753
:1048B0005DFE0199FFF772FFFFF7AAFFF6E700BF61
:1048C000074B23F00703074A136000205060064A95
:1048D00041F638715160106059601A60704700BF2E
:1048E0009010000280100002C82F000270B504462C
:1048F000FFF7E6FA224B1B6823B9FFF7E1FF01221D
:104900001F4B1A6034B1083414F0070F02D024F0A2
:1049100007040834621E41F636739A4228D81949B2
:104920000B6801E0194613465A68944202D91A6886
:10493000002AF7D1144A93421CD00D6808351A6832
:104940000A605A68121B102A0CD91E1972605C602A
:1049500074680C4900E011460A6850688442FAD82D
:1049600032600E605968094A13685B1A136002E0EE
:10497000002500E00025FFF737FB284670BD00BF8B
:104980007C10000280100002C82F0002D800000234
:10499000D0B170B50546A0F10806FFF791FA55F8B9
:1049A000044C0A4A00E01A46136859688C42FAD847
:1049B00045F8083C166055F8043C054A11680B445C
:1049C0001360FFF711FB70BD704700BF801000023D
:1049D000D800000210B5044601F07CFCA26BE36B2A
:1049E0009A4201D1012400E0002401F083FC20461A
:1049F00010BD00BF10B5044601F06CFCA36B0BB9F1
:104A0000012400E0002401F075FC204610BD00BF29
:104A100070B504461646856B026C3AB9036843BB11
:104A20004068FFF70BFD0023636029E06EB98068E2
:104A300002F038FDA268236C1344A36062689342BD
:104A400019D32368A36000201AE0C06802F02AFD91
:104A5000236C5B42E2681A44E26021688A4202D217
:104A600062681344E360022E07D145B1013D002086
:104A700006E0002004E0002002E0002000E000202A
:104A80000135A56370BD00BF026C72B110B5C3687B
:104A90001344C3604468A34201D30368C3600C4657
:104AA000C168204602F0FEFC10BD704738B50546CF
:104AB00001F010FC95F8454064B20AE06B6A53B10E
:104AC00005F12400FFF7DCFB08B1FFF74DFC013CCA
:104AD00064B2002CF2DCFF2385F8453001F00AFCBB
:104AE00001F0F8FB95F8444064B20AE02B6953B139
:104AF00005F11000FFF7C4FB08B1FFF735FC013CDE
:104B000064B2002CF2DCFF2385F8443001F0F2FBA4
:104B100038BD00BF38B504460D4601F0DBFB216807
:104B2000E26B236C03FB021060600020A063A160B5
:104B3000013A02FB0313E360FF2384F8443084F856
:104B400045307DB92369ABB104F11000FFF798FB44
:104B500080B14FF08052094B1A60BFF34F8FBFF303
:104B60006F8F07E004F11000FFF7B8FC04F1240098
:104B7000FFF7B4FC01F0BEFB012038BD04ED00E0FE
:104B800038B51D46049C0B4609B9246000E022603C
:104B9000E063236401212046FFF7BCFF84F84C50FA
:104BA00038BD00BFF0B583B0054617460E4611B1BB
:104BB00000FB01F000E000205030FFF797FE0446B4
:104BC00038B100903B4600F1500231462846FFF7CD
:104BD000D7FF204603B0F0BDF0B585B004460F46C0
:104BE00001921E46002501F075FBA26BE36B9A4211
:104BF00001D3022E21D1324639462046FFF708FF65
:104C0000636A6BB104F12400FFF73AFB88B14FF0FF
:104C10008052324B1A60BFF34F8FBFF36F8F08E0A3
:104C200038B14FF080522D4B1A60BFF34F8FBFF356
:104C30006F8F01F05FFB01204EE0019B1BB901F07B
:104C400059FB002048E01DB902A8FFF755FB0125DC
:104C500001F050FBFFF734F901F03CFB94F84430CD
:104C60005BB2B3F1FF3F02D1002384F8443094F8E3
:104C700045305BB2B3F1FF3F02D1002384F84530E9
:104C800001F038FB01A902A8FFF742FBF0B920466A
:104C9000FFF7A0FEA0B1019904F11000FFF7D0FAD0
:104CA0002046FFF703FFFFF79FF900289BD14FF045
:104CB00080520A4B1A60BFF34F8FBFF36F8F92E79A
:104CC0002046FFF7F3FEFFF78FF98CE72046FFF74A
:104CD000EDFEFFF789F9002005B0F0BD04ED00E01E
:104CE000F8B5EFF311864FF0A00484F31188BFF3F9
:104CF0006F8FBFF34F8F856BC46BA54201D3022B1F
:104D00001BD11746054690F8454064B21A46FFF796
:104D10007FFEB4F1FF3F0AD16B6A83B105F1240035
:104D2000FFF7AEFA68B177B1012038600CE00134CA
:104D300064B285F84540012006E0002004E001202F
:104D400002E0012000E0012086F31188F8BD00BFD9
:104D500038B5EFF311844FF0A00383F31188BFF34C
:104D60006F8FBFF34F8F826BC36B9A4218D290F84C
:104D700045305BB201328263B3F1FF3F0AD1436A2F
:104D800083B10D462430FFF77BFA68B175B101207D
:104D900028600CE001335BB280F84530012006E06A
:104DA000002004E0012002E0012000E0012084F363
:104DB000118838BD2DE9F04184B00446884601923F
:104DC0001E46002501F086FAA76B87B3E5684146C9
:104DD0002046FFF759FEB6B97B1EA363236813B9BB
:104DE000FFF76EFB60602369EBB104F11000FFF781
:104DF00047FAC0B14FF080523D4B1A60BFF34F8F5E
:104E0000BFF36F8F0FE0E560636A63B104F12400C4
:104E1000FFF736FA38B14FF08052354B1A60BFF3C6
:104E20004F8FBFF36F8F01F065FA01205DE0019BAA
:104E30001BB901F05FFA002057E01DB902A8FFF787
:104E40005BFA012501F056FAFFF73AF801F042FA51
:104E500094F844305BB2B3F1FF3F02D1002384F8F1
:104E6000443094F845305BB2B3F1FF3F02D10023E8
:104E700084F8453001F03EFA01A902A8FFF748FA8C
:104E800038BB2046FFF7B6FDE8B1236833B901F01F
:104E900021FA6068FFF77EFA01F02CFA019904F11B
:104EA0002400FFF7CDF92046FFF700FEFFF79CF83E
:104EB000002887D14FF080520D4B1A60BFF34F8FFF
:104EC000BFF36F8F7EE72046FFF7F0FDFFF78CF80A
:104ED00078E72046FFF7EAFDFFF786F82046FFF760
:104EE00089FD00283FF46EAF002004B0BDE8F081DA
:104EF00004ED00E02DE9F041EFF311864FF0A0033F
:104F000083F31188BFF36F8FBFF34F8F846BFCB1B6
:104F10009046074690F844506DB2FFF7B5FD013C4E
:104F2000BC63B5F1FF3F0DD13B699BB107F11000A8
:104F3000FFF7A6F980B1B8F1000F0FD00120C8F833
:104F400000000CE001356DB287F84450012006E006
:104F5000002004E0012002E0012000E0012086F3AF
:104F60001188BDE8F08100BF00230BE0074A52F82A
:104F7000332032B9054A42F8331002EBC3035860BC
:104F800070470133092BF1D9704700BFA4390002E3
:104F900070B504460D46164601F09CF994F844306D
:104FA0005BB2B3F1FF3F02D1002384F8443094F8A0
:104FB00045305BB2B3F1FF3F02D1002384F84530A6
:104FC00001F098F9A36B2BB93246294604F124006D
:104FD000FFF744F92046FFF769FD70BD08B5084B9F
:104FE000012283F874204FF0FF32C3F880200023A1
:104FF0006FF07F024FF4B061184601F021FC08BD4C
:1050000008380002704700BF38B5124B93F874306F
:10501000012B1ED0044601460F48FEF74DF8C0B1E3
:105020000C4B93F87430022B04D10122094B83F806
:10503000742038BD074D094B95F87620B5F87810E7
:105040004FF4B06000F082FD022385F87430C5F89B
:10505000804038BD0838000288380002000004058E
:1050600070B586B004460D460021049102F5C06279
:10507000029208228DF80C20684602F015FAA378F7
:105080001A0263788DF8013063789B1800D5FF33DE
:105090001B128DF80230E3788DF80330B54B93F88E
:1050A0007430012B00F06381A26802F07F02B149E5
:1050B00091F875108A4240F05A81802D07D1AD4B8E
:1050C000022283F874200A22C3F880204FE1042BC7
:1050D00006D1602D04D10122A64B83F8742046E14D
:1050E000052B1DD1402D1BD1A24BD86F40B122788A
:1050F000C2F38102C2F10402211D02F0D3F90AE0D9
:105100009C494FF0006391F87620B1F878104FF485
:10511000B06000F01BFD0122964B83F8742026E15D
:10512000082B3CD1602D3AD1924AB2F88430B2F8C3
:1051300086001B1A07331BB2DA43D20F002B00DAAA
:1051400000238C4991F888105B0043EA0113134354
:105150008DF8003000230BE001338649CC6F551CDD
:10516000A1F88450A15C06AA1A4402F8181CDBB20C
:10517000804AB2F88420904201D9062BECD96946C6
:10518000002001F055FD7B4A92F88830B3FA83F392
:105190005B0982F888300A23C2F88030E7E0082BE8
:1051A00056D1202D54D12278C2F30012714B93F8BE
:1051B00088108A420DD11C466F4B94F87620B4F8C3
:1051C00078104FF4B06000F0C1FC022384F8743012
:1051D000CDE0684AB2F88430B2F88600834204D346
:1051E0000122644B83F87420C1E01B1A07331BB201
:1051F000DA43D20F002B00DA00235B0043EA0113ED
:1052000013438DF8003000230BE001335949CC6F74
:10521000551CA1F88450A15C06AA1A4402F8181C77
:10522000DBB2544AB2F88420904201D9062BECD963
:105230006946002001F0FCFC4E4A92F88830B3FA2F
:1052400083F35B0982F888300A23C2F880308EE04D
:10525000062B36D1402D34D1237813F0020F0CD019
:10526000C3F38102434DC2F10402211DE86F02F035
:1052700019F9012385F874301EE013F0010F08D0EE
:1052800063683C4AB2F88620934202D2394AA2F8B7
:105290008630384C94F888301B0143F0600306A92F
:1052A00001F8183D002001F0C3FC94F88830B3FAEF
:1052B00083F35B0984F888300A222E4BC3F88020E0
:1052C00055E0062B53D1002D51D12678C6F300129C
:1052D000284B93F888309A420DD1264C264B94F8EF
:1052E0007620B4F878104FF4B06000F02FFC022361
:1052F00084F8743037E06FEA660606F0070600238C
:105300000FE01C49B1F88420B1F886108A420CD213
:105310001849C86F551CA1F884500133E15C8154D1
:10532000DBB2B342EDD3002200E00122237813F078
:10533000010F00D122B101220E4B83F8742012E03C
:105340000C4C94F888301B0143F0600306A901F867
:10535000183D002001F06CFC94F88830B3FA83F318
:105360005B0984F888300A22024BC3F8802006B01B
:1053700070BD00BF083800020000030508B51346E1
:105380000A4601464FF4B06000F0E0FB0122024BF8
:1053900083F88C2008BD00BF08380002034B0122AF
:1053A00083F88C200022C3F894207047083800024C
:1053B00008B5FFF7F3FF08BD0C4B93F88C30052BB5
:1053C00012D910B501460A48FDF776FE58B1074CD0
:1053D0004FF0006294F89010B4F88E00FFF7CEFF03
:1053E000012384F88C3010BD704700BF08380002DC
:1053F000AC380002F0B587B004460D460021049198
:10540000A14B93F8303003F5B063029308228DF876
:105410000C20684602F048F8A3781A0263788DF8E9
:10542000013063789B1800D5FF331B128DF80230D2
:10543000E3788DF80330802D04D10122924B83F85C
:105440008C209CE1904B93F88C30012B40F0B38082
:105450008D4B0021A3F898106278A07802EB00220F
:10546000A3F88E20E27883F8902083F8A0100A2217
:10547000C3F8A420202D64D10221204600F086FB31
:10548000002800F07C81227812F0020F22D1C2782D
:1054900012F0300F14D07C4AC2F89C00082382F826
:1054A0008C3006AC602304F8183D042200210DEB7B
:1054B000020001F0F9FF2146002001F0B9FB5EE196
:1054C0006378A07803EB0020704AE17880B2FFF7A0
:1054D00055FF54E1C27812F0300F28D160228DF8C8
:1054E0000020E278214600F013FBB0B10422A1189D
:1054F0000DEB020001F0D6FF6946002001F098FB99
:10550000614BD3F89430002B00F039815E4A92F859
:105510009010B2F88E00984731E16378A07803EBE1
:1055200000205A4AE17880B2FFF728FF27E163782C
:10553000A07803EB0020554AE17880B2FFF71EFF08
:105540001DE1402D2DD10121204600F01FFB014619
:10555000002800F01481C378112B0FD14A4B06228A
:1055600083F88C20C3F89C0041238DF80030038918
:1055700001936946002001F05BFB00E103F00703A3
:10558000C3F104039B0043F0430306AD05F8183D47
:10559000E278284600F0A0FA2946002001F048FBF6
:1055A000EDE06378A07803EB0020384AE17880B220
:1055B000FFF7E4FEE3E0062B6CD1602D6AD1324B9D
:1055C0000A22C3F8A420B3F88E008DF80100020A65
:1055D0008DF8022093F890108DF803102278C2F312
:1055E000001293F8A0309A424AD1274CD4F89C304C
:1055F0001889B4F898300721C01AFDF719FE05463E
:10560000C6B2D4F89C301B89B4F898209B1A072B9B
:1056100005DD94F8A0301B018DF800300DE01A4A2A
:1056200092F8A010C6F1070343EA011343F0010307
:105630008DF80030012382F88C30072200210DF113
:10564000010001F031FF104CD4F89C305968B4F8D7
:105650009830EAB219440DF1010001F023FFB4F8CB
:1056600098303344A4F898306946002001F0E0FAFD
:1056700094F8A030B3FA83F35B0984F8A0307EE09D
:10568000034AFFF77BFE7AE00838000200000106BB
:1056900000000305082B69D1002D67D1394B0A2280
:1056A000C3F8A420B3F88E008DF80100020A8DF82B
:1056B000022093F890108DF803102278C2F30015A1
:1056C00093F8A0309D424DD112F0010F03D001227A
:1056D0002C4B83F88C2025786FEA650505F00705CB
:1056E000284BB3F898607719D3F89C301A89974201
:1056F00025DC58682A46611C304401F0D3FE214C59
:10570000B4F898301D44A4F8985094F8A0301B01C8
:1057100043F0200306AD05F8183D072200210DF1E6
:10572000010001F0C1FE2946002001F081FA94F841
:10573000A030B3FA83F35B0984F8A03002E0124A88
:10574000FFF71CFE0F4B93F88C30012B17D10D4B3C
:10575000D3F894309BB10B4A92F89010B2F88E00B7
:1057600098470CE0094AFFF709FE08E06378A07843
:1057700003EB0020064AE17880B2FFF7FFFD07B097
:10578000F0BD00BF08380002050003050000030556
:1057900000000606C37813F0C00F04D083788B4254
:1057A00006D2002070478378994203D000207047CA
:1057B00001207047012070472DE9F04105460E4653
:1057C00000242146274617E004EB440293001A4ABE
:1057D000D35AAB420ED104EB44029300164A02EBBB
:1057E000030831464046FFF7D5FF08B9012101E023
:1057F000474601210134A4B21B2CE5D9C1B90024CC
:1058000012E004EB440293000C4AD35A9D420AD1A1
:1058100004EB44034FEA8308904431464046FFF7C7
:10582000B9FF00B147460134FBF770FFA042E8D84A
:105830003846BDE8F08100BF307F00000000000264
:1058400010B50D4BB3F8FC3B0C4CE3620822002171
:1058500004F1320001F028FE0422114604F13A005E
:1058600001F022FE00236FF07F024FF4E061184642
:1058700000F0E6FF10BD00BFE000000208380002A3
:105880000D4B40F69802A3F8FE2B052183F8001C6F
:10589000A3F8022C032183F8041CA3F8062C04218E
:1058A00083F8081CA3F80A2C1E2283F80C2C4FF452
:1058B0007A72A3F8FC2B7047E000000230B587B085
:1058C000044601461B48FDF7F7FBB0B11A4BB3F88D
:1058D000FC2B1A4BDA620025049593F8303003F55F
:1058E000E063029300F0E6F98DF8000001238DF8E3
:1058F0000C306946284601F09BF9002316E003F1BD
:1059000018020E4901EB4202508803F2FE220A49B6
:1059100001EB8202D288904206D203F118020749B5
:1059200001EB42022044508001339BB2032BE6D9A5
:1059300007B030BD34380002E00000020838000231
:10594000036933BB836823F07F02B2F5E06F20D197
:10595000027B012A1DD130B403F07F02002315E041
:105960001D4603F2FE210B4C04EB8101097A8A42A9
:105970000AD1094A183302EB430300215980037806
:10598000154485F83A3003E001339BB2032BE7D985
:1059900030BC7047E00000020838000210B4002359
:1059A0001AE01C4603F2FE220E4901EB8202127A33
:1059B00082420FD103F118020B4B03EB42035B88C9
:1059C00004F2FE2401EB8404E088834234BF00200B
:1059D000012004E001339BB2032BE2D9002010BC6C
:1059E000704700BFE0000002083800020369EBB90D
:1059F000037B082B1DD1836823F07F03B3F5C06FB1
:105A000002D0B3F5B06F17D1027802F0E003202B7B
:105A100015D0602B15D0B3B1202B16D0402B16D04B
:105A2000602B16D0802A16D1802070474FF6FE706A
:105A300070474FF6FE7070474FF6FE70704720209B
:105A4000704760207047002070472020704740203A
:105A50007047602070474FF6FF70704708B5084BDD
:105A600093F8301000234FF0FF3201F5C061184663
:105A700000F0E6FEFFF7B2FAFFF790FC08BD00BFAA
:105A80000838000238B50546FFF7B0FF4FF6FE7341
:105A900098421ED0AA6802F07F040E4B93F8303073
:105AA0009C4209D122F07F01B1F5C06F04D10146BB
:105AB0002846FFF79FFC38BD9C420AD022F07F03A6
:105AC000B3F5B06F05D102F07F0201462846FFF71B
:105AD000C7FA38BD0838000208B572B6CB7813F0A3
:105AE000C00F0CD012B98B7843600EE04968013AC0
:105AF00003F0070303FB02F3CB5C436005E003F014
:105B000007024968043001F0CDFC62B608BD00BF51
:105B100010B572B6C37813F0C00F0CD09AB14468B8
:105B2000501E03F007031A46043103FB004001F046
:105B3000B9FC012008E003F007020431406801F0DD
:105B4000B1FC012000E0002062B610BD30B587B086
:105B5000002504950C4C94F8304020440290082015
:105B60008DF80C0080208DF800008DF80110090AD6
:105B70008DF802108DF8032001936946284601F044
:105B800057F807B030BD00BF0838000270B50446B2
:105B90000E464378807803EB0020E17880B2FFF76F
:105BA0000BFE0546F0B1837A334226D1012E0CD18B
:105BB0006378A17803EB0121114BE27889B24FF4AD
:105BC000B060FFF7C3FF002517E06378A17803EB0F
:105BD00001210C4BE27889B24FF4B060FFF7B6FFB9
:105BE00000250AE06378A17803EB0121064BE278F7
:105BF00089B24FF4B060FFF7A9FF284670BD00BF1F
:105C000001000106020001060000020610B586B080
:105C10000D4C7F23237000234FF0FF3219461846A6
:105C200000F00EFE0020049094F8303003F5E0639D
:105C3000029380238DF8003001238DF80C306946E3
:105C400000F0F6FF06B010BD083800020922024B32
:105C5000A3F8F42B704700BFE0000002704700BFBC
:105C600008B583681BBB037B012B20D94378104AFE
:105C700092F83020934200D0CBB90378802B13D018
:105C800004D8012B05D0022B07D008BD822B08D9E0
:105C900008BD0522064B1A7008BD0422044B1A7079
:105CA00008BDFDF75DFC08BD7F22014B1A7008BDE1
:105CB00008380002014B1878704700BF083800020E
:105CC000014B1870704700BF0838000210B500245F
:105CD00014E004F5C050002180B2FFF76DFD60B103
:105CE0004168124B04F11002098A43F8221004F1B2
:105CF000200203EB420300229A800134002CE8DDED
:105D000000240FE004F5A050002180B2FFF754FDFD
:105D100038B1416800234FF0FF320968184600F09F
:105D20008FFD0134082CEDDD10BD00BF08380002E6
:105D3000F0B400271DE0204CBA00D3199D002B467B
:105D4000254405F678551D4E1E440FCE0FC5336809
:105D50002B6007F10D0304EB431404F6EC34184DEB
:105D600005EB47150FCD0FC495E80F0084E80F0031
:105D70000137002FDFDD002619E00F4C06F28113FA
:105D800004EBC30308330F4A02EBC60292E8030098
:105D900083E8030073011C4404F658440A4D1D4473
:105DA0000FCD0FC495E80F0084E80F000136082ED0
:105DB000E3DDF0BC704700BFE0000002E8800000B7
:105DC000C880000080800000FC8000002DE9F04FBA
:105DD00087B00546FFF76EFF052840F0ED800024F0
:105DE000E7E0A6B206F5C050002180B2FFF7E4FC60
:105DF000034620B9C27812F0C00F40F0D9805F6826
:105E000004F120036E4A02EB4303B3F90430002B84
:105E100006DD04F120026A4901EB42025B1B93801C
:105E20003B68002BC0F2C48004F11008DFF89091A9
:105E3000294609EB8800FDF73FF959F82830002B77
:105E400000F3B68004F1200309EB4303B3F90430F7
:105E5000002B00F3AD80398A49F82810BA6804F1A4
:105E6000200109EB41039A8008220021684601F0D5
:105E70001BFB06F5D056B6B200213046FFF79CFC5E
:105E8000824648B94F4B002231464FF4C060FFF7BD
:105E90005DFE4FF0000B7FE0D0F804900026B34683
:105EA00075E0B04609EB8603DB78BBB15B44082B99
:105EB00016DC09EB8603997839F82600FFF77CFC9D
:105EC000824678B909EB86023E4B927839F8261063
:105ED0004FF4C060FFF73AFE012204E0012202E025
:105EE000012200E0002209EB8803D9789AF80330F8
:105EF00003F0070399420AD909EB8802324B9278E2
:105F000039F828104FF4C060FFF720FE0122002A64
:105F100042D19AF8033013F0C00F26D009EB880263
:105F200092783AB901220AF102010DEB0B0001F05F
:105F3000B9FA23E09AF802108A4207D9214B39F8BE
:105F400028104FF4C060FFF701FE17E0DAF80410E4
:105F500003F00700531E09EB8802D27803FB0011FF
:105F60000DEB0B0001F09EFA08E009EB8803DA78EC
:105F7000DAF804100DEB0B0001F094FA09EB880835
:105F800098F803309B445FFA8BFB0136F6B2072E7C
:105F900002D8BBF1080F84D1BBF1000F08D000205C
:105FA00004908DF80CB03B680293694600F040FE07
:105FB0000134002C7FF715AF07B0BDE8F08F00BFAC
:105FC0000838000200000206000001062DE9F04F2B
:105FD00083B08346FFF76EFE052802D101230193AB
:105FE00001E000230193DBF810300BB10023019393
:105FF000019B002B40F0D680DAE01FFA8AF40021E2
:1060000004F5A050FFF7D8FB814630B1C37813F0F8
:10601000C00F05D0019B009304E00023009301E032
:1060200000230093009B43B1D9F804301A68DBF8D1
:1060300008309A4201D000230093009B83B104F5FD
:10604000B05400212046FFF7B7FB814640B95A4BB8
:10605000002221464FF4C060FFF778FD0023009333
:10606000009B002B00F09980D9F8047000252C4685
:1060700090E02E4607EB8503DB78E1189BF80C20B7
:10608000914202DCDDF8008001E04FF000080BB91E
:106090004FF0000837F8260040B907EB86029278E7
:1060A00022B91C44E4B24FF0000817E007EB860366
:1060B0009978FFF781FB814680B907EB86083E4B54
:1060C00098F8022037F826104FF4C060FFF73EFD25
:1060D00098F803301C44E4B24FF00008B8F1000F08
:1060E00056D007EB8603DA7899F8033003F00703FC
:1060F0009A4210D907EB8608304B98F8022037F8FF
:1061000026104FF4C060FFF721FD98F803301C44BF
:10611000E4B24FF00008B8F1000F39D099F803004D
:1061200010F0C00F26D007EB86039A783AB9244BBB
:1061300037F826104FF4C060FFF708FD23E099F808
:1061400002309A4207D91C4B37F826104FF4C06032
:10615000FFF7FCFC17E0D9F8043000F0070E501EE2
:1061600007EB8602D2780BEB040100FB0E3001F046
:1061700099F908E007EB8603DA780BEB0401D9F80C
:10618000040001F08FF907EB8606F3781C44E4B2B3
:106190000135EDB2072D7FF66CAF0AF101035FFA0E
:1061A00083FA01E04FF0000ABAF1080F7FF625AF3D
:1061B00003B0BDE8F08F00BF00000206000001063A
:1061C0004100040608B50448082303220146143898
:1061D000FCF786FF08BD00BF64380002836823F027
:1061E0007F02802A14D1026992B900B583B003F00E
:1061F0007F038DF80630C388ADF80430036802A928
:1062000041F8083D0348FCF775FF03B05DF804FB57
:10621000704700BF5038000200B587B000230193DB
:10622000039304930593094991F83010803102914A
:1062300008218DF80C10ADF806000092694618464A
:1062400000F0F6FC07B05DF804FB00BF0838000260
:106250004FF0A00383F31188BFF36F8FBFF34F8F0D
:10626000FEE700BF06480068006880F3088862B651
:1062700061B6BFF34F8FBFF36F8F00DF00BF000029
:1062800008ED00E04FF0807340F8043C21F001017C
:1062900040F8081C034B40F80C3C40F8202C4038D8
:1062A000704700BF51620000FFFFFFFFFFFFFFFFCD
:1062B000074B19680868B0E8F00F80F30988BFF34E
:1062C0006F8F4FF0000080F311884EF00D0E704775
:1062D000D40F00024FF0A00383F31188BFF36F8F38
:1062E000BFF34F8F024A136801331360704700BF3A
:1062F000DC000002034A1368013B13600BB983F30F
:1063000011887047DC000002FFFFFFFFFFFFFFFF67
:10631000EFF30980BFF36F8F0D4B1A6820E9F00F80
:1063200010602DE908404FF0A00080F31188FDF7C0
:106330003FFF4FF0000080F31188BDE80840196866
:106340000868B0E8F00F80F30988BFF36F8F7047DB
:10635000D40F000208B54FF0A00383F31188BFF3F8
:106360006F8FBFF34F8FFDF7B9FD18B14FF080521B
:10637000024B1A60002383F3118808BD04ED00E08E
:10638000064B1B68064AA2FB03239B09013B054AF7
:1063900013600722044B1A60704700BFF4390002F3
:1063A000D34D621014E000E010E000E008B5094BA6
:1063B0001A6842F078721A601A6842F060421A60F5
:1063C000FFF7DEFF0022044B1A60FFF74BFFFFF7D9
:1063D0003FFF00BF20ED00E0DC00000208B5064BE7
:1063E0001860122000F0F8FF122001F01BF81220B4
:1063F00001F02EF808BD00BFF42F00020138C0F3F1
:1064000047107047013800F01F007047234B1B787E
:10641000072B41D82DE9F0410D4604460733DBB286
:106420005AB2520903F01F03012606FA03F31C496E
:1064300041F82230194B93F80080FFF7DFFF074641
:106440002046FFF7DFFF00EB471008F13002154B45
:1064500043F8220006FA08F6134A136823EA0606F0
:10646000166015F0010F05D00C4B1A7801239340EC
:106470000D4A936015F0020F05D0084B1A780123DE
:106480009340094A5361054A1378084941F823406B
:1064900001331370BDE8F081704700BFF02F000298
:1064A00000E100E00040014000400A40D02F00021F
:1064B00008B5054B1B6813B1044A106898470122C0
:1064C000034B5A6208BD00BFF42F0002D02F000218
:1064D00000400A4008B5054B1B6813B1044A5068D8
:1064E00098470222034B5A6208BD00BFF42F0002F6
:1064F000D02F000200400A4008B5054B1B6813B1BD
:10650000044A906898470422034B5A6208BD00BFB2
:10651000F42F0002D02F000200400A4008B5054BBE
:106520001B6813B1044AD06898470822034B5A628B
:1065300008BD00BFF42F0002D02F000200400A4027
:1065400008B5054B1B6813B1044A1069984710221F
:10655000034B5A6208BD00BFF42F0002D02F000287
:1065600000400A4008B5054B1B6813B1044A506946
:1065700098472022034B5A6208BD00BFF42F000247
:10658000D02F000200400A4008B5054B1B6813B12C
:10659000044A906998474022034B5A6208BD00BFE5
:1065A000F42F0002D02F000200400A4008B5054B2E
:1065B0001B6813B1044AD06998478022034B5A6282
:1065C00008BD00BFF42F0002D02F000200400A4097
:1065D00038B1064B1A6B586B054B03EA0043D018D1
:1065E0007047024B586BC0F38A00704700000F40A1
:1065F0000000FF1F71B182B20E4B1A635A6B22F476
:10660000FF5222F01F025A635A6BC0F30C40104332
:1066100058637047074A536B23F4FF5323F01F035B
:106620005363516B41F6FC7303EA800008435063E7
:10663000704700BF00000F40B0F1005F07D1064B6C
:106640009A6AD86A054B03EA0043D0187047024B98
:10665000D86AC0F38A00704700000F400000FF1F97
:10666000B1F1005F0ED182B20F4B9A62DA6A22F466
:10667000FF5222F01F02DA62DA6AC0F30C401043C4
:10668000D8627047084B4FF6FF729A62DA6A22F4BA
:10669000FF5222F01F02DA62D96A41F6FC7202EA66
:1066A00080000843D862704700000F407F22074BEC
:1066B0005A62064B1B6A13F4004FFAD1034B18625F
:1066C000024B1B6A13F4004FFAD1704700000F40D1
:1066D000890041F0FB01074B5962064B1B6A13F41A
:1066E000004FFAD1034B1862024B1B6A13F4004FA0
:1066F000FAD1704700000F4010B50446FFF7D6FFEF
:10670000044A536B43F40043536300212046FFF7D0
:10671000DFFF10BD00000F4010B50446FFF7C6FFB5
:10672000044A536B23F40043536300212046FFF7D0
:10673000CFFF10BD00000F40002308E003F50071FB
:10674000374A02EB8102002151600133DBB2002B9A
:10675000F4D010B5324C012384F83430214641F88E
:10676000383B1823402204F5C760FCF7B9FC182316
:10677000082204F5CA6104F5E260FCF7B1FC00F000
:1067800007FC272000F028FE272000F04BFE2720E2
:1067900000F05EFE4B22234B1A60234BD3F8F83BEC
:1067A000591E224A914203D9214B1F4AC2F8F83B95
:1067B000DA00204B1B68B3FBF2F3013B03F03F030D
:1067C00043F40C53174AD3600024C2F8804104E01C
:1067D000601CC0B2FFF7A0FF01341F2CF8DD4FF0A2
:1067E0000062154B1A60154B80225A66C3F8A82028
:1067F0001921612000F0D4FB2A21622000F0D0FB97
:1068000007480123C82200F23C7100F5E560FCF75F
:1068100067FC044A136823F041031360002010BD95
:10682000F82F000200000F40E00000027F841E00ED
:1068300090D00300F439000200E100E000800F4036
:106840002DE9F0410E4617461D4672B6002423E09E
:106850003D4B1A680123A34013421BD0601CC0B2F9
:10686000FFF724FFB5F1005F14BF4FF000084FF0B1
:1068700001084046FFF7ACFEB0420BD14FF000508C
:10688000FFF7DAFEB84205D1304B5B6BC3F38033C0
:10689000434505D00134E4B21F2CD9D9002100E0D2
:1068A0000121002949D1002345E0274A12684FF011
:1068B000010808FA03F812EA080F3AD10133DCB2F2
:1068C0002046FFF729FF2046FFF7F0FE294638460D
:1068D000FFF7C6FE1D4BDA6A42F44042DA6200223C
:1068E0005A63B5F1005F14BF002101213046FFF764
:1068F00081FEB5F1005F05D1144A536B43F4804328
:10690000536304E0114A536B23F4804353634FF401
:10691000A4520E4B9A6300212046FFF7D9FE204671
:10692000FFF7EAFE084A136843EA080313600121EF
:1069300003E00133DBB21F2BB7D909B1002000E01F
:10694000202062B6BDE8F081F82F000200000F4061
:10695000264BD3F8003113F0010F45D1244B93F8A7
:106960003430002B40D000B587B069462148FCF791
:1069700001FC002835D172B60120FFF7CDFE049945
:10698000B1F1005F14BF002101210298FFF732FE30
:10699000164B5B6B049AB2F1005F02D14FF4604278
:1069A00001E04FF420421A43104B5A639DF80C202B
:1069B00042F4094242F080029A63BDF80020DA6393
:1069C000BDF802201A64BDF804205A64BDF8062000
:1069D0009A6401210846FFF77BFE0120FFF78CFE39
:1069E00062B607B05DF804FB704700BF00000F40BF
:1069F000F82F0002083700022DE9F04188B0414B22
:106A00001B690793079B202B69D83E4BD3F8402185
:106A1000D3F8447142EA07475EE00125A5403D42B4
:106A200054D072B6601CC0B2FFF740FE002C46D0B6
:106A3000344B5B6B13F4804F02D04FF0005000E0FA
:106A4000002004902F4EB36B03F00F038DF80C3031
:106A5000003018BF0120FFF7BBFD80460290F36BAA
:106A6000ADF80030336CADF80230736CADF8043023
:106A7000B36CADF8063000F081F900F5C0608045D8
:106A800019D1049BBBB9009A1F4B9A4213D19DF8B0
:106A90000C30042B08D80EE0311D69441B48FCF76C
:106AA00029FB0136F6B200E000269DF80C30043BCD
:106AB0009E42F1DB03E069461548FCF71BFB27EA21
:106AC000050762B614B90020FFF742FF0134E4B2B3
:106AD00000E000241F2CA0D9002FFAD109E0094BB7
