:10100000E03F00027B110000592B0000692B00001B
:10101000792B0000892B0000992B000048D5FEFD9C
:10102000000000000000000000000000C169000096
:101030004511000000000000216A0000656A000000
:101040004B1100004B1100004B1100004B11000030
:101050004B1100004B1100004B110000C97400003F
:10106000ED74000011750000357500005975000021
:101070007D750000A1750000C57500004B110000D2
:101080004B1100004B1100004B1100004B110000F0
:101090004B1100004B1100004B1100004B110000E0
:1010A0004B1100004B1100004B1100006571000056
:1010B0004B1100004B1100004B1100004B110000C0
:1010C0004B1100004B1100004B1100004B110000B0
:1010D0004B1100004B1100004B1100004B110000A0
:1010E0004B1100004B1100004B1100004B11000090
:1010F0004B1100004B1100004B110000748E0000DA
:101100000000000258010000748E00000040000240
:1011100000000000748E000000800002000000004B
:10112000580100023C3D00000040000200000000A9
:101130000080000200000000FEE7FEE7FEE7FEE799
:10114000FEE7FEE7FEE7FEE7FEE7FEE70023934249
:1011500009D210B404680C600433043004319342A3
:10116000F8D310BC70477047002303E000220260F0
:10117000043304308B42F9D3704710B50E4B07E0AF
:1011800003F10C049A6859681868FFF7DFFF2346DB
:101190000A4A9342F4D306E01C46596854F8080BF7
:1011A000FFF7E2FF2346064A9342F5D30122054B9F
:1011B0001A6000F0DDFCFEE7FC10000020110000CA
:1011C00038110000D8400740FFFFFFFFFFFFFFFF7F
:1011D000FFFFFFFFFFFFFFFFFFFFFFFFFFFFFFFF1F
:1011E000FFFFFFFFFFFFFFFFFFFFFFFFFFFFFFFF0F
:1011F000FFFFFFFFFFFFFFFFFFFFFFFFFFFFFFFFFF
:10120000FFFFFFFFFFFFFFFFFFFFFFFFFFFFFFFFEE
:10121000FFFFFFFFFFFFFFFFFFFFFFFFFFFFFFFFDE
:10122000FFFFFFFFFFFFFFFFFFFFFFFFFFFFFFFFCE
:10123000FFFFFFFFFFFFFFFFFFFFFFFFFFFFFFFFBE
:10124000FFFFFFFFFFFFFFFFFFFFFFFFFFFFFFFFAE
:10125000FFFFFFFFFFFFFFFFFFFFFFFFFFFFFFFF9E
:10126000FFFFFFFFFFFFFFFFFFFFFFFFFFFFFFFF8E
:10127000FFFFFFFFFFFFFFFFFFFFFFFFFFFFFFFF7E
:10128000FFFFFFFFFFFFFFFFFFFFFFFFFFFFFFFF6E
:10129000FFFFFFFFFFFFFFFFFFFFFFFFFFFFFFFF5E
:1012A000FFFFFFFFFFFFFFFFFFFFFFFFFFFFFFFF4E
:1012B000FFFFFFFFFFFFFFFFFFFFFFFFFFFFFFFF3E
:1012C000FFFFFFFFFFFFFFFFFFFFFFFFFFFFFFFF2E
:1012D000FFFFFFFFFFFFFFFFFFFFFFFFFFFFFFFF1E
:1012E000FFFFFFFFFFFFFFFFFFFFFFFFFFFFFFFF0E
:1012F000FFFFFFFFFFFFFFFFFFFFFFFFFFFFFFFFFE
:1013000000B583B0827F90F88A30B0F91001009068
:10131000024801F08BFD03B05DF804FB048300007C
:1013200070B582B0384801F081FD384C21883848CA
:1013300001F07CFD94F8981C0131364801F076FDEF
:10134000354904F2DC70FFF7DBFF344904F5106027
:10135000FFF7D6FF324904F61420FFF7D1FF3149D9
:1013600004F62830FFF7CCFFB4F85C2C94F85E1C30
:101370002D4801F05BFDB4F8882C94F88A1C2B48AA
:1013800001F054FD2A4904F6BC40FFF7B9FF94F878
:10139000003E002B35D02749274801F047FD1B4C64
:1013A000B4F8EC2D94F8EE1D244801F03FFD2449DB
:1013B00004F56160FFF7A4FF94F8631F94F9602FB0
:1013C00094F9613F94F9620F00901E4801F02EFDE0
:1013D000B4F8442F94F8461F1B4801F027FD94F8F9
:1013E000555F94F8566F94F8544F052004F0DEFAD8
:1013F0000090234632462946144801F017FD02B0FA
:1014000070BD1349C8E700BF6481000058010002A5
:10141000748100008C81000098810000A081000090
:10142000A8810000B0810000B8810000DC810000CC
:101430000082000058810000108200002882000015
:1014400050820000688200009C820000C082000080
:10145000508100002DE9F04186B022B11C461646AD
:101460001B79022B05D0524801F0E0FC06B0BDE824
:10147000F08127684F49384606F010FDF8B94E4D07
:10148000002DF3D0022E05D9237B022B40D04B48F0
:1014900001F0CCFC6A882B88E988A8882C896E89A1
:1014A000B5F80CE0ED890595CDF810E003960294AF
:1014B000019000913946424801F0B8FCD6E7414915
:1014C000384606F0EBFC08B93F4DD9E73F493846AE
:1014D00006F0E4FC08B93E4DD2E73E49384606F036
:1014E000DDFC08B93C4DCBE73C49384606F0D6FC5C
:1014F00008B93B4DC4E73B49384606F0CFFC08B974
:10150000394DBDE73946394801F090FC0025B7E771
:10151000237D012BBBD1A66824690FFA84F83449D6
:10152000304606F0BBFC08B96C80B3E73149304661
:1015300006F0B4FC08B92C80ACE72F49304606F021
:10154000ADFC08B9EC80A5E72C49304606F0A6FCB6
:1015500008B9AC809EE72A49304606F09FFC08B9DE
:101560002C8197E72749304606F098FC08B96C8132
:1015700090E72549304606F091FC38B918F100088B
:1015800018BF4FF00108A5F80C8083E71F493046CB
:1015900006F084FC38B918F1000818BF4FF00108B4
:1015A000A5F80E8076E73146194801F03FFC71E757
:1015B000A47F0000C87F00000413000254800000D4
:1015C000A4800000CC7F000014130002D07F000034
:1015D00024130002D47F000034130002D87F0000DF
:1015E00044130002E07F000054130002EC7F00006F
:1015F000048000000C800000148000001C800000AB
:1016000024800000288000002C800000348000002E
:101610003C80000012B11A79022A00D0704710B540
:1016200082B01C681C49204606F038FC70B11B498A
:10163000204606F033FCB8B11949204606F02EFCCE
:1016400010B32146174801F0F1FB0BE005F070FBE9
:101650000090132301221449144801F0DDFE1448C0
:1016600001F0E4FB02B010BD124801F0DFFB124CA8
:101670000021204602F0AEFA1421204602F0D6FAEC
:10168000642005F0C7FFEDE7084802F007F90146BE
:101690000A4801F0CBFBE5E7587F0000547F0000CB
:1016A0006C7F0000907F0000008004406001000219
:1016B000487F0000607F000080100002747F0000FF
:1016C0001B2070470320704708B50121014801F035
:1016D000CDFF08BD6001000208B5024802F0A2F883
:1016E00008BD00BF6001000210B502E0012005F056
:1016F00091FF1B4B1B78002BF8D01A4C022104F2EF
:10170000DC7002F075FB022104F5106002F070FB42
:10171000022104F6142002F06BFB022104F62830AB
:1017200002F066FB022104F5446002F07FFA022118
:1017300004F66C4002F07AFA022104F6BC4002F092
:1017400057FB022104F55D6002F070FA022104F5F6
:10175000616002F04DFB022005F05CFFCDE700BFA9
:10176000681300025801000200B587B00A4B1B78CD
:101770003BB9012005F04EFFF8E76946002005F06F
:101780000DFE6946054802F067F80028F5D00220F2
:1017900005F040FFF5E700BF68130002600100029A
:1017A00070B586B005F092FA002840F09A805F4C40
:1017B0000025258084F8575F84F8585F84F8565FC9
:1017C00084F8555F84F8545F84F8595F84F85A5F51
:1017D00004F58D510C3104F5FA6000F057FD04F565
:1017E0008D511C3104F6F40000F0A8FB04F58F5174
:1017F0000C3104F54B6000F0A7FD04F58F511C314E
:1018000004F6046000F03CFB04F65C7000F0E6F9BE
:10181000FFF758FF0146464801F028FC222005F05A
:10182000F9FD0646222005F0F9FD00EB4610414B7C
:1018300043F82050222005F0EDFD0546222005F05A
:10184000EDFD4FF0E05105F5006351F8232001262E
:1018500006FA00F0024341F82320222005F0DAFDC9
:101860000546222005F0DAFD6D0105F1E0552E5404
:10187000314805F0BFFD05F05BFA009013233246B6
:101880002E4904F1080001F0C7FD002849D12C4C75
:101890002C4B0493013B03930A23029346F2A813B3
:1018A000019343F6982300934FF4AF5326224FF44D
:1018B0008001204602F030F90121204602F08AF929
:1018C00000231A461946184605F072FB1E4801F01F
:1018D0004FFB052001F048FB01221C4B1A7006B09B
:1018E00070BD124C002241F2AA13E252322241F2A0
:1018F000A813E25204F58D500C3000F0B9FC04F549
:101900008D501C3000F0F8FA04F58F500C3000F0C8
:101910000BFD04F58F501C3000F0A2FA05F08EF993
:1019200045E70B4801F082FAB1E700BF5801000219
:101930007084000000800F40C91600000080044041
:10194000801000021F000900D91600006813000271
:10195000A084000038B58448FFF722FF37E0824BAF
:1019600093F8633F012B00F09C80052004F01EF8E3
:10197000002800F09B807C4B042283F8FA2783F830
:10198000662883F81E2983F88A2983F8322A83F887
:101990009E2A83F8462B83F8B22B83F85E2C83F8BB
:1019A0008A2C83F8DA2C83F8462D83F8EE2D83F801
:1019B0002E2E83F89A2EB3F8543F012B00F0D080DE
:1019C0000422694B83F8462F142005F023FE01F012
:1019D00091FB654DB5F9EC0806F05CFA0446B5F9E3
:1019E000100A06F057FA0444A4B2B5F9240B06F025
:1019F00051FA0444A4B2B5F9380C06F04BFA044489
:101A0000A4B2B5F95C0C06F045FA0444A4B2B5F9E9
:101A1000880C06F03FFA0444A4B2B5F9CC0D06F0E8
:101A200039FA0444A4B2B5F9200F06F033FA204481
:101A3000288005F65C7000F009F995F9623F85F899
:101A4000F438142105F5FA6000F052FC142105F673
:101A5000F40000F027FB142105F54B6000F0C0FCFA
:101A6000142105F6046000F03DFA05F62875012101
:101A7000284602F0AFF81421284602F0D7F80320D8
:101A800003F094FF042003F091FF1E2003F08EFF6B
:101A900000283FF464AF0122A5F6287383F8632F72
:101AA00063E70022304B83F8632F5EE7032003F0E7
:101AB0007DFF00287FF45FAF042003F077FF00284C
:101AC0007FF459AF284BB3F8543F012B7FF453AF49
:101AD000254B93F8563F002B3FF44DAF224C04F2B8
:101AE000DC7002F09CF804F6480002F098F804F567
:101AF000106002F094F804F66C1002F090F804F60E
:101B0000142002F08CF804F5286002F088F804F63E
:101B1000283002F084F804F6943002F080F804F5DE
:101B2000446002F07CF804F66C4002F078F804F6A9
:101B3000BC4002F074F804F6285002F070F804F586
:101B40005D6002F06CF804F5616002F068F804F67C
:101B50007C6002F064F804F6287002F060F833E765
:101B6000024802F05CF82FE75801000280100002E2
:101B700000B583B0124C204605F09CFD0025019570
:101B80000223009323464FF400720E490E4805F0DD
:101B90002BFD01950323009323464FF4C0720B499C
:101BA0000B4805F021FD01950423009323464FF4D3
:101BB00080720849084805F017FD02F0D5FCFEE7E1
:101BC00058010002B884000055190000C0840000CC
:101BD00069170000C8840000E916000038B5044603
:101BE0004FF400430380438000258571C571642153
:101BF000083000F013FC01234FF480524FF40051E1
:101C000004F1280000F031FC2B464FF480524FF4D1
:101C1000704104F1400000F028FC642104F1180038
:101C200000F0FCFB01234FF480524FF4005104F10B
:101C3000340000F01AFC2B464FF480524FF47041F0
:101C400004F14C0000F011FC38BDFFFFF8B505466B
:101C5000C379012B01D000261AE0FFF7BFFFF8BDC2
:101C6000FF3125E067003B199800403009122844F5
:101C700000F000FC2744BB001F462B4493F848307B
:101C800033BB3B462B4493F830300BBB0136F6B2E6
:101C9000012E28D834463001083035F81610284473
:101CA00000F0C7FB731C05EB031359680029D7DB51
:101CB00004EB4403980028300912284400F0DAFBB2
:101CC000631C05EB031359680029CBDAFF31C9E720
:101CD000EB79022B05D0304A4FF47F40002103F00E
:101CE00095FD0223EB71EB79002B51D168882B888D
:101CF000C01AB0F5805F0BDC10F5805F23DB4FF47A
:101D0000FA70B0F57A7F3ADC00283ADA002038E041
:101D10004FF44D424FF4805100F0ECFE00280DDBF3
:101D2000B0F57A7F0CDC00FB00F01C4B83FB00233A
:101D3000C017C0EBE31000F5FA70E2E70020F2E70D
:101D40004FF47A70EFE7164A164900F0D3FE0028E8
:101D500010DBB0F57A7F0FDC00FB00F00F4B83FB4C
:101D60000023C017A0EBA31000F57A7000EBD07031
:101D70004010C6E70020EFE74FF47A70ECE74FF42D
:101D80007A707F226FF07F0100F0A4FEA871F8BD89
:101D90000023AB71F8BD00BF20000900D34D6210D5
:101DA0000033FFFF00F0FFFF00238370C370037157
:101DB000037043704371704770B504460E4690F946
:101DC0000050002303718370C37065B190F9013036
:101DD0004BB9002D04DD0123A3703C23A36011E067
:101DE0004FF0FF33F8E765B994F901304BB1002BA0
:101DF00004DD0123E3700023637103E04FF0FF3340
:101E0000F8E70DB9657070BD284606F043F8642800
:101E100001DD01236371A368002BF3DD9E1BA66027
:101E2000F0E7FFFF90F9000008B90020704708B5FF
:101E30007F226FF07F0100F05DFE4FF47A72074958
:101E400000F048FEB0F57A7F02DD4FF47A7008BDED
:101E500010F57A7F00DB08BD0048FCE718FCFFFFA7
:101E60001423038132234381012383810023C3810F
:101E70004FF4FA72428050230380C28083807047FF
:101E800030B58BB004460D46FFF78EFFC4F82051E5
:101E9000124B0993023B089301330793023B0693CD
:101EA00041F2883305934FF47A63049340F253630D
:101EB00003930B4B41F2AA129A5E029241F2A812CE
:101EC0009B5A01934FF400330093142309222946AF
:101ED00004F10C0001F038FF0BB030BD1700090011
:101EE0005801000210B50446FFF766FF2046FFF7D1
:101EF00099FFA4F8E80010BD30B464230381438146
:101F000000228281C2814FF47A7141800380C180B6
:101F100083801E240483192545838283C2834182E2
:101F20000382C1828382048542858285C285418481
:101F30000384C184838430BC7047FFFF2DE9F04FD8
:101F40008BB004468B46FFF72FFF04F56A70FFF74E
:101F50002BFFC4F8B8B3012384F8A433002284F81B
:101F6000B42384F8B5234FF47A72C4F84823474A5F
:101F70000992023A089201320792023A069241F21D
:101F80008838CDF814804FF47A66049640F253678F
:101F900003973F4D41F2AA1A35F90A20029241F205
:101FA000A81935F809200192082200920C220BF1A1
:101FB0001001A01801F0C8FED4F8B81394F8A403D7
:101FC000344B09934FF00913089301330793023BF5
:101FD0000693CDF814800496039735F90A300293DE
:101FE00035F8093001934FF4807300930B230422DA
:101FF00001EB001104F5907001F0A6FED4F8B813BF
:1020000094F8A403244B0993023B089301330793EC
:10201000023B0693CDF814800496039735F90A30F5
:10202000029335F8093001934FF4006300930223C3
:10203000032201EB001104F50D7001F085FE174B32
:102040000493013B039332250295CDF8048000965A
:102050003B461B224FF4801104F5537001F05CFDE8
:102060000F4B0493013B039302954FF4FA530193F2
:1020700000964FF4AF5319224FF4001104F55E702F
:1020800001F04AFD0BB0BDE8F08F00BF070009006A
:10209000580100020B0009000F0009001B00090095
:1020A0001D00090038B504460D46FFF785FE294698
:1020B00004F56A70FFF780FED4F8B83394F8A413DF
:1020C00003EB011104F10C0001F07AFFD4F8B833EE
:1020D00094F8A41303EB011104F5907001F070FF64
:1020E000D4F8B83394F8A41303EB011104F50D7080
:1020F00001F066FF294604F5527000F04FFC94F998
:10210000AA33002B2CDD94F8A433012B24D900230F
:1021100084F8A433534B93F8593F23B1514B93F8B0
:102120005A3F002B3AD12046FFF77CFE18B1D4F875
:102130004833002B21DD0023A4F8E830A4F8FC315B
:10214000A4F81033B4F91C31002B55D094F8A43303
:10215000002B52D0012350E0013384F8A433D9E797
:10216000002BD7DA94F8A4331BB1013B84F8A433D5
:10217000D0E7022384F8A433CCE73A4B93F8593FD5
:1021800053B9394A4FF47F40002103F03FFB4FF42D
:102190007A73C4F84833CEE7344AF3E72046FFF7B2
:1021A00041FE03B2A3B92F4A92F8002E84F8B5235A
:1021B000A4F8E83094F8A423B2B11946A4F8FC11AD
:1021C000A2B9284AB2F9202FA2B95B421BB20EE095
:1021D00094F8B533012B04D0012300FB03F003B2C4
:1021E000E6E74FF6FF73F8E70021E7E70023A4F8DE
:1021F0001033A7E70023FAE7002384F8B433194B20
:10220000B3F9203F13B1012384F8B43394F90230B9
:102210004BB904F55370B4F91C3153B9B4F93032E9
:10222000D3B9002106E0002142F2161003F06EFF40
:10223000EFE7012101F0CEFC04F55E70B4F91C312A
:1022400013B9B4F930325BB194F8A433022B05D042
:10225000002101F0BFFC38BD0121EBE70121F8E7C7
:102260000021F6E7580100021800090019000900D2
:1022700064230381438100238381C3814FF47A72F5
:10228000428050230380C2808380704730B58BB07A
:1022900004460D46FFF788FDC4F82051124B099300
:1022A000023B0893013307934FF41023069341F246
:1022B000883305934FF47A63049340F25363039396
:1022C0000A4B41F2AA129A5E029241F2A8129B5A5C
:1022D00001930123009300231322294604F10C00EB
:1022E00001F032FD0BB030BD0300090058010002BF
:1022F00038B50446FFF760FD2046FFF793FD05B2B1
:10230000074B93F8003E012B07D00648FFF78AFDE4
:1023100000B90025A4F8E85038BD404205B2F4E702
:10232000580100024C0A0002142303810A2343814E
:10233000002383810123C3814FF4FA72428050232A
:102340000380C280838070472DE9F0418AB0044643
:102350008846FFF729FDC4F84C81002584F85051C8
:102360001D4B0993023B089301330793023B0693ED
:1023700041F2883305934FF47A67049740F253662D
:102380000396164B41F2AA129A5E029241F2A812EB
:102390009B5A01934FF48033009308230D2241464A
:1023A00004F10C0001F0D0FC04F590740495039541
:1023B0001423029341F270730193009733461C2259
:1023C0004FF48011204601F0A7FB2946204601F07A
:1023D00001FC0AB0BDE8F0811300090058010002B9
:1023E00010B50446FFF7E8FC2046FFF71BFDA4F8F4
:1023F000E800B4F91C1100290ADD002384F85031EB
:10240000003118BF012104F5907001F0E3FB10BD0D
:102410000029F5DA012384F85031F1E70023036045
:1024200041608360C3607047002303608360C360C2
:102430007047036803EB0121016083680133836007
:1024400091FBF3F1C16004E00268521A0260013BA3
:102450008360836842689342F6DC0846002901DB0A
:102460000012704701F1FF00FAE701604372426019
:102470000372704730B4027A437A9A420DD09A427E
:1024800005D002684468121B914200DA0372007A98
:10249000003018BF012030BC7047046845682C44E8
:1024A0008C42ECDA83F001030372F0E730B587B0B9
:1024B000002400940194029403940494059404F07D
:1024C00091FB00F5B0600290144BDD882B1D8DF858
:1024D0000C3042238DF80030FF238DF801305F234C
:1024E0008DF802308DF8034023460CE01A1D0B498D
:1024F0000868098901FB03F1415C06A8024402F85F
:10250000181C0133DBB29AB2AA42EFD30020034B6E
:10251000D880694604F0CCFE07B030BD440100020B
:10252000094B1B780BB90120704700B583B002A995
:1025300001F8010D054800F0B4FAFFF7B7FF0120DC
:1025400003B05DF804FB00BF903C000244010002B0
:1025500070B506460D46002403E0305DFFF7E0FF4E
:102560000134AC42F9D370BD704708B5402005F086
:10257000EFFA092005F07EF9092005F0BBFA0920E1
:1025800005F0CEFA002008BD0160426083600023A0
:1025900083610362C36047F6FF720261034A4261CE
:1025A000C361012380F82430704700BF0080FFFF23
:1025B00070B590F8243063B1022B01D0012309E0FB
:1025C000036A0433082B32D8002280F824201346F3
:1025D00000E00023002B34D08569AB1A866806EB37
:1025E0008606B400B4FBF1F505FB03F52D0A826104
:1025F000C469A21AC36813440469A3421ADDC46003
:10260000046804EB8404A300B3FBF1F302FB03F2C0
:10261000C668446804EB8404A300B3FBF1F303FB36
:1026200006F31B0C03EB12432B44036270BD012322
:102630000022CFE74469A34201DAC460E0E7C36047
:10264000DEE7836842680168FFF79EFF70BDFFFF09
:10265000F0B585B0234C204605F0A8F9224D80271F
:10266000AF620A21312005F085FAEF620B2132209A
:1026700005F080FA2F630C21332005F07BFA082344
:102680002B631A49204605F06AF9ADF80C000423C3
:102690008DF8043000268DF805608DF806600296EE
:1026A0006F620921402005F065FA01A9204605F076
:1026B0005EF901238DF800308DF801308DF802604D
:1026C0008DF803306946204605F08AF9236823F027
:1026D000C2031B051B0D2360236843F00103236025
:1026E00005B0F0BD0080044000800F408096980047
:1026F00000B589B0019203939DF82830ADF81C30E5
:10270000BDF82C3005936FEA014101F47021069168
:1027100000230293049301A905F07CF918B9002065
:1027200009B05DF804FB0120FAE700B589B0019219
:1027300000220392ADF81C30BDF8283005936FEAF3
:10274000014101F4702106910292049201A905F061
:102750009EF918B9002009B05DF804FB0120FAE7E2
:102760002DE9F0415E4B5F4D1D605F4C5C605F4F3B
:102770009F60DFF87C81C3F80C80284605F020FAC2
:102780004FF49661284605F04EFA0721712005F0B6
:10279000F1F900220121284605F023FA0026C5F8A8
:1027A00004620421722005F0E5F901220221284685
:1027B00005F017FAC5F808621F21732005F0DAF951
:1027C00002220321284605F00CFAC5F80C62852088
:1027D00005F0E4F903220421284605F002FAC5F8C1
:1027E0001062862005F0DAF904220521284605F05A
:1027F000F8F9C5F814626B6823F004136B60204687
:1028000005F0DEF94FF49661204605F00CFA0D2133
:10281000802005F0AFF932460121204605F0E1F9AC
:10282000C4F804621C21812005F0A4F901220221D0
:10283000204605F0D6F9C4F808628A2005F0AEF902
:1028400003220421204605F0CCF9C4F810628B2045
:1028500005F0A4F904220521204605F0C2F9C4F8C8
:1028600014628C2005F09AF905220621204605F015
:10287000B8F9C4F81862636823F00413636038463B
:1028800005F09EF94FF49661384605F0CCF98F209B
:1028900005F084F903220421384605F0A2F9C7F8AF
:1028A0001062902005F07AF904220521384605F0DF
:1028B00098F9C7F814627B6823F004137B604046E4
:1028C00005F07EF94FF49661404605F0ACF9D8F872
:1028D000043023F00413C8F804303046BDE8F0811A
:1028E000701300020080011C00C0011C0000021CCB
:1028F0000040021C10B483B08DF80700B1F57A7F58
:1029000001D94FF47A719DF80730DB080D4850F873
:1029100023409DF8073003F007029DF80730DB08DD
:1029200050F82330D3F8003203FB01F1064BA3FB30
:102930000131890902F1810344F82310002003B01A
:1029400010BC704770130002D34D621082B08DF836
:1029500007009DF80730DB080C4A52F823109DF859
:10296000073003F00703813351F823304FF47A70B6
:1029700000FB03F09DF80730DB0852F82330D3F852
:102980000032B0FBF3F080B202B070477013000267
:10299000014B1860704700BF8013000270B10368DC
:1029A0008B4207DAB3F1FF3F0AD04FF0FF330360E9
:1029B000012070475B1A03600020704701207047B8
:1029C00000207047016082800022C2800372016192
:1029D000C1601046704718B30246C0889388984279
:1029E00001D31220704710B4002307E0D068CC5CFC
:1029F0000470D0680130D0600133DBB2107A8342BA
:102A0000F4D3D4681168938800FB0310844205D086
:102A1000D3880133D380002010BC7047D160F7E722
:102A20002D207047024690B1C3880BB9172070471C
:102A300009B1002306E0002070471069C05CC8544B
:102A400001331BB2107A8342F7DB002070472D2040
:102A5000704720B30246C3880BB91720704710B4E3
:102A6000002304E01069013010610133DBB2107AF9
:102A7000834205D20029F5D010690078C854F1E7E7
:102A800014691168938800FB0310844205D0D38831
:102A9000013BD380002010BC70471161F7E72D2067
:102AA0007047A0B138B50446C5888288954201D3E5
:102AB000122038BD31B1006823891A4603FB050096
:102AC00005F02FF9E3880133E380002038BD2D2085
:102AD0007047FFFFC0F57A7302FB00F001FB0301B2
:102AE000034880FB0130C917C1EBA010704700BF3D
:102AF000D34D6210914208D0431A4FF47A7000FB14
:102B000003F0521A90FBF2F07047002070478842A1
:102B1000A8BF084670474342034014D120209AB210
:102B200002B1103813F0FF1F00D0083813F00F3F28
:102B300000D0043813F0333F00D0023813F0553F73
:102B400000D0013870471F20E9E7FFFF014B1868EC
:102B5000704700BF8013000208B5024800F066F914
:102B600008BD00BFF884000008B5024800F05EF917
:102B700008BD00BFE084000008B5024800F056F927
:102B800008BD00BFEC84000008B5024800F04EF913
:102B900008BD00BFD484000008B5024800F046F923
:102BA00008BD00BF0085000008B528B1026811709B
:102BB00002680132026008BD0846FFF7B1FC08BD9B
:102BC0002DE9F04107460E46151E02DD0A4600219A
:102BD00004E04FF020080EE00131013210780028A7
:102BE000FAD1A94201DA6D1A00E0002513F0020FB4
:102BF00006D14FF0200813F001040AD0002410E0A1
:102C00004FF03008F7E741463846FFF7CDFF013473
:102C1000013D002DF7DC04E03846FFF7C5FF013425
:102C2000013631780029F7D105E041463846FFF7F3
:102C3000BBFF0134013D002DF7DC2046BDE8F081EB
:102C4000F0B585B007460C9851B11E460C4613B13D
:102C50000A2A12D0002604AD002305F8013D18E031
:102C600030238DF8043000238DF805300B9B0A9A31
:102C700001A93846FFF7A4FF29E0002901DB00265F
:102C8000E9E74C420126E6E7303305F8013DB4FBA5
:102C9000F2F44CB1B4FBF2F302FB1343092BF3DD66
:102CA000A0F13A010B44EFE756B10A9B1BB10B9B15
:102CB00013F0020F0DD12D2305F8013C013D002634
:102CC0000B9B0A9A29463846FFF77AFF304405B035
:102CD000F0BD2D213846FFF767FF0A9B013B0A93A1
:102CE000EEE7FFFF70B588B006460C460593002559
:102CF00083E0A21C01238DE0013443F0020322781B
:102D0000302AF9D0002206E002EB82025000A1F145
:102D10003002024401342178A1F13000C0B2092808
:102D2000F2D973291AD0642924D0692922D07829AC
:102D30002FD058293CD0752949D063295CD10599F9
:102D4000081D059009788DF81C1000218DF81D10C4
:102D500007A93046FFF734FF05444DE00599081DEB
:102D60000590096821B13046FFF72AFF054443E08A
:102D70002D49F8E70599081D059009686120029022
:102D80000193009201230A223046FFF759FF0544C0
:102D900032E00599081D05900968612002900193B1
:102DA0000092002310223046FFF74AFF054423E03B
:102DB0000599081D05900968412002900193009231
:102DC000002310223046FFF73BFF054414E005992D
:102DD000081D05900968612002900193009200236C
:102DE0000A223046FFF72CFF054405E014462178FF
:102DF0003046FFF7D9FE01350134237863B1252B26
:102E0000F5D1621C63783BB1252BEFD02D2B3FF41D
:102E100070AF0023144672E716B1336800221A70AF
:102E2000284608B070BD00BF0C8500000FB400B587
:102E300083B004AB53F8041B01934FF0FF32002022
:102E4000FFF750FF03B05DF804EB04B07047FFFFDD
:102E500038B5154B93F8BC3F144A82F8303013F064
:102E6000800F1CD1114C0025C4F8AC505523636071
:102E70000F4B23616561A5611022294604F11C00F6
:102E800004F051FFE560A56002F0DEFB02F0DAFC21
:102E900002F0E6FD02F0BEFE02F08EFC38BD7F229D
:102EA000024B83F83020DDE7580100029C3C000211
:102EB0005645535508B502F0E7FB02F0E3FC03F07A
:102EC0007DFB03F067F902F0D9FE08BD10B586B0AE
:102ED00084B2204602F0F4FC204602F01BFF20469C
:102EE00002F0DAFB204603F06BFB204603F056F9B4
:102EF0006946002004F05CFAC0B9684602F0CEFBD7
:102F0000684602F021FD684602F0FAFF684602F0CA
:102F1000BBFD684602F05CFC104BD3F8AC40002CC3
:102F2000E6D0FFF713FE6946A047E1E70B4BDA68EE
:102F30000B4B9A4206D0094B9A680A4B9A4207D02B
:102F400006B010BD0022054BDA6003F0BFFEF2E7C9
:102F50000022024B9A6003F071FEF1E79C3C0002F4
:102F60006C6F61647361766508B502F0C7FB08BDDC
:102F7000014BC3F8AC0070479C3C000208B5034B02
:102F8000002203490348FFF751FF08BD888C000069
:102F9000B48C00005C88000070B51E4600241A4BFB
:102FA0001B799C4213DA184B1B6825012B44596886
:102FB000306804F073FF08B10134F0E7124B1B686E
:102FC0001D44AA6869681148FFF730FF70BD0024EE
:102FD00000E00134052C12D80D4B03EB04135D689F
:102FE0002946306804F05AFF0028F2D1084B03EB61
:102FF0000414A26829460548FFF718FF70BD05486C
:10300000FFF714FF70BD00BF4C3D00029C8800001C
:1030100014850000A888000010B51C462AB123685A
:103020003BB9002000F068FD10BD002000F064FDF9
:10303000F5E7012000F060FD10BDFFFF08B503F0CB
:10304000FDFD00B108BD0248FFF7F0FEFAE700BF42
:10305000E088000008B503F0AFFD00B108BD0248EC
:10306000FFF7E4FEFAE700BFD488000008B5064B7E
:103070001860197100225A719A71044A044905486E
:10308000FFF7D4FE08BD00BF4C3D0002888C000055
:10309000B48C000088880000014B1879704700BF8D
:1030A0004C3D000210B50F48FFF7C0FE002407E0BA
:1030B0000D4B03EB041359680C48FFF7B7FE0134BE
:1030C000052CF5D9002408E0094B1B6803EB041319
:1030D00059680648FFF7AAFE0134FFF7DDFF844276
:1030E000F2DB10BDA4880000148500008088000079
:1030F0004C3D00022DE9F04383B0704B1B68002B60
:1031000000F0D680002502A8002300F8013D04F05D
:103110003DF9002840F0CD80684B5B79C72B04D97E
:103120000022664B5A711225EDE701210DF10700CF
:10313000FFF70EFA9DF807301B2B0CD0082B12D08E
:103140000D2B18D00A2B16D05C4A5179481C5071AF
:103150000A449371D7E706215948FFF7F9F900228D
:10316000564B5A71CFE7554B5B79002BCBD0013BC7
:10317000524A5371C7E7514B5A7932B14F4B1344FE
:1031800000249C712746264620E04E48FFF74EFE5D
:10319000B9E7AFB9621E494B13449B7903BB474A59
:1031A00013190021997106F1190102EBC1030220E4
:1031B0001871631C1344063342F8313001270FE0C5
:1031C0003E4B234400279F710AE001343B4B5B795F
:1031D0009C4225DA24B1394B23449B79222BD8D049
:1031E000002FF2D1354B23449B79202BEDD1334B6B
:1031F000234400229A71032EE7DCDFF8C08006F139
:103200001A0908EBC90301221A71A01840440022D0
:103210001146063004F000FE48F839000136D4E7C4
:103220000024264B5C71FFF737FF844219DA2348EC
:1032300050F8063B27013B44596804F02FFE08B1C3
:103240000134F0E71D4B1B683B44DC68C4B1FFF759
:103250007DFC1A4B53F8D01B3246C95BA0470127AF
:1032600000E00027DFB90024052C17D8164B03EB2C
:1032700004135968154804F011FE18B10134F3E73E
:103280000127EFE7104F24013B19D3F80C80FFF71B
:103290005DFC0F4B3246395BC04701271FB109481F
:1032A000FFF7C4FD2FE709490A48FFF7BFFDF6E71E
:1032B0001525284603B0BDE8F08300BF4C3D000251
:1032C000E8880000F088000014850000523D0002EC
:1032D0001C3E0002F488000008B5172004F0CAFA6A
:1032E00008BD70B590B004460D4600F5F5660AA914
:1032F0003046FFF797FB90B900230393049305939F
:10330000069307930893ADF8243002934DB12B88B0
:10331000ADF80A30BDF80A3013F0040F0FD010B02A
:1033200070BDA023ADF80C3021790223019308234E
:1033300000936B4403AA2068FFF7DAF9EAE70AA9C9
:103340003046FFF786FB4023ADF80C300E9BE3B907
:103350000C9BC3F3C702ADF80E205B0103F0E00342
:10336000ADF810300023ADF81230ADF814309DF8F0
:103370003430082B02D908238DF834309DF83400FE
:1033800085B2ADF81650002323E00C9AC2F34753E0
:10339000ADF80E30930C5B0103F0E003C2F3014182
:1033A0000B4343F00803ADF81030C2F30723ADF828
:1033B0001230D2B2ADF81420D9E79A1D10A91944E1
:1033C00011F8181C10AE06EB420222F8341C01332F
:1033D000DBB28342F1D3217906350095082303AA95
:1033E0002068FFF7A2F98123ADF80C302179012381
:1033F0000093082303AA2068FFF797F9A023ADF8EC
:103400000C302179206802230193082300936B4438
:1034100003AAFFF76DF982E72DE9F0418CB004466D
:10342000016002718360129BC0F8BC3718231E2212
:1034300000F1100100F53870FFF7C4FA18233222AA
:1034400004F53E7104F5F560FFF7BCFA0322002194
:10345000012001F0BCFCC4F8C00700231A4619463D
:1034600001F0D0FC00234FF0FF321946D4F8C0071A
:1034700001F0BEFD00250795089509950A950B9565
:1034800002950395049505950695C023ADF81C306B
:10349000217901230093082307AA2068FFF745F943
:1034A000142004F0B7F80326ADF81C600F23ADF824
:1034B0001E301422294602A804F035FC2179019619
:1034C000082300936B4407AA2068FFF711F9BDF8A1
:1034D0000C30872B0BD0012500231A461946D4F84F
:1034E000C00701F08FFC28460CB0BDE8F081D4F88D
:1034F000BC371A015B4BB3FBF2F30226ADF81C603C
:103500002A22ADF81E2003F03F03ADF820308923B6
:10351000ADF82230ADF8246021790523009308230B
:1035200007AA2068FFF701F9ADF81C600D23ADF87C
:103530001E30ADF82050217903270097082307AAF1
:103540002068FFF7F2F8ADF81C606023ADF81E307C
:10355000ADF8205021790097082307AA2068FFF7CB
:10356000E4F8ADF81C600C23ADF81E30ADF8205027
:1035700021790097082307AA2068FFF7D6F8ADF84D
:103580001C607023ADF81E30ADF8205021790097F3
:10359000082307AA2068FFF7C8F8ADF81C602023AD
:1035A000ADF81E30082229460DEB030004F0BBFBEA
:1035B00021790A230093082307AA2068FFF7B5F8AA
:1035C000ADF81C602C23ADF81E30ADF820502179E9
:1035D0000097082307AA2068FFF7A7F8ADF81C603A
:1035E0002B23ADF81E300723ADF82030217900974A
:1035F000082307AA2068FFF798F8ADF81C600F238E
:10360000ADF81E30ADF8225021790097082307AAA3
:103610002068FFF78AF8A768384603F0FBFE80466B
:10362000384603F0FBFE4FF0E05E08F500635EF8FD
:103630002320012101FA00F022EA00024EF82320A3
:10364000384603F0E7FE8046384603F0E7FE00EB1D
:1036500048101022044B43F820203146A06803F0A4
:10366000E1FE39E7001BB70000800F40F0B597B0CE
:1036700005460E46002959D000221146D0F8C00751
:1036800001F066FD003018BF0120002800F0C28064
:10369000AF68384603F0BEFE0446384603F0BEFE6F
:1036A000640104F1E054235C002B40F0AB80002364
:1036B000089309930A930B930C930D930E930F9316
:1036C000109311931293139314931593A023ADF8B1
:1036D0002030297902230193082300930FAB08AA15
:1036E0002868FFF705F8BDF83E3013F0030F27D127
:1036F000BDF83E3013F0040FCAD10523ADF82030D9
:103700002C23ADF822300423ADF824300022ADF88C
:10371000262029790093082308AA2868FFF705F8CE
:103720000DF13E012846FFF7DCFDB1E700234FF025
:10373000FF321946D0F8C00701F05AFC0120A4E777
:10374000BDF84030C3F340039B0043F0900316AC38
:1037500024F8383D1A2200210DF1220004F0E3FA8A
:1037600029790E230193082300930FAB2246286882
:10377000FEF7BEFFBDF8403013F0100F17D04FF02A
:1037800000520692AAB9BDF83E205B0903EBC203C2
:103790000493BDF8463003F00F038DF8143008226F
:1037A00000210DEB020004F0BEFA002320E000220D
:1037B000E7E7BDF83E105A09920402EB41521B04A0
:1037C00003F440331344BDF8422003EB0223BDF859
:1037D000442013440493DCE79A1D16A901EB42022E
:1037E00032F81C1C16AA1A4402F8501C0133DBB232
:1037F0009DF814209342EFD302A905F53870FFF726
:10380000EAF875E746B900231A461946D5F8C00705
:1038100001F0F8FA17B0F0BD0021D5F8C00701F0AB
:10382000B4FBF7E738B504460D4600234FF0FF32EE
:103830001946D0F8C00701F0DBFB294604F5F56016
:10384000FFF7C9F8054600231A461946D4F8C00701
:1038500001F0D8FA284638BD38B504460D46002197
:10386000FFF704FF00234FF0FF321946D4F8C007DA
:1038700001F0BEFB00212046FFF733FD294604F589
:103880003870FFF7E6F8054600231A461946D4F8C3
:10389000C00701F0B7FA284638BDFFFF30B589B040
:1038A00004460023ADF81C300393049305930323CF
:1038B000ADF818302D22ADF81A20017901930823B4
:1038C000009303AB06AA0068FEF712FFBDF81010C4
:1038D0001348FFF7ABFABDF8103013F0200F17D0E4
:1038E00003250323ADF818300F22ADF81A202179F3
:1038F000206801930823009303AB06AAFEF7F8FEA5
:10390000BDF810100748FFF791FA284609B030BDFE
:1039100013F0180F01D00425E3E70025E1E700BF0D
:103920000C8900001889000070B5324B00241C80FF
:103930005C8021464FF0804004F095F92E494FF00D
:10394000804004F0B5F94FF08040C46604F0C2F93D
:103950004FF080431B6813F0804FF9D1264E31465B
:103960004FF0804004F0A4F9244D00242C6220463E
:1039700004F014F96C61032004F010F9C5F88040DC
:10398000082004F00BF9AC670B2004F007F9A5F54B
:10399000F0252146284604F066F93146284604F011
:1039A00087F9EC66284604F095F9154B1B6813F06F
:1039B000804FFAD11049124804F07AF90F4D0024D3
:1039C000C5F88840102004F0E9F8C5F88C401120B3
:1039D00004F0E4F8EC63142004F0E0F82C64152003
:1039E00004F0DCF8C5F89040162004F0D7F8204623
:1039F00070BD00BF8413000220A1070000800F40AB
:103A00000000084038B50446B0F5805F05D34FF09C
:103A1000FF30B4F5805F3CD238BD4FF0004200214A
:103A20004FF0804004F073F944F480234FF080425B
:103A30009360002302E000BF01339BB2B3F5006F37
:103A4000F9D34FF0004200214FF0804004F056F9C6
:103A50004FF0806200214FF0804004F04FF907E002
:103A60004FF08052224B1A60BFF34F8FBFF36F8F1E
:103A70004FF080431B69002BF2DA2046FFF74BF82A
:103A8000C3B208334FF0804252F82300C0F30B104A
:103A9000BFE7240B174D4FF000420021284604F0E9
:103AA00036F944F48023AB604FF0004200212846F1
:103AB00004F024F94FF080620021284604F01EF93A
:103AC00007E04FF080520A4B1A60BFF34F8FBFF3ED
:103AD0006F8F084B1B69002BF3DA2046FFF71BF8AA
:103AE000C3B20833034A52F82300C0F30B1093E724
:103AF00004ED00E000000840BFF34F8F0449CA689E
:103B000002F4E062034B1343CB60BFF34F8FFEE739
:103B100000ED00E00400FA052DE9F04104461F46DF
:103B200001600262C2B9256A002D44D1A780BDF8A8
:103B30001830E380BDF81C302381BDF8201004F15B
:103B40000C00FEF76BFC099B63620A9BA3620023D7
:103B5000A377A383BDE8F0811546104603F05AFC15
:103B60000646284603F05AFC00EB46104FF00008CA
:103B7000174B43F82080284603F04CFC06462846A5
:103B800003F04CFC4FF0E05E06F500635EF8232086
:103B9000012101FA00F002434EF82320284603F0E9
:103BA00039FC0646284603F039FC760106F1E0565A
:103BB00006F80080B7E7284603F02CFC06462846A6
:103BC00003F02CFC760106F1E05600233354ADE7F8
:103BD00000800F4038B5837F042B1FD0023BDBB23F
:103BE000012B19D90D460446032903D0022D0AD012
:103BF000A57738BD826A002AF8D04FF47F400021B3
:103C000001F004FEF4E7626A002AF1D04FF47F402D
:103C1000002101F0FBFDEBE701B9817738BD837F1F
:103C2000042B00D0704700238377FBE770B5044670
:103C3000837F012B08D0002383830C30FEF7F4FB35
:103C4000246A002C70D170BD0068B0B9A369002B44
:103C500027DBC3F30F23A38322696169914253D108
:103C6000228993421FD8E28893423DD9256A75BBC9
:103C700002212046FFF7AEFF70BDFFF7C3FE00280C
:103C80000DDBA18801FB00F02E4981FB0031C0173C
:103C9000C0EBA11104F10C00FEF7CBFBD6E700202E
:103CA000EFE7FF33D5E7256A25B903212046FFF763
:103CB00091FF70BD284603F0ADFB0646284603F091
:103CC000ADFB760106F1E05600233354EDE72846BC
:103CD00003F0A0FB0646284603F0A0FB760106F1A0
:103CE000E05600233354C3E7246A002CABD02046AF
:103CF00003F090FB0546204603F090FB6D0105F1B3
:103D0000E05501232B5470BD246A002C9BD0204623
:103D100003F080FB0546204603F080FB6D0105F1B2
:103D2000E05501232B5470BD204603F073FB05467C
:103D3000204603F073FB6D0105F1E05500232B5481
:103D400081E700BFD34D62102DE9F0478AB00446E9
:103D5000129FBDF84C50BDF95060BDF85480BDF8BD
:103D60005890BDF85CA08DF827208DF826300022F1
:103D7000A0F8DC20A0F8DE20A0F8E020A0F81021B8
:103D8000C0F8D810134644F62061E430FEF7FCFB7F
:103D90001423C4F80C319DF827201A9B0693189B16
:103DA0000593CDF810A0CDF80C90CDF808800197C0
:103DB00000962B46D4F8D810204600F008F9D4F825
:103DC000D8109DF826201B9B0693199B0593CDF8D0
:103DD00010A0CDF80C90CDF80880019700962B46E6
:103DE000043104F16C0000F0F2F80AB0BDE8F0878D
:103DF0002DE9F04704460E46D0F8D8309B89002BB9
:103E000013BF012700274FF001084FF0000800F50D
:103E10008670FEF7C3FD002871D01423C4F80C315E
:103E2000D4F8D8301A89642A01D964221A81D4F8C6
:103E3000D8305A89642A01D964225A81D4F8D8200A
:103E400013890A331FFA83F955892835ADB2B4F9BD
:103E5000DC0004F01FF88246B4F9DE0004F01AF822
:103E6000824514DDB4F9DC20B4F9DE3003FB02F343
:103E7000002B0CDB09FB09F344F6206202FB03F381
:103E80004D4AA2FB03235B0BC4F8E4300BE005FBB7
:103E900005F344F6206505FB03F5474BA3FB053509
:103EA0006D0BC4F8E450B4F9DC301B01C4F80031E8
:103EB000B4F9E020142104F1E400FEF779FBD4F812
:103EC0000421B4F8E03013441BB2A4F8E03043F608
:103ED0008F618B423FDD4FF47A73A4F8E030B4F980
:103EE000E030002B3FDB1B11A4F8DE303AB9B4F907
:103EF000DC30A4F8DE309BB21B01A4F8E030B4F94A
:103F0000DE30002B3DDD6C2505FB084500212846F1
:103F100000F028F9B5F866303BB33146204600F092
:103F200099F8314604F16C0000F094F8B4F91C30B3
:103F3000B4F888200BB953421BB2A4F810319BB2DD
:103F4000D4F8D820D2899ABB012203FB02F3A4F84B
:103F50001031BDE8F08719498B42C0DA4FF618439B
:103F6000A4F8E030BBE70F33BDE76C2303FB074742
:103F7000B4F9DE0003F08EFF81B2384600F0F2F8AB
:103F8000CBE76C2303FB07470021384600F0EAF833
:103F9000B7F86630002BC0D16C2505FB0845B4F995
:103FA000DE0003F077FF81B2284600F0DBF8B4E7CB
:103FB0004FF6FF72C9E700BF5917B7D171C1FFFFB4
:103FC000C0F8D81001630431C0F89C10704730B5B8
:103FD00089B004461D468DF81F200163129B04938F
:103FE000119B039301230293BDF840300193BDF868
:103FF0003C300093BDF8383000220D99FFF78CFD5E
:10400000002384F82C30BDF93030E386D5B9002385
:10401000A3860025A4F86450A4F866509DF81F30CC
:10402000DBB284F8683094F868002946FEF762FC39
:104030002B4604224FF47A7104F13C00FEF7A4FAF7
:1040400009B030BD6D004FF47A7393FBF5F5A5868A
:10405000A563DEE738B504460D46FFF7E7FDB4F883
:1040600064304BB9B4F866300BB1A38B23B900218F
:104070002046FFF7AFFD03E001212046FFF7AAFD30
:10408000A37F012B19D00023A4F8643004224FF43D
:104090007A7104F13C00FEF777FAB4F93630002B60
:1040A00001DD5B42E3860023A4F8663094F86800E3
:1040B000B4F86610FEF71EFC38BDA38E2BBB94F837
:1040C0002C30002B3FD1B4F8640058BB0020A06511
:1040D000A28B294604F13C00FEF76AFA94F86800C6
:1040E000FEF734FCE36D03449BB2B4F9362002EBD7
:1040F000D27203EB62031BB2002B2EDB9AB2B2F535
:104100007A7F2CD8A4F86630D0E7294604F138002D
:10411000FEF744FC0028D2D0E38E5B42E386A38EF8
:10412000A363CCE7236B5A881988FEF7D3FC00B24F
:10413000236B1A88904201DA10B2C8E75B88984274
:10414000C5DD18B2C3E7B4F86430B4F9362002EB29
:10415000D27203EB62031BB2CEE70023D2E74FF427
:104160007A73CFE7A0F864107047FFFF074B23F086
:104170000703074A136000205060064A41F6387171
:104180005160106059601A60704700BF90130002C0
:10419000D4320002C832000270B5044600F01AFAA8
:1041A000224B1B687BB134B1083414F0070F02D0E6
:1041B00024F007040834621E41F636739A4231D85F
:1041C0001B490B6807E0FFF7D1FF0122174B1A606C
:1041D000E9E7194613465A68944202D91A68002A38
:1041E000F7D1144A93421FD00D6808351A680A6047
:1041F0005A68121B102A0CD91E1972605C60746810
:104200000B4900E011460A6850688442FAD83260CF
:104210000E605968084A13685B1A136000F06CFA64
:10422000284670BD0025F9E70025F7E7D0320002E7
:10423000D4320002C832000250010002D0B170B581
:104240000546A0F1080600F0C5F955F8044C0A4AE5
:1042500000E01A46136859688C42FAD845F8083CC1
:10426000166055F8041C054A13680B44136000F0EF
:1042700043FA70BD704700BFD43200025001000203
:104280000A4B1B681B684BB901234BB9074B1B68D2
:10429000DB68DB685A68064B1A6070470023F4E756
:1042A0004FF0FF32024B1A60704700BFE03200024D
:1042B000CC33000210B50446006BFFF7BFFF204669
:1042C000FFF7BCFF10BD2DE9F04781460D461746AC
:1042D0009A46089EDDF824800A9C9200A521206B56
:1042E00003F021FD236B07F18042013A03EB8207C3
:1042F00027F007070023132B07D8E95CE21882F8A0
:104300003410EA5C0AB10133F5E7002384F8473042
:10431000072E00D90726E662266500256565201D63
:1043200001F056F904F1180001F052F92461C6F1C8
:104330000806A6616462A56584F85C505246494649
:10434000384602F029FB2060B8F1000F01D0C8F810
:104350000040BDE8F087FFFF38B5002407E004EB1C
:10436000840293000E48184401F027F90134072C09
:10437000F5D90C4D284601F020F90B4C204601F0F0
:104380001CF90A4801F019F9094801F016F9094821
:1043900001F013F9084B1D60084B1C6038BD00BFCD
:1043A000E8320002A0330002B4330002D43300022A
:1043B00000340002EC330002E0320002E43200027A
:1043C00010B5044602F00EFB214A13680133136056
:1043D000204B1B68002B32D01F4B1B683BB91D4B79
:1043E0001B68DA6AE36A9A4201D81A4B1C601B4ABE
:1043F000136801331360A364E36A01229A401849E9
:10440000086802430A6003EB83039A00211D1548E4
:10441000104401F0E0F802F0F5FA0F4B1B686BB1A5
:104420000C4B1B68DA6AE36A9A4207D24FF080525B
:104430000D4B1A60BFF34F8FBFF36F8F10BD054B4D
:104440001C601368012BD2D1FFF786FFCFE700BFB6
:1044500088330002DC320002E833000298330002A5
:104460009C330002E832000204ED00E070B504461F
:104470000E461D4B1D681D4B1868043001F0D1F825
:1044800050B91A4B1B68DA6A012303FA02F2184981
:104490000B6823EA02030B60B4F1FF3F13D02C44F6
:1044A000124B1B685C60A54216D8124B18680F4B64
:1044B0001968043101F09BF80F4B1B689C4201D234
:1044C0000D4B1C6070BD002EE9D0084B19680431FB
:1044D0000A4801F080F870BD094B1868034B196851
:1044E000043101F084F870BD14340002DC320002A3
:1044F0009C330002E0320002CC330002EC330002B5
:10450000E43200022DE9F04385B006460F46154619
:1045100098469000FFF740FE00B381466020FFF709
:104520003BFE0446B0B1C0F83090CCB100230393F9
:1045300002940D9B01930C9B009343462A463946F7
:104540003046FFF7C0FE2046FFF73AFF012005B0D6
:10455000BDE8F0834846FFF771FEE6E70024E4E794
:104560004FF0FF30F3E7FFFF00B583B0134B01932B
:1045700000230093802212491248FFF7C3FF01284D
:1045800004D0012805D003B05DF804FB00F0BAFEAA
:10459000F7E74FF0A00383F31188BFF36F8FBFF3EA
:1045A0004F8F4FF0FF32084B1A600122074B1A6001
:1045B0000022074B1A6002F081FAE4E7C8330002D8
:1045C00030890000A5480000CC330002E833000227
:1045D00014340002024A136801331360704700BFAD
:1045E00094330002014B1868704700BF1434000276
:1045F000F8B5364B1B68002B5CD1354B1E68013675
:104600001E6086B1334B1B689E4247D20027324B57
:104610001B68DB6A03EB83039A00304B9B58012B2A
:104620004DD901274BE02E4A11682E4B18681060B7
:1046300019602D4A136801331360FFF721FEE1E78B
:104640000127274B1B681B6853B3002353BB244B24
:104650001B68DB68DC6863689E4228D3251D2846FA
:1046600000F0DFFFA36A1BB104F1180000F0D9FFCE
:10467000E36A01229A401D49086802430A6003EB7D
:1046800083039A0029461548104400F0A4FFE26A0B
:10469000114B1B68DB6A9A42D2D2D2E70027D0E7DF
:1046A0000123D3E74FF0FF320A4B1A60AFE7094A04
:1046B0001360ACE70E4A13680133136000270D4BFB
:1046C0001B6803B101273846F8BD00BF94330002D0
:1046D00014340002CC330002DC320002E832000263
:1046E000E0320002E4320002D03300029C330002C8
:1046F000903300021834000238B502F073F92E4BE3
:104700001A68013A1A601B68002B4DD12B4B1B68AD
:104710003BB300242A4B1B682BB3294BDB68DC68B6
:1047200004F1180000F07DFF251D284600F079FFF8
:10473000E36A01229A402349086802430A6003EBB6
:1047400083039A0029462048104400F044FFE26A9F
:104750001E4B1B68DB6A9A42DCD301221C4B1A6099
:10476000D8E7002421E00CB1FFF78AFD194B1C6843
:1047700074B9174B1B68E3B14FF08052164B1A60A7
:10478000BFF34F8FBFF36F8F01240EE0013C07D0C2
:10479000FFF72EFF0028F9D001220D4B1A60F5E734
:1047A00000220C4B1A60E4E7002402F02BF92046AB
:1047B00038BD0024F9E700BF9433000288330002BB
:1047C000D43300029C330002E8320002DC320002E3
:1047D000183400029033000204ED00E038B50546BD
:1047E0000C46FFF7F7FE164B18682A6814449042EF
:1047F00005D2A24209D9A04216D3002206E0A24265
:1048000014D8A04214D3002200E000222C608AB900
:10481000FFF772FF38B94FF080520A4B1A60BFF3AE
:104820004F8FBFF36F8F38BD0122EFE70122EDE715
:104830000122EBE70021201AFFF718FEE8E700BF8E
:104840001434000204ED00E0134B1B6813B310B5E1
:10485000FFF7C0FE114B1C68FFF74EFF24B90E4B4B
:104860001B68002BF4D110BD02F0BCF80B4BDB68C9
:10487000DC68201D00F0D5FE094A1368013B136077
:10488000054A1368013B136002F0BCF82046FFF7AD
:1048900011FDE4E7704700BF8C33000200340002D2
:1048A0008833000208B501E002F0E6FEFFF7CCFF16
:1048B000064B1B68012BF7D94FF08052044B1A604E
:1048C000BFF34F8FBFF36F8FEEE700BFE8320002F8
:1048D00004ED00E01F4B1B684BBB10B500221E4BC4
:1048E0001A601E4B1A6812681B681B6B9A4222D909
:1048F0001B4B1B68B3FA83F3DBB2C3F11F031948E8
:104900009A00D418A10001444C6864684C601A44B1
:10491000910008310844844214D003EB83039A00C9
:10492000104B13445B68DA680C4B1A6010BD01220F
:10493000094B1A607047094B18681968343102F046
:10494000A9FED5E7606803EB83029100054A0A449B
:104950005060E2E79433000218340002DC320002B7
:104960009C330002E832000210B50C46044B196873
:10497000183100F03CFE01212046FFF777FD10BD05
:10498000DC32000238B50D461446064B1968183162
:1049900000F021FE0CB14FF0FF3521462846FFF70D
:1049A00065FD38BDDC32000238B5C368DC6804F14F
:1049B0001805284600F035FE134B1B68E3B9251D8A
:1049C000284600F02EFEE36A01229A400F4908684B
:1049D00002430A6003EB83039A0029460C48104403
:1049E00000F0F9FDE26A0B4B1B68DB6A9A4208D9BA
:1049F0000120094B186038BD2946084800F0EBFD3E
:104A0000F0E7002038BD00BF943300029C33000261
:104A1000E8320002DC32000218340002D433000213
:104A2000034B1B680360034B1B684360704700BF68
:104A3000D03300021434000238B504460D4601F0AC
:104A4000D1FF114B1A682B68B3F1FF3F18D02068D3
:104A50000E490968884202D061688A4212D26168B0
:104A6000501A834204D8012401F0CCFF204638BDFF
:104A70008A1A13442B602046FFF7D2FF0024F3E785
:104A80000024F1E70124EFE714340002D0330002E0
:104A90000122014B1A60704718340002054B1B6855
:104AA00023B1054B1B681BB90220704701207047DA
:104AB00000207047E833000294330002002847D0FA
:104AC00038B50446C36A23490968C96A8B4216D2BD
:104AD0008169002905DB1F490968C96AC1F108011C
:104AE0008161606903EB830399001B4B0B4498427F
:104AF00006D0002333B9174B1B68DB6AE36238BD6D
:104B00000123F7E7251D284600F08BFD68B9E36A0D
:104B100003EB83018A0010498A5832B901229A4076
:104B20000E490B6823EA02030B600A4B1B68DB6A21
:104B3000E36201229A400949086802430A6003EBD4
:104B400083039A0029460448104400F044FD38BD10
:104B5000704700BFDC320002E83200029C330002E2
:104B6000002834D038B50446426D013A4265C06A27
:104B7000216D88422DD00AB1002038BD251D284660
:104B800000F04FFD68B9E36A03EB83018A00124924
:104B90008A5832B901229A4010490B6823EA02036D
:104BA0000B60236DE362C3F10802A261012404FAE1
:104BB00003F20A49086802430A6003EB83039A0080
:104BC00029460548104400F006FD204638BD002067
:104BD0007047002038BD00BFE83200029C3300025D
:104BE000054B1B6823B1044B1A68536D01335365A1
:104BF000014B1868704700BFDC32000210B5044654
:104C000001F0F0FEA26BE36B9A4204D0002401F0A5
:104C1000F9FE204610BD0124F9E710B5044601F065
:104C2000E1FEA36B23B1002401F0ECFE204610BD91
:104C30000124F9E770B504461646856B026C5AB933
:104C400003681BB100200135A56370BD4068FFF704
:104C500087FF00236360F6E76EB9806803F061F8B0
:104C6000226CA3681344A3606268934219D323683B
:104C7000A3600020E7E7C06803F053F8226C5242BB
:104C8000E3681344E36021688B4202D263681A44EC
:104C9000E260022E01D00020D5E725B1013D0020C1
:104CA000D1E70020CFE70020CDE7026C72B110B54C
:104CB000C3681344C3604468A34201D30368C3605C
:104CC0000C46C168204603F02CF810BD704738B57B
:104CD000054601F087FE95F8454064B201E0013CCD
:104CE00064B2002C0ADD6B6A43B105F12400FFF7C2
:104CF0005BFE0028F3D0FFF7CBFEF0E7FF2385F83B
:104D0000453001F07FFE01F06DFE95F8444064B23D
:104D100001E0013C64B2002C0ADD2B6943B105F1CE
:104D20001000FFF741FE0028F3D0FFF7B1FEF0E7D7
:104D3000FF2385F8443001F065FE38BD38B50446E0
:104D40000D4601F04FFE2168E26B236C03FB02105D
:104D500060600020A063A160013A02FB0313E360DE
:104D6000FF2384F8443084F84530A5B923691BB982
:104D700001F048FE012038BD04F11000FFF714FED9
:104D80000028F5D04FF08052074B1A60BFF34F8FC9
:104D9000BFF36F8FECE704F1100000F00EFC04F19C
:104DA000240000F00AFCE3E704ED00E038B51D46FE
:104DB000049C0B4649B12260E06323640121204634
:104DC000FFF7BCFF84F84C5038BD2460F4E7F0B521
:104DD00083B0054617460E4689B100FB01F05030FE
:104DE000FFF7DAF9044638B100903B4600F1500273
:104DF00031462846FFF7DAFF204603B0F0BD002019
:104E0000EDE7FFFFF0B585B004460F4601921E4660
:104E1000002539E0324639462046FFF70BFF636A2A
:104E20006BB938B14FF080523B4B1A60BFF34F8FD4
:104E3000BFF36F8F01F0E6FD012005B0F0BD04F176
:104E40002400FFF7B1FD0028F4D04FF08052324B20
:104E50001A60BFF34F8FBFF36F8FEBE701F0D2FD06
:104E60000020EAE702A8FFF7DBFD012519E0002397
:104E700084F8443021E0002384F8453023E02046C4
:104E8000FFF725FFFFF738FC01F0ACFDA26BE36BE9
:104E90009A42BFD3022EBDD0019B002BDED0002D45
:104EA000E0D001F0AFFDFFF795FB01F09BFD94F81A
:104EB00044305BB2B3F1FF3FD9D094F845305BB2D8
:104EC000B3F1FF3FD7D001F09DFD01A902A8FFF784
:104ED000B3FDC8B92046FFF791FE0028CFD0019955
:104EE00004F11000FFF740FD2046FFF7F0FEFFF74A
:104EF00003FC0028C8D14FF08052074B1A60BFF363
:104F00004F8FBFF36F8FBFE72046FFF7E0FEFFF73D
:104F1000F3FB002091E700BF04ED00E0F8B5EFF3EC
:104F200011864FF0A00484F31188BFF36F8FBFF395
:104F30004F8F856BC46BA54205D3022B03D0002095
:104F400086F31188F8BD1746054690F8454064B2CF
:104F50001A46FFF76FFEB4F1FF3F05D0013464B28B
:104F600085F845400120EBE76B6A0BB90120E7E7C4
:104F700005F12400FFF718FD18B127B101203860B2
:104F8000DEE70120DCE70120DAE738B5EFF3118432
:104F90004FF0A00383F31188BFF36F8FBFF34F8FE0
:104FA000826BC36B9A421CD290F845305BB20132DF
:104FB0008263B3F1FF3F07D001335BB280F8453025
:104FC000012084F3118838BD436A0BB90120F8E74A
:104FD0000D462430FFF7E8FC28B135B101202860E8
:104FE000EFE70020EDE70120EBE70120E9E7FFFF15
:104FF0002DE9F04184B00446884601921E46002502
:1050000060E0E56841462046FFF74FFEF6B97B1E9B
:10501000A36323683BB123694BB901F0F3FC012082
:1050200004B0BDE8F081FFF7DBFD6060F3E704F159
:105030001000FFF7B9FC0028EFD04FF08052434B2F
:105040001A60BFF34F8FBFF36F8FE6E7E560636AC7
:10505000002BE2D004F12400FFF7A6FC0028DCD0EE
:105060004FF08052394B1A60BFF34F8FBFF36F8FF1
:10507000D3E701F0C7FC0020D2E702A8FFF7D0FC7D
:10508000012529E0002384F8443031E0002384F82E
:10509000453033E001F0A6FC6068FFF70FFD01F03A
:1050A000B1FC3BE02046FFF712FEFFF725FB09E0CD
:1050B0002046FFF70CFEFFF71FFB2046FFF7ADFD74
:1050C000002840D101F08EFCA76B002F99D1019BE5
:1050D000002BCED0002DD0D001F094FCFFF77AFA4F
:1050E00001F080FC94F844305BB2B3F1FF3FC9D0CB
:1050F00094F845305BB2B3F1FF3FC7D001F082FCBA
:1051000001A902A8FFF798FC0028D1D12046FFF79B
:1051100084FD0028C6D02368002BBBD0019904F180
:105120002400FFF721FC2046FFF7D1FDFFF7E4FA4A
:105130000028C7D14FF08052044B1A60BFF34F8F45
:10514000BFF36F8FBEE700206AE700BF04ED00E009
:105150002DE9F041EFF311864FF0A00383F311889E
:10516000BFF36F8FBFF34F8F846B24B9002086F39A
:105170001188BDE8F0819046074690F844506DB222
:10518000FFF793FD013CBC63B5F1FF3F05D001354E
:105190006DB287F844500120E9E73B690BB9012063
:1051A000E5E707F11000FFF7FFFB30B1B8F1000FA2
:1051B00005D00120C8F80000D9E70120D7E7012079
:1051C000D5E7FFFF0023092B0CD8074A52F83320FC
:1051D0000AB10133F7E7044A42F8331002EBC30384
:1051E00058607047704700BF3C3E000270B50446EF
:1051F0000D46164601F0F6FB94F844305BB2B3F16D
:10520000FF3F0DD094F845305BB2B3F1FF3F0BD0B8
:1052100001F0F8FBA36B5BB12046FFF758FD70BDB2
:10522000002384F84430EDE7002384F84530EFE7AD
:105230003246294604F12400FFF7A4FBECE7FFFF08
:10524000064B1A681368B3FA83F35B09036013B95A
:10525000D368186870470020704700BF1C340002F4
:1052600008B54160006191420CD8D21A83699A4214
:1052700001D3012008BD011D094B186800F0B7F9E2
:10528000002008BD9A4201D2994206D2011D054B69
:10529000186800F0ACF9002008BD012008BD00BF6F
:1052A000203400021C34000238B501F09BFB0F4B88
:1052B0001B6813B101F0A6FB38BD0D4D284600F068
:1052C0007CF90C4C204600F078F90B4B1D600B4B21
:1052D0001C6000220C210220FFF779FD034B1860AF
:1052E0000028E7D00649FFF76DFFE3E750340002DE
:1052F00024340002383400021C340002203400023E
:105300003889000000B583B0FFF7CEFF084B1B685B
:1053100063B1084B019302230093002350220649F6
:105320000648FFF7EFF803B05DF804FB0020FAE74A
:10533000503400025434000240890000A55500009A
:1053400030B585B0134C25680DB31C46019102920F
:105350000390052913DCFFF7A1FB022807D00023E7
:105360001A4601A90B480068FFF74CFD0DE0002329
:10537000089A01A907480068FFF744FD05E00023EB
:10538000224601A92846FFF7C9FD05B030BD00201F
:10539000FBE700BF5034000270B582B0154B1B68AC
:1053A0001A6802B3DB681E68DC68251D284600F019
:1053B00038F9636A20469847E369012BEED1A36967
:1053C00033449E4207D2636024612946094B186822
:1053D00000F00DF9E2E7002100910B46324620462D
:1053E000FFF7AEFFDAE7044A10680249086013606D
:1053F00002B070BD1C3400022034000238B50546EE
:10540000FFF7F0F80446074B1B68984205D30023CA
:105410002B60044B1C60204638BDFFF7BDFF012305
:105420002B60F6E74C34000270B582B005460E469C
:105430000F4B1B68DB68DC68201D00F0F2F8E369A5
:10544000012B04D0636A2046984702B070BDA16961
:105450002B46324629442046FFF702FF0028F1D0B0
:10546000002100910B462A462046FFF769FFE9E735
:105470001C34000270B582B006460C46FFF7AAF84D
:1054800001A8FFF7BBFF019B23BB05460CB9B04247
:1054900019D22CB1114B1B681C68B4FA84F464094E
:1054A0002246711B0E4B1868FFF7A0FEFFF724F988
:1054B00038B94FF080520B4B1A60BFF34F8FBFF3D8
:1054C0006F8F02B070BDFFF717F929463046FFF71E
:1054D000ABFFF6E7FFF710F9F3E700BF2034000257
:1054E0005034000204ED00E030B587B000231A46C6
:1054F00003A92B480068FFF77BFD00284DD0039BD4
:10550000002BF3DB059C636913B1201D00F089F8C3
:1055100002A8FFF773FF039B092BE7D801A252F8FB
:1055200023F000BF4D5500004D5500004D550000C3
:10553000ED54000081550000935500004D550000CA
:105540004D550000ED540000815500000499A569F7
:105550000B46024629442046FFF782FE0028C5D0AC
:10556000636A20469847E369012BBFD1A2690021F5
:1055700000910B46049802442046FFF7E1FEB5E790
:105580000499A1610346024601442046FFF768FEE4
:10559000ACE72046FEF752FEA8E707B030BD00BFDB
:1055A0005034000200B583B001A8FFF749FE01990D
:1055B000FFF760FFFFF798FFF6E700F1080343608D
:1055C0004FF0FF328260C3600361002303607047C5
:1055D00000230361704743684B609A688A609A6849
:1055E000516099600861036801330360704730B40B
:1055F0000D68B5F1FF3F02D000F1080202E0026938
:1056000004E01A4653681C68A542FAD253684B60FE
:1056100099608A605160086103680133036030BC9F
:10562000704703694268816891608268416851608F
:105630005A68904205D0002202611868013818604B
:10564000704782685A60F6E710B586B00D4C7F232C
:10565000237000234FF0FF321946184601F0A8FCD2
:105660000020049094F8303003F5E0630293802327
:105670008DF8003001238DF80C30694601F08EFE64
:1056800006B010BD9C3C00020922024BA3F8BC2FBF
:10569000704700BF580100027047FFFF08B58368DC
:1056A0001BBB037B012B20D94378104A92F8302092
:1056B000934200D0CBB90378802B13D008D8012BAC
:1056C0000CD0022B03D10422084B1A7008BD08BD70
:1056D000822B02D8FEF710FA08BD08BD0522034B45
:1056E0001A7008BD7F22014B1A7008BD9C3C000255
:1056F000014B1878704700BF9C3C0002014B1870AA
:10570000704700BF9C3C0002C37813F0C00F04D068
:1057100083788B4206D2002070478378994203D069
:105720000020704701207047012070472DE9F041AB
:1057300005460E4600242146274602E0474601342E
:10574000A4B21D2C14D804EB44029300184AD35A77
:10575000AB42F4D104EB44034FEA83089044314652
:105760004046FFF7D1FF01460028E7D10121E6E7D7
:10577000D9B9002400E00134FBF7A2FFA04214D9FC
:1057800004EB440293000B4AD35A9D42F3D104EB3D
:1057900044029300074A03EB020831464046FFF7F4
:1057A000B3FF0028E7D04746E5E73846BDE8F0817B
:1057B000488900000000000208B5044808230322BD
:1057C00001461438FDF7FEF808BD00BFFC3C00029E
:1057D000836823F07F02802A00D070470269002A84
:1057E000FBD100B583B003F07F038DF80630C3888A
:1057F000ADF80430036802A941F8083D0248FDF7FE
:10580000EAF803B05DF804FBE83C000200B587B09D
:1058100000230193039304930593094991F83010F1
:105820008031029108218DF80C10ADF8060000922D
:105830006946184601F0B2FD07B05DF804FB00BFF1
:105840009C3C000210B50D4BB3F8C43F0C4CE36216
:105850000822002104F1320002F065FA0422114608
:1058600004F13A0002F05FFA00236FF07F024FF478
:10587000E061184601F09CFB10BD00BF580100021A
:105880009C3C00020D4B40F69802A3F8C62F052160
:1058900083F8C81FA3F8CA2F032183F8CC1FA3F8ED
:1058A000CE2F042183F8D01FA3F8D22F1E2283F815
:1058B000D42F4FF47A72A3F8C42F70475801000216
:1058C00030B587B0044601461C48FDF767F808B9B3
:1058D000002319E01A4BB3F8C42F1A4BDA620025E3
:1058E000049593F8303003F5E0630293FFF700FF6F
:1058F0008DF8000001238DF80C306946284601F030
:105900004DFDE5E701339BB2032B15D803F11802D7
:105910000C4901EB4202508803F57C72084901EB07
:105920008202D2889042EDD203F11802054901EBC0
:10593000420220445080E5E707B030BDC83C000279
:10594000580100029C3C00020369E3B9836823F01C
:105950007F02B2F5E06F16D1027B012A13D103F06A
:105960007F020023032B1BD830B41D4603F57C7146
:105970000C4C04EB8101097A8A4205D001339BB2B9
:10598000032BF2D930BC7047074B05F1180203EB2B
:1059900042020021518002782B4483F83A20F1E73B
:1059A000704700BF580100029C3C00020023032BFB
:1059B00020D810B41C4603F57C720F4901EB82021B
:1059C000127A824206D001339BB2032BF2D9002017
:1059D00010BC704703F11802084B03EB42035888D0
:1059E00004F57C7401EB8404E388984234BF002002
:1059F0000120EDE700207047580100029C3C0002A6
:105A0000036913B14FF6FE707047037B082B02D079
:105A10004FF6FE707047836823F07F03B3F5C06FC5
:105A200005D0B3F5B06F02D04FF6FE707047027824
:105A300002F0E003202B0BD0602B0BD063B1402B86
:105A40000CD0802A02D04FF6FF707047802070473C
:105A5000202070476020704700207047402070472A
:105A600008B5084B93F8301000234FF0FF3201F5D2
:105A7000C061184601F09CFA00F08CFD00F080FB3C
:105A800008BD00BF9C3C000238B50546FFF7B8FFD3
:105A90004FF6FE7398420ED0AA6802F07F040F4BB7
:105AA00093F830309C4207D09C4204D022F07F0310
:105AB000B3F5B06F0AD038BD22F07F01B1F5C06FE9
:105AC000F2D10146284600F087FB38BD02F07F0284
:105AD0000146284600F0A0FDEDE700BF9C3C000217
:105AE00008B572B6CB7813F0C00F0DD01AB98B7809
:105AF000436062B608BD4968013A03F0070303FB3F
:105B000002F3CB5C4360F4E703F00702496804301A
:105B100002F007F9EDE710B572B6C37813F0C00FC5
:105B20000FD012B9002062B610BD4468501E03F0B9
:105B300007031A46043103FB004002F0F2F801208B
:105B4000F1E703F007020431406802F0EAF80120AF
:105B5000E9E7FFFF30B587B0002504950C4C94F8B9
:105B600030402044029008208DF80C0080208DF8F1
:105B700000008DF80110090A8DF802108DF803203D
:105B800001936946284601F009FC07B030BD00BF0B
:105B90009C3C000270B504460E464078A37800EBAA
:105BA0000320E17880B2FFF7C1FD0546F8B1837AA2
:105BB00033420DD1012E0DD06178A37801EB032182
:105BC000114BE27889B24FF4B060FFF7C3FF0025B4
:105BD000284670BD6178A37801EB03210B4BE27876
:105BE00089B24FF4B060FFF7B5FF0025F0E76178A8
:105BF000A37801EB0321064BE27889B24FF4B06041
:105C0000FFF7A8FFE4E700BF02000106010001065C
:105C10000000020610B5002400E00134012C14DC61
:105C200004F5C050002180B2FFF780FD0028F4D0B9
:105C30004168114A04F11003098A42F8231004F163
:105C40002403002122F81310E7E7002400E00134C8
:105C5000082C10DC04F5A050002180B2FFF766FD8F
:105C60000028F4D0416800234FF0FF32096818463D
:105C700001F09EF9EBE710BD9C3C0002F0B4002758
:105C80001CE01F4CBB00DA1995002A46254405F597
:105C90008A551C4E16440FCE0FC533682B6007F192
:105CA0008B0304EB43140834174D05EB47150FCD58
:105CB0000FC495E80F0084E80F000137012FE0DDE5
:105CC000002619E00E4C06F5FD7304EBC303083300
:105CD0000E4A02EBC60292E8030083E80300730158
:105CE0001C4404F581540A4D1D440FCD0FC495E8A2
:105CF0000F0084E80F000136082EE3DDF0BC70478A
:105D000058010002188C0000408C0000B08A00008E
:105D1000F88A00002DE9F04F87B00546FFF7E8FC50
:105D2000052802D007B0BDE8F08F002404E0C27857
:105D300012F0C00F0CD00134012CF3DCA6B206F532
:105D4000C050002180B2FFF7F1FC03460028EED0DE
:105D50005F6804F12403674A32F91330002B05DD34
:105D600004F124025B1B634921F812303B68002BCD
:105D7000E1DB04F11008DFF87C91294609EB88008B
:105D8000FCF70CFE59F82830002BD4DC04F1240376
:105D900039F91330002BCEDC398A49F82810B9685C
:105DA00004F1240229F8121008220021684601F0AB
:105DB000BAFF06F5D056B6B200213046FFF7B6FC62
:105DC000824620B1D0F804900026B34682E04A4BC8
:105DD000002231464FF4C060FFF7BCFE4FF0000BCD
:105DE000BBF1000FA7D0002004908DF80CB03B68E9
:105DF0000293694601F0D2FA9DE709EB8603997890
:105E000039F82600FFF792FC824608B100220CE028
:105E100009EB8602384B927839F826104FF4C060AF
:105E2000FFF798FE012200E0012209EB8803D978F0
:105E30009AF8033003F00703994216D8002ACFD10D
:105E40009AF8033013F0C00F32D009EB8802927831
:105E5000BAB19AF802108A421BD9274B39F8281098
:105E60004FF4C060FFF776FE2BE009EB8802234B6E
:105E7000927839F828104FF4C060FFF76BFE0122CA
:105E8000DCE701220AF102010DEB0B0001F049FFF2
:105E900017E0DAF8041003F00700531E09EB88023C
:105EA000D27803FB00110DEB0B0001F03AFF08E084
:105EB00009EB8803DA78DAF804100DEB0B0001F037
:105EC00030FF09EB880898F803309B445FFA8BFB9E
:105ED0000136F6B2072E83D8BBF1080F80D0B0464A
:105EE00009EB8603DB78002B9ED05B44082B84DD16
:105EF00001229AE79C3C0002000002060000010615
:105F00002DE9F04F83B08346FFF7F2FB05280DD053
:105F100000230193DBF810300BB100230193019BA8
:105F2000002B00F0EA804FF0000ABAE00123019351
:105F3000F0E700230093C9E000230093C6E004F5D6
:105F4000B05400212046FFF7F1FB8146002840F0C5
:105F5000CC806B4B002221464FF4C060FFF7FAFD66
:105F600000230093C1E04FF0000883E007EB8603B5
:105F70009978FFF7DBFB814618B3B8F1000F69D0C1
:105F800007EB8603DA7899F8033003F007039A42A7
:105F900029D8B8F1000F5DD099F8030010F0C00FB8
:105FA0004AD007EB86039A787AB399F802309A427E
:105FB00033D9534B37F826104FF4C060FFF7CAFDB2
:105FC00043E007EB86084E4B98F8022037F826107E
:105FD0004FF4C060FFF7BEFD98F803301C44E4B2F4
:105FE0004FF00008C9E707EB8608464B98F80220F7
:105FF00037F826104FF4C060FFF7ACFD98F8033077
:106000001C44E4B24FF00008C3E73F4B37F82610BA
:106010004FF4C060FFF79EFD17E0D9F8043000F0A0
:10602000070E501E07EB8602D2780BEB040100FB33
:106030000E3001F076FE08E007EB8603DA780BEB12
:106040000401D9F8040001F06CFE07EB8606F37832
:106050001C44E4B20135EDB2072D1ED82E4607EBE5
:106060008503DB78E1189BF80C2091423FF77BAF6A
:10607000DDF800800BB94FF0000837F82600002843
:106080007FF474AF07EB86029278002A7FF46EAF3C
:106090001C44E4B24FF000086FE70AF101035FFA15
:1060A00083FABAF1080F28D81FFA8AF4002104F500
:1060B000A050FFF73BFB814600283FF43AAFC3787E
:1060C00013F0C00F3FF438AF019B0093009B43B126
:1060D000D9F804301A68DBF808309A4201D000235E
:1060E0000093009B002B7FF42AAF009B002BD4D0A1
:1060F000D9F8047000252C46AEE703B0BDE8F08F58
:1061000000000206000001064100040670B50546C5
:106110000E46002414E00133DBB2072B0ED831F811
:106120002320AA42F7D101EB83029278B242F2D146
:1061300004F110030021094A42F823100134A4B2EB
:10614000012C0AD804F5D050002180B2FFF7EEFAF6
:106150000028F3D041680023DFE770BD9C3C0002BB
:1061600008B513460A4601464FF4B060FFF7F2FC4B
:106170000122024B83F8902008BD00BF9C3C000226
:10618000034B012283F890200022C3F89820704727
:106190009C3C000208B5FFF7F3FF08BD0C4B93F8D9
:1061A0009030052B00D8704710B501460948FCF720
:1061B000F5FB00B910BD064C4FF0006294F8941046
:1061C000B4F89200FFF7CCFF012384F89030F1E798
:1061D0009C3C0002443D0002F0B587B004460D46E9
:1061E00000210491AD4B93F8303003F5B063029376
:1061F00008228DF80C20684601F095FD6378A2789E
:1062000003EB02235942DAB2C9B258BF4A428DF8B1
:1062100001201A46002B1DDB12128DF80220E378B4
:106220008DF80330802D18D09C4B93F89030012BC3
:1062300018D0062B00F0C780082B00F0378160785B
:10624000A37800EB0320964AE17880B2FFF788FF3D
:1062500007B0F0BD03F1FF02DEE701228F4B83F8A8
:106260009020F5E78D4B0021A3F89C106278A07870
:1062700002EB0022A3F89220E27883F8942083F8BE
:10628000A4100A22C3F8A820202D0BD0402D6CD0DA
:106290006078A37800EB0320824AE17880B2FFF7B0
:1062A0005FFFD5E702212046FFF774FC0028CFD01E
:1062B000227812F0020F22D1C27812F0300F14D0DF
:1062C000764AC2F8A000082382F8903006AC60231A
:1062D00004F8183D042200210DEB020001F023FD1B
:1062E0002146002001F05AF8B2E76078A37800EB6D
:1062F00003206C4AE17880B2FFF732FFA8E7C2784A
:1063000012F0300F27D160228DF80020E27821466C
:10631000FFF701FCA8B10422A1180DEB020001F067
:1063200000FD6946002001F039F85C4BD3F8983045
:10633000002B8DD0594A92F89410B2F892009847E9
:1063400086E76078A37800EB0320564AE17880B2B4
:10635000FFF706FF7CE76078A37800EB0320514A43
:10636000E17880B2FFF7FCFE72E701212046FFF7DB
:1063700011FC014600283FF46BAFC378112B12D0FB
:1063800003F00703C3F104039B0043F0430306AD8E
:1063900005F8183DE2782846FFF7A2FB29460020C1
:1063A00000F0FCFF54E73D4B062283F89020C3F831
:1063B000A00041238DF80030038901936946002035
:1063C00000F0ECFF44E7602D7FF436AF334B0A2238
:1063D000C3F8A820B3F892008DF80100020A8DF8E6
:1063E000022093F894108DF803102278C2F3001263
:1063F00093F8A4309A4203D02B4AFFF7B1FE27E767
:10640000264CD4F8A0301889B4F89C300721C01A63
:10641000FCF77DFB0646C5B2D4F8A0301B89B4F862
:106420009C209B1A072B27DD94F8A4301B018DF8C4
:106430000030072200210DF1010001F074FC174C1F
:10644000D4F8A0305968B4F89C30F2B219440DF178
:10645000010001F066FCB4F89C301D44A4F89C5087
:106460006946002000F09AFF94F8A430B3FA83F351
:106470005B0984F8A430EBE6084A92F8A410C5F151
:1064800007035BB243EA01135BB243F001038DF8EB
:106490000030012382F89030CBE700BF9C3C000223
:1064A000000006060000010600000305002D7FF431
:1064B000C6AE354B0A22C3F8A820B3F892008DF877
:1064C0000100020A8DF8022093F894108DF8031051
:1064D0002278C2F3001593F8A4309D4250D112F0F7
:1064E000010F03D00122284B83F8902025786FEA12
:1064F000650505F00705244BB3F89C60AF19D3F888
:10650000A0301A89974237DC58682A46611C30440B
:1065100001F007FC1C4CB4F89C301D44A4F89C50BE
:1065200094F8A4301B0143F0200306AD05F8183D94
:10653000072200210DF1010001F0F5FB29460020A2
:1065400000F02CFF94F8A430B3FA83F35B0984F8CD
:10655000A4300D4B93F89030012B7FF479AE0A4BA9
:10656000D3F89830002B3FF473AE074A92F894109A
:10657000B2F8920098476BE6044AFFF7F1FDE8E7AE
:10658000034AFFF7EDFD63E69C3C000205000305AE
:106590000000030508B5084B012283F878204FF06E
:1065A000FF32C3F8842000236FF07F024FF4B06104
:1065B000184600F0FDFC08BD9C3C00027047FFFF40
:1065C00038B5124B93F87830012B19D004460146A8
:1065D0000F48FCF7E3F998B10C4B93F87830022B95
:1065E0000FD00A4D0B4B95F87A20B5F87C104FF47C
:1065F000B060FFF7AFFA022385F87830C5F8844021
:1066000038BD0122014B83F8782038BD9C3C000244
:10661000203D00020000040570B586B004460D461A
:106620000021049102F5C062029208228DF80C202C
:10663000684601F078FB6378A27803EB02235942A5
:10664000DAB2C9B258BF4A428DF801201A46002B6F
:1066500014DB12128DF80220E3788DF80330BF4B63
:1066600093F87830012B07D0A26802F07F02BB4973
:1066700091F879108A4204D006B070BD03F1FF0290
:10668000E7E7802D33D0042B39D0052B3ED0082BE3
:106690005BD0082B00F09A80062B00F0F380062BCD
:1066A000EAD1002DE8D12678C6F30012AB4B93F85F
:1066B0008C309A4200F01F816FEA660606F00706EA
:1066C0000023B34280F02581A449B1F88820B1F8B5
:1066D0008A108A4280F02C81A049D1F88000551C94
:1066E000A1F888500133E15C8154DBB2E9E79B4BB0
:1066F000022283F878200A22C3F88420BCE7602DA8
:10670000C3D10122954B83F87820B5E7402DBED147
:10671000924BD3F8800060B12278C2F38102C2F1BB
:106720000402211D01F0FDFA01228C4B83F8782030
:10673000A2E78A494FF0006391F87A20B1F87C1003
:106740004FF4B060FFF706FAEEE7602DA1D1834A5F
:10675000B2F88830B2F88A001B1A9BB207331BB21A
:10676000DA43D20F002B1FDB7C4991F88C105B00C1
:1067700043EA01135BB213438DF800300023774ADC
:10678000B2F88820904211D9062B0FD801337349F3
:10679000D1F88040551CA1F88850A15C06AA1A4483
:1067A00002F8181CDBB2EAE70023DDE769460020A7
:1067B00000F0F4FD694A92F88C30B3FA83F35B0978
:1067C00082F88C300A23C2F8843055E7202D7FF4FC
:1067D00063AF2378C3F30013604A92F88C108B42A6
:1067E0002BD05E4AB2F88830B2F88A00834232D2A7
:1067F0001B1A9BB207331BB2DA43D20F002B2FDBDD
:106800005B0043EA01135BB213438DF800300023B1
:10681000524AB2F88820904224D9062B22D801335C
:106820004E49D1F88040551CA1F88850A15C06AAB9
:106830001A4402F8181CDBB2EAE71446484B92F8F7
:106840007A20B4F87C104FF4B060FFF783F902238C
:1068500084F8783010E70122404B83F878200BE76A
:106860000023CDE76946002000F098FD3B4A92F8EE
:106870008C30B3FA83F35B0982F88C300A23C2F8B8
:106880008430F9E6402D7FF40AAF237813F0020F2D
:1068900023D113F0010F08D06368304AB2F88A2080
:1068A000934202D22D4AA2F88A302C4C94F88C30B4
:1068B0001B0143F0600306A901F8183D002000F019
:1068C0006DFD94F88C30B3FA83F35B0984F88C3057
:1068D0000A22224BC3F88420CEE6C3F381031F4D66
:1068E000C3F10402211DD5F8800001F01AFA01233A
:1068F00085F87830ECE7194C194B94F87A20B4F805
:106900007C104FF4B060FFF725F9022384F878304B
:1069100009E00022237813F0010F00D152B10122C7
:106920000E4B83F878200A220C4BC3F88420A3E690
:106930000122EFE7094C94F88C301B0143F060030F
:1069400006A901F8183D002000F028FD94F88C30CD
:10695000B3FA83F35B0984F88C30E4E79C3C0002D3
:10696000000003054FF0A00383F31188BFF36F8F7E
:10697000BFF34F8FFEE7FFFF06480068006880F313
:10698000088862B661B6BFF34F8FBFF36F8F00DF29
:1069900000BF000008ED00E04FF0807340F8043CB9
:1069A00021F0010140F8081C034B40F80C3C40F872
:1069B000202C4038704700BF65690000FFFFFFFFD3
:1069C000074B19680868B0E8F00F80F30988BFF337
:1069D0006F8F4FF0000080F311884EF00D0E70475E
:1069E000DC3200024FF0A00383F31188BFF36F8FF6
:1069F000BFF34F8F024A136801331360704700BF23
:106A000054010002034A1368013B13600BB983F37E
:106A10001188704754010002FFFFFFFFFFFFFFFFD7
:106A2000EFF30980BFF36F8F0D4B1A6820E9F00F69
:106A300010602DE908404FF0A00080F31188FDF7A9
:106A400049FF4FF0000080F31188BDE80840196845
:106A50000868B0E8F00F80F30988BFF36F8F7047C4
:106A6000DC32000208B54FF0A00383F31188BFF3B6
:106A70006F8FBFF34F8FFDF7BBFD18B14FF0805202
:106A8000024B1A60002383F3118808BD04ED00E077
:106A9000064B1B68064AA2FB03239B09013B054AE0
:106AA00013600722044B1A60704700BF903E00023B
:106AB000D34D621014E000E010E000E008B5094B8F
:106AC0001A6842F078721A601A6842F060421A60DE
:106AD000FFF7DEFF0022044B1A60FFF74DFFFFF7C0
