:10100000E03F00027B1100006D2B00007D2B0000F3
:101010008D2B00009D2B0000AD2B0000E4D4FEFDC5
:1010200000000000000000000000000091630000CC
:101030004511000000000000F1630000356400006D
:101040004B1100004B1100004B1100004B11000030
:101050004B1100004B1100004B110000A16E00006D
:10106000C56E0000E96E00000D6F0000316F0000DA
:10107000556F0000796F00009D6F00004B1100005C
:101080004B1100004B1100004B1100004B110000F0
:101090004B1100004B1100004B1100004B110000E0
:1010A0004B1100004B1100004B110000356B00008C
:1010B0004B1100004B1100004B1100004B110000C0
:1010C0004B1100004B1100004B1100004B110000B0
:1010D0004B1100004B1100004B1100004B110000A0
:1010E0004B1100004B1100004B1100004B11000090
:1010F0004B1100004B1100004B1100002088000034
:10110000000000029401000020880000004000025E
:1011100000000000208800000080000200000000A5
:1011200098010002DC3400000040000200000000D2
:101130000080000200000000FEE7FEE7FEE7FEE799
:10114000FEE7FEE7FEE7FEE7FEE7FEE70023934249
:1011500009D210B404680C600433043004319342A3
:10116000F8D310BC70477047002303E000220260F0
:10117000043304308B42F9D3704710B50E4B07E0AF
:1011800003F10C049A6859681868FFF7DFFF2346DB
:101190000A4A9342F4D306E01C46596854F8080BF7
:1011A000FFF7E2FF2346064A9342F5D30122054B9F
:1011B0001A6000F0E7FCFEE7FC10000020110000C0
:1011C00038110000D8400740FFFFFFFFFFFFFFFF7F
:1011D000FFFFFFFFFFFFFFFFFFFFFFFFFFFFFFFF1F
:1011E000FFFFFFFFFFFFFFFFFFFFFFFFFFFFFFFF0F
:1011F000FFFFFFFFFFFFFFFFFFFFFFFFFFFFFFFFFF
:10120000FFFFFFFFFFFFFFFFFFFFFFFFFFFFFFFFEE
:10121000FFFFFFFFFFFFFFFFFFFFFFFFFFFFFFFFDE
:10122000FFFFFFFFFFFFFFFFFFFFFFFFFFFFFFFFCE
:10123000FFFFFFFFFFFFFFFFFFFFFFFFFFFFFFFFBE
:10124000FFFFFFFFFFFFFFFFFFFFFFFFFFFFFFFFAE
:10125000FFFFFFFFFFFFFFFFFFFFFFFFFFFFFFFF9E
:10126000FFFFFFFFFFFFFFFFFFFFFFFFFFFFFFFF8E
:10127000FFFFFFFFFFFFFFFFFFFFFFFFFFFFFFFF7E
:10128000FFFFFFFFFFFFFFFFFFFFFFFFFFFFFFFF6E
:10129000FFFFFFFFFFFFFFFFFFFFFFFFFFFFFFFF5E
:1012A000FFFFFFFFFFFFFFFFFFFFFFFFFFFFFFFF4E
:1012B000FFFFFFFFFFFFFFFFFFFFFFFFFFFFFFFF3E
:1012C000FFFFFFFFFFFFFFFFFFFFFFFFFFFFFFFF2E
:1012D000FFFFFFFFFFFFFFFFFFFFFFFFFFFFFFFF1E
:1012E000FFFFFFFFFFFFFFFFFFFFFFFFFFFFFFFF0E
:1012F000FFFFFFFFFFFFFFFFFFFFFFFFFFFFFFFFFE
:1013000000B583B0827F90F88A30B0F91001009068
:10131000024801F095FD03B05DF804FB147D000068
:1013200070B582B0384801F08BFD384C21883848C0
:1013300001F086FD94F8E8140131364801F080FD93
:10134000354904F12C00FFF7DBFF344904F5A870A0
:10135000FFF7D6FF324904F51970FFF7D1FF314985
:1013600004F55E70FFF7CCFFB4F8AC2494F8AE142B
:101370002D4801F065FDB4F8D82494F8DA142B4810
:1013800001F05EFD2A4904F20C50FFF7B9FF94F812
:101390005036002B35D02749274801F051FD1B4C12
:1013A000B4F83C2694F83E16244801F049FD24493F
:1013B00004F5CC60FFF7A4FF94F8B31794F9B027B5
:1013C00094F9B13794F9B20700901E4801F038FD46
:1013D000B4F8942794F896171B4801F031FD94F85F
:1013E000A55794F8A66794F8A447052003F0B6FF24
:1013F0000090234632462946144801F021FD02B0F0
:1014000070BD1349C8E700BF747B0000980100025B
:10141000847B00009C7B0000A87B0000B07B000068
:10142000B87B0000C07B0000C87B0000EC7B0000A4
:10143000107C0000687B0000207C0000387C0000ED
:10144000607C0000787C0000AC7C0000D07C000058
:10145000607B00002DE9F04186B022B11C461646A3
:101460001B79022B05D0524801F0EAFC06B0BDE81A
:10147000F08127684F49384606F018FAF8B94E4D02
:10148000002DF3D0022E05D9237B022B40D04B48F0
:1014900001F0D6FC6A882B88E988A8882C896E8997
:1014A000B5F80CE0ED890595CDF810E003960294AF
:1014B000019000913946424801F0C2FCD6E741490B
:1014C000384606F0F3F908B93F4DD9E73F493846A9
:1014D00006F0ECF908B93E4DD2E73E49384606F031
:1014E000E5F908B93C4DCBE73C49384606F0DEF952
:1014F00008B93B4DC4E73B49384606F0D7F908B96F
:10150000394DBDE73946394801F09AFC0025B7E767
:10151000237D012BBBD1A66824690FFA84F83449D6
:10152000304606F0C3F908B96C80B3E7314930465C
:1015300006F0BCF908B92C80ACE72F49304606F01C
:10154000B5F908B9EC80A5E72C49304606F0AEF9AC
:1015500008B9AC809EE72A49304606F0A7F908B9D9
:101560002C8197E72749304606F0A0F908B96C812D
:1015700090E72549304606F099F938B918F1000886
:1015800018BF4FF00108A5F80C8083E71F493046CB
:1015900006F08CF938B918F1000818BF4FF00108AF
:1015A000A5F80E8076E73146194801F049FC71E74D
:1015B000B4790000D87900006C0B0002647A000056
:1015C000B47A0000DC7900007C0B0002E0790000B6
:1015D0008C0B0002E47900009C0B0002E87900000B
:1015E000AC0B0002F0790000BC0B0002FC7900009B
:1015F000147A00001C7A0000247A00002C7A000083
:10160000347A0000387A00003C7A0000447A000006
:101610004C7A000012B11A79022A00D0704710B536
:1016200082B01C681C49204606F040F970B11B4985
:10163000204606F03BF9B8B11949204606F036F9C4
:1016400010B32146174801F0FBFB0BE005F054F8FE
:101650000090132301221449144801F06FFF14482D
:1016600001F0EEFB02B010BD124801F0E9FB124C94
:101670000021204602F01EFA1421204602F046FA0C
:10168000642005F0E1FCEDE7084802F086F8014629
:101690000A4801F0D5FBE5E76879000064790000AD
:1016A0007C790000A0790000008004409C010002C9
:1016B0005879000070790000100900028479000058
:1016C000202070470320704708B5024802F060F8F8
:1016D00008BD00BF9C01000230B587B00C46002257
:1016E000084805F06DFC08B907B030BD054D002273
:1016F0006946284605F06EFC00222146284605F082
:101700005FFCF1E7B001000210B502E0012005F036
:101710009BFC1B4B1B78002BF8D01A4C022104F1C8
:101720002C0002F0D5FA022104F5A87002F0D0FADC
:10173000022104F5197002F0CBFA022104F55E7063
:1017400002F0C6FA022104F5926002F0DFF90221EC
:1017500004F2BC4002F0DAF9022104F20C5002F06B
:10176000B7FA022104F5C46002F0D0F9022104F5B1
:10177000CC6002F0ADFA022005F066FCCDE700BFB8
:10178000D00B00029801000200B587B00A4B1B780D
:101790003BB9012005F058FCF8E76946002005F048
:1017A000D9FA00226946054805F014FC0028F4D057
:1017B000022005F049FCF4E7D00B0002B40100025E
:1017C00070B586B004F068FF002840F097805A4C4E
:1017D0000025258084F8A75784F8A85784F8A657D1
:1017E00084F8A55784F8A45784F8AA5784F8AB570F
:1017F00084F8A95704F6D41104F1200000F066FD26
:1018000004F6E41104F5A27000F0B0FB04F6142114
:1018100004F5A06000F0BAFD04F6242104F254603F
:1018200000F046FB04F2AC7000F0E8F9FFF74AFF65
:101830000146424801F024FC222005F0C7FA064682
:10184000222005F0C7FA00EB46103D4B43F820502C
:10185000222005F0BBFA0546222005F0BBFA4FF026
:10186000E05105F5006351F82320012606FA00F047
:10187000024341F82320222005F0A8FA0546222041
:1018800005F0A8FA6D0105F1E0552E542D4805F03C
:101890008DFA04F031FF0090132332462A49201DAF
:1018A00001F04CFE002843D1284C294B0493013B06
:1018B00003930A23029346F2A813019343F6982355
:1018C00000934FF4AF5326224FF48001204602F0DC
:1018D00093F80121204602F0EDF800231A4619463C
:1018E000184605F04DF81B4801F04CFB052001F0AF
:1018F00045FB0122184B1A7006B070BD0E4C002338
:10190000A4F8D2393223A4F8D03904F6D41000F068
:10191000CFFC04F6E41000F007FB04F6142000F0FE
:1019200025FD04F6242000F0B3FA04F06FFE4EE724
:101930000A4801F085FAB7E798010002807E0000AE
:1019400000800F40C916000000800440100900020A
:101950001F000900D9160000D00B0002B07E000065
:1019600038B58648FFF72CFF37E0844B93F8B33740
:10197000012B00F0A080052003F0F0FC002800F00F
:101980009F807E4B042283F84A2083F8B62083F898
:101990006E2183F8DA2183F8822283F8EE2283F81D
:1019A000962383F8022483F8AE2483F8DA2483F89C
:1019B0002A2583F8962583F83E2683F87E2683F829
:1019C000EA26B3F8A437012B00F0D48004226B4B35
:1019D00083F89627142005F037FB01F095FB674D3F
:1019E000B5F93C0105F05EFF0446B5F9600205F06B
:1019F00059FF0444A4B2B5F9740305F053FF04443D
:101A0000A4B2B5F9880405F04DFF0444A4B2B5F9B9
:101A1000AC0405F047FF0444A4B2B5F9D80405F0BE
:101A200041FF0444A4B2B5F91C0605F03BFF044491
:101A3000A4B2B5F9700705F035FF2044288005F2FF
:101A4000AC7000F013F995F9B23785F844311421E0
:101A500005F1200000F06AFC142105F5A27000F0E9
:101A600035FB142105F5A06000F0DAFC142105F225
:101A7000546000F04DFA95F8A91705F5EF65B1FA35
:101A800081F14909284602F015F81421284602F090
:101A90003DF8032003F062FC042003F05FFC1E20ED
:101AA00003F05CFC00283FF460AF0122A5F5EF6372
:101AB00083F8B3275FE70022304B83F8B3275AE758
:101AC000032003F04BFC00287FF45BAF042003F0FD
:101AD00045FC00287FF455AF284BB3F8A437012B01
:101AE0007FF44FAF254B93F8A637002B3FF449AF57
:101AF000224C04F12C0002F002F804F1980001F0ED
:101B0000FEFF04F5A87001F0FAFF04F5DE7001F0A5
:101B1000F6FF04F5197001F0F2FF04F5347001F0DE
:101B2000EEFF04F55E7001F0EAFF04F5797001F054
:101B3000E6FF04F5926001F0E2FF04F2BC4001F020
:101B4000DEFF04F20C5001F0DAFF04F5AF6001F0A3
:101B5000D6FF04F5C46001F0D2FF04F5CC6001F0BB
:101B6000CEFF04F2CC6001F0CAFF04F5EF6001F093
:101B7000C6FF2FE7024801F0C2FF2BE798010002E1
:101B80001009000200B583B0144C204605F09CFA01
:101B9000002501950223009323464FF4C07210499B
:101BA000104805F037FA01950323009323464FF4BC
:101BB00080720D490D4805F02DFA0195042300931C
:101BC00023464FF4C0720A490A4805F023FA02F08E
:101BD00041FC094801F034F9FBE700BF980100021D
:101BE000C87E000061190000D07E00008917000047
:101BF000D87E000009170000E47E000038B50446D6
:101C00004FF400430380438000258571C571642132
:101C1000083000F025FC01234FF480524FF40051AE
:101C200004F1280000F043FC2B464FF480524FF49F
:101C3000704104F1400000F03AFC642104F1180006
:101C400000F00EFC01234FF480524FF4005104F1D8
:101C5000340000F02CFC2B464FF480524FF47041BE
:101C600004F14C0000F023FC38BDFFFFF8B5054639
:101C7000C379012B01D000261AE0FFF7BFFFF8BDA2
:101C8000FF3125E067003B199800403009122844D5
:101C900000F012FC2744BB001F462B4493F8483049
:101CA00033BB3B462B4493F830300BBB0136F6B2C6
:101CB000012E28D834463001083035F81610284453
:101CC00000F0D9FB731C05EB031359680029D7DB1F
:101CD00004EB4403980028300912284400F0ECFB80
:101CE000631C05EB031359680029CBDAFF31C9E700
:101CF000EB79022B05D0304A4FF47F40002103F0EE
:101D00005DFA0223EB71EB79002B51D168882B88A7
:101D1000C01AB0F5805F0BDC10F5805F23DB4FF459
:101D2000FA70B0F57A7F3ADC00283ADA002038E021
:101D30004FF44D424FF4805100F0E6FE00280DDBD9
:101D4000B0F57A7F0CDC00FB00F01C4B83FB00231A
:101D5000C017C0EBE31000F5FA70E2E70020F2E7ED
:101D60004FF47A70EFE7164A164900F0CDFE0028CE
:101D700010DBB0F57A7F0FDC00FB00F00F4B83FB2C
:101D80000023C017A0EBA31000F57A7000EBD07011
:101D90004010C6E70020EFE74FF47A70ECE74FF40D
:101DA0007A707F226FF07F0100F09EFEA871F8BD6F
:101DB0000023AB71F8BD00BF20000900D34D6210B5
:101DC0000033FFFF00F0FFFF00238370C370037137
:101DD000037043704371704770B504460E4690F926
:101DE0000050002303718370C37065B190F9013016
:101DF0004BB9002D04DD0123A3703C23A36011E047
:101E00004FF0FF33F8E765B994F901304BB1002B7F
:101E100004DD0123E3700023637103E04FF0FF331F
:101E2000F8E70DB9657070BD284605F03BFD6428E4
:101E300001DD01236371A368002BF3DD9E1BA66007
:101E4000F0E7FFFF90F9000008B90020704710B5D7
:101E50000C467F226FF07F0100F056FE4FF47A723D
:101E60000A4900F041FEB0F57A7F04DC10F57A7F74
:101E700003DA064801E04FF47A70A38923B14FF0EA
:101E8000FF3303FB00F010BD0123FAE718FCFFFF4E
:101E90001423038132234381012383810023C381DF
:101EA0004FF4FA72428050230380C28083807047CF
:101EB00030B58BB004460D46FFF786FFC4F82051BD
:101EC000114B0993023B089301330793023B06939E
:101ED00041F2883305934FF47A63049340F25363DD
:101EE00003930A4BB3F9D2290292B3F8D039019384
:101EF0004FF40033009314230922294604F10C0007
:101F000001F092FE0BB030BD1700090098010002ED
:101F100010B50446FFF760FFD4F820112046FFF704
:101F200091FFA4F8E80010BD30B46423038143811D
:101F300000228281C2814FF47A7141800380C18086
:101F400083801E240483192545838283C2834182B2
:101F50000382C1828382048542858285C285418451
:101F60000384C184838430BC7047FFFF2DE9F043B4
:101F70008BB004468946FFF727FF04F56A70FFF728
:101F800023FFC4F8B893012384F8A433002284F813
:101F9000B42384F8B5234FF47A72C4F84823454A31
:101FA0000992023A089201320792023A069241F2ED
:101FB0008838CDF814804FF47A66049640F253675F
:101FC00003973D4DB5F9D2290292B5F8D029019277
:101FD000082200920C2209F11001A01801F024FE41
:101FE000D4F8B81394F8A403344B09934FF00913B1
:101FF000089301330793023B0693CDF814800496AF
:102000000397B5F9D2390293B5F8D03901934FF45B
:10201000807300930B23042201EB001104F59070F0
:1020200001F002FED4F8B81394F8A403244B0993EA
:10203000023B089301330793023B0693CDF81480CB
:1020400004960397B5F9D2390293B5F8D0390193C4
:102050004FF4006300930223032201EB001104F507
:102060000D7001F0E1FD174B0493013B0393322502
:102070000295CDF8048000963B461B224FF4801158
:1020800004F5537001F0B8FC0F4B0493013B03932C
:1020900002954FF4FA53019300964FF4AF5319226F
:1020A0004FF4001104F55E7001F0A6FC0BB0BDE822
:1020B000F08300BF07000900980100020B0009002F
:1020C0000F0009001B0009001D00090038B5044677
:1020D0000D46FFF781FE294604F56A70FFF77CFE86
:1020E000D4F8B83394F8A41303EB011104F10C00F5
:1020F00001F0D6FED4F8B83394F8A41303EB011121
:1021000004F5907001F0CCFED4F8B83394F8A41321
:1021100003EB011104F50D7001F0C2FE294604F530
:10212000527000F05DFC94F9AA33002B32DD94F874
:10213000A433012B2AD9002384F8A433594B93F8F4
:10214000AA3723B1574B93F8AB37002B40D1D4F8C3
:10215000B83394F8A41303EB01112046FFF772FE85
:1021600018B1D4F84833002B21DD0023A4F8E8305F
:10217000A4F8FC31A4F81033B4F91C31002B5BD067
:1021800094F8A433002B58D0012356E0013384F88F
:10219000A433D3E7002BD1DA94F8A4331BB1013B6D
:1021A00084F8A433CAE7022384F8A433C6E73D4B7E
:1021B00093F8AA3753B93C4A4FF47F40002102F00C
:1021C000FDFF4FF47A73C4F84833CEE7374AF3E79C
:1021D000D4F8B83394F8A41303EB01112046FFF7A9
:1021E00031FE03B2A3B92F4A92F8502684F8B523E2
:1021F000A4F8E83094F8A423B2B11946A4F8FC116D
:10220000A2B9284AB2F97027A2B95B421BB20EE00C
:1022100094F8B533012B04D0012300FB03F003B283
:10222000E6E74FF6FF73F8E70021E7E70023A4F89D
:102230001033A1E70023FAE7002384F8B433194BE5
:10224000B3F9703713B1012384F8B43394F9023031
:102250004BB904F55370B4F91C3153B9B4F93032A9
:10226000D3B9002106E0002142F2161003F032FC3F
:10227000EFE7012101F01EFC04F55E70B4F91C319A
:1022800013B9B4F930325BB194F8A433022B05D002
:10229000002101F00FFC38BD0121EBE70121F8E737
:1022A0000021F6E798010002180009001900090052
:1022B00064230381438100238381C3814FF47A72B5
:1022C000428050230380C2808380704730B58BB03A
:1022D00004460D46FFF778FDC4F82051114B0993D1
:1022E000023B0893013307934FF41023069341F206
:1022F000883305934FF47A63049340F25363039356
:10230000094BB3F9D2290292B3F8D03901930123D2
:10231000009300231322294604F10C0001F084FCF1
:102320000BB030BD030009009801000238B5044627
:10233000FFF752FDD4F820112046FFF783FD05B2C8
:10234000084B93F85036012B09D0D4F820110648D9
:10235000FFF778FD00B90025A4F8E85038BD4042E9
:1023600005B2F2E798010002DC02000214230381A7
:102370000A234381002383810123C3814FF4FA722E
:10238000428050230380C280838070472DE9F04152
:102390008AB004468846FFF717FDC4F84C81002533
:1023A00084F850511C4B0993023B08930133079367
:1023B000023B069341F2883305934FF47A67049702
:1023C00040F253660396154BB3F9D2290292B3F843
:1023D000D03901934FF48033009308230D224146F6
:1023E00004F10C0001F020FC04F5907404950395B1
:1023F0001423029341F270730193009733461C2219
:102400004FF48011204601F0F7FA2946204601F0EA
:1024100051FB0AB0BDE8F0811300090098010002E9
:1024200010B50446FFF7D8FCD4F84C112046FFF74E
:1024300009FDA4F8E800B4F91C1100290ADD002305
:1024400084F85031003118BF012104F5907001F07B
:1024500031FB10BD0029F5DA012384F85031F1E792
:102460000023036041608360C36070470023036002
:102470008360C3607047036803EB012101608368D8
:102480000133836091FBF3F1C16004E00268521AEA
:102490000260013B8360836842689342F6DC084631
:1024A000002901DB0012704701F1FF00FAE701602B
:1024B000437242600372704730B4027A437A9A42A0
:1024C0000DD09A4205D002684468121B914200DA8E
:1024D0000372007A003018BF012030BC70470468D6
:1024E00045682C448C42ECDA83F001030372F0E778
:1024F00030B587B0002400940194029403940494AE
:10250000059404F057F800F5B0600290144BDD8894
:102510002B1D8DF80C3042238DF80030FF238DF8F1
:1025200001305F238DF802308DF8034023460CE024
:102530001A1D0B490868098901FB03F1415C06A8D3
:10254000024402F8181C0133DBB29AB2AA42EFD35C
:102550000020034BD880694604F092FB07B030BDE1
:1025600080010002094B1B780BB90120704700B5B0
:1025700083B002A901F8010D054800F09DFAFFF7AC
:10258000B7FF012003B05DF804FB00BFC0340002B8
:102590008001000270B506460D46002403E0305D60
:1025A000FFF7E0FF0134AC42F9D370BD704708B5C6
:1025B000402004F0D5FF092004F064FE092004F057
:1025C000A1FF092004F0B4FF002008BD01604260B3
:1025D0008360002383610362C36047F6FF72026178
:1025E000034A4261C361012380F82430704700BF71
:1025F0000080FFFF70B590F8243063B1022B01D04A
:10260000012309E0036A0433082B32D8002280F842
:102610002420134600E00023002B34D08569AB1A38
:10262000866806EB8606B400B4FBF1F505FB03F5FE
:102630002D0A8261C469A21AC36813440469A342C3
:102640001ADDC460046804EB8404A300B3FBF1F357
:1026500002FB03F2C668446804EB8404A300B3FBE6
:10266000F1F303FB06F31B0C03EB12432B44036251
:1026700070BD01230022CFE74469A34201DAC460A0
:10268000E0E7C360DEE7836842680168FFF79EFF0A
:1026900070BDFFFFF0B585B0234C204604F08EFEE0
:1026A000224D8027AF620A21312004F06BFFEF62D8
:1026B0000B21322004F066FF2F630C21332004F03D
:1026C00061FF08232B631A49204604F050FEADF841
:1026D0000C0004238DF8043000268DF805608DF879
:1026E000066002966F620921402004F04BFF01A9A9
:1026F000204604F044FE01238DF800308DF80130AF
:102700008DF802608DF803306946204604F070FEB3
:10271000236823F0C2031B051B0D2360236843F0CD
:102720000103236005B0F0BD0080044000800F402D
:102730008096980000B589B0019203939DF82830E7
:10274000ADF81C30BDF82C3005936FEA014101F45F
:102750007021069100230293049301A904F062FE04
:1027600018B9002009B05DF804FB0120FAE700B5B4
:1027700089B0019200220392ADF81C30BDF82830D8
:1027800005936FEA014101F47021069102920492CF
:1027900001A904F084FE18B9002009B05DF804FB1B
:1027A0000120FAE72DE9F0415E4B5F4D1D605F4C63
:1027B0005C605F4F9F60DFF87C81C3F80C80284627
:1027C00004F006FF4FF49661284604F034FF072119
:1027D000712004F0D7FE00220121284604F009FFF1
:1027E0000026C5F804620421722004F0CBFE012209
:1027F0000221284604F0FDFEC5F808621F2173205F
:1028000004F0C0FE02220321284604F0F2FEC5F8BF
:102810000C62852004F0CAFE03220421284604F03D
:10282000E8FEC5F81062862004F0C0FE04220521EF
:10283000284604F0DEFEC5F814626B6823F004132A
:102840006B60204604F0C4FE4FF49661204604F00D
:10285000F2FE0D21802004F095FE32460121204633
:1028600004F0C7FEC4F804621C21812004F08AFE33
:1028700001220221204604F0BCFEC4F808628A202E
:1028800004F094FE03220421204604F0B2FEC4F8B2
:1028900010628B2004F08AFE04220521204604F0F9
:1028A000A8FEC4F814628C2004F080FE05220621E4
:1028B000204604F09EFEC4F81862636823F00413F7
:1028C0006360384604F084FE4FF49661384604F0A5
:1028D000B2FE8F2004F06AFE03220421384604F081
:1028E00088FEC7F81062902004F060FE04220521E3
:1028F000384604F07EFEC7F814627B6823F00413A8
:102900007B60404604F064FE4FF49661404604F05C
:1029100092FED8F8043023F00413C8F8043030468F
:10292000BDE8F081D80B00020080011C00C0011C32
:102930000000021C0040021C10B483B08DF8070098
:10294000B1F57A7F01D94FF47A719DF80730DB0831
:102950000D4850F823409DF8073003F007029DF81A
:102960000730DB0850F82330D3F8003203FB01F1C5
:10297000064BA3FB0131890902F1810344F82310BE
:10298000002003B010BC7047D80B0002D34D62107A
:1029900082B08DF807009DF80730DB080C4A52F82A
:1029A00023109DF8073003F00703813351F82330DB
:1029B0004FF47A7000FB03F09DF80730DB0852F803
:1029C0002330D3F80032B0FBF3F080B202B070478E
:1029D000D80B0002014B1860704700BFE80B0002E3
:1029E00070B103688B4207DAB3F1FF3F0AD04FF0B2
:1029F000FF330360012070475B1A036000207047BB
:102A00000120704700207047016082800022C28050
:102A100003720161C1601046704718B30246C08856
:102A20009388984201D31220704710B4002307E026
:102A3000D068CC5C0470D0680130D0600133DBB268
:102A4000107A8342F4D3D4681168938800FB031092
:102A5000844205D0D3880133D380002010BC704756
:102A6000D160F7E72D20704720B30246C3880BB929
:102A70001720704710B4002304E010690130106182
:102A80000133DBB2107A834205D20029F5D01069F8
:102A90000078C854F1E714691168938800FB0310AB
:102AA000844205D0D388013BD380002010BC7047FE
:102AB0001161F7E72D207047A0B138B50446C588ED
:102AC0008288954201D3122038BD31B10068238934
:102AD0001A4603FB050004F02CFEE3880133E38073
:102AE000002038BD2D207047C0F57A7302FB00F03E
:102AF00001FB0301034880FB0130C917C1EBA010A3
:102B0000704700BFD34D6210914208D0431A4FF472
:102B10007A7000FB03F0521A90FBF2F0704700202D
:102B200070478842A8BF084670474342034014D10B
:102B300020209AB202B1103813F0FF1F00D00838DD
:102B400013F00F3F00D0043813F0333F00D00238A9
:102B500013F0553F00D0013870471F20E9E7FFFF11
:102B6000014B1868704700BFE80B000208B5024827
:102B700000F066F908BD00BF1C7F000008B50248E0
:102B800000F05EF908BD00BF047F000008B50248F0
:102B900000F056F908BD00BF107F000008B50248DC
:102BA00000F04EF908BD00BFF87E000008B50248ED
:102BB00000F046F908BD00BF247F000008B528B129
:102BC0000268117002680132026008BD0846FFF712
:102BD000C9FC08BD2DE9F04107460E46151E02DD71
:102BE0000A46002104E04FF020080EE001310132D6
:102BF00010780028FAD1A94201DA6D1A00E0002508
:102C000013F0020F06D14FF0200813F001040AD090
:102C1000002410E04FF03008F7E741463846FFF750
:102C2000CDFF0134013D002DF7DC04E03846FFF70D
:102C3000C5FF0134013631780029F7D105E041465E
:102C40003846FFF7BBFF0134013D002DF7DC20467D
:102C5000BDE8F081F0B585B007460C9851B11E462D
:102C60000C4613B10A2A12D0002604AD002305F841
:102C7000013D18E030238DF8043000238DF8053035
:102C80000B9B0A9A01A93846FFF7A4FF29E0002907
:102C900001DB0026E9E74C420126E6E7303305F880
:102CA000013DB4FBF2F44CB1B4FBF2F302FB13436D
:102CB000092BF3DDA0F13A010B44EFE756B10A9B73
:102CC0001BB10B9B13F0020F0DD12D2305F8013C16
:102CD000013D00260B9B0A9A29463846FFF77AFFEA
:102CE000304405B0F0BD2D213846FFF767FF0A9B41
:102CF000013B0A93EEE7FFFF70B588B006460C462D
:102D00000593002583E0A21C01238DE0013443F0EC
:102D100002032278302AF9D0002206E002EB820278
:102D20005000A1F13002024401342178A1F13000B9
:102D3000C0B20928F2D973291AD0642924D069298C
:102D400022D078292FD058293CD0752949D0632921
:102D50005CD10599081D059009788DF81C1000219B
:102D60008DF81D1007A93046FFF734FF05444DE0EC
:102D70000599081D0590096821B13046FFF72AFF23
:102D8000054443E02D49F8E70599081D05900968B9
:102D9000612002900193009201230A223046FFF73E
:102DA00059FF054432E00599081D05900968612026
:102DB000029001930092002310223046FFF74AFF51
:102DC000054423E00599081D0590096841200290FB
:102DD00001930092002310223046FFF73BFF054489
:102DE00014E00599081D059009686120029001937F
:102DF000009200230A223046FFF72CFF054405E02D
:102E0000144621783046FFF7D9FE01350134237886
:102E100063B1252BF5D1621C63783BB1252BEFD034
:102E20002D2B3FF470AF0023144672E716B13368C0
:102E300000221A70284608B070BD00BF307F000025
:102E40000FB400B583B004AB53F8041B01934FF0EB
:102E5000FF320020FFF750FF03B05DF804EB04B031
:102E60007047FFFF38B5154B93F80C38144A82F8B9
:102E7000303013F0800F1CD1114C0025C4F8AC5039
:102E8000552363600F4B23616561A56110222946BC
:102E900004F11C0004F04FFCE560A56002F0ACF802
:102EA00002F0A8F902F0B4FA02F08CFB02F05CF92F
:102EB00038BD7F22024B83F83020DDE79801000205
:102EC000CC3400025645535508B502F0B5F802F06F
:102ED000B1F903F057F802F041FE02F0A7FB08BD7C
:102EE00010B586B084B2204602F0C2F9204602F046
:102EF000E9FB204602F0A8F8204603F045F82046FA
:102F000002F030FE6946002003F02EFFC0B968468B
:102F100002F09CF8684602F0EFF9684602F0D4FC33
:102F2000684602F089FA684602F02AF9104BD3F895
:102F3000AC40002CE6D0FFF713FE6946A047E1E75E
:102F40000B4BDA680B4B9A4206D0094B9A680A4B36
:102F50009A4207D006B010BD0022054BDA6003F09C
:102F60009BFBF2E70022024B9A6003F04FFBF1E774
:102F7000CC3400026C6F61647361766508B502F051
:102F800095F808BD014BC3F8AC007047CC34000283
:102F900008B5034B002203490348FFF751FF08BD62
:102FA00044860000708600008082000070B51E46D6
:102FB00000241A4B1B799C4213DA184B1B6825011D
:102FC0002B445968306804F071FC08B10134F0E713
:102FD000124B1B681D44AA6869681148FFF730FF4F
:102FE00070BD002400E00134052C12D80D4B03EB1A
:102FF00004135D682946306804F058FC0028F2D1BB
:10300000084B03EB0414A26829460548FFF718FF94
:1030100070BD0548FFF714FF70BD00BF7C3500028E
:10302000C0820000387F0000CC82000010B51C4632
:103030002AB123683BB9002000F0CEFC10BD00206F
:1030400000F0CAFCF5E7012000F0C6FC10BDFFFF50
:1030500008B503F0DBFA00B108BD0248FFF7F0FE47
:10306000FAE700BF0483000008B503F08DFA00B151
:1030700008BD0248FFF7E4FEFAE700BFF88200004F
:1030800008B5064B1860197100225A719A71044AEA
:1030900004490548FFF7D4FE08BD00BF7C35000297
:1030A0004486000070860000AC820000014B187955
:1030B000704700BF7C35000210B50F48FFF7C0FE17
:1030C000002407E00D4B03EB041359680C48FFF78D
:1030D000B7FE0134052CF5D9002408E0094B1B6824
:1030E00003EB041359680648FFF7AAFE0134FFF703
:1030F000DDFF8442F2DB10BDC8820000387F000093
:10310000A48200007C3500022DE9F04383B0704BAF
:103110001B68002B00F0D680002502A8002300F8D1
:10312000013D03F00FFE002840F0CD80684B5B7935
:10313000C72B04D90022664B5A711225EDE70121F5
:103140000DF10700FFF726FA9DF807301B2B0CD076
:10315000082B12D00D2B18D00A2B16D05C4A5179AF
:10316000481C50710A449371D7E706215948FFF76C
:1031700011FA0022564B5A71CFE7554B5B79002B61
:10318000CBD0013B524A5371C7E7514B5A7932B108
:103190004F4B134400249C712746264620E04E489E
:1031A000FFF74EFEB9E7AFB9621E494B13449B7956
:1031B00003BB474A13190021997106F1190102EB6B
:1031C000C10302201871631C1344063342F83130E6
:1031D00001270FE03E4B234400279F710AE0013492
:1031E0003B4B5B799C4225DA24B1394B23449B79D4
:1031F000222BD8D0002FF2D1354B23449B79202BA2
:10320000EDD1334B234400229A71032EE7DCDFF823
:10321000C08006F11A0908EBC90301221A71A0182F
:10322000404400221146063004F0FEFA48F8390006
:103230000136D4E70024264B5C71FFF737FF844248
:1032400019DA234850F8063B27013B44596804F03B
:103250002DFB08B10134F0E71D4B1B683B44DC68D3
:10326000C4B1FFF77DFC1A4B53F8D01B3246C95B43
:10327000A047012700E00027DFB90024052C17D85C
:10328000164B03EB04135968154804F00FFB18B1F3
:103290000134F3E70127EFE7104F24013B19D3F87E
:1032A0000C80FFF75DFC0F4B3246395BC0470127AE
:1032B0001FB10948FFF7C4FD2FE709490A48FFF786
:1032C000BFFDF6E71525284603B0BDE8F08300BF33
:1032D0007C3500020C83000014830000387F00005E
:1032E000823500024C3600021883000008B5172012
:1032F00003F0C8FF08BD70B596B004460023012254
:103300001946206901F080FD002309930A930B936D
:103310000C930D930E930F93109311931293139399
:1033200014931593BEE0BDF84030C3F340039B00F7
:1033300043F0900316AD25F8383D1A2200210DF117
:10334000220004F0F8F921790E2301930823009359
:103350000FAB2A462068FFF7EDF9BDF8403013F0B7
:10336000100F17D04FF000520692AAB9BDF83E20B8
:103370005B0903EBC2030493BDF8463003F00F036F
:103380008DF81430082200210DEB020004F0D3F96F
:10339000002320E00022E7E7BDF83E105A0992041E
:1033A00002EB41521B0403F440331344BDF84220A6
:1033B00003EB0223BDF8442013440493DCE79A1D79
:1033C00016A901EB420232F81C1C16AA1A4402F894
:1033D000501C0133DBB29DF814209342EFD3052239
:1033E00002A904F1180003F0EBFD71E00523ADF82C
:1033F00020302C23ADF822300423ADF824300022F5
:10340000ADF8262021790093082308AA2068FFF749
:10341000AEF962E0049AC2F34753ADF82230930C40
:103420005B0103F0E003C2F301410B4343F00803E7
:10343000ADF82430C2F30723ADF82630D2B2ADF890
:1034400028206CE09A1D16A9194411F8501C16AEDC
:1034500006EB420222F8381C0133DBB29842F1D865
:10346000217906350095082308AA2068FFF77FF91F
:103470008123ADF82030217901230093082308AA85
:103480002068FFF774F9A668304603F09FFC0546F4
:10349000304603F09FFC6D0105F1E0552B5C002BDD
:1034A0007FF42CAFA023ADF820300023ADF82230FC
:1034B000217902230193082300930FAB08AA206807
:1034C000FFF738F9BDF83E3013F0030F7FF42BAF50
:1034D000BDF83E3013F0080F88D1BDF83E3013F030
:1034E000040FD0D1002202A904F1140003F072FDF0
:1034F0000028C8D14023ADF82030069B002B89D18D
:10350000049BC3F3C702ADF822205B0103F0E00384
:10351000ADF824300023ADF82630ADF828309DF802
:103520001430082B02D908238DF814309DF81400AC
:1035300085B2ADF82A50002390E7FFFF2DE9F04156
:103540008CB00446016002718360129BC36000224C
:103550001821142001F07FFBA061002218211E20F9
:1035600001F079FB606103220021012001F073FB6F
:10357000206100231A46194601F088FB00234FF012
:10358000FF321946206901F03FFC00250795089598
:1035900009950A950B950295039504950595069551
:1035A000C023ADF81C30217901230093082307AA1A
:1035B0002068FFF7DCF8142003F046FD0326ADF881
:1035C0001C600F23ADF81E301422294602A804F017
:1035D000B2F821790196082300936B4407AA20686A
:1035E000FFF7A8F8BDF80C30872B03D001200CB0F2
:1035F000BDE8F081E3681A01614BB3FBF2F30226E8
:10360000ADF81C602A22ADF81E2003F03F03ADF890
:1036100020308923ADF82230ADF8246021790523CC
:103620000093082307AA2068FFF7A1F8ADF81C60F3
:103630000D23ADF81E30ADF82050217903270097F7
:10364000082307AA2068FFF792F8ADF81C606023F2
:10365000ADF81E30ADF8205021790097082307AA55
:103660002068FFF784F8ADF81C600C23ADF81E301D
:10367000ADF8205021790097082307AA2068FFF7AA
:1036800076F8ADF81C607023ADF81E30ADF8205010
:1036900021790097082307AA2068FFF768F8ADF89A
:1036A0001C602023ADF81E30082229460DEB0300D4
:1036B00004F041F821790A230093082307AA20681F
:1036C000FFF755F8ADF81C602C23ADF81E30ADF8AF
:1036D000205021790097082307AA2068FFF747F8B0
:1036E000ADF81C602B23ADF81E300723ADF8203059
:1036F00021790097082307AA2068FFF738F8ADF86A
:103700001C600F23ADF81E30ADF8225021790097D0
:10371000082307AA2068FFF72AF8A768384603F0AD
:1037200055FB8046384603F055FB4FF0E05E08F548
:1037300000635EF82320012101FA00F022EA000272
:103740004EF82320384603F041FB8046384603F00C
:1037500041FB00EB481010220A4B43F82020314671
:10376000A06803F03BFB01954FF0FF330093234625
:1037700080220549054803F04DFC284637E700BF85
:10378000001BB70000800F4030830000F7320000BC
:1037900008B5103003F028FC08BD30B589B00446E8
:1037A0000023ADF81C300393049305930323ADF875
:1037B00018302D22ADF81A200179019308230093C7
:1037C00003AB06AA0068FEF7B5FFBDF8103013F092
:1037D000200F12D003250323ADF818300F22ADF8C7
:1037E0001A202179206801930823009303AB06AACD
:1037F000FEF7A0FF284609B030BD13F0180F01D026
:103800000425E8E70025E6E770B5324B00241C806C
:103810005C8021464FF0804003F02DFF2E494FF091
:10382000804003F04DFF4FF08040C46603F05AFF24
:103830004FF080431B6813F0804FF9D1264E31467C
:103840004FF0804003F03CFF244D00242C622046C2
:1038500003F0ACFE6C61032003F0A8FEC5F88040C5
:10386000082003F0A3FEAC670B2003F09FFEA5F534
:10387000F0252146284603F0FEFE3146284603F097
:103880001FFFEC66284603F02DFF154B1B6813F055
:10389000804FFAD11049124803F012FF0F4D002457
:1038A000C5F88840102003F081FEC5F88C40112037
:1038B00003F07CFEEC63142003F078FE2C641520EA
:1038C00003F074FEC5F89040162003F06FFE20460A
:1038D00070BD00BFEC0B000220A1070000800F406C
:1038E0000000084038B50446B0F5805F05D34FF0BE
:1038F000FF30B4F5805F3CD238BD4FF0004200216C
:103900004FF0804003F00BFF44F480234FF08042DF
:103910009360002302E000BF01339BB2B3F5006F58
:10392000F9D34FF0004200214FF0804003F0EEFE4B
:103930004FF0806200214FF0804003F0E7FE07E087
:103940004FF08052224B1A60BFF34F8FBFF36F8F3F
:103950004FF080431B69002BF2DA2046FFF7E5F8B1
:10396000C3B208334FF0804252F82300C0F30B106B
:10397000BFE7240B174D4FF000420021284603F00B
:10398000CEFE44F48023AB604FF000420021284675
:1039900003F0BCFE4FF080620021284603F0B6FE23
:1039A00007E04FF080520A4B1A60BFF34F8FBFF30E
:1039B0006F8F084B1B69002BF3DA2046FFF7B5F831
:1039C000C3B20833034A52F82300C0F30B1093E745
:1039D00004ED00E000000840BFF34F8F0449CA68BF
:1039E00002F4E062034B1343CB60BFF34F8FFEE75B
:1039F00000ED00E00400FA052DE9F04104461F4601
:103A000001600262C2B9256A002D44D1A780BDF8C9
:103A10001830E380BDF81C302381BDF8201004F17C
:103A20000C00FEF71DFD099B63620A9BA362002345
:103A3000A377A383BDE8F0811546104603F0C6F9CD
:103A40000646284603F0C6F900EB46104FF0000882
:103A5000174B43F82080284603F0B8F9064628465D
:103A600003F0B8F94FF0E05E06F500635EF823203E
:103A7000012101FA00F002434EF82320284603F00A
:103A8000A5F90646284603F0A5F9760106F1E056A9
:103A900006F80080B7E7284603F098F9064628465E
:103AA00003F098F9760106F1E05600233354ADE7B0
:103AB00000800F4038B5837F042B1FD0023BDBB260
:103AC000012B19D90D460446032903D0022D0AD033
:103AD000A57738BD826A002AF8D04FF47F400021D4
:103AE00001F06CFBF4E7626A002AF1D04FF47F40EA
:103AF000002101F063FBEBE701B9817738BD837FDB
:103B0000042B00D0704700238377FBE770B5044691
:103B1000837F012B08D0002383830C30FEF7A6FCA3
:103B2000246A002C70D170BD0068B0B9A369002B65
:103B300027DBC3F30F23A38322696169914253D129
:103B4000228993421FD8E28893423DD9256A75BBEA
:103B500002212046FFF7AEFF70BDFFF7C3FE00282D
:103B60000DDBA18801FB00F02E4981FB0031C0175D
:103B7000C0EBA11104F10C00FEF77DFCD6E700209C
:103B8000EFE7FF33D5E7256A25B903212046FFF784
:103B900091FF70BD284603F019F90646284603F048
:103BA00019F9760106F1E05600233354EDE7284673
:103BB00003F00CF90646284603F00CF9760106F1ED
:103BC000E05600233354C3E7246A002CABD02046D0
:103BD00003F0FCF80546204603F0FCF86D0105F102
:103BE000E05501232B5470BD246A002C9BD0204645
:103BF00003F0ECF80546204603F0ECF86D0105F102
:103C0000E05501232B5470BD204603F0DFF8054634
:103C1000204603F0DFF86D0105F1E05500232B5439
:103C200081E700BFD34D62102DE9F0478AB004460A
:103C3000129FBDF84C50BDF95060BDF85480BDF8DE
:103C40005890BDF85CA08DF827208DF82630002212
:103C5000A0F8DC20A0F8DE20A0F8E020A0F81021D9
:103C6000C0F8D810134644F62061E430FEF7AEFCED
:103C70001423C4F80C319DF827201A9B0693189B37
:103C80000593CDF810A0CDF80C90CDF808800197E1
:103C900000962B46D4F8D810204600F008F9D4F846
:103CA000D8109DF826201B9B0693199B0593CDF8F1
:103CB00010A0CDF80C90CDF80880019700962B4607
:103CC000043104F16C0000F0F2F80AB0BDE8F087AE
:103CD0002DE9F04704460E46D0F8D830DB89002B9A
:103CE00013BF012700274FF001084FF0000800F52F
:103CF0008670FEF775FE002871D01423C4F80C31CD
:103D0000D4F8D8301A89642A01D964221A81D4F8E7
:103D1000D8305A89642A01D964225A81D4F8D8202B
:103D200013890A331FFA83F955892835ADB2B4F9DE
:103D3000DC0003F0B7FD8246B4F9DE0003F0B2FD0B
:103D4000824514DDB4F9DC20B4F9DE3003FB02F364
:103D5000002B0CDB09FB09F344F6206202FB03F3A2
:103D60004D4AA2FB03235B0BC4F8E4300BE005FBD8
:103D700005F344F6206505FB03F5474BA3FB05352A
:103D80006D0BC4F8E450B4F9DC301B01C4F8003109
:103D9000B4F9E020142104F1E400FEF72BFCD4F880
:103DA0000421B4F8E03013441BB2A4F8E03043F629
:103DB0008F618B423FDD4FF47A73A4F8E030B4F9A1
:103DC000E030002B3FDB1B11A4F8DE303AB9B4F928
:103DD000DC30A4F8DE309BB21B01A4F8E030B4F96B
:103DE000DE30002B3DDD6C2505FB08450021284613
:103DF00000F02EF9B5F866303BB33146204600F0AE
:103E000099F8314604F16C0000F094F8B4F91C30D4
:103E1000B4F888200BB953421BB2A4F810319BB2FE
:103E2000D4F8D820D2899ABB012203FB02F3A4F86C
:103E30001031BDE8F08719498B42C0DA4FF61843BC
:103E4000A4F8E030BBE70F33BDE76C2303FB074763
:103E5000B4F9DE0003F026FD81B2384600F0F8F830
:103E6000CBE76C2303FB07470021384600F0F0F84E
:103E7000B7F86630002BC0D16C2505FB0845B4F9B6
:103E8000DE0003F00FFD81B2284600F0E1F8B4E750
:103E90004FF6FF72C9E700BF5917B7D171C1FFFFD5
:103EA000C0F8D81001630431C0F89C10704730B5D9
:103EB00089B004461D468DF81F200163129B0493B0
:103EC000119B039301230293BDF840300193BDF889
:103ED0003C300093BDF8383000220D99FFF78CFD7F
:103EE000002384F82C30BDF93030E386D5B90023A7
:103EF000A3860025A4F86450A4F866509DF81F30EE
:103F0000DBB284F8683094F868002946FEF714FDA7
:103F10002B4604224FF47A7104F13C00FEF756FB65
:103F200009B030BD6D004FF47A7393FBF5F5A586AB
:103F3000A563DEE738B504460D46FFF7E7FDB4F8A4
:103F400064304BB9B4F866300BB1A38B23B90021B0
:103F50002046FFF7AFFD03E001212046FFF7AAFD51
:103F6000A37F012B19D00023A4F8643004224FF45E
:103F70007A7104F13C00FEF729FBB4F93630002BCE
:103F800001DD5B42E3860023A4F8663094F8680004
:103F9000B4F86610FEF7D0FC38BDA38E5BBB94F876
:103FA0002C30002B45D1B4F8640088BB0020A065FC
:103FB000A28B294604F13C00FEF71CFB94F8680034
:103FC000FEF7E6FCE36DC11889B2B4F9363003EBB5
:103FD000D37301EB630109B2002934DB8BB2B3F573
:103FE0007A7F32D8A4F86610003118BF012120462C
:103FF000FFF760FDCAE7294604F13800FEF7F0FC40
:104000000028CCD0E38E5B42E386A38EA363C6E791
:10401000236B5A881988FEF767FD00B2236B1A8854
:10402000904201DA10B2C2E75B889842BFDD18B255
:10403000BDE7B4F86410B4F9363003EBD37301EB89
:10404000630109B2C8E70021CCE74FF47A71C9E7F0
:10405000A0F864107047FFFF074B23F00703074ADF
:10406000136000205060064A41F6387151601060BC
:1040700059601A60704700BFF80B00023C2B000229
:10408000302B000270B5044600F016FA224B1B6874
:104090007BB134B1083414F0070F02D024F00704C8
:1040A0000834621E41F636739A4231D81B490B68B8
:1040B00007E0FFF7D1FF0122174B1A60E9E7194625
:1040C00013465A68944202D91A68002AF7D1144A52
:1040D00093421FD00D6808351A680A605A68121B8F
:1040E000102A0CD91E1972605C6074680B4900E0DC
:1040F00011460A6850688442FAD832600E605968E6
:10410000084A13685B1A136000F068FA284670BD0D
:104110000025F9E70025F7E7382B00023C2B0002C9
:10412000302B00028C010002D0B170B50546A0F121
:10413000080600F0C1F955F8044C0A4A00E01A4696
:10414000136859688C42FAD845F8083C166055F84F
:10415000041C054A13680B44136000F03FFA70BD5D
:10416000704700BF3C2B00028C0100020A4B1B6809
:104170001B684BB901234BB9074B1B68DB68DB6835
:104180005A68064B1A6070470023F4E74FF0FF327D
:10419000024B1A60704700BF482B0002342C00020B
:1041A00010B50446006BFFF7BFFF2046FFF7BCFFCA
:1041B00010BD2DE9F04781460D4617469A46089EE8
:1041C000DDF824800A9C9200A521206B03F0B3FA4D
:1041D000236B07F18042013A03EB820727F00707C0
:1041E0000023132B07D8E95CE21882F83410EA5C4C
:1041F0000AB10133F5E7002384F84730072E00D9D0
:104200000726E662266500256565201D00F0B7FEDD
:1042100004F1180000F0B3FE2461C6F10806A6619F
:104220006462A56584F85C5052464946384602F0FF
:1042300097F82060B8F1000F01D0C8F80040BDE841
:10424000F087FFFF38B5002407E004EB84029300F9
:104250000E48184400F088FE0134072CF5D90C4DA7
:10426000284600F081FE0B4C204600F07DFE0A48F7
:1042700000F07AFE094800F077FE094800F074FE6D
:10428000084B1D60084B1C6038BD00BF502B00025E
:10429000082C00021C2C00023C2C0002682C00029E
:1042A000542C0002482B00024C2B000210B504468F
:1042B00002F080F8214A136801331360204B1B6819
:1042C000002B32D01F4B1B683BB91D4B1B68DA6AB1
:1042D000E36A9A4201D81A4B1C601B4A13680133E7
:1042E0001360A364E36A01229A40184908680243F4
:1042F0000A6003EB83039A00211D1548104400F067
:1043000041FE02F067F80F4B1B686BB10C4B1B684A
:10431000DA6AE36A9A4207D24FF080520D4B1A6074
:10432000BFF34F8FBFF36F8F10BD054B1C60136839
:10433000012BD2D1FFF786FFCFE700BFF02B0002A1
:10434000442B0002502C0002002C0002042C00021E
:10435000502B000204ED00E070B504460E461D4BE4
:104360001D681D4B1868043000F032FE50B91A4B1E
:104370001B68DA6A012303FA02F218490B6823EA80
:1043800002030B60B4F1FF3F13D02C44124B1B68A7
:104390005C60A54216D8124B18680F4B196804319F
:1043A00000F0FCFD0F4B1B689C4201D20D4B1C60C2
:1043B00070BD002EE9D0084B196804310A4800F09E
:1043C000E1FD70BD094B1868034B1968043100F01A
:1043D000E5FD70BD7C2C0002442B0002042C000281
:1043E000482B0002342C0002542C00024C2B0002FB
:1043F0002DE9F04385B006460F46154698469000D5
:10440000FFF740FE00B381466020FFF73BFE044605
:10441000B0B1C0F83090CCB10023039302940D9B4F
:1044200001930C9B009343462A4639463046FFF7DA
:10443000C0FE2046FFF73AFF012005B0BDE8F0833B
:104440004846FFF771FEE6E70024E4E74FF0FF304F
:10445000F3E7FFFF00B583B0114B019300230093F6
:10446000802210491048FFF7C3FF012802D003B093
:104470005DF804FB4FF0200383F31188BFF36F8FC7
:10448000BFF34F8F4FF0FF32084B1A600122084BE9
:104490001A600022074B1A6001F0F8FFE7E700BF3F
:1044A000302C00023C83000089470000342C0002BD
:1044B000502C00027C2C0002024A13680133136066
:1044C000704700BFFC2B0002014B1868704700BF0B
:1044D0007C2C0002F8B5364B1B68002B5CD1354BA9
:1044E0001E6801361E6086B1334B1B689E4247D260
:1044F0000027324B1B68DB6A03EB83039A00304BC7
:104500009B58012B4DD901274BE02E4A11682E4BA9
:104510001868106019602D4A136801331360FFF7A3
:1045200025FEE1E70127274B1B681B6853B30023D7
:1045300053BB244B1B68DB68DC6863689E4228D34E
:10454000251D284600F044FDA36A1BB104F11800A4
:1045500000F03EFDE36A01229A401D4908680243CB
:104560000A6003EB83039A0029461548104400F0C3
:1045700009FDE26A114B1B68DB6A9A42D2D2D2E78C
:104580000027D0E70123D3E74FF0FF320A4B1A6030
:10459000AFE7094A1360ACE70E4A136801331360B2
:1045A00000270D4B1B6803B101273846F8BD00BF3B
:1045B000FC2B00027C2C0002342C0002442B000255
:1045C000502B0002482B00024C2B0002382C00021A
:1045D000042C0002F82B0002802C000238B501F0F8
:1045E000E9FE2E4B1A68013A1A601B68002B4DD168
:1045F0002B4B1B683BB300242A4B1B682BB3294B66
:10460000DB68DC6804F1180000F0E2FC251D284698
:1046100000F0DEFCE36A01229A4023490868024365
:104620000A6003EB83039A0029462048104400F0F7
:10463000A9FCE26A1E4B1B68DB6A9A42DCD30122AA
:104640001C4B1A60D8E7002421E00CB1FFF78EFD67
:10465000194B1C6874B9174B1B68E3B14FF08052BB
:10466000164B1A60BFF34F8FBFF36F8F01240EE01C
:10467000013C07D0FFF72EFF0028F9D001220D4B97
:104680001A60F5E700220C4B1A60E4E7002401F001
:10469000A1FE204638BD0024F9E700BFFC2B000234
:1046A000F02B00023C2C0002042C0002502B0002D4
:1046B000442B0002802C0002F82B000204ED00E0E5
:1046C00038B505460C46FFF7F7FE164B18682A6802
:1046D0001444904205D2A24209D9A04216D3002226
:1046E00006E0A24214D8A04214D3002200E0002227
:1046F0002C608AB9FFF772FF38B94FF080520A4B2D
:104700001A60BFF34F8FBFF36F8F38BD0122EFE701
:104710000122EDE70122EBE70021201AFFF71CFE42
:10472000E8E700BF7C2C000204ED00E0134B1B689F
:1047300013B310B5FFF7C0FE114B1C68FFF74EFF17
:1047400024B90E4B1B68002BF4D110BD01F032FED2
:104750000B4BDB68DC68201D00F03AFC094A13684B
:10476000013B1360054A1368013B136001F032FE00
:104770002046FFF715FDE4E7704700BFF42B000269
:10478000682C0002F02B000208B501E002F08EFC5C
:10479000FFF7CCFF064B1B68012BF7D94FF0805277
:1047A000044B1A60BFF34F8FBFF36F8FEEE700BF6C
:1047B000502B000204ED00E0194B1B681BBB10B42A
:1047C0000022184B1A60184B1B68B3FA83F3DBB254
:1047D000C3F11F0315489A00D418A10001444C6886
:1047E00064684C601A4491000831084484420ED039
:1047F00003EB83039A000D4B13445B68DA680C4BA0
:104800001A6010BC70470122064B1A60704760683E
:1048100003EB83029100054A0A445060E8E700BFB9
:10482000FC2B0002802C0002042C0002502B000202
:10483000442B000210B50C46044B1968183100F0E7
:10484000ADFB01212046FFF787FD10BD442B000280
:1048500038B5C368DC6804F11805284600F0B8FBD9
:10486000134B1B68E3B9251D284600F0B1FBE36A32
:1048700001229A400F49086802430A6003EB830350
:104880009A0029460C48104400F07CFBE26A0B4B6E
:104890001B68DB6A9A4208D90120094B186038BDB1
:1048A0002946084800F06EFBF0E7002038BD00BF45
:1048B000FC2B0002042C0002502B0002442B0002AF
:1048C000802C00023C2C0002034B1B680360034B4E
:1048D0001B684360704700BF382C00027C2C00022C
:1048E00038B504460D4601F065FD114B1A682B687A
:1048F000B3F1FF3F18D020680E490968884202D002
:1049000061688A4212D26168501A834204D8012435
:1049100001F060FD204638BD8A1A13442B60204602
:10492000FFF7D2FF0024F3E70024F1E70124EFE7CB
:104930007C2C0002382C00020122014B1A607047C7
:10494000802C0002002847D038B50446C36A2349AA
:104950000968C96A8B4216D28169002905DB1F49A3
:104960000968C96AC1F108018161606903EB8303C9
:1049700099001B4B0B44984206D0002333B9174BC8
:104980001B68DB6AE36238BD0123F7E7251D284673
:1049900000F01EFB68B9E36A03EB83018A0010494B
:1049A0008A5832B901229A400E490B6823EA020361
:1049B0000B600A4B1B68DB6AE36201229A400949DB
:1049C000086802430A6003EB83039A0029460448FF
:1049D000104400F0D7FA38BD704700BF442B0002E6
:1049E000502B0002042C0002002834D038B50446B5
:1049F000426D013A4265C06A216D88422DD00AB1EC
:104A0000002038BD251D284600F0E2FA68B9E36AA7
:104A100003EB83018A0012498A5832B901229A4075
:104A200010490B6823EA02030B60236DE362C3F1B4
:104A30000802A261012404FA03F20A490868024349
:104A40000A6003EB83039A0029460548104400F0EE
:104A500099FA204638BD00207047002038BD00BFBD
:104A6000502B0002042C0002054B1B6823B1044BA1
:104A70001A68536D01335365014B1868704700BFC6
:104A8000442B000210B5044601F094FCA26BE36BCA
:104A90009A4204D0002401F09DFC204610BD012460
:104AA000F9E710B5044601F085FCA36B23B100249F
:104AB00001F090FC204610BD0124F9E770B50446D2
:104AC0001646856B026C5AB903681BB1002001358C
:104AD000A56370BD4068FFF787FF00236360F6E7BA
:104AE0006EB9806802F025FE226CA3681344A360AF
:104AF0006268934219D32368A3600020E7E7C06887
:104B000002F017FE226C5242E3681344E36021680E
:104B10008B4202D263681A44E260022E01D0002068
:104B2000D5E725B1013D0020D1E70020CFE70020E7
:104B3000CDE7026C72B110B5C3681344C36044681A
:104B4000A34201D30368C3600C46C168204602F04B
:104B5000F0FD10BD704738B5054601F02BFC95F807
:104B6000454064B201E0013C64B2002C0ADD6B6A8E
:104B700043B105F12400FFF76BFE0028F3D0FFF7E7
:104B8000DBFEF0E7FF2385F8453001F023FC01F060
:104B900011FC95F8444064B201E0013C64B2002C81
:104BA0000ADD2B6943B105F11000FFF751FE002823
:104BB000F3D0FFF7C1FEF0E7FF2385F8443001F0A2
:104BC00009FC38BD38B504460D4601F0F3FB2168F9
:104BD000E26B236C03FB021060600020A063A16005
:104BE000013A02FB0313E360FF2384F8443084F8A6
:104BF0004530A5B923691BB901F0ECFB012038BD94
:104C000004F11000FFF724FE0028F5D04FF0805289
:104C1000074B1A60BFF34F8FBFF36F8FECE704F1C0
:104C2000100000F0A1F904F1240000F09DF9E3E781
:104C300004ED00E038B51D46049C0B4649B12260E6
:104C4000E063236401212046FFF7BCFF84F84C5049
:104C500038BD2460F4E7F0B583B0054617460E462C
:104C600089B100FB01F05030FFF70CFA044638B16F
:104C700000903B4600F1500231462846FFF7DAFF2C
:104C8000204603B0F0BD0020EDE7FFFFF0B585B092
:104C900004460F4601921E46002539E03246394649
:104CA0002046FFF70BFF636A6BB938B14FF08052B3
:104CB0003B4B1A60BFF34F8FBFF36F8F01F08AFB3E
:104CC000012005B0F0BD04F12400FFF7C1FD00286C
:104CD000F4D04FF08052324B1A60BFF34F8FBFF3C6
:104CE0006F8FEBE701F076FB0020EAE702A8FFF701
:104CF000EBFD012519E0002384F8443021E0002376
:104D000084F8453023E02046FFF725FFFFF766FCD7
:104D100001F050FBA26BE36B9A42BFD3022EBDD0D1
:104D2000019B002BDED0002DE0D001F053FBFFF7FC
:104D3000C3FB01F03FFB94F844305BB2B3F1FF3F9B
:104D4000D9D094F845305BB2B3F1FF3FD7D001F032
:104D500041FB01A902A8FFF7C3FDC8B92046FFF730
:104D600091FE0028CFD0019904F11000FFF762FDF9
:104D70002046FFF7F0FEFFF731FC0028C8D14FF0C6
:104D80008052074B1A60BFF34F8FBFF36F8FBFE79F
:104D90002046FFF7E0FEFFF721FC002091E700BF6F
:104DA00004ED00E038B5EFF311844FF0200383F3F6
:104DB0001188BFF36F8FBFF34F8F826BC36B9A4223
:104DC0001CD290F845305BB201328263B3F1FF3FF1
:104DD00007D001335BB280F84530012084F311889D
:104DE00038BD436A0BB90120F8E70D462430FFF7C0
:104DF0002FFD28B135B101202860EFE70020EDE755
:104E00000120EBE70120E9E72DE9F04184B00446F9
:104E1000884601921E46002560E0E568414620462E
:104E2000FFF787FEF6B97B1EA36323683BB12369B6
:104E30004BB901F0CFFA012004B0BDE8F081FFF7D3
:104E400013FE6060F3E704F11000FFF701FD002896
:104E5000EFD04FF08052434B1A60BFF34F8FBFF338
:104E60006F8FE6E7E560636A002BE2D004F124006F
:104E7000FFF7EEFC0028DCD04FF08052394B1A606F
:104E8000BFF34F8FBFF36F8FD3E701F0A3FA00207A
:104E9000D2E702A8FFF718FD012529E0002384F8D6
:104EA000443031E0002384F8453033E001F082FAE9
:104EB0006068FFF747FD01F08DFA3BE02046FFF701
:104EC0004AFEFFF78BFB09E02046FFF744FEFFF7A1
:104ED00085FB2046FFF7E5FD002840D101F06AFA86
:104EE000A76B002F99D1019B002BCED0002DD0D0E5
:104EF00001F070FAFFF7E0FA01F05CFA94F8443040
:104F00005BB2B3F1FF3FC9D094F845305BB2B3F167
:104F1000FF3FC7D001F05EFA01A902A8FFF7E0FC4D
:104F20000028D1D12046FFF7BCFD0028C6D0236859
:104F3000002BBBD0019904F12400FFF77BFC204635
:104F4000FFF709FEFFF74AFB0028C7D14FF0805258
:104F5000044B1A60BFF34F8FBFF36F8FBEE7002083
:104F60006AE700BF04ED00E000F1080343604FF082
:104F7000FF328260C3600361002303607047002337
:104F80000361704743684B609A688A609A68516011
:104F900099600861036801330360704730B40D689D
:104FA000B5F1FF3F02D000F1080202E0026904E01F
:104FB0001A4653681C68A542FAD253684B60996040
:104FC0008A605160086103680133036030BC704738
:104FD00003694268816891608268416851605A68DB
:104FE000904205D0002202611868013818607047AD
:104FF00082685A60F6E7FFFF10B586B00D4C7F233C
:10500000237000234FF0FF321946184601F0B8FC18
:105010000020049094F8303003F5E063029380237D
:105020008DF8003001238DF80C30694601F092FEB6
:1050300006B010BDCC3400020922024BA3F80C28A4
:10504000704700BF980100027047FFFF08B58368F2
:105050001BBB037B012B20D94378104A92F83020E8
:10506000934200D0CBB90378802B13D008D8012B02
:105070000CD0022B03D10422084B1A7008BD08BDC6
:10508000822B02D8FEF7A8FC08BD08BD0522034B01
:105090001A7008BD7F22014B1A7008BDCC34000283
:1050A000014B1878704700BFCC340002014B1870D8
:1050B000704700BFCC340002C37813F0C00F04D097
:1050C00083788B4206D2002070478378994203D0C0
:1050D0000020704701207047012070472DE9F04102
:1050E00005460E4600242146274602E04746013485
:1050F000A4B21B2C14D804EB44029300184AD35AD0
:10510000AB42F4D104EB44034FEA830890443146A8
:105110004046FFF7D1FF01460028E7D10121E6E72D
:10512000D9B9002400E00134FCF7CAFAA04214D92E
:1051300004EB440293000B4AD35A9D42F3D104EB93
:1051400044029300074A03EB020831464046FFF74A
:10515000B3FF0028E7D04746E5E73846BDE8F081D1
:10516000448300000000000208B50448082303221D
:1051700001461438FDF748FC08BD00BF2C3500027D
:10518000836823F07F02802A00D070470269002ADA
:10519000FBD100B583B003F07F038DF80630C388E0
:1051A000ADF80430036802A941F8083D0248FDF754
:1051B00034FC03B05DF804FB1835000200B587B07D
:1051C00000230193039304930593094991F8301048
:1051D0008031029108218DF80C10ADF80600009284
:1051E0006946184601F0B6FD07B05DF804FB00BF44
:1051F000CC34000210B50D4BB3F814380C4CE362FC
:105200000822002104F1320002F095FA042211462E
:1052100004F13A0002F08FFA00236FF07F024FF49E
:10522000E061184601F0ACFB10BD00BF9801000220
:10523000CC3400020D4B40F69802A3F81628052145
:1052400083F81818A3F81A28032183F81C18A3F868
:105250001E28042183F82018A3F822281E2283F890
:1052600024284FF47A72A3F814287047980100029A
:1052700030B587B0044601461C48FDF7B1FB08B9BC
:10528000002319E01A4BB3F814281A4BDA620025F0
:10529000049593F8303003F5E0630293FFF700FFC5
:1052A0008DF8000001238DF80C306946284601F086
:1052B00051FDE5E701339BB2032B15D803F118022A
:1052C0000C4901EB4202508803F50172084901EBD9
:1052D0008202D2889042EDD203F11802054901EB17
:1052E000420220445080E5E707B030BDF8340002A8
:1052F00098010002CC3400020369E3B9836823F00B
:105300007F02B2F5E06F16D1027B012A13D103F0C0
:105310007F020023032B1BD830B41D4603F5017117
:105320000C4C04EB8101097A8A4205D001339BB20F
:10533000032BF2D930BC7047074B05F1180203EB81
:1053400042020021518002782B4483F83A20F1E791
:10535000704700BF98010002CC3400020023032BE9
:1053600020D810B41C4603F501720F4901EB8202EC
:10537000127A824206D001339BB2032BF2D900206D
:1053800010BC704703F11802084B03EB4203588826
:1053900004F5017401EB8404E388984234BF0020D3
:1053A0000120EDE70020704798010002CC34000294
:1053B000036913B14FF6FE707047037B082B02D0D0
:1053C0004FF6FE707047836823F07F03B3F5C06F1C
:1053D00005D0B3F5B06F02D04FF6FE70704702787B
:1053E00002F0E003202B0BD0602B0BD063B1402BDD
:1053F0000CD0802A02D04FF6FF7070478020704793
:105400002020704760207047002070474020704780
:1054100008B5084B93F8301000234FF0FF3201F528
:10542000C061184601F0ACFA00F098FD00F08CFB6A
:1054300008BD00BFCC34000238B50546FFF7B8FF01
:105440004FF6FE7398420ED0AA6802F07F040F4B0D
:1054500093F830309C4207D09C4204D022F07F0366
:10546000B3F5B06F0AD038BD22F07F01B1F5C06F3F
:10547000F2D10146284600F093FB38BD02F07F02CE
:105480000146284600F0ACFDEDE700BFCC34000239
:1054900008B572B6CB7813F0C00F0DD01AB98B785F
:1054A000436062B608BD4968013A03F0070303FB95
:1054B00002F3CB5C4360F4E703F007024968043071
:1054C00002F037F9EDE710B572B6C37813F0C00FEC
:1054D0000FD012B9002062B610BD4468501E03F010
:1054E00007031A46043103FB004002F022F90120B1
:1054F000F1E703F007020431406802F01AF90120D5
:10550000E9E7FFFF30B587B0002504950C4C94F80F
:1055100030402044029008208DF80C0080208DF847
:1055200000008DF80110090A8DF802108DF8032093
:1055300001936946284601F00DFC07B030BD00BF5D
:10554000CC34000270B504460E464078A37800EBD8
:105550000320E17880B2FFF7C1FD0546F8B1837AF8
:1055600033420DD1012E0DD06178A37801EB0321D8
:10557000114BE27889B24FF4B060FFF7C3FF00250A
:10558000284670BD6178A37801EB03210B4BE278CC
:1055900089B24FF4B060FFF7B5FF0025F0E76178FE
:1055A000A37801EB0321064BE27889B24FF4B06097
:1055B000FFF7A8FFE4E700BF0200010601000106B3
:1055C0000000020610B5002400E00134012C14DCB8
:1055D00004F5C050002180B2FFF780FD0028F4D010
:1055E0004168114A04F11003098A42F8231004F1BA
:1055F0002403002122F81310E7E7002400E001341F
:10560000072C10DC04F5A050002180B2FFF766FDE6
:105610000028F4D0416800234FF0FF320968184693
:1056200001F0AEF9EBE710BDCC340002F0B4002776
:105630001AE01F4CBB00DA1995002A46254405F6EE
:1056400068151C4E16440FCE0FC533682B607B01C6
:105650001C4404F51964184D1D440FCD0FC495E882
:105660000F0084E80F000137012FE2DD00261BE068
:105670000F4C06F5827304EBC30308330F4A02EBA9
:10568000C60292E8030083E8030006F1430304EB3B
:10569000431408340A4D05EB46150FCD0FC495E8A9
:1056A0000F0084E80F000136072EE1DDF0BC7047E3
:1056B00098010002D4850000FC850000948400005D
:1056C000D48400002DE9F04F87B00546FFF7E8FCD1
:1056D000052802D007B0BDE8F08F002404E0C278AE
:1056E00012F0C00F0CD00134012CF3DCA6B206F589
:1056F000C050002180B2FFF7F1FC03460028EED035
:105700005F6804F124036D4A32F91330002B05DD84
:1057100004F124025B1B694921F812303B68002B1D
:10572000E1DB04F11008DFF89491294609EB8800C9
:10573000FDF756F959F82830002BD4DC04F1240386
:1057400039F91330002BCEDC398A49F82810B968B2
:1057500004F1240229F8121008220021684601F001
:10576000EAFF06F5D056B6B200213046FFF7B6FC88
:10577000824620B1D0F804B00026B14670E0504B0C
:10578000002231464FF4C060FFF7BCFE4FF0000925
:10579000B9F1000FA7D0002004908DF80C903B6861
:1057A0000293694601F0D6FA9DE70BEB86039978E0
:1057B000FFF794FC824650B10BEB8603DA78C3788E
:1057C00003F007039A420FD800231A465CE00BEB64
:1057D00086023B4B92783BF826104FF4C060FFF7EF
:1057E00091FE002301224FE00BEB8602354B9278AD
:1057F0003BF826104FF4C060FFF784FE002301221F
:1058000042E0002301223FE0002301223CE001228C
:105810000AF102010DEB090001F08BFF17E0DAF845
:10582000041003F00700531E0BEB8802D27803FB31
:1058300000110DEB090001F07CFF08E00BEB880381
:10584000DA78DAF804100DEB090001F072FF0BEBC7
:10585000880898F8033099445FFA89F90136F6B25E
:10586000072E95D8B9F1080F92D0B0460BEB8603FE
:10587000DB78002BC5D04B44082BC5DC3BF8260059
:10588000002892D101230022002A81D1002BDED1F1
:105890009AF8033013F0C00FD0D00BEB8802927847
:1058A000002AB4D09AF802108A42B8D9044B3BF8C7
:1058B00028104FF4C060FFF725FEC8E7CC34000283
:1058C00000000206000001062DE9F04F83B0834678
:1058D000FFF7E6FB05280DD000230193DBF810301D
:1058E0000BB100230193019B002B00F0EA804FF0E5
:1058F000000ABAE001230193F0E700230093C9E016
:1059000000230093C6E004F5B05400212046FFF7C1
:10591000E5FB8146002840F0CC806B4B00222146FD
:105920004FF4C060FFF7EEFD00230093C1E04FF09D
:10593000000883E007EB86039978FFF7CFFB8146E9
:1059400018B3B8F1000F69D007EB8603DA7899F83D
:10595000033003F007039A4229D8B8F1000F5DD055
:1059600099F8030010F0C00F4AD007EB86039A782D
:105970007AB399F802309A4233D9534B37F826104C
:105980004FF4C060FFF7BEFD43E007EB86084E4BC7
:1059900098F8022037F826104FF4C060FFF7B2FDE8
:1059A00098F803301C44E4B24FF00008C9E707EB55
:1059B0008608464B98F8022037F826104FF4C0604E
:1059C000FFF7A0FD98F803301C44E4B24FF0000844
:1059D000C3E73F4B37F826104FF4C060FFF792FD46
:1059E00017E0D9F8043000F0070E501E07EB8602CE
:1059F000D2780BEB040100FB0E3001F09AFE08E0B8
:105A000007EB8603DA780BEB0401D9F8040001F008
:105A100090FE07EB8606F3781C44E4B20135EDB244
:105A2000072D1ED82E4607EB8503DB78E1189BF87F
:105A30000C2091423FF77BAFDDF800800BB94FF0AF
:105A4000000837F8260000287FF474AF07EB8602C1
:105A50009278002A7FF46EAF1C44E4B24FF0000845
:105A60006FE70AF101035FFA83FABAF1070F28D84A
:105A70001FFA8AF4002104F5A050FFF72FFB81469E
:105A800000283FF43AAFC37813F0C00F3FF438AFAB
:105A9000019B0093009B43B1D9F804301A68DBF8EE
:105AA00008309A4201D000230093009B002B7FF422
:105AB0002AAF009B002BD4D0D9F8047000252C46C7
:105AC000AEE703B0BDE8F08F00000206000001065B
:105AD0004100040670B505460E46002414E001336B
:105AE000DBB2072B0ED831F82320AA42F7D101EB05
:105AF00083029278B242F2D104F110030021094AE4
:105B000042F823100134A4B2012C0AD804F5D05075
:105B1000002180B2FFF7E2FA0028F3D041680023A9
:105B2000DFE770BDCC34000208B513460A460146D3
:105B30004FF4B060FFF7E6FC0122024B83F890209F
:105B400008BD00BFCC340002034B012283F8902033
:105B50000022C3F898207047CC34000208B5FFF744
:105B6000F3FF08BD0C4B93F89030052B00D870471D
:105B700010B501460948FCF733FF00B910BD064CCB
:105B80004FF0006294F89410B4F89200FFF7CCFF45
:105B9000012384F89030F1E7CC3400027435000220
:105BA000F0B587B004460D4600210491AD4B93F843
:105BB000303003F5B063029308228DF80C2068465C
:105BC00001F0B9FD6378A27803EB02235942DAB2FF
:105BD000C9B258BF4A428DF801201A46002B1DDB7E
:105BE00012128DF80220E3788DF80330802D18D042
:105BF0009C4B93F89030012B18D0062B00F0C780F7
:105C0000082B00F037816078A37800EB0320964AD8
:105C1000E17880B2FFF788FF07B0F0BD03F1FF0223
:105C2000DEE701228F4B83F89020F5E78D4B0021B2
:105C3000A3F89C106278A07802EB0022A3F89220CF
:105C4000E27883F8942083F8A4100A22C3F8A820ED
:105C5000202D0BD0402D6CD06078A37800EB032072
:105C6000824AE17880B2FFF75FFFD5E70221204644
:105C7000FFF768FC0028CFD0227812F0020F22D163
:105C8000C27812F0300F14D0764AC2F8A000082370
:105C900082F8903006AC602304F8183D04220021FD
:105CA0000DEB020001F047FD2146002001F052F803
:105CB000B2E76078A37800EB03206C4AE17880B209
:105CC000FFF732FFA8E7C27812F0300F27D1602229
:105CD0008DF80020E2782146FFF7F5FBA8B10422F9
:105CE000A1180DEB020001F024FD6946002001F02F
:105CF00031F85C4BD3F89830002B8DD0594A92F88C
:105D00009410B2F89200984786E76078A37800EB89
:105D10000320564AE17880B2FFF706FF7CE76078FF
:105D2000A37800EB0320514AE17880B2FFF7FCFE34
:105D300072E701212046FFF705FC014600283FF4E9
:105D40006BAFC378112B12D003F00703C3F1040328
:105D50009B0043F0430306AD05F8183DE278284662
:105D6000FFF796FB2946002000F0F4FF54E73D4B77
:105D7000062283F89020C3F8A00041238DF800305C
:105D8000038901936946002000F0E4FF44E7602D99
:105D90007FF436AF334B0A22C3F8A820B3F8920041
:105DA0008DF80100020A8DF8022093F894108DF806
:105DB00003102278C2F3001293F8A4309A4203D061
:105DC0002B4AFFF7B1FE27E7264CD4F8A0301889FC
:105DD000B4F89C300721C01AFCF7A3FE0646C5B2F2
:105DE000D4F8A0301B89B4F89C209B1A072B27DD20
:105DF00094F8A4301B018DF80030072200210DF12A
:105E0000010001F098FC174CD4F8A0305968B4F8A0
:105E10009C30F2B219440DF1010001F08AFCB4F893
:105E20009C301D44A4F89C506946002000F092FF6D
:105E300094F8A430B3FA83F35B0984F8A430EBE65A
:105E4000084A92F8A410C5F107035BB243EA0113B4
:105E50005BB243F001038DF80030012382F89030EB
:105E6000CBE700BFCC3400020000060600000106AC
:105E700000000305002D7FF4C6AE354B0A22C3F89F
:105E8000A820B3F892008DF80100020A8DF80220D4
:105E900093F894108DF803102278C2F3001593F84C
:105EA000A4309D4250D112F0010F03D00122284BA3
:105EB00083F8902025786FEA650505F00705244BE7
:105EC000B3F89C60AF19D3F8A0301A89974237DC39
:105ED00058682A46611C304401F02BFC1C4CB4F875
:105EE0009C301D44A4F89C5094F8A4301B0143F04E
:105EF000200306AD05F8183D072200210DF1010031
:105F000001F019FC2946002000F024FF94F8A43089
:105F1000B3FA83F35B0984F8A4300D4B93F8903007
:105F2000012B7FF479AE0A4BD3F89830002B3FF465
:105F300073AE074A92F89410B2F8920098476BE655
:105F4000044AFFF7F1FDE8E7034AFFF7EDFD63E6DA
:105F5000CC340002050003050000030508B5084B1A
:105F6000012283F878204FF0FF32C3F88420002309
:105F70006FF07F024FF4B061184600F001FD08BDDC
:105F8000CC3400027047FFFF38B5124B93F87830DD
:105F9000012B19D0044601460F48FCF721FD98B1AA
:105FA0000C4B93F87830022B0FD00A4D0B4B95F821
:105FB0007A20B5F87C104FF4B060FFF7A3FA022303
:105FC00085F87830C5F8844038BD0122014B83F84C
:105FD000782038BDCC3400025035000200000405A2
:105FE00070B586B004460D460021049102F5C062EA
:105FF000029208228DF80C20684601F09CFB637821
:10600000A27803EB02235942DAB2C9B258BF4A421E
:106010008DF801201A46002B14DB12128DF8022095
:10602000E3788DF80330BF4B93F87830012B07D01D
:10603000A26802F07F02BB4991F879108A4204D02D
:1060400006B070BD03F1FF02E7E7802D33D0042BCB
:1060500039D0052B3ED0082B5BD0082B00F09A805E
:10606000062B00F0F380062BEAD1002DE8D126782C
:10607000C6F30012AB4B93F88C309A4200F01F81AC
:106080006FEA660606F007060023B34280F025811A
:10609000A449B1F88820B1F88A108A4280F02C8196
:1060A000A049D1F88000551CA1F888500133E15C6B
:1060B0008154DBB2E9E79B4B022283F878200A2265
:1060C000C3F88420BCE7602DC3D10122954B83F82F
:1060D0007820B5E7402DBED1924BD3F8800060B157
:1060E0002278C2F38102C2F10402211D01F021FBDA
:1060F00001228C4B83F87820A2E78A494FF0006395
:1061000091F87A20B1F87C104FF4B060FFF7FAF9FB
:10611000EEE7602DA1D1834AB2F88830B2F88A0048
:106120001B1A9BB207331BB2DA43D20F002B1FDBC3
:106130007C4991F88C105B0043EA01135BB2134376
:106140008DF800300023774AB2F88820904211D9A8
:10615000062B0FD801337349D1F88040551CA1F8A4
:106160008850A15C06AA1A4402F8181CDBB2EAE7C0
:106170000023DDE76946002000F0ECFD694A92F853
:106180008C30B3FA83F35B0982F88C300A23C2F8AF
:10619000843055E7202D7FF463AF2378C3F30013D9
:1061A000604A92F88C108B422BD05E4AB2F888304D
:1061B000B2F88A00834232D21B1A9BB207331BB259
:1061C000DA43D20F002B2FDB5B0043EA01135BB2F3
:1061D00013438DF800300023524AB2F888209042D1
:1061E00024D9062B22D801334E49D1F88040551CC2
:1061F000A1F88850A15C06AA1A4402F8181CDBB268
:10620000EAE71446484B92F87A20B4F87C104FF431
:10621000B060FFF777F9022384F8783010E70122A5
:10622000404B83F878200BE70023CDE76946002038
:1062300000F090FD3B4A92F88C30B3FA83F35B098F
:1062400082F88C300A23C2F88430F9E6402D7FF4BE
:106250000AAF237813F0020F23D113F0010F08D0F7
:106260006368304AB2F88A20934202D22D4AA2F8DB
:106270008A302C4C94F88C301B0143F0600306A943
:1062800001F8183D002000F065FD94F88C30B3FA59
:1062900083F35B0984F88C300A22224BC3F88420F4
:1062A000CEE6C3F381031F4DC3F10402211DD5F8CF
:1062B000800001F03EFA012385F87830ECE7194CB4
:1062C000194B94F87A20B4F87C104FF4B060FFF7C3
:1062D00019F9022384F8783009E00022237813F0BA
:1062E000010F00D152B101220E4B83F878200A220F
:1062F0000C4BC3F88420A3E60122EFE7094C94F885
:106300008C301B0143F0600306A901F8183D002002
:1063100000F020FD94F88C30B3FA83F35B0984F825
:106320008C30E4E7CC340002000003054FF020037A
:1063300083F31188BFF36F8FBFF34F8FFEE7FFFF2B
:1063400006480068006880F3088862B661B6BFF34B
:106350004F8FBFF36F8F00DF00BF000008ED00E03C
:106360004FF0807340F8043C21F0010140F8081C14
:10637000034B40F80C3C40F8202C4038704700BFDD
:106380002D630000FFFFFFFFFFFFFFFFFFFFFFFF89
:10639000074B19680868B0E8F00F80F30988BFF36D
:1063A0006F8F4FF0000080F311884EF00D0E704794
:1063B000442B00024FF0200383F31188BFF36F8F4B
:1063C000BFF34F8F024A136801331360704700BF59
:1063D00090010002034A1368013B13600BB983F379
:1063E0001188704790010002FFFFFFFFFFFFFFFFD2
:1063F000EFF30980BFF36F8F0D4B1A6820E9F00FA0
:1064000010602DE908404FF0200080F31188FEF75E
:10641000D3F94FF0000080F31188BDE808401968F7
:106420000868B0E8F00F80F30988BFF36F8F7047FA
:10643000442B000208B54FF0200383F31188BFF30B
:106440006F8FBFF34F8FFEF745F818B14FF08052B2
:10645000024B1A60002383F3118808BD04ED00E0AD
:10646000064B1B68064AA2FB03239B09013B054A16
:1064700013600722044B1A60704700BF7036000299
:10648000D34D621014E000E010E000E008B5094BC5
:106490001A6842F0F0721A601A6842F060421A609C
:1064A000FFF7DEFF0022044B1A60FFF749FFFFF7FA
:1064B0003DFF00BF20ED00E0900100022DE9F0411A
:1064C0008AB006460C46154600F05EFE72B6B4F57C
:1064D000007F06D010D9B4F5806F02D0B4F5805F8C
:1064E0000DD100202F0B2B19013B4FEA133840B17F
:1064F00062B60AB0BDE8F081B4F5807FF1D00C201F
:10650000F0E7322305930697CDF81C8001A905A872
:106510001A4B984701980028EAD13423059306972F
:10652000CDF81C80164B1B68164AA2FB03239B095F
:10653000089301A905A8114B984701980028D7D1C5
:10654000322305930697CDF81C8001A905A80B4BB3
:10655000984701980028CBD13323059306950796D9
:106560000894074B1B68074AA2FB03239B09099366
:1065700001A905A8014B98470198B9E70502000356
:1065800070360002D34D621008B50948D0F8343A8D
:10659000B3FA83F35B09C0F8343A4FF47C324FF41A
:1065A000806100F60400FFF789FF00B10C2008BDF0
:1065B00098010002034B187810F0800F00D170474B
:1065C0007F20FCE708F00300002301391CD410B43D
:1065D00011E041F2210080EA43039BB2013A12F03C
:1065E000FF0205D013F4004FF3D15B009BB2F5E737
:1065F0002046013905D4441C027883EA022308228C
:10660000F0E7184610BC70471846704710B54FF4B5
:106610000C711B48FFF7D8FF04460023B3F50D7F2C
:1066200008D2174A995C03F57C321278914203D163
:106630000133F3E7012300E00023124AD2F8342AA1
:10664000944200D000230BB1002010BD4FF40D7117
:106650000D48FCF7F5FB0B480C4BC0F804380C4B0D
:10666000C0F80838C0F8344A4FF47C324FF48061E7
:1066700000F60400FFF722FF08B1064810BD10BD68
:106680009C090002980100025C86000070860000F0
:10669000448600000C00000810B5682400230C4953
:1066A0000C4A04E011F8010B02F8010B0133A3427C
:1066B000F8DB0948D0F8344A4FF40C7100F60400B6
:1066C000FFF782FF844201D00E2010BD002010BDD4
:1066D000CCF10300680B00029801000208B54FF4EA
:1066E000E6724FF47C31034801F023F8FFF7D4FF42
:1066F00008BD00BF9C090002014BD3F81008704789
:106700009801000220B9064B586BC0F38A0070470D
:10671000034B186B5A6B034B03EA02431844704750
:1067200000000F400000FF1F71B90F4A536B23F4A4
:10673000FF5323F01F035363536B41F6FC7101EACF
:10674000800018435063704782B2074B1A635A6B3C
:1067500022F4FF5222F01F025A635A6BC0F30C401E
:1067600010435863704700BF00000F40B0F1005F56
:1067700004D0064BD86AC0F38A007047034B986A6E
:10678000DA6A034B03EA02431844704700000F40E3
:106790000000FF1FB1F1005F11D0104B4FF6FF72E8
:1067A0009A62DA6A22F4FF5222F01F02DA62DA6A8F
:1067B00041F6FC7101EA80001043D862704782B252
:1067C000064B9A62DA6A22F4FF5222F01F02DA6262
:1067D000DA6AC0F30C401043D862704700000F40E3
:1067E0007F22074B5A62064B1B6A13F4004FFAD103
:1067F000034B1862024B1B6A13F4004FFAD1704727
:1068000000000F4079B1FF22084B5A62074B1B6A08
:1068100013F4004FFAD1054B1862044B1B6A13F4B2
:10682000004FFAD17047FB22EEE700BF00000F4097
:1068300010B50446FFF7D4FF044A536B43F40043FA
:10684000536300212046FFF7DDFF10BD00000F401D
:1068500010B50446FFF7C4FF044A536B23F400430A
:10686000536300212046FFF7CDFF10BD00000F400D
:1068700010B50023002B3DD0394C012384F834306F
:10688000214641F8383B1823402204F5C760FCF745
:10689000BBF81823082204F5CA6104F5E260FCF78E
:1068A000B3F800F071FC272000F0ECFC272000F08A
:1068B00029FE272000F03CFE4B222A4B1A602A4B6F
:1068C000D3F81038591E294A914203D9284B264A39
:1068D000C2F81038DA00274B1B68B3FBF2F3013B18
:1068E00003F03F0343F40C531E4AD3600024C2F864
:1068F00080410EE003F50071194A02EB810200218C
:1069000051600133DBB2B5E7601CC0B2FFF7A0FFF6
:1069100001341F2CF8DD184B202283F81B234FF085
:1069200000621A60154B80225A66C3F8A82019210C
:10693000612000F027FE2A21622000F023FE084893
:106940000123C82200F23C7100F5E560FCF75CF819
:10695000044A136823F041031360002010BD00BFF8
:10696000882C000200000F40980100027F841E0066
:1069700090D003007036000200E100E000800F407C
:106980002DE9F0410E4617461D4672B6002401E07F
:106990000134E4B21F2C23D83B4B1A680123A340D7
:1069A0001A42F5D0601CC0B2FFF71AFFB5F1005FC4
:1069B00014BF4FF000084FF001084046FFF7A2FE59
:1069C000B042E5D14FF00050FFF7D0FEB842DFD122
:1069D0002E4B5B6BC3F380339845D9D1012100E086
:1069E0000021002942D100231F2B3FD8264A1268DC
:1069F0004FF0010808FA03F812EA080F02D0013339
:106A0000DBB2F1E70133DCB22046FFF721FF20467D
:106A1000FFF7E6FE29463846FFF7BCFE1B4BDA6A55
:106A200042F44042DA6200225A63B5F1005F14BFBB
:106A3000002101213046FFF777FEB5F1005F1AD043
:106A4000124A536B23F4804353634FF4A4520F4B09
:106A50009A6300212046FFF7D5FE2046FFF7E8FEA7
:106A6000094A136843EA08031360012149B9202049
:106A700062B6BDE8F081054A536B43F4804353632B
:106A8000E3E70020F4E700BF882C000200000F407D
:106A9000254BD3F8003113F0010F03D1234B93F8AA
:106AA000343003B9704700B587B069462048FBF71A
:106AB000DBFF10B107B05DF804FB72B60120FFF7F1
:106AC000C7FE0499B1F1005F14BF002101210298B3
:106AD000FFF72AFE144B5B6B049AB2F1005F20D0E3
