:10100000E03F00028D110000D1260000E126000023
:10101000F12600000127000011270000DEEBFEFD95
:10102000000000000000000000000000E15500008A
:1010300051110000000000004156000085560000DC
:101040005D1100005D1100005D1100005D110000E8
:101050005D1100005D1100005D1100001D570000D2
:10106000415700006557000089570000AD57000048
:10107000D1570000F5570000195800005D1100001D
:101080005D1100005D1100005D1100005D110000A8
:101090005D1100005D1100005D1100005D11000098
:1010A0005D1100005D1100005D110000615C000039
:1010B0005D1100005D1100005D1100005D11000078
:1010C0005D1100005D1100005D1100005D11000068
:1010D0005D1100005D1100005D1100005D11000058
:1010E0005D1100005D1100005D1100005D11000048
:1010F0005D1100005D1100005D110000B87200007C
:1011000000000002A4000000B872000000400002CD
:1011100000000000B8720000008000020000000023
:10112000A800000228280000004000020000000083
:101130000080000200000000FEE700BFFEE700BFE5
:10114000FEE700BFFEE700BFFEE700BFFEE700BF0F
:10115000FEE700BFFEE700BFFEE700BFFEE700BFFF
:1011600010B4002304E004680C600433043004313C
:101170009342F8D310BC7047002303E000220260C2
:10118000043304308B42F9D3704700BF10B50F4BC6
:1011900007E003F10C049A6859681868FFF7E0FF4C
:1011A00023460B4A9342F4D306E01C46596854F890
:1011B000080BFFF7E1FF2346064A9342F5D30122CD
:1011C000054B1A6000F030FAFEE700BFFC1000008B
:1011D0002011000038110000D8400740FFFFFFFF3A
:1011E000FFFFFFFFFFFFFFFFFFFFFFFFFFFFFFFF0F
:1011F000FFFFFFFFFFFFFFFFFFFFFFFFFFFFFFFFFF
:10120000FFFFFFFFFFFFFFFFFFFFFFFFFFFFFFFFEE
:10121000FFFFFFFFFFFFFFFFFFFFFFFFFFFFFFFFDE
:10122000FFFFFFFFFFFFFFFFFFFFFFFFFFFFFFFFCE
:10123000FFFFFFFFFFFFFFFFFFFFFFFFFFFFFFFFBE
:10124000FFFFFFFFFFFFFFFFFFFFFFFFFFFFFFFFAE
:10125000FFFFFFFFFFFFFFFFFFFFFFFFFFFFFFFF9E
:10126000FFFFFFFFFFFFFFFFFFFFFFFFFFFFFFFF8E
:10127000FFFFFFFFFFFFFFFFFFFFFFFFFFFFFFFF7E
:10128000FFFFFFFFFFFFFFFFFFFFFFFFFFFFFFFF6E
:10129000FFFFFFFFFFFFFFFFFFFFFFFFFFFFFFFF5E
:1012A000FFFFFFFFFFFFFFFFFFFFFFFFFFFFFFFF4E
:1012B000FFFFFFFFFFFFFFFFFFFFFFFFFFFFFFFF3E
:1012C000FFFFFFFFFFFFFFFFFFFFFFFFFFFFFFFF2E
:1012D000FFFFFFFFFFFFFFFFFFFFFFFFFFFFFFFF1E
:1012E000FFFFFFFFFFFFFFFFFFFFFFFFFFFFFFFF0E
:1012F000FFFFFFFFFFFFFFFFFFFFFFFFFFFFFFFFFE
:1013000000B583B0827F90F88A30B0F9FC0000907D
:10131000024801F03FFB03B05DF804FB0C670000DE
:1013200038B50C4801F036FB0B4C254635F8101B40
:101330000A4801F02FFB0A492846FFF7E1FF094957
:1013400004F59070FFF7DCFF074904F50C70FFF718
:10135000D7FF38BD38670000A800000248670000CA
:10136000606700006C67000078670000F0B587B028
:1013700022B11C4616461B79022B03D03D4801F0D2
:1013800009FB75E027683C49384605F059F918B95A
:101390003A4BD3F8205216E03949384605F050F957
:1013A00018B9364BD3F830530DE03649384605F0BE
:1013B00047F918B9314BD3F8105104E03946324897
:1013C00001F0E8FA0025002D52D0022E40D9237BEF
:1013D000022B3AD1237D012B37D1A66824692B49F2
:1013E000304605F02DF908B96C8031E028493046C7
:1013F00005F026F908B92C802AE02649304605F088
:101400001FF908B9EC8023E02349304605F018F9AC
:1014100008B9AC801CE02149304605F011F908B943
:101420002C8115E01E49304605F00AF908B96C8197
:101430000EE01C49304605F003F908B9AC8107E01D
:101440003146194801F0A6FA02E0184801F0A2FA64
:101450006A882B88E988A8882C896E89AD890495CB
:1014600003960294019000913946114801F092FAD6
:1014700007B0F0BD84670000A8670000A800000264
:10148000AC670000B0670000B4670000CC670000E4
:10149000D4670000DC670000E4670000EC67000030
:1014A000F0670000F4670000FC67000014680000AB
:1014B000646800000C2070470220704710B502E0FD
:1014C000012000F01BFA0C4B1B78002BF8D00B4CC2
:1014D000022104F1100001F093FC022104F5907048
:1014E00001F08EFC022104F50C7001F089FC022051
:1014F00000F004FAEBE700BF80050002A80000023C
:1015000010B504F0DDFD60B116480023A0F8A63444
:101510003223A0F8A43400F5956000F083F904F0BC
:1015200089FD104C0023238004F59561201D00F0F7
:1015300087F904F2B64104F58A7000F02FF904F23D
:10154000C44104F5097000F0E5F8FFF7B5FF014666
:10155000054800F03BFE052000F0F4FA0122034BA1
:101560001A7010BDA8000002EC66000080050002A1
:1015700038B52C48FFF7C4FF00F06CFE294DB5F9D3
:101580000C0105F059F80446B5F91C0205F054F8B1
:10159000204484B2B5F92C0305F04EF804442846E3
:1015A00020F8044B142100F081F9142105F58A700C
:1015B00000F028F9142105F5097000F0DFF8032088
:1015C00003F08AFB042003F087FB052003F084FB73
:1015D00018B9B5F83433012B0ED0124B042283F81E
:1015E0002E2083F89A2083F83E2183F8AA2183F8DD
:1015F0004E2283F8BA2211E00A4C04F1100001F0E7
:1016000045FB04F17C0001F041FB042384F83E31EA
:1016100084F8AA3184F84E3284F8BA32142000F0EB
:101620006DF9A9E7A800000200B583B00D4C204673
:1016300000F0B4F9002501950223009323464FF4EE
:1016400020720949094800F041F9019503230093EC
:1016500023464FF480720649064800F037F901F03E
:1016600003FEFEE7A8000002C0690000711500003B
:10167000C8690000BD14000000238370C3700371AB
:10168000037043704371704770B504460E4690F97D
:101690000050002303718370C3703DB190F9013095
:1016A00023B9012383703C23836015E03DB994F98D
:1016B000013023B10123E370002363710CE05DB1BD
:1016C000284604F0B9FF642801DD01236371A36893
:1016D000002B01DD9E1BA660657070BD08B57F22E2
:1016E0006FF07F0190F9000000F0C0FF4FF47A72B4
:1016F000074900F0ABFFB0F57A7F03DC10F57A7F85
:1017000004DA02E04FF47A7008BD014808BD00BF5A
:1017100018FCFFFF30B58BB004460D46FFF7ACFF59
:10172000C4F80C5104F10C05124B0893023B0793CB
:10173000013306934FF00813059341F28833049365
:101740004FF47A63039340F2536302930A4BB3F965
:10175000A6240192B3F8A434009302231322082193
:10176000284601F001FBD4F80C11284601F0F2FBE9
:101770000BB030BD0B000800A800000210B50446F5
:10178000FFF782FFD4F80C1104F10C0001F0E2FB2A
:101790002046FFF7A3FFA4F8F20010BD30B58BB0D0
:1017A00004460D46FFF768FFC4F80C5104F10C0520
:1017B000124B0893023B079301330693023B0593B8
:1017C00041F2883304934FF47A63039340F25363F6
:1017D00002930B4BB3F9A6240192B3F8A4340093FF
:1017E0004FF4005302220121284601F0BDFAD4F83B
:1017F0000C11284601F0AEFB0BB030BD070008000D
:10180000A800000210B50446FFF73EFFD4F80C1103
:1018100004F10C0001F09EFB2046FFF75FFFA4F8E7
:10182000F20010BD642303814381002383814FF4C0
:101830007A624280FA230380C2808380704700BFAF
:1018400030B58BB004460D46FFF716FFC4F80C51B7
:1018500004F10C05134B0893023B079301330693E5
:101860004FF40023059341F2883304934FF47A63D5
:10187000039340F2536302930B4BB3F9A6240192F6
:10188000B3F8A43400934FF4004305220021284606
:1018900001F06AFAD4F80C11284601F05BFB0BB09A
:1018A00030BD00BF03000800A800000210B50446C8
:1018B000FFF7EAFED4F80C1104F10C0001F04AFB2A
:1018C0002046FFF70BFFA4F8F20010BD30B583B03F
:1018D000094D2C6814442C6041F26F75AC4201D95B
:1018E00000BFFDE7079C0194069C009492B201F0B2
:1018F00089FC03B030BD00BF8405000210B582B082
:10190000044601F0EDFC02AB43F8040D21461846F5
:1019100001F0E2FD02B010BD10B501220E4B1A70AD
:101920000E4C00234FF0FF321946206802F030FCC5
:10193000022004F0C5FA022000F0D8FD022000F0D9
:10194000B5F800231A461946206802F04DFB022024
:10195000FFF7D4FFE4E700BF90050002E426000291
:10196000054B1B6833B110B5034B1C6800F0AAFE91
:10197000A04710BD704700BF8805000208B50648A3
:1019800001F008F84FF0A00383F31188BFF36F8FC5
:10199000BFF34F8FFEE700BFD469000000B583B0EE
:1019A00000F0C8FD012002F0AFFB1B4B18600B20BC
:1019B00004F04AFD0B2004F05DFD0D2004F044FD11
:1019C0000D2004F057FD0D2004F018FD0C2004F04C
:1019D00015FD4FF0E05004F0A3FB04F093FB08B1B9
:1019E00000F058F803F0DEFF00F022F800F0AEF847
:1019F00000F010FA00F09AF900F014F800230193B7
:101A00004FF6FF720092802204490548FFF75EFFFF
:101A100003B05DF804FB00BFE4260002F469000097
:101A20001919000008B5172004F0E8FC08BD00BF34
:101A300038B5154B93F84033144A82F8303013F020
:101A4000800F03D07F22114B83F830200F4C0025EC
:101A5000C4F8A050552363600D4B23616561A561F7
:101A60001022294604F11C0004F030FDE560A56059
:101A700003F068FA03F092F803F08CF903F0C2FA6D
:101A800003F03AFD38BD00BFA8000002E8260002BE
:101A90005645535508B503F075FA03F097F802F070
:101AA00065FC02F033FE03F0DFFA08BD10B586B026
:101AB00084B2204603F0A4F8204603F021FB204620
:101AC00003F068FA204602F053FC204602F022FEA2
:101AD00016E0684603F060FA684603F0D3F86846FB
:101AE00003F00EFC684603F069F9684603F010FD48
:101AF000114BD3F8A0401CB100F0E4FD6946A047AB
:101B00006946002004F0D2F90028E2D00A4BDA68D6
:101B10000A4B9A4204D10022074BDA6004F0D0FA53
:101B2000054B9A68064B9A4204D10022024B9A60F8
:101B300004F080FA06B010BDE82600026C6F616404
:101B40007361766508B503F057FA08BD70B5354B7B
:101B500000241C805C8021464FF0804004F074FB20
:101B600031494FF0804004F095FB4FF08040C4664F
:101B700004F0A2FB4FF080431B6813F0804FF9D1B3
:101B8000294E31464FF0804004F084FB274D00245D
:101B9000EC61012004F046FB2C61042004F042FBC0
:101BA000C5F88040082004F03DFBEC67092004F0F4
:101BB00039FBAC670B2004F035FBA5F5F025214679
:101BC000284604F041FB3146284604F063FBEC66EE
:101BD000284604F071FB164B1B6813F0804FFAD1B6
:101BE0001149134804F056FB104D00246C620D207F
:101BF00004F018FBEC620F2004F014FB6C6312205D
:101C000004F010FBEC63142004F00CFB2C64152092
:101C100004F008FBC5F89440172004F003FB2046AD
:101C200070BD00BF9405000220A1070000800F4096
:101C30000000084038B50446B0F5805F3CD24FF054
:101C4000004200214FF0804004F054FB44F4802314
:101C50004FF080429360002302E000BF01339BB24B
:101C6000B3F5006FF9D34FF0004200214FF08040F0
:101C700004F036FB4FF0806200214FF0804004F00A
:101C80002FFB07E04FF08052264B1A60BFF34F8FB7
:101C9000BFF36F8F4FF080431B69002BF2DA2046B1
:101CA00000F0F6FCC0B200F108034FF0804252F899
:101CB0002300C0F30B1001E04FF0FF30B4F5805F5C
:101CC0002ED3240B184D4FF000420021284604F07B
:101CD00011FB44F48023AB604FF000420021284602
:101CE00004F0FEFA4FF080620021284604F0F8FA72
:101CF00007E04FF080520B4B1A60BFF34F8FBFF3DA
:101D00006F8F094B1B69002BF3DA204600F0C0FCF3
:101D1000C0B200F10803044A52F82300C0F30B10CC
:101D200038BD00BF04ED00E00000084008B54020C9
:101D300004F0B8FB092004F061FB092004F084FBE7
:101D4000092004F097FB002008BD00BF016042603D
:101D50008360002383610362C36047F6FF72026100
:101D6000034A4261C361012380F82430704700BFF9
:101D70000080FFFF70B590F824305BB1022B0BD1CF
:101D8000036A0433082B09D8002380F824301C464A
:101D90001A4605E0002403E0012401E001240022AA
:101DA000002C31D08569AB1A866806EB8606B50033
:101DB000B5FBF1F505FB03F52D0A8261C669B31A7F
:101DC000C2681A440469A24201DDC46005E04469A6
:101DD000A24201DAC46000E0C260066806EB860633
:101DE000B400B4FBF1F404FB03F4C668426802EBF0
:101DF00082029300B3FBF1F101FB06F1090C01EB48
:101E000014432B44036270BD836842680168FFF786
:101E10009DFF70BD2DE9F041884B894D1D60894EB5
:101E20005E60894F9F60DFF82482C3F80C802846EB
:101E300004F08AF94FF49661284604F0B7F90A21B4
:101E4000712004F0DBF900220121284604F08CF90E
:101E50000024C5F804420821722004F0CFF90122C1
:101E60000221284604F080F9C5F808422121732098
:101E700004F0C4F902220321284604F075F9C5F8DC
:101E80000C42852004F0CEF903220421284604F0F8
:101E90006BF9C5F81042862004F0C4F9042205212C
:101EA000284604F061F9C5F81442872004F0BAF915
:101EB00005220621284604F057F9C5F81842882063
:101EC00004F0B0F906220721284604F04DF9C5F8C0
:101ED0001C426B6823F004136B60304604F034F945
:101EE0004FF49661304604F061F90521802004F03A
:101EF00085F922460121304604F036F9C6F804423D
:101F00001C21812004F07AF901220221304604F0DC
:101F10002BF9C6F808421B21822004F06FF9022237
:101F20000321304604F020F9C6F80C428A2004F060
:101F300079F903220421304604F016F9C6F810425C
:101F40008B2004F06FF904220521304604F00CF9CF
:101F5000C6F814428C2004F065F9052206213046AB
:101F600004F002F9C6F81842736823F00413736092
:101F7000384604F0E9F84FF49661384604F016F953
:101F80002621832004F03AF922460121384604F044
:101F9000EBF8C7F804422721902004F02FF9012222
:101FA0000221384604F0E0F8C7F8084224219120C5
:101FB00004F024F902220321384604F0D5F8C7F8CA
:101FC0000C428F2004F02EF903220421384604F03D
:101FD000CBF8C7F81042902004F024F90422052120
:101FE000384604F0C1F8C7F814427B6823F00413A4
:101FF0007B60404604F0A8F84FF49661404604F038
:10200000D5F8922004F00EF903220421404604F092
:10201000ABF8C8F81042932004F004F9042205211B
:10202000404604F0A1F8C8F81442D8F8043023F070
:102030000413C8F804302046BDE8F081980500027A
:102040000080011C00C0011C0000021C0040021C9A
:1020500010B483B08DF80700B1F57A7F01D94FF441
:102060007A719DF80730DB080D4850F823409DF841
:10207000073003F007029DF80730DB0850F82330E3
:10208000D3F8003203FB01F1064BA3FB01318909B0
:1020900002F1810344F82310002003B010BC704704
:1020A00098050002D34D621082B08DF807009DF8AC
:1020B0000730DB080C4A52F823109DF8073003F074
:1020C0000703813351F823004FF47A7303FB00F0C8
:1020D0009DF80730DB0852F82330D3F80032B0FB0C
:1020E000F3F080B202B070479805000208B5034BC8
:1020F00000220349034800F04DFC08BD0C710000AC
:10210000FC700000FC69000070B51E46002412E05F
:10211000184B1B6825012B445968306804F090FA6D
:1021200040B9144B1B681D44AA686968124800F046
:1021300031FC70BD01340F4B1B799C42E8DB00245D
:1021400012E00E4B03EB04135D682946306804F07F
:1021500077FA40B9094B03EB0414A26829460648F4
:1021600000F018FC70BD0134052CEAD9044800F0D9
:1021700011FC70BD8C270002206A0000AC6D0000CD
:102180002C6A000010B51C4612B9002000F014FCA7
:1021900023681BB1012000F00FFC10BD002000F0EF
:1021A0000BFC10BD08B503F045FF10B9014800F065
:1021B000F1FB08BD586A000008B503F0FDFE10B938
:1021C000014800F0E7FB08BD606A000008B5064B57
:1021D0001860197100225A719A71044A044905481D
:1021E00000F0D8FB08BD00BF8C2700020C71000076
:1021F000FC7000006C6A0000014B1879704700BF4A
:102200008C27000210B50F4800F0C4FB002407E043
:102210000D4B03EB041359680C4800F0BBFB013471
:10222000052CF5D9002408E0094B1B6803EB0413C7
:102230005968064800F0AEFB0134FFF7DDFF844229
:10224000F2DB10BD286A0000AC6D0000806A00005F
:102250008C2700022DE9F04383B06E4B1B68002BE6
:1022600000F0D380002502A8002300F8013D03F010
:102270000BFE002840F0CA80664B5B79C72B04D95F
:102280000022644B5A711225EDE701210DF1070080
:1022900000F020F99DF807301B2B07D106215E487E
:1022A00000F018F900225B4B5A71DCE7082B07D1CC
:1022B000584B5B79002BD6D0013B564A5371D2E77D
:1022C0000D2B02D00A2B40F09980524B5B791BB941
:1022D000524800F05FFBC6E74E4A134400249C714D
:1022E000274626463EE0F4B14A4B23449B79222BF5
:1022F00019D1A7B9631E474A13449B799BB9131997
:102300000021997106F1190102EBC1030220187135
:10231000631C1344063342F83130012703E03D4B80
:10232000234400279F71E7B93A4B23449B79202B24
:1023300017D1384B234400229A71032E11DCDFF8A9
:10234000D48006F11A0908EBC90301221A71A018FA
:10235000404400221146063004F030F948F83900B4
:10236000013601342B4B5B799C42BCDB0024294BAA
:102370005C7118E0274850F8063B27013B44596838
:1023800004F05EF970B9234B1B683B44DC6884B1F0
:1023900000F098F91F4B53F8D01B3246C95BA04799
:1023A000012707E00134FFF727FF8442E2DB002723
:1023B00000E00127F7B9002415E0194B03EB0413E3
:1023C0005968184804F03CF960B9154F24013B19CD
:1023D000D3F80C8000F076F9134B3246395BC047D6
:1023E000012702E00134052CE7D91FB90D490F4838
:1023F00000F0D0FA094800F0CDFA34E705494A79EF
:10240000501C48710A4493712DE71525284603B0E6
:10241000BDE8F0838C270002886A0000906A000003
:10242000AC6D0000922700025C280002946A000054
:1024300030B587B00024009401940294039404946E
:10244000059403F0CFFD00F5B0600290144BDD88D9
:102450002B1D8DF80C3042238DF80030FF238DF8B2
:1024600001305F238DF802308DF8034023460CE0E5
:102470001A1D0B490868098903FB01F1415C06A894
:10248000024402F8181C0133DBB29AB2AA42EFD31D
:102490000020034BD880694603F08AFC07B030BDAA
:1024A00090000002094B1B786BB100B583B002A904
:1024B00001F8010D064800F0AFF8FFF7B9FF012061
:1024C00003B05DF804FB0120704700BF90050002D7
:1024D0009000000270B506460D46002403E0305D12
:1024E000FFF7E0FF0134AC42F9D370BD704700BF85
:1024F0000023036041608360704700BF036803EB03
:102500000121016083680133836091FBF3F1C160B5
:1025100004E00268521A0260013B836083684268EB
:102520009342F6DC0846002901DA01F1FF000012AF
:10253000704700BF014B1860704700BFAC05000238
:1025400070B103688B4203DB5B1A036000207047A5
:10255000B3F1FF3F06D04FF0FF3303600120704717
:102560000120704700207047016082800022C280F5
:1025700003720161C1601046704700BFF8B10246A6
:10258000C088938898421CD210B4002307E0D0681A
:10259000CC5C0470D0680130D0600133DBB2107ABB
:1025A0008342F4D3D4681168938800FB03108442FB
:1025B00000D1D160D3880133D380002003E02D20E7
:1025C00070471220704710BC704700BFF0B1024640
:1025D000C388EBB1002308E011B110690078C8543A
:1025E0001069013010610133DBB2107A8342F3D3FA
:1025F00010B414691168938800FB0310844200D161
:102600001161D388013BD380002003E02D20704767
:102610001720704710BC704798B138B50346C5887D
:10262000828895420FD2044631B100681B891A4650
:1026300003FB050003F048FFE3880133E38000203B
:1026400038BD2D207047122038BD00BFC0F57A7309
:1026500002FB00F201FB0321034880FB0130C91794
:10266000C1EBA010704700BFD34D6210914208D05B
:10267000401A4FF47A7303FB00F3501A93FBF0F007
:1026800070470020704700BF8842A8BF08467047C7
:102690004342034001D1202000E01F209AB202B142
:1026A000103813F0FF1F00D0083813F00F3F00D090
:1026B000043813F0333F00D0023813F0553F00D0F8
:1026C00001387047014B1868704700BFAC05000225
:1026D00008B5024800F05EF908BD00BF246E000096
:1026E00008B5024800F056F908BD00BF2C6E000086
:1026F00008B5024800F04EF908BD00BF386E000072
:1027000008B5024800F046F908BD00BF446E00005D
:1027100008B5024800F03EF908BD00BF506E000049
:1027200008B528B10268117002680132026008BD64
:102730000846FFF7B7FE08BD2DE9F04107460E46F3
:10274000151E05DC4FF0200814E00131013201E0D4
:102750000A46002110780028F7D1A94201DA6D1A43
:1027600000E0002513F0020F02D14FF0200801E035
:102770004FF0300813F0010F08D000240FE041465D
:102780003846FFF7CDFF0134013D00E00024002D65
:10279000F5DC04E03846FFF7C3FF01340136317839
:1027A0000029F7D105E041463846FFF7B9FF01346B
:1027B000013D002DF7DC2046BDE8F081F0B585B085
:1027C00005460C9E59B930238DF8043000238DF84E
:1027D00005300B9B0A9A01A9FFF7AEFF40E00846BF
:1027E00033B10A2A06D1002906DA4842012704E05B
:1027F000002702E0002700E0002704AC002304F8D3
:10280000013D0DE0B0FBF2F302FB1303092B02DDE7
:10281000A6F13A010B44303304F8013DB0FBF2F06D
:102820000028EFD1A7B10A9B63B10B9B13F0020FF5
:1028300008D02D212846FFF773FF0A9B013B0A931E
:10284000012606E02D2304F8013C013C002600E0AF
:1028500000260B9B0A9A21462846FFF76DFF30445D
:1028600005B0F0BDF0B587B006460C461F46002502
:1028700083E0252B7BD1621C6378002B00F08180E4
:10288000252B73D02D2B02D1A21C012300E00023A5
:10289000144602E0013443F002032278302AF9D0D2
:1028A000002205E002EB8202500030394218013468
:1028B0002178A1F13000C0B20928F3D9732908D1D9
:1028C0003968043701B932493046FFF735FF05440E
:1028D00052E0642901D069290CD13968043761209C
:1028E00002900193009201230A223046FFF766FF0F
:1028F000054441E078290CD1396804376120029001
:1029000001930092002310223046FFF757FF054441
:1029100032E058290CD139680437412002900193E4
:102920000092002310223046FFF748FF054423E0C1
:1029300075290CD139680437612002900193009207
:1029400000230A223046FFF739FF054414E06329CB
:1029500012D1397804378DF8141000218DF8151034
:1029600005A93046FFF7E8FE054405E01446217846
:102970003046FFF7D5FE013501342378002B7FF474
:1029800078AF16B1336800221A70284607B0F0BD40
:10299000686E00000FB400B583B004AB53F8041B9D
:1029A00001934FF0FF320020FFF75CFF03B05DF8AA
:1029B00004EB04B0704700BFBFF34F8F0449CA68EF
:1029C00002F4E062034B1343CB60BFF34F8FFEE78B
:1029D00000ED00E00400FA05002303804FF47A6361
:1029E0004380704770B588B0044615461E468DF882
:1029F0001F10119B0493109B039301230293BDF8B6
:102A00003C300193BDF838300093BDF834300022DB
:102A10000C9900F0BDF8002384F82C30A6863DB157
:102A20006D004FF47A7393FBF5F56586A56301E0BD
:102A3000002363860025A4F86450A4F866509DF82E
:102A40001F30DBB284F8683094F868002946FFF73D
:102A5000FFFA04F12E00FFF7BFFF2B4604224FF4CC
:102A60007A7104F13C00FFF771F908B070BD00BF46
:102A700038B504460D4600F00FF9B4F8643073B968
:102A8000B4F8663033B1A369002B00DAFF33C3F327
:102A90000F2323B90021204600F0D6F803E00121DE
:102AA000204600F0D1F8A37F012B13D00023A4F817
:102AB000643004224FF47A7104F13C00FFF746F9C8
:102AC000B4F93430002B01DD5B42A3860023A4F867
:102AD000663052E0638E53B1294604F13800FFF7A7
:102AE0002FFD20B1A38E5B42A386638EA36394F86F
:102AF0002C3063BBB4F8640070B1228EE18DFFF717
:102B0000A5FD00B2E38D984201DA18B205E0238EEC
:102B1000984202DD18B200E00020A065A269002AF8
:102B200000DAFF32C2F30F22294604F13C00FFF71E
:102B300021F994F86800FFF7B7FAE36DB4F934208F
:102B4000184402EBD27200EB620000B208E0B4F865
:102B50006430B4F9340000EBD07003EB600000B2D5
:102B6000002804DB83B2B3F57A7F02D803E00020AB
:102B700001E04FF47A70A4F8660094F86800B4F8A5
:102B80006610FFF765FA38BDA0F86410704700BF03
:102B90002DE9F04104461F460160026272B31546FA
:102BA000104602F0B3FD0646284602F0B3FD00EBE6
:102BB00046104FF00008234B43F82080284602F0CF
:102BC000A5FD0646284602F0A5FD4FF0E05106F5AA
:102BD000006251F82260012303FA00F046EA000384
:102BE00041F82230284602F091FD0646284602F0C0
:102BF00091FD760106F1E05606F80080256A5DB188
:102C0000284602F083FD0646284602F083FD760141
:102C100006F1E05600233354A780BDF81830E38056
:102C2000BDF81C302381BDF8201004F10C00FFF723
:102C30005FFC099B63620A9BA3620023A377A383C3
:102C4000BDE8F08100800F4038B5837F042B1CD095
:102C5000023BDBB2012B16D90D460446032907D1EE
:102C6000826A2AB14FF47F40002102F06FFC08E035
:102C7000022D06D1626A22B14FF47F40002102F09A
:102C800065FCA57738BD01B9817738BD837F042BFA
:102C900001D100238377704770B50446837F012BF1
:102CA00050D1006890B1FEF7C5FF002800DA00207F
:102CB000A18800FB01F02B4981FB0031C017C0EB5C
:102CC000A11104F10C00FFF719FCA083A38B22894A
:102CD000934212D9256A5DB1284602F017FD0646D7
:102CE000284602F017FD760106F1E0560023335422
:102CF00003212046FFF7A8FF70BDE288934212D956
:102D0000256A5DB1284602F001FD0646284602F01C
:102D100001FD760106F1E0560023335402212046DE
:102D2000FFF792FF70BD246AD4B1204602F0EEFC9A
:102D30000546204602F0EEFC6D0105F1E055012349
:102D40002B5470BD046A5CB1204602F0DFFC0546DE
:102D5000204602F0DFFC6D0105F1E05500232B5405
:102D600070BD00BFD34D62102DE9F04788B0044616
:102D70001F46BDF84050BDF94460BDF84880BDF81D
:102D80004C90BDF850A08DF81F108DF81E20002328
:102D9000A0F8E630A0F8E830A0F8FC30A0F8E43065
:102DA0006421A0F8E010A0F8E210EC30FFF7A0FBDF
:102DB0009DF81F10179B0593159B0493CDF80CA04D
:102DC000CDF80890CDF80480009733462A46204677
:102DD000FFF708FE9DF81E10189B0593169B0493A1
:102DE000CDF80CA0CDF80890CDF8048000973346BC
:102DF0002A4604F16C00FFF7F5FD08B0BDE8F08746
:102E00002DE9F84304460E46B0F8E430002B13BF1A
:102E1000012700274FF001084FF00008B0F8E0301C
:102E2000642B02D96423A0F8E030B4F8E230642BBC
:102E300002D96423A4F8E2304FF47A7595FBF6F5D5
:102E4000B4F9E600B4F9E83000FB03F3002B17DB1C
:102E500003F0F2FB8146B4F9E80003F0EDFB814595
:102E60000EDD6A1CB4F8E03005FB03F5384B83FB3C
:102E70000513ED17C5EB6315551BC4F8F0500DE0B5
:102E80006B1CB4F8E22005FB02F5314A82FB051207
:102E9000ED17C5EB62155D1BC4F8F050B4F9E610F0
:102EA00004F1EC00FFF72AFBD4F8F830002B00DA2D
:102EB000FF3343F30F23A4F8E830002B15DD6C2318
:102EC00003FB084800214046FFF75EFEB8F8663075
:102ED00003BB6C2303FB0747B4F9E80003F0ACFB2A
:102EE00081B23846FFF750FE14E06C2303FB07471E
:102EF00000213846FFF748FEB7F8663053B96C2317
:102F000003FB0848B4F9E80003F096FB81B24046A1
:102F1000FFF73AFE31462046FFF7AAFD314604F19D
:102F20006C00FFF7A5FDA369002B00DAFF3343F324
:102F30000F23D4F88420002A00DAFF32C2F30F22D4
:102F40000BB953421BB2A4F8FC30BDE8F88300BFB4
:102F50001F85EB5130B404460D4600F1D8030868D4
:102F60004968AA6807C3AA891A80D4F8D830C4F877
:102F70002E30D4F8DC30C4F89A3030BC704700BF33
:102F80000A4B1B681B680BB9012300E0002323B127
:102F90004FF0FF32064B1A607047044B1B68DB682A
:102FA000DB685A68024B1A60704700BFB405000224
:102FB000A406000210B50446006B00F0F1FE2046A6
:102FC00000F0EEFE10BD00BF2DE9F04781460D4632
:102FD00017469A46089EDDF824800A9C9200A52197
:102FE000206B03F073FA236B07F18042013A03EB85
:102FF000820727F00707002306E0E95CE21882F861
:103000003410EA5C12B10133132BF6D9002384F893
:103010004730072E00D90726E6622665002565653C
:10302000201D00F06FFC04F1180000F06BFC24611F
:10303000C6F10806A6616462A56584F85C50524634
:103040004946384602F0B8FA2060B8F1000F01D0C6
:10305000C8F80040BDE8F08738B5002407E004EB6D
:10306000840293000E48184400F040FC0134072C01
:10307000F5D90C4D284600F039FC0B4C204600F0E9
:1030800035FC0A4800F032FC094800F02FFC0948E2
:1030900000F02CFC084B1D60084B1C6038BD00BFC5
:1030A000D8050002AC060002C00600028806000235
:1030B000BC050002D4060002B4050002D0050002DF
:1030C00010B5044602F09EFA214A136801331360DA
:1030D000204B1B683BB91F4B1C601368012B0DD1A3
:1030E000FFF7BAFF0AE01C4B1B683BB9194B1B6882
:1030F000DA6AE36A9A4201D8164B1C60174A1368D1
:1031000001331360A364E36A012202FA03F1144855
:1031100002680A43026003EB83039A00211D1148F1
:10312000104400F0F3FB02F07DFA0B4B1B686BB10F
:10313000084B1B68DA6AE36A9A4207D24FF0805262
:10314000094B1A60BFF34F8FBFF36F8F10BD00BFE5
:103150008006000284060002B8050002A8060002EC
:10316000E8060002D805000204ED00E070B5044650
:103170000E461D4B1D681D4B1868043000F0ECFB1B
:1031800050B91A4B1B68DA6A012303FA02F2184994
:103190000B6823EA02030B60B4F1FF3F07D136B19D
:1031A000124B19680431134800F0B0FB70BD2C4479
:1031B0000E4B1B685C60A54207D90F4B18680B4B80
:1031C0001968043100F0AEFB70BD0C4B1868074B5A
:1031D0001968043100F0A6FB094B1B689C4201D220
:1031E000074B1C6070BD00BFA006000284060002F1
:1031F000E8060002D4060002D0050002B405000271
:10320000A40600022DE9F04385B006460F46154698
:103210009846900000F072FD60B18146602000F099
:103220006DFD044610B1C0F8309004E0484600F04F
:10323000B7FD00E000248CB10023039302940D9BA2
:1032400001930C9B009343462A4639463046FFF7CC
:10325000BBFE2046FFF734FF012001E04FF0FF30B6
:1032600005B0BDE8F08300BF00B583B0124B0193F9
:1032700000230093802211491148FFF7C3FF012862
:1032800001D100F0DBFB012813D14FF0A00383F341
:103290001188BFF36F8FBFF34F8F4FF0FF32094B91
:1032A0001A600122084B1A600022084B1A6002F0D3
:1032B00015FA03B05DF804FB9C060002706E000076
:1032C00095350000A4060002B8050002A006000221
:1032D000024A136801331360704700BF780600028A
:1032E000014B1868704700BFA0060002F8B5374BC5
:1032F0001B68002B5CD1364B1E6801361E605EB920
:10330000344A1168344B186810601960334A1368E6
:1033100001331360FFF734FE314B1B689E4203D22A
:1033200000273AE0012700E000272A4B1B681B68B2
:103330000BB9012300E0002323B14FF0FF32284BEB
:103340001A602AE0234B1B68DB68DC6863689E42D6
:1033500002D2234A136020E0251D284600F0FCFA23
:10336000A36A1BB104F1180000F0F6FAE36A012227
:1033700002FA03F11B4802680A43026003EB83036D
:103380009A0029461848104400F0C0FAE26A174B28
:103390001B68DB6A9A42C5D2C7E7144B1B68DB6A1D
:1033A00003EB83039A00104B9B58012B06D806E0D1
:1033B0000F4A136801331360002700E001270D4B0B
:1033C0001B6803B101273846F8BD00BF780600022C
:1033D000A0060002B4050002D0050002B0050002FC
:1033E000A4060002E8060002D805000284060002D6
:1033F000D4050002EC06000238B502F003F92D4BAB
:103400001A68013A1A601B68002B4CD12A4B1B68C2
:1034100033BB00244AE0294BDB68DC6804F1180068
:1034200000F09AFA251D284600F096FAE36A012278
:1034300002FA03F1224802680A43026003EB8303A5
:103440009A0029461F48104400F060FAE26A1E4BB9
:103450001B68DB6A9A4204D301221C4B1A6000E00D
:103460000024164B1B68002BD5D10CB1FFF788FD4B
:10347000174B1C6854B1FFF739FF10B10122134BF1
:103480001A60013CF7D10022114B1A600F4B1B68E8
:103490005BB14FF080520F4B1A60BFF34F8FBFF3F9
:1034A0006F8F012402E0002400E0002402F0BAF84B
:1034B000204638BD78060002800600028806000219
:1034C000E8060002D805000284060002EC060002AD
:1034D000D405000204ED00E038B505460C46FFF7C0
:1034E000F7FE154B18682A681319904205D29A42C4
:1034F00009D9984209D300220CE09A4207D8984291
:1035000007D3002206E0002204E0012202E00122AB
:1035100000E001222B601AB10021181AFFF726FEE5
:10352000FFF76AFF38B94FF08052044B1A60BFF3BF
:103530004F8FBFF36F8F38BDA006000204ED00E08F
:1035400010B51BE0FFF7C4FE0F4B1C68FFF754FFDC
:10355000A4B102F057F80C4BDB68DC68201D00F0CA
:10356000FBF90A4A1368013B1360094A1368013BDF
:10357000136002F057F82046FFF71CFD044B1B6850
:10358000002BDFD110BD00BFBC0500028006000289
:103590007C06000208B5FFF7D3FF074B1B68012B21
:1035A00007D94FF08052054B1A60BFF34F8FBFF31E
:1035B0006F8FFEF7D5F9EEE7D805000204ED00E0C5
:1035C00038B51E4B1B681BB101221D4B1A6038BD5C
:1035D00000221B4B1A601B4B1A6812681B681B6B7E
:1035E0009A4205D8174B186819683431FEF7C6F9A6
:1035F000154B1B68B3FA83F3DBB2C3F11F03134D02
:103600009900CA18900028444268546844601944DC
:103610008A0008322A44944205D1606803EB830192
:103620008A002A44506003EB83039A00074B1A4434
:103630005368DA68034B1A6038BD00BF7806000291
:10364000EC06000284060002E8060002D80500022B
:1036500010B50C46044B1968183100F063F90121CC
:103660002046FFF783FD10BD8406000238B50D46E5
:103670001446064B1968183100F048F90CB14FF0A8
:10368000FF3521462846FFF771FD38BD840600024C
:1036900038B5C368DC6804F11805284600F05CF909
:1036A000134B1B68A3B9251D284600F055F9E36AA2
:1036B000012202FA03F10F4802680A43026003EB99
:1036C00083039A0029460C48104400F01FF903E0D8
:1036D00029460A4800F01AF9E26A094B1B68DB6ABE
:1036E0009A4203D90120074B186038BD002038BD2D
:1036F00078060002E8060002D805000288060002EB
:1037000084060002EC060002034B1B680360034BB7
:103710001B684360704700BFB0050002A0060002AE
:1037200038B504460D4601F06DFF114B1A682B6841
:10373000B3F1FF3F13D020680E490968884202D0D8
:1037400061688A420DD26168501A83420BD98A1A85
:1037500013442B602046FFF7D7FF002404E0002429
:1037600002E0012400E0012401F05CFF204638BDA6
:10377000A0060002B00500020122014B1A6070474A
:10378000EC060002054B1B6823B1054B1B681BB9F7
:10379000022070470120704700207047B8050002E2
:1037A0007806000200284AD038B50246C36A244988
:1037B0000968C96A8B4241D28169002905DB204929
:1037C0000968C96AC1F108018161506903EB83038B
:1037D00099001C4B1944884201D1012300E00023C9
:1037E00043B31446151D284600F0B6F870B9E36AD5
:1037F00003EB83018A0013498A583AB9012202FA7D
:1038000003F311490A6822EA03030B600C4B1B689F
:10381000DB6AE362012202FA03F10B4802680A4301
:10382000026003EB83039A0029460648104400F027
:103830006DF838BD024B1B68DB6AD36238BD704738
:1038400084060002D8050002E8060002002834D0F1
:1038500038B50346426D013A4265C06A196D884227
:103860002DD072BB1C461D1D284600F075F870B99E
:10387000E36A03EB83018A0013498A583AB90122AB
:1038800002FA03F311490A6822EA03030B60236D6D
:10389000E362C3F10802A261012404FA03F00B49B8
:1038A0000A6802430A6003EB83039A00294606482C
:1038B000104400F02BF8204638BD0020704700204F
:1038C00038BD002038BD00BFD8050002E806000260
:1038D000054B1B6823B1044B1A68536D01335365C4
:1038E000014B1868704700BF8406000200F108030E
:1038F00043604FF0FF328260C360036100230360C6
:10390000704700BF00230361704700BF43684B60EE
:103910009A688A609A685160996008610368013307
:103920000360704730B40D68B5F1FF3F01D1026903
:1039300007E000F1080200E01A4653681C68A5423F
:10394000FAD253684B6099608A60516008610368DD
:103950000133036030BC704703694268816891603D
:103960008268416851605A68904201D182685A6009
:10397000002202611868013818607047064B1A6807
:103980001368B3FA83F35B09036013B9D36818684B
:1039900070470020704700BFF006000208B5416084
:1039A000006191420AD8D21A83699A4211D2011D4C
:1039B0000A4B1868FFF7B6FF002008BD9A4201D2F3
:1039C000994208D2011D064B1868FFF7ABFF002093
:1039D00008BD012008BD012008BD00BF240700026A
:1039E000F006000238B501F00DFE0E4B1B68B3B9AE
:1039F0000D4D2846FFF77AFF0C4C2046FFF776FF67
:103A00000B4B1D600B4B1C6000220C21022000F0B0
:103A1000D1FA044B186010B1074900F059FC01F0CD
:103A200001FE38BD20070002F4060002080700026C
:103A3000F006000224070002786E000000B583B093
:103A4000FFF7D0FF084B1B6853B1084B01930223CB
:103A500000930023502206490648FFF7D3FB00E0FD
:103A6000002003B05DF804FB2007000228070002D5
:103A7000806E0000B93C000030B585B0134C25685D
:103A800005B31C46019102920390052913DCFFF750
:103A900079FE022807D10023089A01A90B48006883
:103AA00000F0A2FA0FE000231A4601A907480068B7
:103AB00000F09AFA07E00023224601A9284600F008
:103AC0002FFB00E0002005B030BD00BF2007000242
:103AD00070B582B01FE0DB681E68DC68251D2846D3
:103AE000FFF73AFF636A20469847E369012B12D13A
:103AF000A36933449E4207D26360246129460C4B7C
:103B00001868FFF70FFF06E0002100910B463246D0
:103B10002046FFF7B1FF064B1B681A68002ADAD16E
:103B2000044A106802490860136002B070BD00BF0B
:103B3000F00600022407000238B50546FFF7D0FB67
:103B40000446074B1B68984204D2FFF7C1FF0123CC
:103B50002B6001E000232B60014B1C60204638BD28
:103B60001C07000270B582B005460E460E4B1B685E
:103B7000DB68DC68201DFFF7EFFEE369012B0ED147
:103B8000A1692B46324629442046FFF707FF30B192
:103B9000002100910B462A462046FFF76DFF636A1D
:103BA0002046984702B070BDF006000270B582B0A2
:103BB00006460C46FFF78CFB01A8FFF7BDFF019BF3
:103BC0001BBB054644B9B04206D3FFF715FC294696
:103BD0003046FFF7C7FF1AE02CB10E4B1B681C687C
:103BE000B4FA84F464092246711B0B4B186800F088
:103BF00083FBFFF701FC50B94FF08052074B1A606E
:103C0000BFF34F8FBFF36F8F01E0FFF7F5FB02B0FB
:103C100070BD00BF240700022007000204ED00E091
:103C200030B587B03AE0039B002B37DB059C636916
:103C300013B1201DFFF790FE02A8FFF77DFF039B45
:103C4000092B2BD8DFE803F00505052A1E270505FB
:103C50002A1E0499A5690B46024629442046FFF70F
:103C60009DFED8B1636A20469847E369012B15D1C0
:103C7000A269002100910B46049802442046FFF7F8
:103C8000FBFE0BE00499A161034602460144204675
:103C9000FFF784FE02E0204600F082F800231A4677
:103CA00003A90448006800F073FA0028BBD107B0EC
:103CB00030BD00BF2007000200B583B001A8FFF7A8
:103CC0005DFE0199FFF772FFFFF7AAFFF6E700BF5D
:103CD000074B23F00703074A136000205060064A91
:103CE00041F268715160106059601A60704700BFFE
:103CF0003C0700022C070002A41E000270B5044617
:103D0000FFF7E6FA224B1B6823B9FFF7E1FF012218
:103D10001F4B1A6034B1083414F0070F02D024F09E
:103D200007040834621E41F266739A4228D8194982
:103D30000B6801E0194613465A68944202D91A6882
:103D4000002AF7D1144A93421CD00D6808351A682E
:103D50000A605A68121B102A0CD91E1972605C6026
:103D600074680C4900E011460A6850688442FAD829
:103D700032600E605968094A13685B1A136002E0EA
:103D8000002500E00025FFF737FB284670BD00BF87
:103D9000AC1E00022C070002A41E00029C000002C0
:103DA000D0B170B50546A0F10806FFF791FA55F8B5
:103DB000044C0A4A00E01A46136859688C42FAD843
:103DC00045F8083C166055F8043C054A11680B4458
:103DD0001360FFF711FB70BD704700BF2C07000296
:103DE0009C00000210B5044601F00CFCA26BE36BD2
:103DF0009A4201D1012400E0002401F013FC204686
:103E000010BD00BF10B5044601F0FCFBA36B0BB95D
:103E1000012400E0002401F005FC204610BD00BF95
:103E200070B504461646856B026C3AB9036843BB0D
:103E30004068FFF70BFD0023636029E06EB98068DE
:103E400002F042FBA268236C1344A36062689342B1
:103E500019D32368A36000201AE0C06802F034FB85
:103E6000236C5B42E2681A44E26021688A4202D213
:103E700062681344E360022E07D145B1013D002082
:103E800006E0002004E0002002E0002000E0002026
:103E90000135A56370BD00BF026C72B110B5C36877
:103EA0001344C3604468A34201D30368C3600C4653
:103EB000C168204602F008FB10BD704738B50546C2
:103EC00001F0A0FB95F8454064B20AE06B6A53B17B
:103ED00005F12400FFF7DCFB08B1FFF74DFC013CC6
:103EE00064B2002CF2DCFF2385F8453001F09AFB28
:103EF00001F088FB95F8444064B20AE02B6953B1A5
:103F000005F11000FFF7C4FB08B1FFF735FC013CD9
:103F100064B2002CF2DCFF2385F8443001F082FB10
:103F200038BD00BF38B504460D4601F06BFB216873
:103F3000E26B236C03FB021060600020A063A160B1
:103F4000013A02FB0313E360FF2384F8443084F852
:103F500045307DB92369ABB104F11000FFF798FB40
:103F600080B14FF08052094B1A60BFF34F8FBFF3FF
:103F70006F8F07E004F11000FFF7B8FC04F1240094
:103F8000FFF7B4FC01F04EFB012038BD04ED00E06A
:103F900038B51D46049C0B4609B9246000E0226038
:103FA000E063236401212046FFF7BCFF84F84C50F6
:103FB00038BD00BFF0B583B0054617460E4611B1B7
:103FC00000FB01F000E000205030FFF797FE0446B0
:103FD00038B100903B4600F1500231462846FFF7C9
:103FE000D7FF204603B0F0BDF0B585B004460F46BC
:103FF00001921E46002501F005FBA26BE36B9A427D
:1040000001D3022E21D1324639462046FFF708FF60
:10401000636A6BB104F12400FFF73AFB88B14FF0FB
:104020008052324B1A60BFF34F8FBFF36F8F08E09F
:1040300038B14FF080522D4B1A60BFF34F8FBFF352
:104040006F8F01F0EFFA01204EE0019B1BB901F0E8
:10405000E9FA002048E01DB902A8FFF755FB012549
:1040600001F0E0FAFFF734F901F0CCFA94F84430AB
:104070005BB2B3F1FF3F02D1002384F8443094F8DF
:1040800045305BB2B3F1FF3F02D1002384F84530E5
:1040900001F0C8FA01A902A8FFF742FBF0B92046D7
:1040A000FFF7A0FEA0B1019904F11000FFF7D0FACC
:1040B0002046FFF703FFFFF79FF900289BD14FF041
:1040C00080520A4B1A60BFF34F8FBFF36F8F92E796
:1040D0002046FFF7F3FEFFF78FF98CE72046FFF746
:1040E000EDFEFFF789F9002005B0F0BD04ED00E01A
:1040F00048B108B5002141600160C1600B460A4625
:10410000FFF772FF08BD704710B50246002101207D
:10411000FFF750FF0446FFF7EBFF204610BD00BF3E
:10412000F8B5EFF311864FF0A00484F31188BFF3C4
:104130006F8FBFF34F8F856BC46BA54201D3022BEA
:104140001BD11746054690F8454064B21A46FFF762
:1041500067FEB4F1FF3F0AD16B6A83B105F1240019
:10416000FFF796FA68B177B1012038600CE00134AE
:1041700064B285F84540012006E0002004E00120FB
:1041800002E0012000E0012086F31188F8BD00BFA5
:104190002DE9F04184B00446884601921E46002570
:1041A00001F030FAA76B87B3E56841462046FFF778
:1041B00073FEB6B97B1EA363236813B9FFF788FBB0
:1041C00060602369EBB104F11000FFF761FAC0B140
:1041D0004FF080523D4B1A60BFF34F8FBFF36F8F8C
:1041E0000FE0E560636A63B104F12400FFF750FA61
:1041F00038B14FF08052354B1A60BFF34F8FBFF389
:104200006F8F01F00FFA01205DE0019B1BB901F0F7
:1042100009FA002057E01DB902A8FFF775FA012539
:1042200001F000FAFFF754F801F0ECF994F844308B
:104230005BB2B3F1FF3F02D1002384F8443094F81D
:1042400045305BB2B3F1FF3F02D1002384F8453023
:1042500001F0E8F901A902A8FFF762FA38BB20468D
:10426000FFF7D0FDE8B1236833B901F0CBF96068FE
:10427000FFF798FA01F0D6F9019904F12400FFF74D
:10428000E7F92046FFF71AFEFFF7B6F8002887D1B6
:104290004FF080520D4B1A60BFF34F8FBFF36F8FFB
:1042A0007EE72046FFF70AFEFFF7A6F878E72046EC
:1042B000FFF704FEFFF7A0F82046FFF7A3FD002854
:1042C0003FF46EAF002004B0BDE8F08104ED00E0E3
:1042D00000230BE0074A52F8332032B9054A42F86E
:1042E000331002EBC303586070470133092BF1D937
:1042F000704700BF7C28000270B504460D46164684
:1043000001F080F994F844305BB2B3F1FF3F02D181
:10431000002384F8443094F845305BB2B3F1FF3F9A
:1043200002D1002384F8453001F07CF9A36B2BB94E
:104330003246294604F12400FFF798F92046FFF79A
:10434000BDFD70BD08B5084B012283F86C204FF00D
:10435000FF329A6700236FF07F024FF4B061184676
:1043600001F0A2FB08BD00BFE8260002704700BFB5
:1043700038B5124B93F86C30012B1DD00446014622
:104380000F48FEF7DDF8B8B10C4B93F86C30022BF8
:1043900004D10122094B83F86C2038BD074D094B2D
:1043A00095F86E20B5F870104FF4B06000F06AFD1B
:1043B000022385F86C30AC6738BD00BFE8260002E8
:1043C000602700020000040570B586B004460D4663
:1043D0000021049102F5C062029208228DF80C209F
:1043E000684602F073F8A3781A0263788DF80130FA
:1043F00063789B1800D5FF331B128DF80230E378E9
:104400008DF80330B24B93F86C30012B00F05E81D5
:10441000A26802F07F02AE4991F86D108A4240F026
:104420005581802D06D1AA4B022283F86C200A22E6
:104430009A674BE1042B06D1602D04D10122A44BD5
:1044400083F86C2042E1052B1DD1402D1BD1A04BE0
:10445000586F40B12278C2F38102C2F10402211DDB
:1044600002F032F80AE09A494FF0006391F86E20AA
:10447000B1F870104FF4B06000F004FD0122944BCD
:1044800083F86C2022E1082B3BD1602D39D1904A72
:10449000B2F87C30B2F87E001B1A07331BB2DA4345
:1044A000D20F002B00DA0023894991F880105B00BD
:1044B00043EA011313438DF8003000230BE001336E
:1044C00083494C6F551CA1F87C50A15C06AA1A4484
:1044D00002F8181CDBB27E4AB2F87C20904201D967
:1044E000062BECD96946002001F0D6FC784A92F8F8
:1044F0008030B3FA83F35B0982F880300A23936734
:10450000E4E0082B55D1202D53D12278C2F30012BC
:104510006F4B93F880108A420DD11C466D4B94F876
:104520006E20B4F870104FF4B06000F0ABFC0223C2
:1045300084F86C30CAE0664AB2F87C30B2F87E008B
:10454000834204D30122624B83F86C20BEE01B1A25
:1045500007331BB2DA43D20F002B00DA00235B00D3
:1045600043EA011313438DF8003000230BE00133BD
:1045700057494C6F551CA1F87C50A15C06AA1A44FF
:1045800002F8181CDBB2524AB2F87C20904201D9E2
:10459000062BECD96946002001F07EFC4C4A92F8CB
:1045A0008030B3FA83F35B0982F880300A23936783
:1045B0008CE0062B35D1402D33D1237813F0020F38
:1045C0000CD0C3F38102424DC2F10402211D686F79
:1045D00001F07AFF012385F86C301EE013F0010F23
:1045E00008D063683A4AB2F87E20934202D2384A31
:1045F000A2F87E30364C94F880301B0143F0600303
:1046000006A901F8183D002001F046FC94F880301E
:10461000B3FA83F35B0984F880300A222C4B9A6743
:1046200054E0062B52D1002D50D12678C6F300124B
:10463000274B93F880309A420DD1254C254B94F8A6
:104640006E20B4F870104FF4B06000F01BFC022331
:1046500084F86C3037E06FEA660606F00706002340
:104660000FE01B49B1F87C20B1F87E108A420CD2D1
:104670001749486F551CA1F87C500133E15C815407
:10468000DBB2B342EDD3002200E00122237813F025
:10469000010F00D122B101220D4B83F86C2012E0F2
:1046A0000B4C94F880301B0143F0600306A901F81D
:1046B000183D002001F0F0FB94F88030B3FA83F34A
:1046C0005B0984F880300A22014B9A6706B070BDFE
:1046D000E82600020000030508B513460A46014615
:1046E0004FF4B06000F0CEFB0122024B83F884202F
:1046F00008BD00BFE8260002034B012283F8842096
:104700000022C3F88C207047E826000208B5FFF7A6
:10471000F3FF08BD0C4B93F88430052B12D910B56C
:1047200001460A48FDF70CFF58B1074C4FF00062F4
:1047300094F88810B4F88600FFF7CEFF012384F8C0
:10474000843010BD704700BFE826000284270002B5
:10475000F0B587B004460D4600210491A14B93F8B3
:10476000303003F5B063029308228DF80C206846C0
:1047700001F0ACFEA3781A0263788DF801306378FB
:104780009B1800D5FF331B128DF80230E3788DF8AB
:104790000330802D04D10122924B83F884209CE1C8
:1047A000904B93F88430012B40F0B3808D4B002167
:1047B000A3F890106278A07802EB0022A3F886207C
:1047C000E27883F8882083F898100A22C3F89C20A6
:1047D000202D64D10221204600F074FB002800F057
:1047E0007C81227812F0020F22D1C27812F0300FB1
:1047F00014D07C4AC2F89400082382F8843006ACB6
:10480000602304F8183D042200210DEB020001F0A2
:104810005DFE2146002001F03FFB5EE16378A07859
:1048200003EB0020704AE17880B2FFF755FF54E1B6
:10483000C27812F0300F28D160228DF80020E27883
:10484000214600F001FBB0B10422A1180DEB0200DB
:1048500001F03AFE6946002001F01EFB614BD3F8DF
:104860008C30002B00F039815E4A92F88810B2F843
:104870008600984731E16378A07803EB00205A4A1C
:10488000E17880B2FFF728FF27E16378A07803EB97
:104890000020554AE17880B2FFF71EFF1DE1402D50
:1048A0002DD10121204600F00DFB0146002800F02B
:1048B0001481C378112B0FD14A4B062283F8842030
:1048C000C3F8940041238DF80030038901936946B1
:1048D000002001F0E1FA00E103F00703C3F1040353
:1048E0009B0043F0430306AD05F8183DE2782846E7
:1048F00000F08EFA2946002001F0CEFAEDE0637850
:10490000A07803EB0020384AE17880B2FFF7E4FE9C
:10491000E3E0062B6CD1602D6AD1324B0A22C3F83A
:104920009C20B3F886008DF80100020A8DF8022061
:1049300093F888108DF803102278C2F3001293F8D0
:1049400098309A424AD1274CD4F894301889B4F858
:1049500090300721C01AFDF797FE0546C6B2D4F87D
:1049600094301B89B4F890209B1A072B05DD94F82E
:1049700098301B018DF800300DE01A4A92F898101B
:10498000C6F1070343EA011343F001038DF8003039
:10499000012382F88430072200210DF1010001F08B
:1049A00095FD104CD4F894305968B4F89030EAB2C0
:1049B00019440DF1010001F087FDB4F89030334443
:1049C000A4F890306946002001F066FA94F8983017
:1049D000B3FA83F35B0984F898307EE0034AFFF76B
:1049E0007BFE7AE0E82600020000010600000305D5
:1049F000082B69D1002D67D1394B0A22C3F89C20BE
:104A0000B3F886008DF80100020A8DF8022093F8B1
:104A100088108DF803102278C2F3001593F89830AF
:104A20009D424DD112F0010F03D001222C4B83F88F
:104A3000842025786FEA650505F00705284BB3F853
:104A400090607719D3F894301A89974225DC58681A
:104A50002A46611C304401F037FD214CB4F89030F7
:104A60001D44A4F8905094F898301B0143F02003A3
:104A700006AD05F8183D072200210DF1010001F0F7
:104A800025FD2946002001F007FA94F89830B3FA82
:104A900083F35B0984F8983002E0124AFFF71CFEAA
:104AA0000F4B93F88430012B17D10D4BD3F88C307A
:104AB0009BB10B4A92F88810B2F8860098470CE038
:104AC000094AFFF709FE08E06378A07803EB0020AD
:104AD000064AE17880B2FFF7FFFD07B0F0BD00BFE6
:104AE000E826000205000305000003050000060695
:104AF000C37813F0C00F04D083788B4206D2002015
:104B000070478378994203D0002070470120704796
:104B1000012070472DE9F04105460E46002421464C
:104B2000274617E004EB440293001A4AD35AAB42DB
:104B30000ED104EB44029300164A02EB03083146FF
:104B40004046FFF7D5FF08B9012101E047460121A2
:104B50000134A4B2172CE5D9C1B9002412E004EB4A
:104B6000440293000C4AD35A9D420AD104EB4403F9
:104B70004FEA8308904431464046FFF7B9FF00B141
:104B800047460134FCF796FCA042E8D83846BDE819
:104B9000F08100BF886E00000000000208B5094BDC
:104BA000B3F848330848C36200220621323001F0CE
:104BB0008DFC00236FF07F024FF4E061184600F097
:104BC00073FF08BDA8000002E82600020B4B40F668
:104BD0009802A3F84A23052183F84C13A3F84E2327
:104BE000032183F85013A3F85223042283F854239B
:104BF0004FF47A72A3F84823704700BFA800000260
:104C000030B587B0044601461B48FDF799FCB0B1AA
:104C10001A4BB3F848231A4BDA620025049593F82F
:104C2000303003F5E063029300F0E0F98DF8000006
:104C300001238DF80C306946284601F02DF9002338
:104C400016E003F118020E4901EB4202508803F10D
:104C5000D2020A4901EB82025288904206D203F145
:104C60001802074901EB42022044508001339BB2F5
:104C7000022BE6D907B030BD14270002A8000002BD
:104C8000E8260002036913BB836823F07F02B2F5B4
:104C9000E06F1CD1027B012A19D110B403F07F020E
:104CA000002311E01C4603F1D201094800EB810109
:104CB00009798A4206D11834064B03EB44040023D9
:104CC000638003E001339BB2022BEBD910BC704729
:104CD000A8000002E826000210B4002319E01C46D8
:104CE00003F1D2020D4901EB8202127982420ED108
:104CF00003F118020A4B03EB42035B88D23401EB49
:104D000084046088834234BF0020012004E0013322
:104D10009BB2022BE3D9002010BC7047A800000210
:104D2000E82600020369EBB9037B082B1DD18368D9
:104D300023F07F03B3F5C06F02D0B3F5B06F17D186
:104D4000027802F0E003202B15D0602B15D0B3B110
:104D5000202B16D0402B16D0602B16D0802A16D1CF
:104D6000802070474FF6FE7070474FF6FE70704718
:104D70004FF6FE707047202070476020704700207B
:104D800070472020704740207047602070474FF6E2
:104D9000FF70704708B5084B93F8301000234FF0B0
:104DA000FF3201F5C061184600F07EFEFFF7CAFA37
:104DB000FFF7A2FC08BD00BFE826000238B5054693
:104DC000FFF7B0FF4FF6FE7398421ED0AA6802F0BC
:104DD0007F040E4B93F830309C4209D122F07F01C2
:104DE000B1F5C06F04D101462846FFF7B1FC38BDCC
:104DF0009C420AD022F07F03B3F5B06F05D102F0D8
:104E00007F0201462846FFF7DFFA38BDE826000298
:104E100008B572B6CB7813F0C00F0CD012B98B78EE
:104E200043600EE04968013A03F0070303FB02F315
:104E3000CB5C436005E003F007024968043001F0F1
:104E400043FB62B608BD00BF10B572B6C37813F05D
:104E5000C00F0CD09AB14468501E03F007031A46E5
:104E6000043103FB004001F02FFB012008E003F0B8
:104E700007020431406801F027FB012000E0002018
:104E800062B610BD30B587B0002504950C4C94F87F
:104E900030402044029008208DF80C0080208DF8CE
:104EA00000008DF80110090A8DF802108DF803201A
:104EB00001936946284600F0EFFF07B030BD00BF00
:104EC000E826000270B504460E464378807803EB6E
:104ED0000020E17880B2FFF71DFE0546F0B1837A2D
:104EE000334226D1012E0CD16378A17803EB012146
:104EF000114BE27889B24FF4B060FFF7C3FF002591
:104F000017E06378A17803EB01210C4BE27889B2BA
:104F10004FF4B060FFF7B6FF00250AE06378A17890
:104F200003EB0121064BE27889B24FF4B060FFF742
:104F3000A9FF284670BD00BF01000106020001065E
:104F40000000020610B586B00D4C7F2323700023AD
:104F50004FF0FF321946184600F0A6FD00200490DD
:104F600094F8303003F5E063029380238DF800302D
:104F700001238DF80C30694600F08EFF06B010BD9D
:104F8000E82600020822024BA3F84023704700BF26
:104F9000A8000002704700BF08B583681BBB037BF5
:104FA000012B20D94378104A92F83020934200D048
:104FB000CBB90378802B13D004D8012B05D0022B5A
:104FC00007D008BD822B08D908BD0522064B1A70F0
:104FD00008BD0422044B1A7008BDFDF7EDFC08BDA6
:104FE0007F22014B1A7008BDE8260002014B187899
:104FF000704700BFE8260002014B1870704700BFE1
:10500000E826000210B5002414E004F5C050002189
:1050100080B2FFF77FFD60B14168124B04F10E02D0
:10502000098A43F8221004F11C0203EB4203002218
:105030009A800134002CE8DD00240FE004F5A05034
:10504000002180B2FFF766FD38B1416800234FF0C0
:10505000FF320968184600F027FD0134062CEDDD0B
:1050600010BD00BFE8260002F0B400271CE01F4C72
:10507000BA00D3199D002B46254405F58E651C4EBC
:105080001E440FCE0FC533682B6007F1240304EBD9
:1050900043140434174D05EB47150FCD0FC495E8A5
:1050A0000F0084E80F000137002FE0DD002618E034
:1050B0000E4C06F16B0304EBC3030F4A02EBC6026E
:1050C00092E8030083E8030073011C4404F5647450
:1050D0000A4D1D440FCD0FC495E80F0084E80F0062
:1050E0000136062EE4DDF0BC704700BFA8000002C8
:1050F00000700000E06F0000A86F00001470000056
:105100002DE9F04F87B00546FFF770FF052840F006
:10511000ED800024E7E0A6B206F5C050002180B281
:10512000FFF7F8FC034620B9C27812F0C00F40F038
:10513000D9805F6804F11C036E4A02EB4303B3F9A4
:105140000430002B06DD04F11C026A4901EB420227
:105150005B1B93803B68002BC0F2C48004F10E08F7
:10516000DFF89091294609EB8800FDF7E9F959F835
:105170002830002B00F3B68004F11C0309EB430335
:10518000B3F90430002B00F3AD80398A49F82810B8
:10519000BA6804F11C0109EB41039A80082200213E
:1051A000684601F093F906F5D056B6B200213046B4
:1051B000FFF7B0FC824648B94F4B002231464FF40E
:1051C000C060FFF75FFE4FF0000B7FE0D0F8049067
:1051D0000026B34675E0B04609EB8603DB78BBB129
:1051E0005B44082B16DC09EB8603997839F8260016
:1051F000FFF790FC824678B909EB86023E4B927825
:1052000039F826104FF4C060FFF73CFE012204E09D
:10521000012202E0012200E0002209EB8803D97894
:105220009AF8033003F0070399420AD909EB880280
:10523000324B927839F828104FF4C060FFF722FE05
:105240000122002A42D19AF8033013F0C00F26D071
:1052500009EB880292783AB901220AF102010DEBBA
:105260000B0001F031F923E09AF802108A4207D9C5
:10527000214B39F828104FF4C060FFF703FE17E008
:10528000DAF8041003F00700531E09EB8802D27805
:1052900003FB00110DEB0B0001F016F908E009EB20
:1052A0008803DA78DAF804100DEB0B0001F00CF942
:1052B00009EB880898F803309B445FFA8BFB0136B2
:1052C000F6B2072E02D8BBF1080F84D1BBF1000F54
:1052D00008D0002004908DF80CB03B68029369461A
:1052E00000F0DAFD0134002C7FF715AF07B0BDE800
:1052F000F08F00BFE8260002000002060000010651
:105300002DE9F04F83B08346FFF770FE052802D1E8
:105310000123019301E000230193DBF810300BB16E
:1053200000230193019B002B40F0D680DAE01FFAA6
:105330008AF4002104F5A050FFF7ECFB814630B160
:10534000C37813F0C00F05D0019B009304E0002345
:10535000009301E000230093009B43B1D9F804308F
:105360001A68DBF808309A4201D000230093009BB2
:1053700083B104F5B05400212046FFF7CBFB8146F2
:1053800040B95A4B002221464FF4C060FFF77AFD26
:1053900000230093009B002B00F09980D9F8047043
:1053A00000252C4690E02E4607EB8503DB78E118BC
:1053B0009BF80C20914202DCDDF8008001E04FF008
:1053C00000080BB94FF0000837F8260040B907EB8A
:1053D0008602927822B91C44E4B24FF0000817E02C
:1053E00007EB86039978FFF795FB814680B907EBB9
:1053F00086083E4B98F8022037F826104FF4C0601C
:10540000FFF740FD98F803301C44E4B24FF0000869
:10541000B8F1000F56D007EB8603DA7899F803301D
:1054200003F007039A4210D907EB8608304B98F82F
:10543000022037F826104FF4C060FFF723FD98F8DC
:1054400003301C44E4B24FF00008B8F1000F39D02B
:1054500099F8030010F0C00F26D007EB86039A7866
:105460003AB9244B37F826104FF4C060FFF70AFD15
:1054700023E099F802309A4207D91C4B37F82610DE
:105480004FF4C060FFF7FEFC17E0D9F8043000F0DD
:10549000070E501E07EB8602D2780BEB040100FBCF
:1054A0000E3001F011F808E007EB8603DA780BEB19
:1054B0000401D9F8040001F007F807EB8606F37839
:1054C0001C44E4B20135EDB2072D7FF66CAF0AF152
:1054D00001035FFA83FA01E04FF0000ABAF1060F08
:1054E0007FF625AF03B0BDE8F08F00BF00000206D5
:1054F000000001064100040608B504480823032201
:1055000001461438FDF730F808BD00BF3C27000203
:10551000836823F07F02802A14D1026992B900B512
:1055200083B003F07F038DF80630C388ADF80430F4
:10553000036802A941F8083D0348FDF71FF803B0CE
:105540005DF804FB704700BF2827000200B587B054
:1055500000230193039304930593094991F83010B4
:105560008031029108218DF80C10ADF806000092F0
:105570006946184600F090FC07B05DF804FB00BFD8
:10558000E82600024FF0A00383F31188BFF36F8F6A
:10559000BFF34F8FFEE700BF06480068006880F346
:1055A000088862B661B6BFF34F8FBFF36F8F00DF1D
:1055B00000BF000008ED00E04FF0807340F8043CAD
:1055C00021F0010140F8081C034B40F80C3C40F866
:1055D000202C4038704700BF85550000FFFFFFFFBB
:1055E000074B19680868B0E8F00F80F30988BFF32B
:1055F0006F8F4FF0000080F311884EF00D0E704752
:10560000840600024FF0A00383F31188BFF36F8F6D
:10561000BFF34F8F024A136801331360704700BF16
:10562000A0000002034A1368013B13600BB983F327
:1056300011887047A0000002FFFFFFFFFFFFFFFF80
:10564000EFF30980BFF36F8F0D4B1A6820E9F00F5D
:1056500010602DE908404FF0A00080F31188FDF79D
:10566000AFFF4FF0000080F31188BDE808401968D3
:105670000868B0E8F00F80F30988BFF36F8F7047B8
:105680008406000208B54FF0A00383F31188BFF32E
:105690006F8FBFF34F8FFDF729FE18B14FF0805287
:1056A000024B1A60002383F3118808BD04ED00E06B
:1056B000064B1B68064AA2FB03239B09013B054AD4
:1056C00013600722044B1A60704700BFCC28000209
:1056D000D34D621014E000E010E000E008B5094B83
:1056E0001A6842F078721A601A6842F060421A60D2
:1056F000FFF7DEFF0022044B1A60FFF74DFFFFF7B4
:1057000041FF00BF20ED00E0A00000020138C0F31F
:1057100047107047013800F01F00704708B5054B6F
:105720001B6813B1044A106898470122034B5A6260
:1057300008BD00BFD01E0002B01E000200400A409B
:1057400008B5054B1B6813B1044A506898470222FC
:10575000034B5A6208BD00BFD01E0002B01E0002FB
:1057600000400A4008B5054B1B6813B1044A906815
:1057700098470422034B5A6208BD00BFD01E0002A6
:10578000B01E000200400A4008B5054B1B6813B16B
:10579000044AD06898470822034B5A6208BD00BFEC
:1057A000D01E0002B01E000200400A4008B5054BA2
:1057B0001B6813B1044A106998471022034B5A62C0
:1057C00008BD00BFD01E0002B01E000200400A400B
:1057D00008B5054B1B6813B1044A5069984720224D
:1057E000034B5A6208BD00BFD01E0002B01E00026B
:1057F00000400A4008B5054B1B6813B1044A906984
:1058000098474022034B5A6208BD00BFD01E0002D9
:10581000B01E000200400A4008B5054B1B6813B1DA
:10582000044AD06998478022034B5A6208BD00BFE2
:10583000D01E0002B01E000200400A4038B1064BE4
:105840001A6B586B054B03EA0043D0187047024BA4
:10585000586BC0F38A00704700000F400000FF1F24
:1058600071B182B20E4B1A635A6B22F4FF5222F0CE
:105870001F025A635A6BC0F30C40104358637047C1
:10588000074A536B23F4FF5323F01F035363516BF9
:1058900041F6FC7303EA800008435063704700BF81
:1058A00000000F40B0F1005F07D1064B9A6AD86A3A
:1058B000054B03EA0043D0187047024BD86AC0F387
:1058C0008A00704700000F400000FF1FB1F1005F29
:1058D0000ED182B20F4B9A62DA6A22F4FF5222F0A2
:1058E0001F02DA62DA6AC0F30C401043D8627047D4
:1058F000084B4FF6FF729A62DA6A22F4FF5222F0E6
:105900001F02DA62D96A41F6FC7202EA800008439B
:10591000D862704700000F407F22074B5A62064B47
:105920001B6A13F4004FFAD1034B1862024B1B6A37
:1059300013F4004FFAD1704700000F40890041F086
:10594000FB01074B5962064B1B6A13F4004FFAD157
:10595000034B1862024B1B6A13F4004FFAD17047D5
:1059600000000F4010B50446FFF7D6FF044A536B02
:1059700043F40043536300212046FFF7DFFF10BDCF
:1059800000000F4010B50446FFF7C6FF044A536BF2
:1059900023F40043536300212046FFF7CFFF10BDDF
:1059A00000000F40002308E003F50071364A02EBC7
:1059B0008102002151600133DBB2002BF4D010B51D
:1059C000314C012384F83430214641F8383B182308
:1059D000402204F5C760FCF7C7FD1823082204F530
:1059E000CA6104F5E260FCF7BFFD00F0FFFB272071
:1059F00000F004FD272000F027FD272000F03AFDED
:105A00004B22224B1A60224BD3F84433591E214AB1
:105A1000914200D9204BDA00204B1B68B3FBF2F314
:105A2000013B03F03F0343F40C53184AD3600024B6
:105A3000C2F8804104E0601CC0B2FFF7A3FF01344C
:105A40001F2CF8DD4FF00062154B1A60154B8022B9
:105A50005A66C3F8A8201921612000F0CFFB2A2143
:105A6000622000F0CBFB08480123C82200F23C7101
:105A700000F5E560FCF778FD044A136823F0410364
:105A80001360002010BD00BFD81E000200000F40B0
:105A9000A80000027F841E0090D00300CC280002E2
:105AA00000E100E000800F402DE9F0410E4617466E
:105AB0001D4672B6002423E03D4B1A680123A34023
:105AC00013421BD0601CC0B2FFF726FFB5F1005F88
:105AD00014BF4FF000084FF001084046FFF7AEFE3C
:105AE000B0420BD14FF00050FFF7DCFEB84205D1B9
:105AF000304B5B6BC3F38033434505D00134E4B2D4
:105B00001F2CD9D9002100E00121002949D100230F
:105B100045E0274A12684FF0010808FA03F812EA34
:105B2000080F3AD10133DCB22046FFF72BFF2046A5
:105B3000FFF7F2FE29463846FFF7C8FE1D4BDA6A2A
:105B400042F44042DA6200225A63B5F1005F14BFAA
:105B5000002101213046FFF783FEB5F1005F05D13A
:105B6000144A536B43F48043536304E0114A536B6C
:105B700023F4804353634FF4A4520E4B9A630021E5
:105B80002046FFF7DBFE2046FFF7ECFE084A1368CD
:105B900043EA08031360012103E00133DBB21F2B4A
:105BA000B7D909B1002000E0202062B6BDE8F0813D
:105BB000D81E000200000F40264BD3F8003113F02E
:105BC000010F45D1244B93F83430002B40D000B561
:105BD00087B069462148FCF7F9FC002835D172B638
:105BE0000120FFF7CFFE0499B1F1005F14BF00213F
:105BF00001210298FFF734FE164B5B6B049AB2F159
:105C0000005F02D14FF4604201E04FF420421A439A
:105C1000104B5A639DF80C2042F4094242F0800276
:105C20009A63BDF80020DA63BDF802201A64BDF85B
:105C300004205A64BDF806209A6401210846FFF743
:105C40007DFE0120FFF78EFE62B607B05DF804FB13
:105C5000704700BF00000F40D81E0002E825000278
:105C60002DE9F04188B0414B1B690793079B202B1E
:105C700069D83E4BD3F84021D3F8447142EA074734
:105C80005EE00125A5403D4254D072B6601CC0B212
:105C9000FFF742FE002C46D0344B5B6B13F4804F71
:105CA00002D04FF0005000E0002004902F4EB36B64
:105CB00003F00F038DF80C30003018BF0120FFF700
:105CC000BDFD80460290F36BADF80030336CADF84B
:105CD0000230736CADF80430B36CADF8063000F0F0
:105CE00081F900F5C060804519D1049BBBB9009AC9
:105CF0001F4B9A4213D19DF80C30042B08D80EE0AC
:105D0000311D69441B48FCF739FC0136F6B200E04E
:105D100000269DF80C30043B9E42F1DB03E069460F
:105D20001548FCF72BFC27EA050762B614B90020DA
:105D3000FFF742FF0134E4B200E000241F2CA0D999
:105D4000002FFAD109E0094B5B6813F0800F04D0F3
:105D5000064A136823F001031360044A536823F0D2
:105D60001803536008B0BDE8F08100BF00000F4089
:105D700022FF5F0000260002102500020B4B5B682B
:105D800013F0800F0BD1094B5B6813F0200F08D183
:105D9000064B5B6813F0400F05D1002070470320CD
:105DA0007047042070470520704700BF00000F4077
:105DB00038B504460D46314B93F834306BB9152491
:105DC0005AE02046FFF7DAFF78B94FF080522C4BAB
:105DD0001A60BFF34F8FBFF36F8F2A4BD3F8003198
:105DE00013F0010FEDD1002400E02B24002C43D14F
:105DF00072B60120FFF7C6FD2969B1F1005F14BF3B
:105E000000210121A868FFF72BFD1E4B5B6B2A695F
:105E1000B2F1005F02D14FF4604201E04FF4204242
:105E20001A43184B5A632A7B42F4094242F080021B
:105E30009A632A88DA636A881A64AA885A64EA88A4
:105E40009A6401210846FFF779FD0120FFF78AFDDA
:105E500062B600220B4BD3F8003113F0010F05D0CE
:105E6000084B5B6813F0E00F02D103E0012201E070
:105E700001222B24002AEDD0204638BDD81E000276
:105E800004ED00E000000F4008B501460148FCF7B2
:105E90009DFB08BD0026000208B572B60248FCF75B
:105EA0006DFB62B608BD00BFE825000208B572B6FA
:105EB0000248FCF78BFB62B608BD00BF102500024C
:105EC00008B5094AB2F92437002B03DD1B1AA2F8E2
:105ED000243705E023B94FF6FF72034BA3F82427BC
:105EE0000020FFF769FE08BDD81E00022DE9F04131
:105EF0008AB006460C46154600F078F972B6B4F53D
:105F0000007F0AD003D8B4F5807F08D105E0B4F54E
:105F1000806F02D0B4F5805F01D1002000E00C203A
:105F20002F0B2B19013B4FEA1338002839D13223AC
:105F300005930697CDF81C8001A905A81B4B98472F
:105F4000019800282DD1342305930697CDF81C80A5
:105F5000174B1B68174AA2FB03239B09089301A94F
:105F600005A8124B98470198D8B932230593069794
:105F7000CDF81C8001A905A80C4B9847019880B961
:105F800033230593069507960894094B1B68094A25
:105F9000A2FB03239B09099301A905A8034B98477A
:105FA000019862B60AB0BDE8F08100BF05020003A7
:105FB000CC280002D34D621008B50948D0F8D4347B
:105FC000B3FA83F35B09C0F8D4344FF47C324FF456
:105FD000007100F54E70FFF789FF00B10C2008BD7D
:105FE000A8000002034B187810F0800F00D07F202B
:105FF000704700BF08F0030010B4002314E0441CF5
:10600000027883EA0223082213F4004F05D041F2FC
:10601000210080EA43039BB201E05B009BB2013A9E
:1060200012F0FF02F0D120460139E8D5184610BC25
:10603000704700BF10B54FF4CE711B48FFF7DCFF6F
:106040000446002307E0184A995C03F57C32127875
:10605000914205D10133B3F5D07FF4D3012300E0A1
:106060000023124AD2F8D424944200D00023BBB9B2
:106070004FF4D0710E48FCF78DFC0C480D4BC0F866
:1060800038330D4BC0F83C33C0F8D4444FF47C3265
:106090004FF4007100F54E70FFF728FF10B910BDE6
:1060A000002010BD054810BDE0030002A80000025A
:1060B00024710000FC7000000C7100000C0000084E
:1060C00010B5342400230C490C4A04E011F8010BEC
:1060D00002F8010B0133A342F8DB0948D0F8D4449D
:1060E0004FF4CE7100F54E70FFF786FF844201D168
:1060F000002010BD0E2010BD6CF103004C05000205
:10610000A800000208B54FF4B6724FF47C31034882
:1061100000F0DAF9FFF7D4FF08BD00BFE00300028A
:1061200008B50E2000F06AF90F2000F067F9102082
:1061300000F064F90B2000F061F90B2000F084F905
:106140000B2000F097F908BD10B5C0F3833000F1C3
:106150001C04204600F052F9204600F075F9204654
:1061600000F088F910BD00BF30B441F4805501F152
:10617000600300EBC3046560012440F8334002F182
:10618000A00340F8334004FA01F100EBC303596067
:10619000816DA24003239340DB43194094400C439C
:1061A0008465426D1340436530BC704738B5044682
:1061B0000D4600F03DF9B0FBF5F0636843F00413C1
:1061C0006360636843F0081363600023E364C4F80A
:1061D0000031C4F800024FF48053C4F804330123A3
:1061E000C4F8003303F50033236038BD08B500F070
:1061F0001FF9014B186008BDCC28000230B400F034
:106200000F03DB000009064D55F82040FF229A409D
:1062100024EA02029940114345F8201030BC70472F
:106220000080034010B400F01F04C009054970301D
:1062300051F820200123A34022EA030341F8203033
:1062400010BC70470080034038B504460D46B0F1DD
:10625000804F0DD14FF4806000F024F91B2000F036
:10626000CDF81B2000F0F0F81B2000F003F90CE043
:106270004FF4006000F016F91C2000F0BFF81C205D
:1062800000F0E2F81C2000F0F5F8002363662560BA
:1062900038BD00BF38B505460C4600F0C9F8B0FB64
:1062A000F4F000B901200138C0B22B6823F0FF03DD
:1062B0001843286038BD00BF10B50446036843F09A
:1062C00080430360036823F4807303600349FFF78E
:1062D000E1FF236823F48063236010BD20A1070041
:1062E000023150F8213023F07C731A4340F821200A
:1062F000704700BF023150F8213023F07C7323EA4D
:10630000020240F82120704700F03F0000FB01101E
:10631000704700BF10F0030002D0012802D004E053
:1063200003487047034B186870470020704700BF50
:10633000001BB700F870000008B5034BD3F8A000AD
:10634000FFF7E8FF08BD00BF0040074010B5054B50
:10635000D3F89841FFF7F0FF01462046FFF7D4FF3E
:1063600010BD00BF00400740094BD3F88030DBB2BE
:10637000012B05D013B1022B07D004E0054870476C
:10638000054B18687047002070470448704700BFED
:1063900000400740001BB700F8700000D8AC0700B1
:1063A00008B50C4BD3F88430DBB2032B0FD8DFE8F1
:1063B00003F00205080BFFF7D7FF08BDFFF7BCFF8E
:1063C00008BDFFF7C3FF08BD034B186808BD0020D8
:1063D00008BD00BF00400740F470000008B5064B40
:1063E000D3F8843013F0FF0F02D1FFF7BDFF08BDD3
:1063F000FFF7D6FF08BD00BF004007401F280AD99D
:106400000A49D1F8C8302038012202FA00F01843B6
:10641000C1F8C80070470549D1F8C430012202FA1A
:1064200000F01843C1F8C400704700BF00400740A7
:1064300008B5FFF7D3FF034BD3F8C030B0FBF3F040
:1064400008BD00BF004007401F2808D908498B6CD1
:106450002038012202FA00F018438864704704498A
:106460004B6C012202FA00F018434864704700BFE9
:10647000004007401F2809D909498B6C20380122A8
:1064800002FA00F023EA00008864704704494B6C6C
:10649000012202FA00F023EA00004864704700BFBE
:1064A00000400740074AD2F8083223F07E4323F029
:1064B000870320F07E4020F0870023EA0003C2F823
:1064C000083270470040074000F0DCB800F0F4B834
:1064D0000A4B034493F880309A0601D5303808E01F
:1064E0001A0701D5573804E0DB064CBF37384FF0A8
:1064F000FF308842A8BF4FF0FF307047387100006E
:106500002DE9F84F804615460346894629491C4621
:1065100014F8010BC8B10A1892F88020D20701D5EF
:106520002346F4E7302810D158789C1C00F0DF0295
:10653000582A06D135F010063AD1DC1C987810257F
:1065400008E0012635B9082504E00DB1002601E078
:106550002E460A250027BA46BB462946FFF7B8FF54
:1065600000280EDB05FB07073B0C05FB0A3ABAF5D2
:10657000803FBFB228BF4FF0010B14F8010B01267A
:10658000EBE7B9F1000F05D00EB1013C00E0444645
:10659000C9F80040BBF1000F06D0074B22221A6059
:1065A0004FF0FF30BDE8F88F47EA0A40BDE8F88FAA
:1065B0000126CFE738710000E0260002F7B50E464D
:1065C000074605461A48294611F8014B94B10319AC
:1065D00093F8803013F0010301D00D46F3E72B2C24
:1065E00006D02D2C0ABF4FF4007400240D4601E0A4
:1065F0000D461C4601A92846FFF782FF26B1019BE4
:106600009D4208BF3B463360A30508D540420028A1
:106610000CDD084B22221A604FF0004006E00028F3
:10662000BFBF044B22221A606FF0004003B0F0BDE0
:1066300038710000E02600020028B8BF40427047D1
:1066400040EA01039B0730B510D105460C462146B0
:1066500028460B6855F8042B04349A4206D1A2F15F
:10666000013323EA020313F0803FF0D010F8013B1E
:1066700011F8012B934201D0981A30BD002BF5D1AF
:10668000184630BD40EA0103DB0703460CD403463D
:10669000043A22BF51F804CB43F804CBB2F1040210
:1066A000F7D2043208BF7047013A24BF11F801CB7A
:1066B00003F801CBF8D87047034613F0030F0ED14F
:1066C00001F0FF0141EA012141EA0141043A24BFFE
:1066D00043F8041BB2F10402F9D202F10402013AB8
:1066E00024BF03F8011BFAE77047FFFF000000001A
:1066F000F86800000069000021130000010000009C
:1067000034690000386900006D13000025732073A0
:106710006F6C656E6F6964207374617465733A2081
:1067200025752025752C2063757272656E743A206C
:106730002569206D410A000053595354454D20539B
:1067400054415455533A0A00546F74616C20637578
:106750007272656E743A202575206D410A00000042
:10676000426F6F6D20526F7461746500426F6F6D80
:10677000204C696674000000426F6F6D20466F6C9C
:106780006400000047697665206D6F64756C652054
:106790006E616D6520617320616E20617267756D39
:1067A000656E742E0A000000626C000062660000D4
:1067B00062720000556E6B6E6F776E206D6F647540
:1067C0006C6520272573270A000000006D61786141
:1067D000000000006D696E61000000006D6178626C
:1067E000000000006D696E620000000061636300DC
:1067F00064656300696E766572740000556E6B6E39
:106800006F776E20706172616D65746572202725E7
:1068100073270A0057726F6E672074797065206F56
:106820006620617267756D656E74732E20417267A4
:10683000756D656E74732068617320746F20626576
:106840003A0A202020537472696E672C2073747288
:10685000696E6720616E6420696E74656765722E6B
:106860000A000000257320706172616D65746572A5
:10687000733A0A2020204D617820537065656420AA
:10688000413A2025750A2020204D696E20537065FD
:10689000656420413A2025750A2020204D6178202A
:1068A000537065656420423A2025750A2020204DEA
:1068B000696E20537065656420423A2025750A2070
:1068C0002020416363656C65726174696F6E3A2064
:1068D00025750A202020446563656C6572617469C2
:1068E0006F6E3A2025750A202020496E76657274F5
:1068F0003A2025750A0000007374617400000000DE
:10690000446973706C61797320746865207379735E
:1069100074656D2073746174757320696E666F722F
:106920006D6174696F6E2E0A55736167653A2073E5
:1069300074617400736574005365747320746865C2
:1069400020636F6E66696775726174696F6E73201C
:10695000666F72206F7574707574206D6F64756CDE
:1069600065732E0A55736167653A20736574203C20
:1069700022626C222F226266222F226272222F2232
:106980006274223E203C226D617861222F226D616B
:106990007862222F226D696E61222F226D696E62EC
:1069A000222F22616363222F22646563222F2269D2
:1069B0006E76657274223E3C76616C75653E00FFB2
:1069C0007374657000000000736F6C656E6F6964AE
:1069D00000FFFFFF737461636B206F766572666CF6
:1069E0006F772066726F6D207461736B3A20257328
:1069F0000A00000075765F68616C00FF25732C202B
:106A00006966207265766973696F6E2025752C2022
:106A10004275696C64206F6E2025730A00000000C7
:106A20000A25733A0A25730A0A0000004769766549
:106A3000206120636F6D6D616E64206E616D6520F5
:106A40006173206120737472696E6720617267756B
:106A50006D656E740A00000073617665640A00005B
:106A600072657665727465640A00000025730A42D7
:106A700075696C64206F6E2025730A3E000000006B
:106A8000222573220A0000001B5B324B0D3E0000E2
:106A90003E000000436F6D6D616E642027257327F3
:106AA000206E6F7420666F756E640A006F6E000052
:106AB00074727565000000003100000068656C703C
:106AC000000000004C6973747320616C6C20617667
:106AD00061696C61626C6520636F6D6D616E64737A
